{
	"contracts/Projects/SendMoneyExample.sol": {
		"SenWithdrawMoney": {
			"abi": [
				{
					"inputs": [],
					"name": "blanceReceived",
					"outputs": [
						{
							"internalType": "uint256",
							"name": "",
							"type": "uint256"
						}
					],
					"stateMutability": "view",
					"type": "function"
				},
				{
					"inputs": [],
					"name": "deposit",
					"outputs": [],
					"stateMutability": "payable",
					"type": "function"
				},
				{
					"inputs": [],
					"name": "getContractBalance",
					"outputs": [
						{
							"internalType": "uint256",
							"name": "",
							"type": "uint256"
						}
					],
					"stateMutability": "view",
					"type": "function"
				},
				{
					"inputs": [],
					"name": "withdrawAll",
					"outputs": [],
					"stateMutability": "nonpayable",
					"type": "function"
				},
				{
					"inputs": [
						{
							"internalType": "address payable",
							"name": "to",
							"type": "address"
						}
					],
					"name": "withdrawToAddress",
					"outputs": [],
					"stateMutability": "nonpayable",
					"type": "function"
				}
			],
			"devdoc": {
				"kind": "dev",
				"methods": {},
				"version": 1
			},
			"evm": {
				"assembly": "    /* \"contracts/Projects/SendMoneyExample.sol\":57:573  contract SenWithdrawMoney{\r... */\n  mstore(0x40, 0x80)\n  callvalue\n  dup1\n  iszero\n  tag_1\n  jumpi\n  0x00\n  dup1\n  revert\ntag_1:\n  pop\n  dataSize(sub_0)\n  dup1\n  dataOffset(sub_0)\n  0x00\n  codecopy\n  0x00\n  return\nstop\n\nsub_0: assembly {\n        /* \"contracts/Projects/SendMoneyExample.sol\":57:573  contract SenWithdrawMoney{\r... */\n      mstore(0x40, 0x80)\n      jumpi(tag_1, lt(calldatasize, 0x04))\n      shr(0xe0, calldataload(0x00))\n      dup1\n      0x0ed37fa7\n      eq\n      tag_2\n      jumpi\n      dup1\n      0x6f9fb98a\n      eq\n      tag_3\n      jumpi\n      dup1\n      0x853828b6\n      eq\n      tag_4\n      jumpi\n      dup1\n      0xa92bd72c\n      eq\n      tag_5\n      jumpi\n      dup1\n      0xd0e30db0\n      eq\n      tag_6\n      jumpi\n    tag_1:\n      0x00\n      dup1\n      revert\n        /* \"contracts/Projects/SendMoneyExample.sol\":89:116  uint public  blanceReceived */\n    tag_2:\n      callvalue\n      dup1\n      iszero\n      tag_7\n      jumpi\n      0x00\n      dup1\n      revert\n    tag_7:\n      pop\n      tag_8\n      tag_9\n      jump\t// in\n    tag_8:\n      mload(0x40)\n      tag_10\n      swap2\n      swap1\n      tag_11\n      jump\t// in\n    tag_10:\n      mload(0x40)\n      dup1\n      swap2\n      sub\n      swap1\n      return\n        /* \"contracts/Projects/SendMoneyExample.sol\":209:313  function getContractBalance() public view  returns(uint) {\r... */\n    tag_3:\n      callvalue\n      dup1\n      iszero\n      tag_12\n      jumpi\n      0x00\n      dup1\n      revert\n    tag_12:\n      pop\n      tag_13\n      tag_14\n      jump\t// in\n    tag_13:\n      mload(0x40)\n      tag_15\n      swap2\n      swap1\n      tag_11\n      jump\t// in\n    tag_15:\n      mload(0x40)\n      dup1\n      swap2\n      sub\n      swap1\n      return\n        /* \"contracts/Projects/SendMoneyExample.sol\":319:458  function withdrawAll() public {\r... */\n    tag_4:\n      callvalue\n      dup1\n      iszero\n      tag_16\n      jumpi\n      0x00\n      dup1\n      revert\n    tag_16:\n      pop\n      tag_17\n      tag_18\n      jump\t// in\n    tag_17:\n      stop\n        /* \"contracts/Projects/SendMoneyExample.sol\":464:570  function withdrawToAddress(address payable to) public {\r... */\n    tag_5:\n      callvalue\n      dup1\n      iszero\n      tag_19\n      jumpi\n      0x00\n      dup1\n      revert\n    tag_19:\n      pop\n      tag_20\n      0x04\n      dup1\n      calldatasize\n      sub\n      dup2\n      add\n      swap1\n      tag_21\n      swap2\n      swap1\n      tag_22\n      jump\t// in\n    tag_21:\n      tag_23\n      jump\t// in\n    tag_20:\n      stop\n        /* \"contracts/Projects/SendMoneyExample.sol\":123:203  function deposit() public payable {\r... */\n    tag_6:\n      tag_24\n      tag_25\n      jump\t// in\n    tag_24:\n      stop\n        /* \"contracts/Projects/SendMoneyExample.sol\":89:116  uint public  blanceReceived */\n    tag_9:\n      sload(0x00)\n      dup2\n      jump\t// out\n        /* \"contracts/Projects/SendMoneyExample.sol\":209:313  function getContractBalance() public view  returns(uint) {\r... */\n    tag_14:\n        /* \"contracts/Projects/SendMoneyExample.sol\":260:264  uint */\n      0x00\n        /* \"contracts/Projects/SendMoneyExample.sol\":284:305  address(this).balance */\n      selfbalance\n        /* \"contracts/Projects/SendMoneyExample.sol\":277:305  return address(this).balance */\n      swap1\n      pop\n        /* \"contracts/Projects/SendMoneyExample.sol\":209:313  function getContractBalance() public view  returns(uint) {\r... */\n      swap1\n      jump\t// out\n        /* \"contracts/Projects/SendMoneyExample.sol\":319:458  function withdrawAll() public {\r... */\n    tag_18:\n        /* \"contracts/Projects/SendMoneyExample.sol\":360:379  address payable  to */\n      0x00\n        /* \"contracts/Projects/SendMoneyExample.sol\":391:401  msg.sender */\n      caller\n        /* \"contracts/Projects/SendMoneyExample.sol\":360:402  address payable  to = payable (msg.sender) */\n      swap1\n      pop\n        /* \"contracts/Projects/SendMoneyExample.sol\":413:415  to */\n      dup1\n        /* \"contracts/Projects/SendMoneyExample.sol\":413:424  to.transfer */\n      0xffffffffffffffffffffffffffffffffffffffff\n      and\n        /* \"contracts/Projects/SendMoneyExample.sol\":413:448  to.transfer((getContractBalance())) */\n      0x08fc\n        /* \"contracts/Projects/SendMoneyExample.sol\":426:446  getContractBalance() */\n      tag_28\n        /* \"contracts/Projects/SendMoneyExample.sol\":426:444  getContractBalance */\n      tag_14\n        /* \"contracts/Projects/SendMoneyExample.sol\":426:446  getContractBalance() */\n      jump\t// in\n    tag_28:\n        /* \"contracts/Projects/SendMoneyExample.sol\":413:448  to.transfer((getContractBalance())) */\n      swap1\n      dup2\n      iszero\n      mul\n      swap1\n      mload(0x40)\n      0x00\n      mload(0x40)\n      dup1\n      dup4\n      sub\n      dup2\n      dup6\n      dup9\n      dup9\n      call\n      swap4\n      pop\n      pop\n      pop\n      pop\n      iszero\n      dup1\n      iszero\n      tag_30\n      jumpi\n      returndatasize\n      0x00\n      dup1\n      returndatacopy\n      revert(0x00, returndatasize)\n    tag_30:\n      pop\n        /* \"contracts/Projects/SendMoneyExample.sol\":319:458  function withdrawAll() public {\r... */\n      pop\n      jump\t// out\n        /* \"contracts/Projects/SendMoneyExample.sol\":464:570  function withdrawToAddress(address payable to) public {\r... */\n    tag_23:\n        /* \"contracts/Projects/SendMoneyExample.sol\":529:531  to */\n      dup1\n        /* \"contracts/Projects/SendMoneyExample.sol\":529:540  to.transfer */\n      0xffffffffffffffffffffffffffffffffffffffff\n      and\n        /* \"contracts/Projects/SendMoneyExample.sol\":529:562  to.transfer(getContractBalance()) */\n      0x08fc\n        /* \"contracts/Projects/SendMoneyExample.sol\":541:561  getContractBalance() */\n      tag_32\n        /* \"contracts/Projects/SendMoneyExample.sol\":541:559  getContractBalance */\n      tag_14\n        /* \"contracts/Projects/SendMoneyExample.sol\":541:561  getContractBalance() */\n      jump\t// in\n    tag_32:\n        /* \"contracts/Projects/SendMoneyExample.sol\":529:562  to.transfer(getContractBalance()) */\n      swap1\n      dup2\n      iszero\n      mul\n      swap1\n      mload(0x40)\n      0x00\n      mload(0x40)\n      dup1\n      dup4\n      sub\n      dup2\n      dup6\n      dup9\n      dup9\n      call\n      swap4\n      pop\n      pop\n      pop\n      pop\n      iszero\n      dup1\n      iszero\n      tag_34\n      jumpi\n      returndatasize\n      0x00\n      dup1\n      returndatacopy\n      revert(0x00, returndatasize)\n    tag_34:\n      pop\n        /* \"contracts/Projects/SendMoneyExample.sol\":464:570  function withdrawToAddress(address payable to) public {\r... */\n      pop\n      jump\t// out\n        /* \"contracts/Projects/SendMoneyExample.sol\":123:203  function deposit() public payable {\r... */\n    tag_25:\n        /* \"contracts/Projects/SendMoneyExample.sol\":186:195  msg.value */\n      callvalue\n        /* \"contracts/Projects/SendMoneyExample.sol\":168:182  blanceReceived */\n      0x00\n      dup1\n        /* \"contracts/Projects/SendMoneyExample.sol\":168:195  blanceReceived += msg.value */\n      dup3\n      dup3\n      sload\n      tag_36\n      swap2\n      swap1\n      tag_37\n      jump\t// in\n    tag_36:\n      swap3\n      pop\n      pop\n      dup2\n      swap1\n      sstore\n      pop\n        /* \"contracts/Projects/SendMoneyExample.sol\":123:203  function deposit() public payable {\r... */\n      jump\t// out\n        /* \"#utility.yul\":7:162   */\n    tag_39:\n        /* \"#utility.yul\":61:66   */\n      0x00\n        /* \"#utility.yul\":99:105   */\n      dup2\n        /* \"#utility.yul\":86:106   */\n      calldataload\n        /* \"#utility.yul\":77:106   */\n      swap1\n      pop\n        /* \"#utility.yul\":115:156   */\n      tag_41\n        /* \"#utility.yul\":150:155   */\n      dup2\n        /* \"#utility.yul\":115:156   */\n      tag_42\n      jump\t// in\n    tag_41:\n        /* \"#utility.yul\":67:162   */\n      swap3\n      swap2\n      pop\n      pop\n      jump\t// out\n        /* \"#utility.yul\":168:446   */\n    tag_22:\n        /* \"#utility.yul\":235:241   */\n      0x00\n        /* \"#utility.yul\":284:286   */\n      0x20\n        /* \"#utility.yul\":272:281   */\n      dup3\n        /* \"#utility.yul\":263:270   */\n      dup5\n        /* \"#utility.yul\":259:282   */\n      sub\n        /* \"#utility.yul\":255:287   */\n      slt\n        /* \"#utility.yul\":252:254   */\n      iszero\n      tag_44\n      jumpi\n        /* \"#utility.yul\":300:301   */\n      0x00\n        /* \"#utility.yul\":297:298   */\n      dup1\n        /* \"#utility.yul\":290:302   */\n      revert\n        /* \"#utility.yul\":252:254   */\n    tag_44:\n        /* \"#utility.yul\":343:344   */\n      0x00\n        /* \"#utility.yul\":368:429   */\n      tag_45\n        /* \"#utility.yul\":421:428   */\n      dup5\n        /* \"#utility.yul\":412:418   */\n      dup3\n        /* \"#utility.yul\":401:410   */\n      dup6\n        /* \"#utility.yul\":397:419   */\n      add\n        /* \"#utility.yul\":368:429   */\n      tag_39\n      jump\t// in\n    tag_45:\n        /* \"#utility.yul\":358:429   */\n      swap2\n      pop\n        /* \"#utility.yul\":314:439   */\n      pop\n        /* \"#utility.yul\":242:446   */\n      swap3\n      swap2\n      pop\n      pop\n      jump\t// out\n        /* \"#utility.yul\":452:570   */\n    tag_46:\n        /* \"#utility.yul\":539:563   */\n      tag_48\n        /* \"#utility.yul\":557:562   */\n      dup2\n        /* \"#utility.yul\":539:563   */\n      tag_49\n      jump\t// in\n    tag_48:\n        /* \"#utility.yul\":534:537   */\n      dup3\n        /* \"#utility.yul\":527:564   */\n      mstore\n        /* \"#utility.yul\":517:570   */\n      pop\n      pop\n      jump\t// out\n        /* \"#utility.yul\":576:798   */\n    tag_11:\n        /* \"#utility.yul\":669:673   */\n      0x00\n        /* \"#utility.yul\":707:709   */\n      0x20\n        /* \"#utility.yul\":696:705   */\n      dup3\n        /* \"#utility.yul\":692:710   */\n      add\n        /* \"#utility.yul\":684:710   */\n      swap1\n      pop\n        /* \"#utility.yul\":720:791   */\n      tag_51\n        /* \"#utility.yul\":788:789   */\n      0x00\n        /* \"#utility.yul\":777:786   */\n      dup4\n        /* \"#utility.yul\":773:790   */\n      add\n        /* \"#utility.yul\":764:770   */\n      dup5\n        /* \"#utility.yul\":720:791   */\n      tag_46\n      jump\t// in\n    tag_51:\n        /* \"#utility.yul\":674:798   */\n      swap3\n      swap2\n      pop\n      pop\n      jump\t// out\n        /* \"#utility.yul\":804:1109   */\n    tag_37:\n        /* \"#utility.yul\":844:847   */\n      0x00\n        /* \"#utility.yul\":863:883   */\n      tag_53\n        /* \"#utility.yul\":881:882   */\n      dup3\n        /* \"#utility.yul\":863:883   */\n      tag_49\n      jump\t// in\n    tag_53:\n        /* \"#utility.yul\":858:883   */\n      swap2\n      pop\n        /* \"#utility.yul\":897:917   */\n      tag_54\n        /* \"#utility.yul\":915:916   */\n      dup4\n        /* \"#utility.yul\":897:917   */\n      tag_49\n      jump\t// in\n    tag_54:\n        /* \"#utility.yul\":892:917   */\n      swap3\n      pop\n        /* \"#utility.yul\":1051:1052   */\n      dup3\n        /* \"#utility.yul\":983:1049   */\n      0xffffffffffffffffffffffffffffffffffffffffffffffffffffffffffffffff\n        /* \"#utility.yul\":979:1053   */\n      sub\n        /* \"#utility.yul\":976:977   */\n      dup3\n        /* \"#utility.yul\":973:1054   */\n      gt\n        /* \"#utility.yul\":970:972   */\n      iszero\n      tag_55\n      jumpi\n        /* \"#utility.yul\":1057:1075   */\n      tag_56\n      tag_57\n      jump\t// in\n    tag_56:\n        /* \"#utility.yul\":970:972   */\n    tag_55:\n        /* \"#utility.yul\":1101:1102   */\n      dup3\n        /* \"#utility.yul\":1098:1099   */\n      dup3\n        /* \"#utility.yul\":1094:1103   */\n      add\n        /* \"#utility.yul\":1087:1103   */\n      swap1\n      pop\n        /* \"#utility.yul\":848:1109   */\n      swap3\n      swap2\n      pop\n      pop\n      jump\t// out\n        /* \"#utility.yul\":1115:1219   */\n    tag_58:\n        /* \"#utility.yul\":1160:1167   */\n      0x00\n        /* \"#utility.yul\":1189:1213   */\n      tag_60\n        /* \"#utility.yul\":1207:1212   */\n      dup3\n        /* \"#utility.yul\":1189:1213   */\n      tag_61\n      jump\t// in\n    tag_60:\n        /* \"#utility.yul\":1178:1213   */\n      swap1\n      pop\n        /* \"#utility.yul\":1168:1219   */\n      swap2\n      swap1\n      pop\n      jump\t// out\n        /* \"#utility.yul\":1225:1351   */\n    tag_61:\n        /* \"#utility.yul\":1262:1269   */\n      0x00\n        /* \"#utility.yul\":1302:1344   */\n      0xffffffffffffffffffffffffffffffffffffffff\n        /* \"#utility.yul\":1295:1300   */\n      dup3\n        /* \"#utility.yul\":1291:1345   */\n      and\n        /* \"#utility.yul\":1280:1345   */\n      swap1\n      pop\n        /* \"#utility.yul\":1270:1351   */\n      swap2\n      swap1\n      pop\n      jump\t// out\n        /* \"#utility.yul\":1357:1434   */\n    tag_49:\n        /* \"#utility.yul\":1394:1401   */\n      0x00\n        /* \"#utility.yul\":1423:1428   */\n      dup2\n        /* \"#utility.yul\":1412:1428   */\n      swap1\n      pop\n        /* \"#utility.yul\":1402:1434   */\n      swap2\n      swap1\n      pop\n      jump\t// out\n        /* \"#utility.yul\":1440:1620   */\n    tag_57:\n        /* \"#utility.yul\":1488:1565   */\n      0x4e487b7100000000000000000000000000000000000000000000000000000000\n        /* \"#utility.yul\":1485:1486   */\n      0x00\n        /* \"#utility.yul\":1478:1566   */\n      mstore\n        /* \"#utility.yul\":1585:1589   */\n      0x11\n        /* \"#utility.yul\":1582:1583   */\n      0x04\n        /* \"#utility.yul\":1575:1590   */\n      mstore\n        /* \"#utility.yul\":1609:1613   */\n      0x24\n        /* \"#utility.yul\":1606:1607   */\n      0x00\n        /* \"#utility.yul\":1599:1614   */\n      revert\n        /* \"#utility.yul\":1626:1764   */\n    tag_42:\n        /* \"#utility.yul\":1707:1739   */\n      tag_66\n        /* \"#utility.yul\":1733:1738   */\n      dup2\n        /* \"#utility.yul\":1707:1739   */\n      tag_58\n      jump\t// in\n    tag_66:\n        /* \"#utility.yul\":1700:1705   */\n      dup2\n        /* \"#utility.yul\":1697:1740   */\n      eq\n        /* \"#utility.yul\":1687:1689   */\n      tag_67\n      jumpi\n        /* \"#utility.yul\":1754:1755   */\n      0x00\n        /* \"#utility.yul\":1751:1752   */\n      dup1\n        /* \"#utility.yul\":1744:1756   */\n      revert\n        /* \"#utility.yul\":1687:1689   */\n    tag_67:\n        /* \"#utility.yul\":1677:1764   */\n      pop\n      jump\t// out\n\n    auxdata: 0xa26469706673582212204097b111e8c8e3c9fb562c8148e565a02e24b7bbacb2054d51b4fb682ce9680264736f6c63430008040033\n}\n",
				"bytecode": {
					"linkReferences": {},
					"object": "608060405234801561001057600080fd5b50610334806100206000396000f3fe60806040526004361061004a5760003560e01c80630ed37fa71461004f5780636f9fb98a1461007a578063853828b6146100a5578063a92bd72c146100bc578063d0e30db0146100e5575b600080fd5b34801561005b57600080fd5b506100646100ef565b604051610071919061020b565b60405180910390f35b34801561008657600080fd5b5061008f6100f5565b60405161009c919061020b565b60405180910390f35b3480156100b157600080fd5b506100ba6100fd565b005b3480156100c857600080fd5b506100e360048036038101906100de91906101d3565b610153565b005b6100ed6101a4565b005b60005481565b600047905090565b60003390508073ffffffffffffffffffffffffffffffffffffffff166108fc6101246100f5565b9081150290604051600060405180830381858888f1935050505015801561014f573d6000803e3d6000fd5b5050565b8073ffffffffffffffffffffffffffffffffffffffff166108fc6101756100f5565b9081150290604051600060405180830381858888f193505050501580156101a0573d6000803e3d6000fd5b5050565b346000808282546101b59190610226565b92505081905550565b6000813590506101cd816102e7565b92915050565b6000602082840312156101e557600080fd5b60006101f3848285016101be565b91505092915050565b610205816102ae565b82525050565b600060208201905061022060008301846101fc565b92915050565b6000610231826102ae565b915061023c836102ae565b9250827fffffffffffffffffffffffffffffffffffffffffffffffffffffffffffffffff03821115610271576102706102b8565b5b828201905092915050565b60006102878261028e565b9050919050565b600073ffffffffffffffffffffffffffffffffffffffff82169050919050565b6000819050919050565b7f4e487b7100000000000000000000000000000000000000000000000000000000600052601160045260246000fd5b6102f08161027c565b81146102fb57600080fd5b5056fea26469706673582212204097b111e8c8e3c9fb562c8148e565a02e24b7bbacb2054d51b4fb682ce9680264736f6c63430008040033",
					"opcodes": "PUSH1 0x80 PUSH1 0x40 MSTORE CALLVALUE DUP1 ISZERO PUSH2 0x10 JUMPI PUSH1 0x0 DUP1 REVERT JUMPDEST POP PUSH2 0x334 DUP1 PUSH2 0x20 PUSH1 0x0 CODECOPY PUSH1 0x0 RETURN INVALID PUSH1 0x80 PUSH1 0x40 MSTORE PUSH1 0x4 CALLDATASIZE LT PUSH2 0x4A JUMPI PUSH1 0x0 CALLDATALOAD PUSH1 0xE0 SHR DUP1 PUSH4 0xED37FA7 EQ PUSH2 0x4F JUMPI DUP1 PUSH4 0x6F9FB98A EQ PUSH2 0x7A JUMPI DUP1 PUSH4 0x853828B6 EQ PUSH2 0xA5 JUMPI DUP1 PUSH4 0xA92BD72C EQ PUSH2 0xBC JUMPI DUP1 PUSH4 0xD0E30DB0 EQ PUSH2 0xE5 JUMPI JUMPDEST PUSH1 0x0 DUP1 REVERT JUMPDEST CALLVALUE DUP1 ISZERO PUSH2 0x5B JUMPI PUSH1 0x0 DUP1 REVERT JUMPDEST POP PUSH2 0x64 PUSH2 0xEF JUMP JUMPDEST PUSH1 0x40 MLOAD PUSH2 0x71 SWAP2 SWAP1 PUSH2 0x20B JUMP JUMPDEST PUSH1 0x40 MLOAD DUP1 SWAP2 SUB SWAP1 RETURN JUMPDEST CALLVALUE DUP1 ISZERO PUSH2 0x86 JUMPI PUSH1 0x0 DUP1 REVERT JUMPDEST POP PUSH2 0x8F PUSH2 0xF5 JUMP JUMPDEST PUSH1 0x40 MLOAD PUSH2 0x9C SWAP2 SWAP1 PUSH2 0x20B JUMP JUMPDEST PUSH1 0x40 MLOAD DUP1 SWAP2 SUB SWAP1 RETURN JUMPDEST CALLVALUE DUP1 ISZERO PUSH2 0xB1 JUMPI PUSH1 0x0 DUP1 REVERT JUMPDEST POP PUSH2 0xBA PUSH2 0xFD JUMP JUMPDEST STOP JUMPDEST CALLVALUE DUP1 ISZERO PUSH2 0xC8 JUMPI PUSH1 0x0 DUP1 REVERT JUMPDEST POP PUSH2 0xE3 PUSH1 0x4 DUP1 CALLDATASIZE SUB DUP2 ADD SWAP1 PUSH2 0xDE SWAP2 SWAP1 PUSH2 0x1D3 JUMP JUMPDEST PUSH2 0x153 JUMP JUMPDEST STOP JUMPDEST PUSH2 0xED PUSH2 0x1A4 JUMP JUMPDEST STOP JUMPDEST PUSH1 0x0 SLOAD DUP2 JUMP JUMPDEST PUSH1 0x0 SELFBALANCE SWAP1 POP SWAP1 JUMP JUMPDEST PUSH1 0x0 CALLER SWAP1 POP DUP1 PUSH20 0xFFFFFFFFFFFFFFFFFFFFFFFFFFFFFFFFFFFFFFFF AND PUSH2 0x8FC PUSH2 0x124 PUSH2 0xF5 JUMP JUMPDEST SWAP1 DUP2 ISZERO MUL SWAP1 PUSH1 0x40 MLOAD PUSH1 0x0 PUSH1 0x40 MLOAD DUP1 DUP4 SUB DUP2 DUP6 DUP9 DUP9 CALL SWAP4 POP POP POP POP ISZERO DUP1 ISZERO PUSH2 0x14F JUMPI RETURNDATASIZE PUSH1 0x0 DUP1 RETURNDATACOPY RETURNDATASIZE PUSH1 0x0 REVERT JUMPDEST POP POP JUMP JUMPDEST DUP1 PUSH20 0xFFFFFFFFFFFFFFFFFFFFFFFFFFFFFFFFFFFFFFFF AND PUSH2 0x8FC PUSH2 0x175 PUSH2 0xF5 JUMP JUMPDEST SWAP1 DUP2 ISZERO MUL SWAP1 PUSH1 0x40 MLOAD PUSH1 0x0 PUSH1 0x40 MLOAD DUP1 DUP4 SUB DUP2 DUP6 DUP9 DUP9 CALL SWAP4 POP POP POP POP ISZERO DUP1 ISZERO PUSH2 0x1A0 JUMPI RETURNDATASIZE PUSH1 0x0 DUP1 RETURNDATACOPY RETURNDATASIZE PUSH1 0x0 REVERT JUMPDEST POP POP JUMP JUMPDEST CALLVALUE PUSH1 0x0 DUP1 DUP3 DUP3 SLOAD PUSH2 0x1B5 SWAP2 SWAP1 PUSH2 0x226 JUMP JUMPDEST SWAP3 POP POP DUP2 SWAP1 SSTORE POP JUMP JUMPDEST PUSH1 0x0 DUP2 CALLDATALOAD SWAP1 POP PUSH2 0x1CD DUP2 PUSH2 0x2E7 JUMP JUMPDEST SWAP3 SWAP2 POP POP JUMP JUMPDEST PUSH1 0x0 PUSH1 0x20 DUP3 DUP5 SUB SLT ISZERO PUSH2 0x1E5 JUMPI PUSH1 0x0 DUP1 REVERT JUMPDEST PUSH1 0x0 PUSH2 0x1F3 DUP5 DUP3 DUP6 ADD PUSH2 0x1BE JUMP JUMPDEST SWAP2 POP POP SWAP3 SWAP2 POP POP JUMP JUMPDEST PUSH2 0x205 DUP2 PUSH2 0x2AE JUMP JUMPDEST DUP3 MSTORE POP POP JUMP JUMPDEST PUSH1 0x0 PUSH1 0x20 DUP3 ADD SWAP1 POP PUSH2 0x220 PUSH1 0x0 DUP4 ADD DUP5 PUSH2 0x1FC JUMP JUMPDEST SWAP3 SWAP2 POP POP JUMP JUMPDEST PUSH1 0x0 PUSH2 0x231 DUP3 PUSH2 0x2AE JUMP JUMPDEST SWAP2 POP PUSH2 0x23C DUP4 PUSH2 0x2AE JUMP JUMPDEST SWAP3 POP DUP3 PUSH32 0xFFFFFFFFFFFFFFFFFFFFFFFFFFFFFFFFFFFFFFFFFFFFFFFFFFFFFFFFFFFFFFFF SUB DUP3 GT ISZERO PUSH2 0x271 JUMPI PUSH2 0x270 PUSH2 0x2B8 JUMP JUMPDEST JUMPDEST DUP3 DUP3 ADD SWAP1 POP SWAP3 SWAP2 POP POP JUMP JUMPDEST PUSH1 0x0 PUSH2 0x287 DUP3 PUSH2 0x28E JUMP JUMPDEST SWAP1 POP SWAP2 SWAP1 POP JUMP JUMPDEST PUSH1 0x0 PUSH20 0xFFFFFFFFFFFFFFFFFFFFFFFFFFFFFFFFFFFFFFFF DUP3 AND SWAP1 POP SWAP2 SWAP1 POP JUMP JUMPDEST PUSH1 0x0 DUP2 SWAP1 POP SWAP2 SWAP1 POP JUMP JUMPDEST PUSH32 0x4E487B7100000000000000000000000000000000000000000000000000000000 PUSH1 0x0 MSTORE PUSH1 0x11 PUSH1 0x4 MSTORE PUSH1 0x24 PUSH1 0x0 REVERT JUMPDEST PUSH2 0x2F0 DUP2 PUSH2 0x27C JUMP JUMPDEST DUP2 EQ PUSH2 0x2FB JUMPI PUSH1 0x0 DUP1 REVERT JUMPDEST POP JUMP INVALID LOG2 PUSH5 0x6970667358 0x22 SLT KECCAK256 BLOCKHASH SWAP8 0xB1 GT 0xE8 0xC8 0xE3 0xC9 0xFB JUMP 0x2C DUP2 0x48 0xE5 PUSH6 0xA02E24B7BBAC 0xB2 SDIV 0x4D MLOAD 0xB4 0xFB PUSH9 0x2CE9680264736F6C63 NUMBER STOP ADDMOD DIV STOP CALLER "
				},
				"gasEstimates": {
					"creation": {
						"codeDepositCost": "164000",
						"executionCost": "208",
						"totalCost": "164208"
					},
					"external": {
						"blanceReceived()": "1107",
						"deposit()": "infinite",
						"getContractBalance()": "339",
						"withdrawAll()": "infinite",
						"withdrawToAddress(address)": "infinite"
					}
				},
				"methodIdentifiers": {
					"blanceReceived()": "0ed37fa7",
					"deposit()": "d0e30db0",
					"getContractBalance()": "6f9fb98a",
					"withdrawAll()": "853828b6",
					"withdrawToAddress(address)": "a92bd72c"
				}
			},
			"storageLayout": {
				"storage": [
					{
						"astId": 3,
						"contract": "contracts/Projects/SendMoneyExample.sol:SenWithdrawMoney",
						"label": "blanceReceived",
						"offset": 0,
						"slot": "0",
						"type": "t_uint256"
					}
				],
				"types": {
					"t_uint256": {
						"encoding": "inplace",
						"label": "uint256",
						"numberOfBytes": "32"
					}
				}
			},
			"userdoc": {
				"kind": "user",
				"methods": {},
				"version": 1
			}
		}
	}
}