{
	"contracts/Study/ExampleString.sol": {
		"ExampleStrings": {
			"abi": [
				{
					"inputs": [
						{
							"internalType": "string",
							"name": "_myString",
							"type": "string"
						}
					],
					"name": "compareTwoStrings",
					"outputs": [
						{
							"internalType": "bool",
							"name": "",
							"type": "bool"
						}
					],
					"stateMutability": "view",
					"type": "function"
				},
				{
					"inputs": [],
					"name": "myBytes",
					"outputs": [
						{
							"internalType": "bytes",
							"name": "",
							"type": "bytes"
						}
					],
					"stateMutability": "view",
					"type": "function"
				},
				{
					"inputs": [],
					"name": "myString",
					"outputs": [
						{
							"internalType": "string",
							"name": "",
							"type": "string"
						}
					],
					"stateMutability": "view",
					"type": "function"
				},
				{
					"inputs": [
						{
							"internalType": "string",
							"name": "_myString",
							"type": "string"
						}
					],
					"name": "setMyStrings",
					"outputs": [],
					"stateMutability": "nonpayable",
					"type": "function"
				}
			],
			"devdoc": {
				"kind": "dev",
				"methods": {},
				"version": 1
			},
			"evm": {
				"assembly": "    /* \"contracts/Study/ExampleString.sol\":57:1077  contract ExampleStrings{\r... */\n  mstore(0x40, 0x80)\n    /* \"contracts/Study/ExampleString.sol\":87:127  string public  myString = \"Hello World!\" */\n  mload(0x40)\n  dup1\n  0x40\n  add\n  0x40\n  mstore\n  dup1\n  0x0c\n  dup2\n  mstore\n  0x20\n  add\n  0x48656c6c6f20576f726c64210000000000000000000000000000000000000000\n  dup2\n  mstore\n  pop\n  0x00\n  swap1\n  dup1\n  mload\n  swap1\n  0x20\n  add\n  swap1\n  tag_1\n  swap3\n  swap2\n  swap1\n  tag_2\n  jump\t// in\ntag_1:\n  pop\n    /* \"contracts/Study/ExampleString.sol\":134:171  bytes public myBytes = \"Hello world!\" */\n  mload(0x40)\n  dup1\n  0x40\n  add\n  0x40\n  mstore\n  dup1\n  0x0c\n  dup2\n  mstore\n  0x20\n  add\n  0x48656c6c6f20776f726c64210000000000000000000000000000000000000000\n  dup2\n  mstore\n  pop\n  0x01\n  swap1\n  dup1\n  mload\n  swap1\n  0x20\n  add\n  swap1\n  tag_3\n  swap3\n  swap2\n  swap1\n  tag_4\n  jump\t// in\ntag_3:\n  pop\n    /* \"contracts/Study/ExampleString.sol\":57:1077  contract ExampleStrings{\r... */\n  callvalue\n  dup1\n  iszero\n  tag_5\n  jumpi\n  0x00\n  dup1\n  revert\ntag_5:\n  pop\n  jump(tag_6)\ntag_2:\n  dup3\n  dup1\n  sload\n  tag_7\n  swap1\n  tag_8\n  jump\t// in\ntag_7:\n  swap1\n  0x00\n  mstore\n  keccak256(0x00, 0x20)\n  swap1\n  0x1f\n  add\n  0x20\n  swap1\n  div\n  dup2\n  add\n  swap3\n  dup3\n  tag_10\n  jumpi\n  0x00\n  dup6\n  sstore\n  jump(tag_9)\ntag_10:\n  dup3\n  0x1f\n  lt\n  tag_11\n  jumpi\n  dup1\n  mload\n  not(0xff)\n  and\n  dup4\n  dup1\n  add\n  or\n  dup6\n  sstore\n  jump(tag_9)\ntag_11:\n  dup3\n  dup1\n  add\n  0x01\n  add\n  dup6\n  sstore\n  dup3\n  iszero\n  tag_9\n  jumpi\n  swap2\n  dup3\n  add\ntag_12:\n  dup3\n  dup2\n  gt\n  iszero\n  tag_13\n  jumpi\n  dup3\n  mload\n  dup3\n  sstore\n  swap2\n  0x20\n  add\n  swap2\n  swap1\n  0x01\n  add\n  swap1\n  jump(tag_12)\ntag_13:\ntag_9:\n  pop\n  swap1\n  pop\n  tag_14\n  swap2\n  swap1\n  tag_15\n  jump\t// in\ntag_14:\n  pop\n  swap1\n  jump\t// out\ntag_4:\n  dup3\n  dup1\n  sload\n  tag_16\n  swap1\n  tag_8\n  jump\t// in\ntag_16:\n  swap1\n  0x00\n  mstore\n  keccak256(0x00, 0x20)\n  swap1\n  0x1f\n  add\n  0x20\n  swap1\n  div\n  dup2\n  add\n  swap3\n  dup3\n  tag_18\n  jumpi\n  0x00\n  dup6\n  sstore\n  jump(tag_17)\ntag_18:\n  dup3\n  0x1f\n  lt\n  tag_19\n  jumpi\n  dup1\n  mload\n  not(0xff)\n  and\n  dup4\n  dup1\n  add\n  or\n  dup6\n  sstore\n  jump(tag_17)\ntag_19:\n  dup3\n  dup1\n  add\n  0x01\n  add\n  dup6\n  sstore\n  dup3\n  iszero\n  tag_17\n  jumpi\n  swap2\n  dup3\n  add\ntag_20:\n  dup3\n  dup2\n  gt\n  iszero\n  tag_21\n  jumpi\n  dup3\n  mload\n  dup3\n  sstore\n  swap2\n  0x20\n  add\n  swap2\n  swap1\n  0x01\n  add\n  swap1\n  jump(tag_20)\ntag_21:\ntag_17:\n  pop\n  swap1\n  pop\n  tag_22\n  swap2\n  swap1\n  tag_15\n  jump\t// in\ntag_22:\n  pop\n  swap1\n  jump\t// out\ntag_15:\ntag_23:\n  dup1\n  dup3\n  gt\n  iszero\n  tag_24\n  jumpi\n  0x00\n  dup2\n  0x00\n  swap1\n  sstore\n  pop\n  0x01\n  add\n  jump(tag_23)\ntag_24:\n  pop\n  swap1\n  jump\t// out\n    /* \"#utility.yul\":7:327   */\ntag_8:\n    /* \"#utility.yul\":51:57   */\n  0x00\n    /* \"#utility.yul\":88:89   */\n  0x02\n    /* \"#utility.yul\":82:86   */\n  dup3\n    /* \"#utility.yul\":78:90   */\n  div\n    /* \"#utility.yul\":68:90   */\n  swap1\n  pop\n    /* \"#utility.yul\":135:136   */\n  0x01\n    /* \"#utility.yul\":129:133   */\n  dup3\n    /* \"#utility.yul\":125:137   */\n  and\n    /* \"#utility.yul\":156:174   */\n  dup1\n    /* \"#utility.yul\":146:148   */\n  tag_27\n  jumpi\n    /* \"#utility.yul\":212:216   */\n  0x7f\n    /* \"#utility.yul\":204:210   */\n  dup3\n    /* \"#utility.yul\":200:217   */\n  and\n    /* \"#utility.yul\":190:217   */\n  swap2\n  pop\n    /* \"#utility.yul\":146:148   */\ntag_27:\n    /* \"#utility.yul\":274:276   */\n  0x20\n    /* \"#utility.yul\":266:272   */\n  dup3\n    /* \"#utility.yul\":263:277   */\n  lt\n    /* \"#utility.yul\":243:261   */\n  dup2\n    /* \"#utility.yul\":240:278   */\n  eq\n    /* \"#utility.yul\":237:239   */\n  iszero\n  tag_28\n  jumpi\n    /* \"#utility.yul\":293:311   */\n  tag_29\n  tag_30\n  jump\t// in\ntag_29:\n    /* \"#utility.yul\":237:239   */\ntag_28:\n    /* \"#utility.yul\":58:327   */\n  pop\n  swap2\n  swap1\n  pop\n  jump\t// out\n    /* \"#utility.yul\":333:513   */\ntag_30:\n    /* \"#utility.yul\":381:458   */\n  0x4e487b7100000000000000000000000000000000000000000000000000000000\n    /* \"#utility.yul\":378:379   */\n  0x00\n    /* \"#utility.yul\":371:459   */\n  mstore\n    /* \"#utility.yul\":478:482   */\n  0x22\n    /* \"#utility.yul\":475:476   */\n  0x04\n    /* \"#utility.yul\":468:483   */\n  mstore\n    /* \"#utility.yul\":502:506   */\n  0x24\n    /* \"#utility.yul\":499:500   */\n  0x00\n    /* \"#utility.yul\":492:507   */\n  revert\n    /* \"contracts/Study/ExampleString.sol\":57:1077  contract ExampleStrings{\r... */\ntag_6:\n  dataSize(sub_0)\n  dup1\n  dataOffset(sub_0)\n  0x00\n  codecopy\n  0x00\n  return\nstop\n\nsub_0: assembly {\n        /* \"contracts/Study/ExampleString.sol\":57:1077  contract ExampleStrings{\r... */\n      mstore(0x40, 0x80)\n      callvalue\n      dup1\n      iszero\n      tag_1\n      jumpi\n      0x00\n      dup1\n      revert\n    tag_1:\n      pop\n      jumpi(tag_2, lt(calldatasize, 0x04))\n      shr(0xe0, calldataload(0x00))\n      dup1\n      0x1a965b82\n      eq\n      tag_3\n      jumpi\n      dup1\n      0x492bfa18\n      eq\n      tag_4\n      jumpi\n      dup1\n      0x5ce25353\n      eq\n      tag_5\n      jumpi\n      dup1\n      0x712f4602\n      eq\n      tag_6\n      jumpi\n    tag_2:\n      0x00\n      dup1\n      revert\n        /* \"contracts/Study/ExampleString.sol\":625:793  function setMyStrings(string memory _myString) public {//memory là lưu trữ tạm thời, cho đến khi giao dịch kết thúc\r... */\n    tag_3:\n      tag_7\n      0x04\n      dup1\n      calldatasize\n      sub\n      dup2\n      add\n      swap1\n      tag_8\n      swap2\n      swap1\n      tag_9\n      jump\t// in\n    tag_8:\n      tag_10\n      jump\t// in\n    tag_7:\n      stop\n        /* \"contracts/Study/ExampleString.sol\":87:127  string public  myString = \"Hello World!\" */\n    tag_4:\n      tag_11\n      tag_12\n      jump\t// in\n    tag_11:\n      mload(0x40)\n      tag_13\n      swap2\n      swap1\n      tag_14\n      jump\t// in\n    tag_13:\n      mload(0x40)\n      dup1\n      swap2\n      sub\n      swap1\n      return\n        /* \"contracts/Study/ExampleString.sol\":799:1074  function compareTwoStrings(string memory _myString) public view returns(bool) {\r... */\n    tag_5:\n      tag_15\n      0x04\n      dup1\n      calldatasize\n      sub\n      dup2\n      add\n      swap1\n      tag_16\n      swap2\n      swap1\n      tag_9\n      jump\t// in\n    tag_16:\n      tag_17\n      jump\t// in\n    tag_15:\n      mload(0x40)\n      tag_18\n      swap2\n      swap1\n      tag_19\n      jump\t// in\n    tag_18:\n      mload(0x40)\n      dup1\n      swap2\n      sub\n      swap1\n      return\n        /* \"contracts/Study/ExampleString.sol\":134:171  bytes public myBytes = \"Hello world!\" */\n    tag_6:\n      tag_20\n      tag_21\n      jump\t// in\n    tag_20:\n      mload(0x40)\n      tag_22\n      swap2\n      swap1\n      tag_23\n      jump\t// in\n    tag_22:\n      mload(0x40)\n      dup1\n      swap2\n      sub\n      swap1\n      return\n        /* \"contracts/Study/ExampleString.sol\":625:793  function setMyStrings(string memory _myString) public {//memory là lưu trữ tạm thời, cho đến khi giao dịch kết thúc\r... */\n    tag_10:\n        /* \"contracts/Study/ExampleString.sol\":776:785  _myString */\n      dup1\n        /* \"contracts/Study/ExampleString.sol\":766:774  myString */\n      0x00\n        /* \"contracts/Study/ExampleString.sol\":766:785  myString =_myString */\n      swap1\n      dup1\n      mload\n      swap1\n      0x20\n      add\n      swap1\n      tag_25\n      swap3\n      swap2\n      swap1\n      tag_26\n      jump\t// in\n    tag_25:\n      pop\n        /* \"contracts/Study/ExampleString.sol\":625:793  function setMyStrings(string memory _myString) public {//memory là lưu trữ tạm thời, cho đến khi giao dịch kết thúc\r... */\n      pop\n      jump\t// out\n        /* \"contracts/Study/ExampleString.sol\":87:127  string public  myString = \"Hello World!\" */\n    tag_12:\n      0x00\n      dup1\n      sload\n      tag_27\n      swap1\n      tag_28\n      jump\t// in\n    tag_27:\n      dup1\n      0x1f\n      add\n      0x20\n      dup1\n      swap2\n      div\n      mul\n      0x20\n      add\n      mload(0x40)\n      swap1\n      dup2\n      add\n      0x40\n      mstore\n      dup1\n      swap3\n      swap2\n      swap1\n      dup2\n      dup2\n      mstore\n      0x20\n      add\n      dup3\n      dup1\n      sload\n      tag_29\n      swap1\n      tag_28\n      jump\t// in\n    tag_29:\n      dup1\n      iszero\n      tag_30\n      jumpi\n      dup1\n      0x1f\n      lt\n      tag_31\n      jumpi\n      0x0100\n      dup1\n      dup4\n      sload\n      div\n      mul\n      dup4\n      mstore\n      swap2\n      0x20\n      add\n      swap2\n      jump(tag_30)\n    tag_31:\n      dup3\n      add\n      swap2\n      swap1\n      0x00\n      mstore\n      keccak256(0x00, 0x20)\n      swap1\n    tag_32:\n      dup2\n      sload\n      dup2\n      mstore\n      swap1\n      0x01\n      add\n      swap1\n      0x20\n      add\n      dup1\n      dup4\n      gt\n      tag_32\n      jumpi\n      dup3\n      swap1\n      sub\n      0x1f\n      and\n      dup3\n      add\n      swap2\n    tag_30:\n      pop\n      pop\n      pop\n      pop\n      pop\n      dup2\n      jump\t// out\n        /* \"contracts/Study/ExampleString.sol\":799:1074  function compareTwoStrings(string memory _myString) public view returns(bool) {\r... */\n    tag_17:\n        /* \"contracts/Study/ExampleString.sol\":871:875  bool */\n      0x00\n        /* \"contracts/Study/ExampleString.sol\":963:972  _myString */\n      dup2\n        /* \"contracts/Study/ExampleString.sol\":946:973  abi.encodePacked(_myString) */\n      add(0x20, mload(0x40))\n      tag_34\n      swap2\n      swap1\n      tag_35\n      jump\t// in\n    tag_34:\n      mload(0x40)\n      0x20\n      dup2\n      dup4\n      sub\n      sub\n      dup2\n      mstore\n      swap1\n      0x40\n      mstore\n        /* \"contracts/Study/ExampleString.sol\":936:974  keccak256(abi.encodePacked(_myString)) */\n      dup1\n      mload\n      swap1\n      0x20\n      add\n      keccak256\n        /* \"contracts/Study/ExampleString.sol\":922:930  myString */\n      0x00\n        /* \"contracts/Study/ExampleString.sol\":905:931  abi.encodePacked(myString) */\n      add(0x20, mload(0x40))\n      tag_36\n      swap2\n      swap1\n      tag_37\n      jump\t// in\n    tag_36:\n      mload(0x40)\n      0x20\n      dup2\n      dup4\n      sub\n      sub\n      dup2\n      mstore\n      swap1\n      0x40\n      mstore\n        /* \"contracts/Study/ExampleString.sol\":895:932  keccak256(abi.encodePacked(myString)) */\n      dup1\n      mload\n      swap1\n      0x20\n      add\n      keccak256\n        /* \"contracts/Study/ExampleString.sol\":895:974  keccak256(abi.encodePacked(myString)) == keccak256(abi.encodePacked(_myString)) */\n      eq\n        /* \"contracts/Study/ExampleString.sol\":888:974  return keccak256(abi.encodePacked(myString)) == keccak256(abi.encodePacked(_myString)) */\n      swap1\n      pop\n        /* \"contracts/Study/ExampleString.sol\":799:1074  function compareTwoStrings(string memory _myString) public view returns(bool) {\r... */\n      swap2\n      swap1\n      pop\n      jump\t// out\n        /* \"contracts/Study/ExampleString.sol\":134:171  bytes public myBytes = \"Hello world!\" */\n    tag_21:\n      0x01\n      dup1\n      sload\n      tag_38\n      swap1\n      tag_28\n      jump\t// in\n    tag_38:\n      dup1\n      0x1f\n      add\n      0x20\n      dup1\n      swap2\n      div\n      mul\n      0x20\n      add\n      mload(0x40)\n      swap1\n      dup2\n      add\n      0x40\n      mstore\n      dup1\n      swap3\n      swap2\n      swap1\n      dup2\n      dup2\n      mstore\n      0x20\n      add\n      dup3\n      dup1\n      sload\n      tag_39\n      swap1\n      tag_28\n      jump\t// in\n    tag_39:\n      dup1\n      iszero\n      tag_40\n      jumpi\n      dup1\n      0x1f\n      lt\n      tag_41\n      jumpi\n      0x0100\n      dup1\n      dup4\n      sload\n      div\n      mul\n      dup4\n      mstore\n      swap2\n      0x20\n      add\n      swap2\n      jump(tag_40)\n    tag_41:\n      dup3\n      add\n      swap2\n      swap1\n      0x00\n      mstore\n      keccak256(0x00, 0x20)\n      swap1\n    tag_42:\n      dup2\n      sload\n      dup2\n      mstore\n      swap1\n      0x01\n      add\n      swap1\n      0x20\n      add\n      dup1\n      dup4\n      gt\n      tag_42\n      jumpi\n      dup3\n      swap1\n      sub\n      0x1f\n      and\n      dup3\n      add\n      swap2\n    tag_40:\n      pop\n      pop\n      pop\n      pop\n      pop\n      dup2\n      jump\t// out\n    tag_26:\n      dup3\n      dup1\n      sload\n      tag_43\n      swap1\n      tag_28\n      jump\t// in\n    tag_43:\n      swap1\n      0x00\n      mstore\n      keccak256(0x00, 0x20)\n      swap1\n      0x1f\n      add\n      0x20\n      swap1\n      div\n      dup2\n      add\n      swap3\n      dup3\n      tag_45\n      jumpi\n      0x00\n      dup6\n      sstore\n      jump(tag_44)\n    tag_45:\n      dup3\n      0x1f\n      lt\n      tag_46\n      jumpi\n      dup1\n      mload\n      not(0xff)\n      and\n      dup4\n      dup1\n      add\n      or\n      dup6\n      sstore\n      jump(tag_44)\n    tag_46:\n      dup3\n      dup1\n      add\n      0x01\n      add\n      dup6\n      sstore\n      dup3\n      iszero\n      tag_44\n      jumpi\n      swap2\n      dup3\n      add\n    tag_47:\n      dup3\n      dup2\n      gt\n      iszero\n      tag_48\n      jumpi\n      dup3\n      mload\n      dup3\n      sstore\n      swap2\n      0x20\n      add\n      swap2\n      swap1\n      0x01\n      add\n      swap1\n      jump(tag_47)\n    tag_48:\n    tag_44:\n      pop\n      swap1\n      pop\n      tag_49\n      swap2\n      swap1\n      tag_50\n      jump\t// in\n    tag_49:\n      pop\n      swap1\n      jump\t// out\n    tag_50:\n    tag_51:\n      dup1\n      dup3\n      gt\n      iszero\n      tag_52\n      jumpi\n      0x00\n      dup2\n      0x00\n      swap1\n      sstore\n      pop\n      0x01\n      add\n      jump(tag_51)\n    tag_52:\n      pop\n      swap1\n      jump\t// out\n        /* \"#utility.yul\":7:352   */\n    tag_54:\n        /* \"#utility.yul\":85:90   */\n      0x00\n        /* \"#utility.yul\":110:176   */\n      tag_56\n        /* \"#utility.yul\":126:175   */\n      tag_57\n        /* \"#utility.yul\":168:174   */\n      dup5\n        /* \"#utility.yul\":126:175   */\n      tag_58\n      jump\t// in\n    tag_57:\n        /* \"#utility.yul\":110:176   */\n      tag_59\n      jump\t// in\n    tag_56:\n        /* \"#utility.yul\":101:176   */\n      swap1\n      pop\n        /* \"#utility.yul\":199:205   */\n      dup3\n        /* \"#utility.yul\":192:197   */\n      dup2\n        /* \"#utility.yul\":185:206   */\n      mstore\n        /* \"#utility.yul\":237:241   */\n      0x20\n        /* \"#utility.yul\":230:235   */\n      dup2\n        /* \"#utility.yul\":226:242   */\n      add\n        /* \"#utility.yul\":275:278   */\n      dup5\n        /* \"#utility.yul\":266:272   */\n      dup5\n        /* \"#utility.yul\":261:264   */\n      dup5\n        /* \"#utility.yul\":257:273   */\n      add\n        /* \"#utility.yul\":254:279   */\n      gt\n        /* \"#utility.yul\":251:253   */\n      iszero\n      tag_60\n      jumpi\n        /* \"#utility.yul\":292:293   */\n      0x00\n        /* \"#utility.yul\":289:290   */\n      dup1\n        /* \"#utility.yul\":282:294   */\n      revert\n        /* \"#utility.yul\":251:253   */\n    tag_60:\n        /* \"#utility.yul\":305:346   */\n      tag_61\n        /* \"#utility.yul\":339:345   */\n      dup5\n        /* \"#utility.yul\":334:337   */\n      dup3\n        /* \"#utility.yul\":329:332   */\n      dup6\n        /* \"#utility.yul\":305:346   */\n      tag_62\n      jump\t// in\n    tag_61:\n        /* \"#utility.yul\":91:352   */\n      pop\n      swap4\n      swap3\n      pop\n      pop\n      pop\n      jump\t// out\n        /* \"#utility.yul\":372:645   */\n    tag_63:\n        /* \"#utility.yul\":428:433   */\n      0x00\n        /* \"#utility.yul\":477:480   */\n      dup3\n        /* \"#utility.yul\":470:474   */\n      0x1f\n        /* \"#utility.yul\":462:468   */\n      dup4\n        /* \"#utility.yul\":458:475   */\n      add\n        /* \"#utility.yul\":454:481   */\n      slt\n        /* \"#utility.yul\":444:446   */\n      tag_65\n      jumpi\n        /* \"#utility.yul\":495:496   */\n      0x00\n        /* \"#utility.yul\":492:493   */\n      dup1\n        /* \"#utility.yul\":485:497   */\n      revert\n        /* \"#utility.yul\":444:446   */\n    tag_65:\n        /* \"#utility.yul\":535:541   */\n      dup2\n        /* \"#utility.yul\":522:542   */\n      calldataload\n        /* \"#utility.yul\":560:639   */\n      tag_66\n        /* \"#utility.yul\":635:638   */\n      dup5\n        /* \"#utility.yul\":627:633   */\n      dup3\n        /* \"#utility.yul\":620:624   */\n      0x20\n        /* \"#utility.yul\":612:618   */\n      dup7\n        /* \"#utility.yul\":608:625   */\n      add\n        /* \"#utility.yul\":560:639   */\n      tag_54\n      jump\t// in\n    tag_66:\n        /* \"#utility.yul\":551:639   */\n      swap2\n      pop\n        /* \"#utility.yul\":434:645   */\n      pop\n      swap3\n      swap2\n      pop\n      pop\n      jump\t// out\n        /* \"#utility.yul\":651:1026   */\n    tag_9:\n        /* \"#utility.yul\":720:726   */\n      0x00\n        /* \"#utility.yul\":769:771   */\n      0x20\n        /* \"#utility.yul\":757:766   */\n      dup3\n        /* \"#utility.yul\":748:755   */\n      dup5\n        /* \"#utility.yul\":744:767   */\n      sub\n        /* \"#utility.yul\":740:772   */\n      slt\n        /* \"#utility.yul\":737:739   */\n      iszero\n      tag_68\n      jumpi\n        /* \"#utility.yul\":785:786   */\n      0x00\n        /* \"#utility.yul\":782:783   */\n      dup1\n        /* \"#utility.yul\":775:787   */\n      revert\n        /* \"#utility.yul\":737:739   */\n    tag_68:\n        /* \"#utility.yul\":856:857   */\n      0x00\n        /* \"#utility.yul\":845:854   */\n      dup3\n        /* \"#utility.yul\":841:858   */\n      add\n        /* \"#utility.yul\":828:859   */\n      calldataload\n        /* \"#utility.yul\":886:904   */\n      0xffffffffffffffff\n        /* \"#utility.yul\":878:884   */\n      dup2\n        /* \"#utility.yul\":875:905   */\n      gt\n        /* \"#utility.yul\":872:874   */\n      iszero\n      tag_69\n      jumpi\n        /* \"#utility.yul\":918:919   */\n      0x00\n        /* \"#utility.yul\":915:916   */\n      dup1\n        /* \"#utility.yul\":908:920   */\n      revert\n        /* \"#utility.yul\":872:874   */\n    tag_69:\n        /* \"#utility.yul\":946:1009   */\n      tag_70\n        /* \"#utility.yul\":1001:1008   */\n      dup5\n        /* \"#utility.yul\":992:998   */\n      dup3\n        /* \"#utility.yul\":981:990   */\n      dup6\n        /* \"#utility.yul\":977:999   */\n      add\n        /* \"#utility.yul\":946:1009   */\n      tag_63\n      jump\t// in\n    tag_70:\n        /* \"#utility.yul\":936:1009   */\n      swap2\n      pop\n        /* \"#utility.yul\":799:1019   */\n      pop\n        /* \"#utility.yul\":727:1026   */\n      swap3\n      swap2\n      pop\n      pop\n      jump\t// out\n        /* \"#utility.yul\":1032:1141   */\n    tag_71:\n        /* \"#utility.yul\":1113:1134   */\n      tag_73\n        /* \"#utility.yul\":1128:1133   */\n      dup2\n        /* \"#utility.yul\":1113:1134   */\n      tag_74\n      jump\t// in\n    tag_73:\n        /* \"#utility.yul\":1108:1111   */\n      dup3\n        /* \"#utility.yul\":1101:1135   */\n      mstore\n        /* \"#utility.yul\":1091:1141   */\n      pop\n      pop\n      jump\t// out\n        /* \"#utility.yul\":1147:1507   */\n    tag_75:\n        /* \"#utility.yul\":1233:1236   */\n      0x00\n        /* \"#utility.yul\":1261:1299   */\n      tag_77\n        /* \"#utility.yul\":1293:1298   */\n      dup3\n        /* \"#utility.yul\":1261:1299   */\n      tag_78\n      jump\t// in\n    tag_77:\n        /* \"#utility.yul\":1315:1385   */\n      tag_79\n        /* \"#utility.yul\":1378:1384   */\n      dup2\n        /* \"#utility.yul\":1373:1376   */\n      dup6\n        /* \"#utility.yul\":1315:1385   */\n      tag_80\n      jump\t// in\n    tag_79:\n        /* \"#utility.yul\":1308:1385   */\n      swap4\n      pop\n        /* \"#utility.yul\":1394:1446   */\n      tag_81\n        /* \"#utility.yul\":1439:1445   */\n      dup2\n        /* \"#utility.yul\":1434:1437   */\n      dup6\n        /* \"#utility.yul\":1427:1431   */\n      0x20\n        /* \"#utility.yul\":1420:1425   */\n      dup7\n        /* \"#utility.yul\":1416:1432   */\n      add\n        /* \"#utility.yul\":1394:1446   */\n      tag_82\n      jump\t// in\n    tag_81:\n        /* \"#utility.yul\":1471:1500   */\n      tag_83\n        /* \"#utility.yul\":1493:1499   */\n      dup2\n        /* \"#utility.yul\":1471:1500   */\n      tag_84\n      jump\t// in\n    tag_83:\n        /* \"#utility.yul\":1466:1469   */\n      dup5\n        /* \"#utility.yul\":1462:1501   */\n      add\n        /* \"#utility.yul\":1455:1501   */\n      swap2\n      pop\n        /* \"#utility.yul\":1237:1507   */\n      pop\n      swap3\n      swap2\n      pop\n      pop\n      jump\t// out\n        /* \"#utility.yul\":1513:1877   */\n    tag_85:\n        /* \"#utility.yul\":1601:1604   */\n      0x00\n        /* \"#utility.yul\":1629:1668   */\n      tag_87\n        /* \"#utility.yul\":1662:1667   */\n      dup3\n        /* \"#utility.yul\":1629:1668   */\n      tag_88\n      jump\t// in\n    tag_87:\n        /* \"#utility.yul\":1684:1755   */\n      tag_89\n        /* \"#utility.yul\":1748:1754   */\n      dup2\n        /* \"#utility.yul\":1743:1746   */\n      dup6\n        /* \"#utility.yul\":1684:1755   */\n      tag_90\n      jump\t// in\n    tag_89:\n        /* \"#utility.yul\":1677:1755   */\n      swap4\n      pop\n        /* \"#utility.yul\":1764:1816   */\n      tag_91\n        /* \"#utility.yul\":1809:1815   */\n      dup2\n        /* \"#utility.yul\":1804:1807   */\n      dup6\n        /* \"#utility.yul\":1797:1801   */\n      0x20\n        /* \"#utility.yul\":1790:1795   */\n      dup7\n        /* \"#utility.yul\":1786:1802   */\n      add\n        /* \"#utility.yul\":1764:1816   */\n      tag_82\n      jump\t// in\n    tag_91:\n        /* \"#utility.yul\":1841:1870   */\n      tag_92\n        /* \"#utility.yul\":1863:1869   */\n      dup2\n        /* \"#utility.yul\":1841:1870   */\n      tag_84\n      jump\t// in\n    tag_92:\n        /* \"#utility.yul\":1836:1839   */\n      dup5\n        /* \"#utility.yul\":1832:1871   */\n      add\n        /* \"#utility.yul\":1825:1871   */\n      swap2\n      pop\n        /* \"#utility.yul\":1605:1877   */\n      pop\n      swap3\n      swap2\n      pop\n      pop\n      jump\t// out\n        /* \"#utility.yul\":1883:2260   */\n    tag_93:\n        /* \"#utility.yul\":1989:1992   */\n      0x00\n        /* \"#utility.yul\":2017:2056   */\n      tag_95\n        /* \"#utility.yul\":2050:2055   */\n      dup3\n        /* \"#utility.yul\":2017:2056   */\n      tag_88\n      jump\t// in\n    tag_95:\n        /* \"#utility.yul\":2072:2161   */\n      tag_96\n        /* \"#utility.yul\":2154:2160   */\n      dup2\n        /* \"#utility.yul\":2149:2152   */\n      dup6\n        /* \"#utility.yul\":2072:2161   */\n      tag_97\n      jump\t// in\n    tag_96:\n        /* \"#utility.yul\":2065:2161   */\n      swap4\n      pop\n        /* \"#utility.yul\":2170:2222   */\n      tag_98\n        /* \"#utility.yul\":2215:2221   */\n      dup2\n        /* \"#utility.yul\":2210:2213   */\n      dup6\n        /* \"#utility.yul\":2203:2207   */\n      0x20\n        /* \"#utility.yul\":2196:2201   */\n      dup7\n        /* \"#utility.yul\":2192:2208   */\n      add\n        /* \"#utility.yul\":2170:2222   */\n      tag_82\n      jump\t// in\n    tag_98:\n        /* \"#utility.yul\":2247:2253   */\n      dup1\n        /* \"#utility.yul\":2242:2245   */\n      dup5\n        /* \"#utility.yul\":2238:2254   */\n      add\n        /* \"#utility.yul\":2231:2254   */\n      swap2\n      pop\n        /* \"#utility.yul\":1993:2260   */\n      pop\n      swap3\n      swap2\n      pop\n      pop\n      jump\t// out\n        /* \"#utility.yul\":2290:3135   */\n    tag_99:\n        /* \"#utility.yul\":2393:2396   */\n      0x00\n        /* \"#utility.yul\":2430:2435   */\n      dup2\n        /* \"#utility.yul\":2424:2436   */\n      sload\n        /* \"#utility.yul\":2459:2495   */\n      tag_101\n        /* \"#utility.yul\":2485:2494   */\n      dup2\n        /* \"#utility.yul\":2459:2495   */\n      tag_28\n      jump\t// in\n    tag_101:\n        /* \"#utility.yul\":2511:2600   */\n      tag_102\n        /* \"#utility.yul\":2593:2599   */\n      dup2\n        /* \"#utility.yul\":2588:2591   */\n      dup7\n        /* \"#utility.yul\":2511:2600   */\n      tag_97\n      jump\t// in\n    tag_102:\n        /* \"#utility.yul\":2504:2600   */\n      swap5\n      pop\n        /* \"#utility.yul\":2631:2632   */\n      0x01\n        /* \"#utility.yul\":2620:2629   */\n      dup3\n        /* \"#utility.yul\":2616:2633   */\n      and\n        /* \"#utility.yul\":2647:2648   */\n      0x00\n        /* \"#utility.yul\":2642:2779   */\n      dup2\n      eq\n      tag_104\n      jumpi\n        /* \"#utility.yul\":2793:2794   */\n      0x01\n        /* \"#utility.yul\":2788:3129   */\n      dup2\n      eq\n      tag_105\n      jumpi\n        /* \"#utility.yul\":2609:3129   */\n      jump(tag_103)\n        /* \"#utility.yul\":2642:2779   */\n    tag_104:\n        /* \"#utility.yul\":2726:2730   */\n      0xff\n        /* \"#utility.yul\":2722:2731   */\n      not\n        /* \"#utility.yul\":2711:2720   */\n      dup4\n        /* \"#utility.yul\":2707:2732   */\n      and\n        /* \"#utility.yul\":2702:2705   */\n      dup7\n        /* \"#utility.yul\":2695:2733   */\n      mstore\n        /* \"#utility.yul\":2762:2768   */\n      dup2\n        /* \"#utility.yul\":2757:2760   */\n      dup7\n        /* \"#utility.yul\":2753:2769   */\n      add\n        /* \"#utility.yul\":2746:2769   */\n      swap4\n      pop\n        /* \"#utility.yul\":2642:2779   */\n      jump(tag_103)\n        /* \"#utility.yul\":2788:3129   */\n    tag_105:\n        /* \"#utility.yul\":2855:2893   */\n      tag_106\n        /* \"#utility.yul\":2887:2892   */\n      dup6\n        /* \"#utility.yul\":2855:2893   */\n      tag_107\n      jump\t// in\n    tag_106:\n        /* \"#utility.yul\":2915:2916   */\n      0x00\n        /* \"#utility.yul\":2929:3083   */\n    tag_108:\n        /* \"#utility.yul\":2943:2949   */\n      dup4\n        /* \"#utility.yul\":2940:2941   */\n      dup2\n        /* \"#utility.yul\":2937:2950   */\n      lt\n        /* \"#utility.yul\":2929:3083   */\n      iszero\n      tag_110\n      jumpi\n        /* \"#utility.yul\":3017:3024   */\n      dup2\n        /* \"#utility.yul\":3011:3025   */\n      sload\n        /* \"#utility.yul\":3007:3008   */\n      dup2\n        /* \"#utility.yul\":3002:3005   */\n      dup10\n        /* \"#utility.yul\":2998:3009   */\n      add\n        /* \"#utility.yul\":2991:3026   */\n      mstore\n        /* \"#utility.yul\":3067:3068   */\n      0x01\n        /* \"#utility.yul\":3058:3065   */\n      dup3\n        /* \"#utility.yul\":3054:3069   */\n      add\n        /* \"#utility.yul\":3043:3069   */\n      swap2\n      pop\n        /* \"#utility.yul\":2965:2969   */\n      0x20\n        /* \"#utility.yul\":2962:2963   */\n      dup2\n        /* \"#utility.yul\":2958:2970   */\n      add\n        /* \"#utility.yul\":2953:2970   */\n      swap1\n      pop\n        /* \"#utility.yul\":2929:3083   */\n      jump(tag_108)\n    tag_110:\n        /* \"#utility.yul\":3112:3118   */\n      dup4\n        /* \"#utility.yul\":3107:3110   */\n      dup9\n        /* \"#utility.yul\":3103:3119   */\n      add\n        /* \"#utility.yul\":3096:3119   */\n      swap6\n      pop\n        /* \"#utility.yul\":2795:3129   */\n      pop\n      pop\n        /* \"#utility.yul\":2609:3129   */\n    tag_103:\n      pop\n        /* \"#utility.yul\":2397:3135   */\n      pop\n      pop\n      swap3\n      swap2\n      pop\n      pop\n      jump\t// out\n        /* \"#utility.yul\":3141:3416   */\n    tag_35:\n        /* \"#utility.yul\":3273:3276   */\n      0x00\n        /* \"#utility.yul\":3295:3390   */\n      tag_112\n        /* \"#utility.yul\":3386:3389   */\n      dup3\n        /* \"#utility.yul\":3377:3383   */\n      dup5\n        /* \"#utility.yul\":3295:3390   */\n      tag_93\n      jump\t// in\n    tag_112:\n        /* \"#utility.yul\":3288:3390   */\n      swap2\n      pop\n        /* \"#utility.yul\":3407:3410   */\n      dup2\n        /* \"#utility.yul\":3400:3410   */\n      swap1\n      pop\n        /* \"#utility.yul\":3277:3416   */\n      swap3\n      swap2\n      pop\n      pop\n      jump\t// out\n        /* \"#utility.yul\":3422:3691   */\n    tag_37:\n        /* \"#utility.yul\":3551:3554   */\n      0x00\n        /* \"#utility.yul\":3573:3665   */\n      tag_114\n        /* \"#utility.yul\":3661:3664   */\n      dup3\n        /* \"#utility.yul\":3652:3658   */\n      dup5\n        /* \"#utility.yul\":3573:3665   */\n      tag_99\n      jump\t// in\n    tag_114:\n        /* \"#utility.yul\":3566:3665   */\n      swap2\n      pop\n        /* \"#utility.yul\":3682:3685   */\n      dup2\n        /* \"#utility.yul\":3675:3685   */\n      swap1\n      pop\n        /* \"#utility.yul\":3555:3691   */\n      swap3\n      swap2\n      pop\n      pop\n      jump\t// out\n        /* \"#utility.yul\":3697:3907   */\n    tag_19:\n        /* \"#utility.yul\":3784:3788   */\n      0x00\n        /* \"#utility.yul\":3822:3824   */\n      0x20\n        /* \"#utility.yul\":3811:3820   */\n      dup3\n        /* \"#utility.yul\":3807:3825   */\n      add\n        /* \"#utility.yul\":3799:3825   */\n      swap1\n      pop\n        /* \"#utility.yul\":3835:3900   */\n      tag_116\n        /* \"#utility.yul\":3897:3898   */\n      0x00\n        /* \"#utility.yul\":3886:3895   */\n      dup4\n        /* \"#utility.yul\":3882:3899   */\n      add\n        /* \"#utility.yul\":3873:3879   */\n      dup5\n        /* \"#utility.yul\":3835:3900   */\n      tag_71\n      jump\t// in\n    tag_116:\n        /* \"#utility.yul\":3789:3907   */\n      swap3\n      swap2\n      pop\n      pop\n      jump\t// out\n        /* \"#utility.yul\":3913:4222   */\n    tag_23:\n        /* \"#utility.yul\":4024:4028   */\n      0x00\n        /* \"#utility.yul\":4062:4064   */\n      0x20\n        /* \"#utility.yul\":4051:4060   */\n      dup3\n        /* \"#utility.yul\":4047:4065   */\n      add\n        /* \"#utility.yul\":4039:4065   */\n      swap1\n      pop\n        /* \"#utility.yul\":4111:4120   */\n      dup2\n        /* \"#utility.yul\":4105:4109   */\n      dup2\n        /* \"#utility.yul\":4101:4121   */\n      sub\n        /* \"#utility.yul\":4097:4098   */\n      0x00\n        /* \"#utility.yul\":4086:4095   */\n      dup4\n        /* \"#utility.yul\":4082:4099   */\n      add\n        /* \"#utility.yul\":4075:4122   */\n      mstore\n        /* \"#utility.yul\":4139:4215   */\n      tag_118\n        /* \"#utility.yul\":4210:4214   */\n      dup2\n        /* \"#utility.yul\":4201:4207   */\n      dup5\n        /* \"#utility.yul\":4139:4215   */\n      tag_75\n      jump\t// in\n    tag_118:\n        /* \"#utility.yul\":4131:4215   */\n      swap1\n      pop\n        /* \"#utility.yul\":4029:4222   */\n      swap3\n      swap2\n      pop\n      pop\n      jump\t// out\n        /* \"#utility.yul\":4228:4541   */\n    tag_14:\n        /* \"#utility.yul\":4341:4345   */\n      0x00\n        /* \"#utility.yul\":4379:4381   */\n      0x20\n        /* \"#utility.yul\":4368:4377   */\n      dup3\n        /* \"#utility.yul\":4364:4382   */\n      add\n        /* \"#utility.yul\":4356:4382   */\n      swap1\n      pop\n        /* \"#utility.yul\":4428:4437   */\n      dup2\n        /* \"#utility.yul\":4422:4426   */\n      dup2\n        /* \"#utility.yul\":4418:4438   */\n      sub\n        /* \"#utility.yul\":4414:4415   */\n      0x00\n        /* \"#utility.yul\":4403:4412   */\n      dup4\n        /* \"#utility.yul\":4399:4416   */\n      add\n        /* \"#utility.yul\":4392:4439   */\n      mstore\n        /* \"#utility.yul\":4456:4534   */\n      tag_120\n        /* \"#utility.yul\":4529:4533   */\n      dup2\n        /* \"#utility.yul\":4520:4526   */\n      dup5\n        /* \"#utility.yul\":4456:4534   */\n      tag_85\n      jump\t// in\n    tag_120:\n        /* \"#utility.yul\":4448:4534   */\n      swap1\n      pop\n        /* \"#utility.yul\":4346:4541   */\n      swap3\n      swap2\n      pop\n      pop\n      jump\t// out\n        /* \"#utility.yul\":4547:4676   */\n    tag_59:\n        /* \"#utility.yul\":4581:4587   */\n      0x00\n        /* \"#utility.yul\":4608:4628   */\n      tag_122\n      tag_123\n      jump\t// in\n    tag_122:\n        /* \"#utility.yul\":4598:4628   */\n      swap1\n      pop\n        /* \"#utility.yul\":4637:4670   */\n      tag_124\n        /* \"#utility.yul\":4665:4669   */\n      dup3\n        /* \"#utility.yul\":4657:4663   */\n      dup3\n        /* \"#utility.yul\":4637:4670   */\n      tag_125\n      jump\t// in\n    tag_124:\n        /* \"#utility.yul\":4588:4676   */\n      swap2\n      swap1\n      pop\n      jump\t// out\n        /* \"#utility.yul\":4682:4757   */\n    tag_123:\n        /* \"#utility.yul\":4715:4721   */\n      0x00\n        /* \"#utility.yul\":4748:4750   */\n      0x40\n        /* \"#utility.yul\":4742:4751   */\n      mload\n        /* \"#utility.yul\":4732:4751   */\n      swap1\n      pop\n        /* \"#utility.yul\":4722:4757   */\n      swap1\n      jump\t// out\n        /* \"#utility.yul\":4763:5071   */\n    tag_58:\n        /* \"#utility.yul\":4825:4829   */\n      0x00\n        /* \"#utility.yul\":4915:4933   */\n      0xffffffffffffffff\n        /* \"#utility.yul\":4907:4913   */\n      dup3\n        /* \"#utility.yul\":4904:4934   */\n      gt\n        /* \"#utility.yul\":4901:4903   */\n      iszero\n      tag_128\n      jumpi\n        /* \"#utility.yul\":4937:4955   */\n      tag_129\n      tag_130\n      jump\t// in\n    tag_129:\n        /* \"#utility.yul\":4901:4903   */\n    tag_128:\n        /* \"#utility.yul\":4975:5004   */\n      tag_131\n        /* \"#utility.yul\":4997:5003   */\n      dup3\n        /* \"#utility.yul\":4975:5004   */\n      tag_84\n      jump\t// in\n    tag_131:\n        /* \"#utility.yul\":4967:5004   */\n      swap1\n      pop\n        /* \"#utility.yul\":5059:5063   */\n      0x20\n        /* \"#utility.yul\":5053:5057   */\n      dup2\n        /* \"#utility.yul\":5049:5064   */\n      add\n        /* \"#utility.yul\":5041:5064   */\n      swap1\n      pop\n        /* \"#utility.yul\":4830:5071   */\n      swap2\n      swap1\n      pop\n      jump\t// out\n        /* \"#utility.yul\":5077:5218   */\n    tag_107:\n        /* \"#utility.yul\":5126:5130   */\n      0x00\n        /* \"#utility.yul\":5149:5152   */\n      dup2\n        /* \"#utility.yul\":5141:5152   */\n      swap1\n      pop\n        /* \"#utility.yul\":5172:5175   */\n      dup2\n        /* \"#utility.yul\":5169:5170   */\n      0x00\n        /* \"#utility.yul\":5162:5176   */\n      mstore\n        /* \"#utility.yul\":5206:5210   */\n      0x20\n        /* \"#utility.yul\":5203:5204   */\n      0x00\n        /* \"#utility.yul\":5193:5211   */\n      keccak256\n        /* \"#utility.yul\":5185:5211   */\n      swap1\n      pop\n        /* \"#utility.yul\":5131:5218   */\n      swap2\n      swap1\n      pop\n      jump\t// out\n        /* \"#utility.yul\":5224:5322   */\n    tag_78:\n        /* \"#utility.yul\":5275:5281   */\n      0x00\n        /* \"#utility.yul\":5309:5314   */\n      dup2\n        /* \"#utility.yul\":5303:5315   */\n      mload\n        /* \"#utility.yul\":5293:5315   */\n      swap1\n      pop\n        /* \"#utility.yul\":5282:5322   */\n      swap2\n      swap1\n      pop\n      jump\t// out\n        /* \"#utility.yul\":5328:5427   */\n    tag_88:\n        /* \"#utility.yul\":5380:5386   */\n      0x00\n        /* \"#utility.yul\":5414:5419   */\n      dup2\n        /* \"#utility.yul\":5408:5420   */\n      mload\n        /* \"#utility.yul\":5398:5420   */\n      swap1\n      pop\n        /* \"#utility.yul\":5387:5427   */\n      swap2\n      swap1\n      pop\n      jump\t// out\n        /* \"#utility.yul\":5433:5601   */\n    tag_80:\n        /* \"#utility.yul\":5516:5527   */\n      0x00\n        /* \"#utility.yul\":5550:5556   */\n      dup3\n        /* \"#utility.yul\":5545:5548   */\n      dup3\n        /* \"#utility.yul\":5538:5557   */\n      mstore\n        /* \"#utility.yul\":5590:5594   */\n      0x20\n        /* \"#utility.yul\":5585:5588   */\n      dup3\n        /* \"#utility.yul\":5581:5595   */\n      add\n        /* \"#utility.yul\":5566:5595   */\n      swap1\n      pop\n        /* \"#utility.yul\":5528:5601   */\n      swap3\n      swap2\n      pop\n      pop\n      jump\t// out\n        /* \"#utility.yul\":5607:5776   */\n    tag_90:\n        /* \"#utility.yul\":5691:5702   */\n      0x00\n        /* \"#utility.yul\":5725:5731   */\n      dup3\n        /* \"#utility.yul\":5720:5723   */\n      dup3\n        /* \"#utility.yul\":5713:5732   */\n      mstore\n        /* \"#utility.yul\":5765:5769   */\n      0x20\n        /* \"#utility.yul\":5760:5763   */\n      dup3\n        /* \"#utility.yul\":5756:5770   */\n      add\n        /* \"#utility.yul\":5741:5770   */\n      swap1\n      pop\n        /* \"#utility.yul\":5703:5776   */\n      swap3\n      swap2\n      pop\n      pop\n      jump\t// out\n        /* \"#utility.yul\":5782:5930   */\n    tag_97:\n        /* \"#utility.yul\":5884:5895   */\n      0x00\n        /* \"#utility.yul\":5921:5924   */\n      dup2\n        /* \"#utility.yul\":5906:5924   */\n      swap1\n      pop\n        /* \"#utility.yul\":5896:5930   */\n      swap3\n      swap2\n      pop\n      pop\n      jump\t// out\n        /* \"#utility.yul\":5936:6026   */\n    tag_74:\n        /* \"#utility.yul\":5970:5977   */\n      0x00\n        /* \"#utility.yul\":6013:6018   */\n      dup2\n        /* \"#utility.yul\":6006:6019   */\n      iszero\n        /* \"#utility.yul\":5999:6020   */\n      iszero\n        /* \"#utility.yul\":5988:6020   */\n      swap1\n      pop\n        /* \"#utility.yul\":5978:6026   */\n      swap2\n      swap1\n      pop\n      jump\t// out\n        /* \"#utility.yul\":6032:6186   */\n    tag_62:\n        /* \"#utility.yul\":6116:6122   */\n      dup3\n        /* \"#utility.yul\":6111:6114   */\n      dup2\n        /* \"#utility.yul\":6106:6109   */\n      dup4\n        /* \"#utility.yul\":6093:6123   */\n      calldatacopy\n        /* \"#utility.yul\":6178:6179   */\n      0x00\n        /* \"#utility.yul\":6169:6175   */\n      dup4\n        /* \"#utility.yul\":6164:6167   */\n      dup4\n        /* \"#utility.yul\":6160:6176   */\n      add\n        /* \"#utility.yul\":6153:6180   */\n      mstore\n        /* \"#utility.yul\":6083:6186   */\n      pop\n      pop\n      pop\n      jump\t// out\n        /* \"#utility.yul\":6192:6499   */\n    tag_82:\n        /* \"#utility.yul\":6260:6261   */\n      0x00\n        /* \"#utility.yul\":6270:6383   */\n    tag_141:\n        /* \"#utility.yul\":6284:6290   */\n      dup4\n        /* \"#utility.yul\":6281:6282   */\n      dup2\n        /* \"#utility.yul\":6278:6291   */\n      lt\n        /* \"#utility.yul\":6270:6383   */\n      iszero\n      tag_143\n      jumpi\n        /* \"#utility.yul\":6369:6370   */\n      dup1\n        /* \"#utility.yul\":6364:6367   */\n      dup3\n        /* \"#utility.yul\":6360:6371   */\n      add\n        /* \"#utility.yul\":6354:6372   */\n      mload\n        /* \"#utility.yul\":6350:6351   */\n      dup2\n        /* \"#utility.yul\":6345:6348   */\n      dup5\n        /* \"#utility.yul\":6341:6352   */\n      add\n        /* \"#utility.yul\":6334:6373   */\n      mstore\n        /* \"#utility.yul\":6306:6308   */\n      0x20\n        /* \"#utility.yul\":6303:6304   */\n      dup2\n        /* \"#utility.yul\":6299:6309   */\n      add\n        /* \"#utility.yul\":6294:6309   */\n      swap1\n      pop\n        /* \"#utility.yul\":6270:6383   */\n      jump(tag_141)\n    tag_143:\n        /* \"#utility.yul\":6401:6407   */\n      dup4\n        /* \"#utility.yul\":6398:6399   */\n      dup2\n        /* \"#utility.yul\":6395:6408   */\n      gt\n        /* \"#utility.yul\":6392:6394   */\n      iszero\n      tag_144\n      jumpi\n        /* \"#utility.yul\":6481:6482   */\n      0x00\n        /* \"#utility.yul\":6472:6478   */\n      dup5\n        /* \"#utility.yul\":6467:6470   */\n      dup5\n        /* \"#utility.yul\":6463:6479   */\n      add\n        /* \"#utility.yul\":6456:6483   */\n      mstore\n        /* \"#utility.yul\":6392:6394   */\n    tag_144:\n        /* \"#utility.yul\":6241:6499   */\n      pop\n      pop\n      pop\n      pop\n      jump\t// out\n        /* \"#utility.yul\":6505:6825   */\n    tag_28:\n        /* \"#utility.yul\":6549:6555   */\n      0x00\n        /* \"#utility.yul\":6586:6587   */\n      0x02\n        /* \"#utility.yul\":6580:6584   */\n      dup3\n        /* \"#utility.yul\":6576:6588   */\n      div\n        /* \"#utility.yul\":6566:6588   */\n      swap1\n      pop\n        /* \"#utility.yul\":6633:6634   */\n      0x01\n        /* \"#utility.yul\":6627:6631   */\n      dup3\n        /* \"#utility.yul\":6623:6635   */\n      and\n        /* \"#utility.yul\":6654:6672   */\n      dup1\n        /* \"#utility.yul\":6644:6646   */\n      tag_146\n      jumpi\n        /* \"#utility.yul\":6710:6714   */\n      0x7f\n        /* \"#utility.yul\":6702:6708   */\n      dup3\n        /* \"#utility.yul\":6698:6715   */\n      and\n        /* \"#utility.yul\":6688:6715   */\n      swap2\n      pop\n        /* \"#utility.yul\":6644:6646   */\n    tag_146:\n        /* \"#utility.yul\":6772:6774   */\n      0x20\n        /* \"#utility.yul\":6764:6770   */\n      dup3\n        /* \"#utility.yul\":6761:6775   */\n      lt\n        /* \"#utility.yul\":6741:6759   */\n      dup2\n        /* \"#utility.yul\":6738:6776   */\n      eq\n        /* \"#utility.yul\":6735:6737   */\n      iszero\n      tag_147\n      jumpi\n        /* \"#utility.yul\":6791:6809   */\n      tag_148\n      tag_149\n      jump\t// in\n    tag_148:\n        /* \"#utility.yul\":6735:6737   */\n    tag_147:\n        /* \"#utility.yul\":6556:6825   */\n      pop\n      swap2\n      swap1\n      pop\n      jump\t// out\n        /* \"#utility.yul\":6831:7112   */\n    tag_125:\n        /* \"#utility.yul\":6914:6941   */\n      tag_151\n        /* \"#utility.yul\":6936:6940   */\n      dup3\n        /* \"#utility.yul\":6914:6941   */\n      tag_84\n      jump\t// in\n    tag_151:\n        /* \"#utility.yul\":6906:6912   */\n      dup2\n        /* \"#utility.yul\":6902:6942   */\n      add\n        /* \"#utility.yul\":7044:7050   */\n      dup2\n        /* \"#utility.yul\":7032:7042   */\n      dup2\n        /* \"#utility.yul\":7029:7051   */\n      lt\n        /* \"#utility.yul\":7008:7026   */\n      0xffffffffffffffff\n        /* \"#utility.yul\":6996:7006   */\n      dup3\n        /* \"#utility.yul\":6993:7027   */\n      gt\n        /* \"#utility.yul\":6990:7052   */\n      or\n        /* \"#utility.yul\":6987:6989   */\n      iszero\n      tag_152\n      jumpi\n        /* \"#utility.yul\":7055:7073   */\n      tag_153\n      tag_130\n      jump\t// in\n    tag_153:\n        /* \"#utility.yul\":6987:6989   */\n    tag_152:\n        /* \"#utility.yul\":7095:7105   */\n      dup1\n        /* \"#utility.yul\":7091:7093   */\n      0x40\n        /* \"#utility.yul\":7084:7106   */\n      mstore\n        /* \"#utility.yul\":6874:7112   */\n      pop\n      pop\n      pop\n      jump\t// out\n        /* \"#utility.yul\":7118:7298   */\n    tag_149:\n        /* \"#utility.yul\":7166:7243   */\n      0x4e487b7100000000000000000000000000000000000000000000000000000000\n        /* \"#utility.yul\":7163:7164   */\n      0x00\n        /* \"#utility.yul\":7156:7244   */\n      mstore\n        /* \"#utility.yul\":7263:7267   */\n      0x22\n        /* \"#utility.yul\":7260:7261   */\n      0x04\n        /* \"#utility.yul\":7253:7268   */\n      mstore\n        /* \"#utility.yul\":7287:7291   */\n      0x24\n        /* \"#utility.yul\":7284:7285   */\n      0x00\n        /* \"#utility.yul\":7277:7292   */\n      revert\n        /* \"#utility.yul\":7304:7484   */\n    tag_130:\n        /* \"#utility.yul\":7352:7429   */\n      0x4e487b7100000000000000000000000000000000000000000000000000000000\n        /* \"#utility.yul\":7349:7350   */\n      0x00\n        /* \"#utility.yul\":7342:7430   */\n      mstore\n        /* \"#utility.yul\":7449:7453   */\n      0x41\n        /* \"#utility.yul\":7446:7447   */\n      0x04\n        /* \"#utility.yul\":7439:7454   */\n      mstore\n        /* \"#utility.yul\":7473:7477   */\n      0x24\n        /* \"#utility.yul\":7470:7471   */\n      0x00\n        /* \"#utility.yul\":7463:7478   */\n      revert\n        /* \"#utility.yul\":7490:7592   */\n    tag_84:\n        /* \"#utility.yul\":7531:7537   */\n      0x00\n        /* \"#utility.yul\":7582:7584   */\n      0x1f\n        /* \"#utility.yul\":7578:7585   */\n      not\n        /* \"#utility.yul\":7573:7575   */\n      0x1f\n        /* \"#utility.yul\":7566:7571   */\n      dup4\n        /* \"#utility.yul\":7562:7576   */\n      add\n        /* \"#utility.yul\":7558:7586   */\n      and\n        /* \"#utility.yul\":7548:7586   */\n      swap1\n      pop\n        /* \"#utility.yul\":7538:7592   */\n      swap2\n      swap1\n      pop\n      jump\t// out\n\n    auxdata: 0xa2646970667358221220f326fe1f3339008efbb8533573d280b65278b923c69d280c235c7a679d2c6fb864736f6c63430008040033\n}\n",
				"bytecode": {
					"linkReferences": {},
					"object": "60806040526040518060400160405280600c81526020017f48656c6c6f20576f726c642100000000000000000000000000000000000000008152506000908051906020019061004f9291906100ae565b506040518060400160405280600c81526020017f48656c6c6f20776f726c642100000000000000000000000000000000000000008152506001908051906020019061009b929190610134565b503480156100a857600080fd5b50610238565b8280546100ba906101d7565b90600052602060002090601f0160209004810192826100dc5760008555610123565b82601f106100f557805160ff1916838001178555610123565b82800160010185558215610123579182015b82811115610122578251825591602001919060010190610107565b5b50905061013091906101ba565b5090565b828054610140906101d7565b90600052602060002090601f01602090048101928261016257600085556101a9565b82601f1061017b57805160ff19168380011785556101a9565b828001600101855582156101a9579182015b828111156101a857825182559160200191906001019061018d565b5b5090506101b691906101ba565b5090565b5b808211156101d35760008160009055506001016101bb565b5090565b600060028204905060018216806101ef57607f821691505b6020821081141561020357610202610209565b5b50919050565b7f4e487b7100000000000000000000000000000000000000000000000000000000600052602260045260246000fd5b61077680620002486000396000f3fe608060405234801561001057600080fd5b506004361061004c5760003560e01c80631a965b8214610051578063492bfa181461006d5780635ce253531461008b578063712f4602146100bb575b600080fd5b61006b60048036038101906100669190610373565b6100d9565b005b6100756100f3565b6040516100829190610550565b60405180910390f35b6100a560048036038101906100a09190610373565b610181565b6040516100b29190610513565b60405180910390f35b6100c36101da565b6040516100d0919061052e565b60405180910390f35b80600090805190602001906100ef929190610268565b5050565b600080546101009061066e565b80601f016020809104026020016040519081016040528092919081815260200182805461012c9061066e565b80156101795780601f1061014e57610100808354040283529160200191610179565b820191906000526020600020905b81548152906001019060200180831161015c57829003601f168201915b505050505081565b60008160405160200161019491906104e5565b6040516020818303038152906040528051906020012060006040516020016101bc91906104fc565b60405160208183030381529060405280519060200120149050919050565b600180546101e79061066e565b80601f01602080910402602001604051908101604052809291908181526020018280546102139061066e565b80156102605780601f1061023557610100808354040283529160200191610260565b820191906000526020600020905b81548152906001019060200180831161024357829003601f168201915b505050505081565b8280546102749061066e565b90600052602060002090601f01602090048101928261029657600085556102dd565b82601f106102af57805160ff19168380011785556102dd565b828001600101855582156102dd579182015b828111156102dc5782518255916020019190600101906102c1565b5b5090506102ea91906102ee565b5090565b5b808211156103075760008160009055506001016102ef565b5090565b600061031e61031984610597565b610572565b90508281526020810184848401111561033657600080fd5b61034184828561062c565b509392505050565b600082601f83011261035a57600080fd5b813561036a84826020860161030b565b91505092915050565b60006020828403121561038557600080fd5b600082013567ffffffffffffffff81111561039f57600080fd5b6103ab84828501610349565b91505092915050565b6103bd81610620565b82525050565b60006103ce826105dd565b6103d881856105f3565b93506103e881856020860161063b565b6103f18161072f565b840191505092915050565b6000610407826105e8565b6104118185610604565b935061042181856020860161063b565b61042a8161072f565b840191505092915050565b6000610440826105e8565b61044a8185610615565b935061045a81856020860161063b565b80840191505092915050565b600081546104738161066e565b61047d8186610615565b9450600182166000811461049857600181146104a9576104dc565b60ff198316865281860193506104dc565b6104b2856105c8565b60005b838110156104d4578154818901526001820191506020810190506104b5565b838801955050505b50505092915050565b60006104f18284610435565b915081905092915050565b60006105088284610466565b915081905092915050565b600060208201905061052860008301846103b4565b92915050565b6000602082019050818103600083015261054881846103c3565b905092915050565b6000602082019050818103600083015261056a81846103fc565b905092915050565b600061057c61058d565b905061058882826106a0565b919050565b6000604051905090565b600067ffffffffffffffff8211156105b2576105b1610700565b5b6105bb8261072f565b9050602081019050919050565b60008190508160005260206000209050919050565b600081519050919050565b600081519050919050565b600082825260208201905092915050565b600082825260208201905092915050565b600081905092915050565b60008115159050919050565b82818337600083830152505050565b60005b8381101561065957808201518184015260208101905061063e565b83811115610668576000848401525b50505050565b6000600282049050600182168061068657607f821691505b6020821081141561069a576106996106d1565b5b50919050565b6106a98261072f565b810181811067ffffffffffffffff821117156106c8576106c7610700565b5b80604052505050565b7f4e487b7100000000000000000000000000000000000000000000000000000000600052602260045260246000fd5b7f4e487b7100000000000000000000000000000000000000000000000000000000600052604160045260246000fd5b6000601f19601f830116905091905056fea2646970667358221220f326fe1f3339008efbb8533573d280b65278b923c69d280c235c7a679d2c6fb864736f6c63430008040033",
					"opcodes": "PUSH1 0x80 PUSH1 0x40 MSTORE PUSH1 0x40 MLOAD DUP1 PUSH1 0x40 ADD PUSH1 0x40 MSTORE DUP1 PUSH1 0xC DUP2 MSTORE PUSH1 0x20 ADD PUSH32 0x48656C6C6F20576F726C64210000000000000000000000000000000000000000 DUP2 MSTORE POP PUSH1 0x0 SWAP1 DUP1 MLOAD SWAP1 PUSH1 0x20 ADD SWAP1 PUSH2 0x4F SWAP3 SWAP2 SWAP1 PUSH2 0xAE JUMP JUMPDEST POP PUSH1 0x40 MLOAD DUP1 PUSH1 0x40 ADD PUSH1 0x40 MSTORE DUP1 PUSH1 0xC DUP2 MSTORE PUSH1 0x20 ADD PUSH32 0x48656C6C6F20776F726C64210000000000000000000000000000000000000000 DUP2 MSTORE POP PUSH1 0x1 SWAP1 DUP1 MLOAD SWAP1 PUSH1 0x20 ADD SWAP1 PUSH2 0x9B SWAP3 SWAP2 SWAP1 PUSH2 0x134 JUMP JUMPDEST POP CALLVALUE DUP1 ISZERO PUSH2 0xA8 JUMPI PUSH1 0x0 DUP1 REVERT JUMPDEST POP PUSH2 0x238 JUMP JUMPDEST DUP3 DUP1 SLOAD PUSH2 0xBA SWAP1 PUSH2 0x1D7 JUMP JUMPDEST SWAP1 PUSH1 0x0 MSTORE PUSH1 0x20 PUSH1 0x0 KECCAK256 SWAP1 PUSH1 0x1F ADD PUSH1 0x20 SWAP1 DIV DUP2 ADD SWAP3 DUP3 PUSH2 0xDC JUMPI PUSH1 0x0 DUP6 SSTORE PUSH2 0x123 JUMP JUMPDEST DUP3 PUSH1 0x1F LT PUSH2 0xF5 JUMPI DUP1 MLOAD PUSH1 0xFF NOT AND DUP4 DUP1 ADD OR DUP6 SSTORE PUSH2 0x123 JUMP JUMPDEST DUP3 DUP1 ADD PUSH1 0x1 ADD DUP6 SSTORE DUP3 ISZERO PUSH2 0x123 JUMPI SWAP2 DUP3 ADD JUMPDEST DUP3 DUP2 GT ISZERO PUSH2 0x122 JUMPI DUP3 MLOAD DUP3 SSTORE SWAP2 PUSH1 0x20 ADD SWAP2 SWAP1 PUSH1 0x1 ADD SWAP1 PUSH2 0x107 JUMP JUMPDEST JUMPDEST POP SWAP1 POP PUSH2 0x130 SWAP2 SWAP1 PUSH2 0x1BA JUMP JUMPDEST POP SWAP1 JUMP JUMPDEST DUP3 DUP1 SLOAD PUSH2 0x140 SWAP1 PUSH2 0x1D7 JUMP JUMPDEST SWAP1 PUSH1 0x0 MSTORE PUSH1 0x20 PUSH1 0x0 KECCAK256 SWAP1 PUSH1 0x1F ADD PUSH1 0x20 SWAP1 DIV DUP2 ADD SWAP3 DUP3 PUSH2 0x162 JUMPI PUSH1 0x0 DUP6 SSTORE PUSH2 0x1A9 JUMP JUMPDEST DUP3 PUSH1 0x1F LT PUSH2 0x17B JUMPI DUP1 MLOAD PUSH1 0xFF NOT AND DUP4 DUP1 ADD OR DUP6 SSTORE PUSH2 0x1A9 JUMP JUMPDEST DUP3 DUP1 ADD PUSH1 0x1 ADD DUP6 SSTORE DUP3 ISZERO PUSH2 0x1A9 JUMPI SWAP2 DUP3 ADD JUMPDEST DUP3 DUP2 GT ISZERO PUSH2 0x1A8 JUMPI DUP3 MLOAD DUP3 SSTORE SWAP2 PUSH1 0x20 ADD SWAP2 SWAP1 PUSH1 0x1 ADD SWAP1 PUSH2 0x18D JUMP JUMPDEST JUMPDEST POP SWAP1 POP PUSH2 0x1B6 SWAP2 SWAP1 PUSH2 0x1BA JUMP JUMPDEST POP SWAP1 JUMP JUMPDEST JUMPDEST DUP1 DUP3 GT ISZERO PUSH2 0x1D3 JUMPI PUSH1 0x0 DUP2 PUSH1 0x0 SWAP1 SSTORE POP PUSH1 0x1 ADD PUSH2 0x1BB JUMP JUMPDEST POP SWAP1 JUMP JUMPDEST PUSH1 0x0 PUSH1 0x2 DUP3 DIV SWAP1 POP PUSH1 0x1 DUP3 AND DUP1 PUSH2 0x1EF JUMPI PUSH1 0x7F DUP3 AND SWAP2 POP JUMPDEST PUSH1 0x20 DUP3 LT DUP2 EQ ISZERO PUSH2 0x203 JUMPI PUSH2 0x202 PUSH2 0x209 JUMP JUMPDEST JUMPDEST POP SWAP2 SWAP1 POP JUMP JUMPDEST PUSH32 0x4E487B7100000000000000000000000000000000000000000000000000000000 PUSH1 0x0 MSTORE PUSH1 0x22 PUSH1 0x4 MSTORE PUSH1 0x24 PUSH1 0x0 REVERT JUMPDEST PUSH2 0x776 DUP1 PUSH3 0x248 PUSH1 0x0 CODECOPY PUSH1 0x0 RETURN INVALID PUSH1 0x80 PUSH1 0x40 MSTORE CALLVALUE DUP1 ISZERO PUSH2 0x10 JUMPI PUSH1 0x0 DUP1 REVERT JUMPDEST POP PUSH1 0x4 CALLDATASIZE LT PUSH2 0x4C JUMPI PUSH1 0x0 CALLDATALOAD PUSH1 0xE0 SHR DUP1 PUSH4 0x1A965B82 EQ PUSH2 0x51 JUMPI DUP1 PUSH4 0x492BFA18 EQ PUSH2 0x6D JUMPI DUP1 PUSH4 0x5CE25353 EQ PUSH2 0x8B JUMPI DUP1 PUSH4 0x712F4602 EQ PUSH2 0xBB JUMPI JUMPDEST PUSH1 0x0 DUP1 REVERT JUMPDEST PUSH2 0x6B PUSH1 0x4 DUP1 CALLDATASIZE SUB DUP2 ADD SWAP1 PUSH2 0x66 SWAP2 SWAP1 PUSH2 0x373 JUMP JUMPDEST PUSH2 0xD9 JUMP JUMPDEST STOP JUMPDEST PUSH2 0x75 PUSH2 0xF3 JUMP JUMPDEST PUSH1 0x40 MLOAD PUSH2 0x82 SWAP2 SWAP1 PUSH2 0x550 JUMP JUMPDEST PUSH1 0x40 MLOAD DUP1 SWAP2 SUB SWAP1 RETURN JUMPDEST PUSH2 0xA5 PUSH1 0x4 DUP1 CALLDATASIZE SUB DUP2 ADD SWAP1 PUSH2 0xA0 SWAP2 SWAP1 PUSH2 0x373 JUMP JUMPDEST PUSH2 0x181 JUMP JUMPDEST PUSH1 0x40 MLOAD PUSH2 0xB2 SWAP2 SWAP1 PUSH2 0x513 JUMP JUMPDEST PUSH1 0x40 MLOAD DUP1 SWAP2 SUB SWAP1 RETURN JUMPDEST PUSH2 0xC3 PUSH2 0x1DA JUMP JUMPDEST PUSH1 0x40 MLOAD PUSH2 0xD0 SWAP2 SWAP1 PUSH2 0x52E JUMP JUMPDEST PUSH1 0x40 MLOAD DUP1 SWAP2 SUB SWAP1 RETURN JUMPDEST DUP1 PUSH1 0x0 SWAP1 DUP1 MLOAD SWAP1 PUSH1 0x20 ADD SWAP1 PUSH2 0xEF SWAP3 SWAP2 SWAP1 PUSH2 0x268 JUMP JUMPDEST POP POP JUMP JUMPDEST PUSH1 0x0 DUP1 SLOAD PUSH2 0x100 SWAP1 PUSH2 0x66E JUMP JUMPDEST DUP1 PUSH1 0x1F ADD PUSH1 0x20 DUP1 SWAP2 DIV MUL PUSH1 0x20 ADD PUSH1 0x40 MLOAD SWAP1 DUP2 ADD PUSH1 0x40 MSTORE DUP1 SWAP3 SWAP2 SWAP1 DUP2 DUP2 MSTORE PUSH1 0x20 ADD DUP3 DUP1 SLOAD PUSH2 0x12C SWAP1 PUSH2 0x66E JUMP JUMPDEST DUP1 ISZERO PUSH2 0x179 JUMPI DUP1 PUSH1 0x1F LT PUSH2 0x14E JUMPI PUSH2 0x100 DUP1 DUP4 SLOAD DIV MUL DUP4 MSTORE SWAP2 PUSH1 0x20 ADD SWAP2 PUSH2 0x179 JUMP JUMPDEST DUP3 ADD SWAP2 SWAP1 PUSH1 0x0 MSTORE PUSH1 0x20 PUSH1 0x0 KECCAK256 SWAP1 JUMPDEST DUP2 SLOAD DUP2 MSTORE SWAP1 PUSH1 0x1 ADD SWAP1 PUSH1 0x20 ADD DUP1 DUP4 GT PUSH2 0x15C JUMPI DUP3 SWAP1 SUB PUSH1 0x1F AND DUP3 ADD SWAP2 JUMPDEST POP POP POP POP POP DUP2 JUMP JUMPDEST PUSH1 0x0 DUP2 PUSH1 0x40 MLOAD PUSH1 0x20 ADD PUSH2 0x194 SWAP2 SWAP1 PUSH2 0x4E5 JUMP JUMPDEST PUSH1 0x40 MLOAD PUSH1 0x20 DUP2 DUP4 SUB SUB DUP2 MSTORE SWAP1 PUSH1 0x40 MSTORE DUP1 MLOAD SWAP1 PUSH1 0x20 ADD KECCAK256 PUSH1 0x0 PUSH1 0x40 MLOAD PUSH1 0x20 ADD PUSH2 0x1BC SWAP2 SWAP1 PUSH2 0x4FC JUMP JUMPDEST PUSH1 0x40 MLOAD PUSH1 0x20 DUP2 DUP4 SUB SUB DUP2 MSTORE SWAP1 PUSH1 0x40 MSTORE DUP1 MLOAD SWAP1 PUSH1 0x20 ADD KECCAK256 EQ SWAP1 POP SWAP2 SWAP1 POP JUMP JUMPDEST PUSH1 0x1 DUP1 SLOAD PUSH2 0x1E7 SWAP1 PUSH2 0x66E JUMP JUMPDEST DUP1 PUSH1 0x1F ADD PUSH1 0x20 DUP1 SWAP2 DIV MUL PUSH1 0x20 ADD PUSH1 0x40 MLOAD SWAP1 DUP2 ADD PUSH1 0x40 MSTORE DUP1 SWAP3 SWAP2 SWAP1 DUP2 DUP2 MSTORE PUSH1 0x20 ADD DUP3 DUP1 SLOAD PUSH2 0x213 SWAP1 PUSH2 0x66E JUMP JUMPDEST DUP1 ISZERO PUSH2 0x260 JUMPI DUP1 PUSH1 0x1F LT PUSH2 0x235 JUMPI PUSH2 0x100 DUP1 DUP4 SLOAD DIV MUL DUP4 MSTORE SWAP2 PUSH1 0x20 ADD SWAP2 PUSH2 0x260 JUMP JUMPDEST DUP3 ADD SWAP2 SWAP1 PUSH1 0x0 MSTORE PUSH1 0x20 PUSH1 0x0 KECCAK256 SWAP1 JUMPDEST DUP2 SLOAD DUP2 MSTORE SWAP1 PUSH1 0x1 ADD SWAP1 PUSH1 0x20 ADD DUP1 DUP4 GT PUSH2 0x243 JUMPI DUP3 SWAP1 SUB PUSH1 0x1F AND DUP3 ADD SWAP2 JUMPDEST POP POP POP POP POP DUP2 JUMP JUMPDEST DUP3 DUP1 SLOAD PUSH2 0x274 SWAP1 PUSH2 0x66E JUMP JUMPDEST SWAP1 PUSH1 0x0 MSTORE PUSH1 0x20 PUSH1 0x0 KECCAK256 SWAP1 PUSH1 0x1F ADD PUSH1 0x20 SWAP1 DIV DUP2 ADD SWAP3 DUP3 PUSH2 0x296 JUMPI PUSH1 0x0 DUP6 SSTORE PUSH2 0x2DD JUMP JUMPDEST DUP3 PUSH1 0x1F LT PUSH2 0x2AF JUMPI DUP1 MLOAD PUSH1 0xFF NOT AND DUP4 DUP1 ADD OR DUP6 SSTORE PUSH2 0x2DD JUMP JUMPDEST DUP3 DUP1 ADD PUSH1 0x1 ADD DUP6 SSTORE DUP3 ISZERO PUSH2 0x2DD JUMPI SWAP2 DUP3 ADD JUMPDEST DUP3 DUP2 GT ISZERO PUSH2 0x2DC JUMPI DUP3 MLOAD DUP3 SSTORE SWAP2 PUSH1 0x20 ADD SWAP2 SWAP1 PUSH1 0x1 ADD SWAP1 PUSH2 0x2C1 JUMP JUMPDEST JUMPDEST POP SWAP1 POP PUSH2 0x2EA SWAP2 SWAP1 PUSH2 0x2EE JUMP JUMPDEST POP SWAP1 JUMP JUMPDEST JUMPDEST DUP1 DUP3 GT ISZERO PUSH2 0x307 JUMPI PUSH1 0x0 DUP2 PUSH1 0x0 SWAP1 SSTORE POP PUSH1 0x1 ADD PUSH2 0x2EF JUMP JUMPDEST POP SWAP1 JUMP JUMPDEST PUSH1 0x0 PUSH2 0x31E PUSH2 0x319 DUP5 PUSH2 0x597 JUMP JUMPDEST PUSH2 0x572 JUMP JUMPDEST SWAP1 POP DUP3 DUP2 MSTORE PUSH1 0x20 DUP2 ADD DUP5 DUP5 DUP5 ADD GT ISZERO PUSH2 0x336 JUMPI PUSH1 0x0 DUP1 REVERT JUMPDEST PUSH2 0x341 DUP5 DUP3 DUP6 PUSH2 0x62C JUMP JUMPDEST POP SWAP4 SWAP3 POP POP POP JUMP JUMPDEST PUSH1 0x0 DUP3 PUSH1 0x1F DUP4 ADD SLT PUSH2 0x35A JUMPI PUSH1 0x0 DUP1 REVERT JUMPDEST DUP2 CALLDATALOAD PUSH2 0x36A DUP5 DUP3 PUSH1 0x20 DUP7 ADD PUSH2 0x30B JUMP JUMPDEST SWAP2 POP POP SWAP3 SWAP2 POP POP JUMP JUMPDEST PUSH1 0x0 PUSH1 0x20 DUP3 DUP5 SUB SLT ISZERO PUSH2 0x385 JUMPI PUSH1 0x0 DUP1 REVERT JUMPDEST PUSH1 0x0 DUP3 ADD CALLDATALOAD PUSH8 0xFFFFFFFFFFFFFFFF DUP2 GT ISZERO PUSH2 0x39F JUMPI PUSH1 0x0 DUP1 REVERT JUMPDEST PUSH2 0x3AB DUP5 DUP3 DUP6 ADD PUSH2 0x349 JUMP JUMPDEST SWAP2 POP POP SWAP3 SWAP2 POP POP JUMP JUMPDEST PUSH2 0x3BD DUP2 PUSH2 0x620 JUMP JUMPDEST DUP3 MSTORE POP POP JUMP JUMPDEST PUSH1 0x0 PUSH2 0x3CE DUP3 PUSH2 0x5DD JUMP JUMPDEST PUSH2 0x3D8 DUP2 DUP6 PUSH2 0x5F3 JUMP JUMPDEST SWAP4 POP PUSH2 0x3E8 DUP2 DUP6 PUSH1 0x20 DUP7 ADD PUSH2 0x63B JUMP JUMPDEST PUSH2 0x3F1 DUP2 PUSH2 0x72F JUMP JUMPDEST DUP5 ADD SWAP2 POP POP SWAP3 SWAP2 POP POP JUMP JUMPDEST PUSH1 0x0 PUSH2 0x407 DUP3 PUSH2 0x5E8 JUMP JUMPDEST PUSH2 0x411 DUP2 DUP6 PUSH2 0x604 JUMP JUMPDEST SWAP4 POP PUSH2 0x421 DUP2 DUP6 PUSH1 0x20 DUP7 ADD PUSH2 0x63B JUMP JUMPDEST PUSH2 0x42A DUP2 PUSH2 0x72F JUMP JUMPDEST DUP5 ADD SWAP2 POP POP SWAP3 SWAP2 POP POP JUMP JUMPDEST PUSH1 0x0 PUSH2 0x440 DUP3 PUSH2 0x5E8 JUMP JUMPDEST PUSH2 0x44A DUP2 DUP6 PUSH2 0x615 JUMP JUMPDEST SWAP4 POP PUSH2 0x45A DUP2 DUP6 PUSH1 0x20 DUP7 ADD PUSH2 0x63B JUMP JUMPDEST DUP1 DUP5 ADD SWAP2 POP POP SWAP3 SWAP2 POP POP JUMP JUMPDEST PUSH1 0x0 DUP2 SLOAD PUSH2 0x473 DUP2 PUSH2 0x66E JUMP JUMPDEST PUSH2 0x47D DUP2 DUP7 PUSH2 0x615 JUMP JUMPDEST SWAP5 POP PUSH1 0x1 DUP3 AND PUSH1 0x0 DUP2 EQ PUSH2 0x498 JUMPI PUSH1 0x1 DUP2 EQ PUSH2 0x4A9 JUMPI PUSH2 0x4DC JUMP JUMPDEST PUSH1 0xFF NOT DUP4 AND DUP7 MSTORE DUP2 DUP7 ADD SWAP4 POP PUSH2 0x4DC JUMP JUMPDEST PUSH2 0x4B2 DUP6 PUSH2 0x5C8 JUMP JUMPDEST PUSH1 0x0 JUMPDEST DUP4 DUP2 LT ISZERO PUSH2 0x4D4 JUMPI DUP2 SLOAD DUP2 DUP10 ADD MSTORE PUSH1 0x1 DUP3 ADD SWAP2 POP PUSH1 0x20 DUP2 ADD SWAP1 POP PUSH2 0x4B5 JUMP JUMPDEST DUP4 DUP9 ADD SWAP6 POP POP POP JUMPDEST POP POP POP SWAP3 SWAP2 POP POP JUMP JUMPDEST PUSH1 0x0 PUSH2 0x4F1 DUP3 DUP5 PUSH2 0x435 JUMP JUMPDEST SWAP2 POP DUP2 SWAP1 POP SWAP3 SWAP2 POP POP JUMP JUMPDEST PUSH1 0x0 PUSH2 0x508 DUP3 DUP5 PUSH2 0x466 JUMP JUMPDEST SWAP2 POP DUP2 SWAP1 POP SWAP3 SWAP2 POP POP JUMP JUMPDEST PUSH1 0x0 PUSH1 0x20 DUP3 ADD SWAP1 POP PUSH2 0x528 PUSH1 0x0 DUP4 ADD DUP5 PUSH2 0x3B4 JUMP JUMPDEST SWAP3 SWAP2 POP POP JUMP JUMPDEST PUSH1 0x0 PUSH1 0x20 DUP3 ADD SWAP1 POP DUP2 DUP2 SUB PUSH1 0x0 DUP4 ADD MSTORE PUSH2 0x548 DUP2 DUP5 PUSH2 0x3C3 JUMP JUMPDEST SWAP1 POP SWAP3 SWAP2 POP POP JUMP JUMPDEST PUSH1 0x0 PUSH1 0x20 DUP3 ADD SWAP1 POP DUP2 DUP2 SUB PUSH1 0x0 DUP4 ADD MSTORE PUSH2 0x56A DUP2 DUP5 PUSH2 0x3FC JUMP JUMPDEST SWAP1 POP SWAP3 SWAP2 POP POP JUMP JUMPDEST PUSH1 0x0 PUSH2 0x57C PUSH2 0x58D JUMP JUMPDEST SWAP1 POP PUSH2 0x588 DUP3 DUP3 PUSH2 0x6A0 JUMP JUMPDEST SWAP2 SWAP1 POP JUMP JUMPDEST PUSH1 0x0 PUSH1 0x40 MLOAD SWAP1 POP SWAP1 JUMP JUMPDEST PUSH1 0x0 PUSH8 0xFFFFFFFFFFFFFFFF DUP3 GT ISZERO PUSH2 0x5B2 JUMPI PUSH2 0x5B1 PUSH2 0x700 JUMP JUMPDEST JUMPDEST PUSH2 0x5BB DUP3 PUSH2 0x72F JUMP JUMPDEST SWAP1 POP PUSH1 0x20 DUP2 ADD SWAP1 POP SWAP2 SWAP1 POP JUMP JUMPDEST PUSH1 0x0 DUP2 SWAP1 POP DUP2 PUSH1 0x0 MSTORE PUSH1 0x20 PUSH1 0x0 KECCAK256 SWAP1 POP SWAP2 SWAP1 POP JUMP JUMPDEST PUSH1 0x0 DUP2 MLOAD SWAP1 POP SWAP2 SWAP1 POP JUMP JUMPDEST PUSH1 0x0 DUP2 MLOAD SWAP1 POP SWAP2 SWAP1 POP JUMP JUMPDEST PUSH1 0x0 DUP3 DUP3 MSTORE PUSH1 0x20 DUP3 ADD SWAP1 POP SWAP3 SWAP2 POP POP JUMP JUMPDEST PUSH1 0x0 DUP3 DUP3 MSTORE PUSH1 0x20 DUP3 ADD SWAP1 POP SWAP3 SWAP2 POP POP JUMP JUMPDEST PUSH1 0x0 DUP2 SWAP1 POP SWAP3 SWAP2 POP POP JUMP JUMPDEST PUSH1 0x0 DUP2 ISZERO ISZERO SWAP1 POP SWAP2 SWAP1 POP JUMP JUMPDEST DUP3 DUP2 DUP4 CALLDATACOPY PUSH1 0x0 DUP4 DUP4 ADD MSTORE POP POP POP JUMP JUMPDEST PUSH1 0x0 JUMPDEST DUP4 DUP2 LT ISZERO PUSH2 0x659 JUMPI DUP1 DUP3 ADD MLOAD DUP2 DUP5 ADD MSTORE PUSH1 0x20 DUP2 ADD SWAP1 POP PUSH2 0x63E JUMP JUMPDEST DUP4 DUP2 GT ISZERO PUSH2 0x668 JUMPI PUSH1 0x0 DUP5 DUP5 ADD MSTORE JUMPDEST POP POP POP POP JUMP JUMPDEST PUSH1 0x0 PUSH1 0x2 DUP3 DIV SWAP1 POP PUSH1 0x1 DUP3 AND DUP1 PUSH2 0x686 JUMPI PUSH1 0x7F DUP3 AND SWAP2 POP JUMPDEST PUSH1 0x20 DUP3 LT DUP2 EQ ISZERO PUSH2 0x69A JUMPI PUSH2 0x699 PUSH2 0x6D1 JUMP JUMPDEST JUMPDEST POP SWAP2 SWAP1 POP JUMP JUMPDEST PUSH2 0x6A9 DUP3 PUSH2 0x72F JUMP JUMPDEST DUP2 ADD DUP2 DUP2 LT PUSH8 0xFFFFFFFFFFFFFFFF DUP3 GT OR ISZERO PUSH2 0x6C8 JUMPI PUSH2 0x6C7 PUSH2 0x700 JUMP JUMPDEST JUMPDEST DUP1 PUSH1 0x40 MSTORE POP POP POP JUMP JUMPDEST PUSH32 0x4E487B7100000000000000000000000000000000000000000000000000000000 PUSH1 0x0 MSTORE PUSH1 0x22 PUSH1 0x4 MSTORE PUSH1 0x24 PUSH1 0x0 REVERT JUMPDEST PUSH32 0x4E487B7100000000000000000000000000000000000000000000000000000000 PUSH1 0x0 MSTORE PUSH1 0x41 PUSH1 0x4 MSTORE PUSH1 0x24 PUSH1 0x0 REVERT JUMPDEST PUSH1 0x0 PUSH1 0x1F NOT PUSH1 0x1F DUP4 ADD AND SWAP1 POP SWAP2 SWAP1 POP JUMP INVALID LOG2 PUSH5 0x6970667358 0x22 SLT KECCAK256 RETURN 0x26 INVALID 0x1F CALLER CODECOPY STOP DUP15 0xFB 0xB8 MSTORE8 CALLDATALOAD PUSH20 0xD280B65278B923C69D280C235C7A679D2C6FB864 PUSH20 0x6F6C634300080400330000000000000000000000 "
				},
				"gasEstimates": {
					"creation": {
						"codeDepositCost": "382000",
						"executionCost": "infinite",
						"totalCost": "infinite"
					},
					"external": {
						"compareTwoStrings(string)": "infinite",
						"myBytes()": "infinite",
						"myString()": "infinite",
						"setMyStrings(string)": "infinite"
					}
				},
				"methodIdentifiers": {
					"compareTwoStrings(string)": "5ce25353",
					"myBytes()": "712f4602",
					"myString()": "492bfa18",
					"setMyStrings(string)": "1a965b82"
				}
			},
			"storageLayout": {
				"storage": [
					{
						"astId": 4,
						"contract": "contracts/Study/ExampleString.sol:ExampleStrings",
						"label": "myString",
						"offset": 0,
						"slot": "0",
						"type": "t_string_storage"
					},
					{
						"astId": 7,
						"contract": "contracts/Study/ExampleString.sol:ExampleStrings",
						"label": "myBytes",
						"offset": 0,
						"slot": "1",
						"type": "t_bytes_storage"
					}
				],
				"types": {
					"t_bytes_storage": {
						"encoding": "bytes",
						"label": "bytes",
						"numberOfBytes": "32"
					},
					"t_string_storage": {
						"encoding": "bytes",
						"label": "string",
						"numberOfBytes": "32"
					}
				}
			},
			"userdoc": {
				"kind": "user",
				"methods": {},
				"version": 1
			}
		}
	}
}