{
	"contracts/Study/ExampleBoolean.sol": {
		"ExampleBoolean": {
			"abi": [
				{
					"inputs": [],
					"name": "myBool",
					"outputs": [
						{
							"internalType": "bool",
							"name": "",
							"type": "bool"
						}
					],
					"stateMutability": "view",
					"type": "function"
				},
				{
					"inputs": [
						{
							"internalType": "bool",
							"name": "_myBool",
							"type": "bool"
						}
					],
					"name": "setMyBool",
					"outputs": [],
					"stateMutability": "nonpayable",
					"type": "function"
				}
			],
			"devdoc": {
				"kind": "dev",
				"methods": {},
				"version": 1
			},
			"evm": {
				"assembly": "    /* \"contracts/Study/ExampleBoolean.sol\":58:234  contract ExampleBoolean {\r... */\n  mstore(0x40, 0x80)\n  callvalue\n  dup1\n  iszero\n  tag_1\n  jumpi\n  0x00\n  dup1\n  revert\ntag_1:\n  pop\n  dataSize(sub_0)\n  dup1\n  dataOffset(sub_0)\n  0x00\n  codecopy\n  0x00\n  return\nstop\n\nsub_0: assembly {\n        /* \"contracts/Study/ExampleBoolean.sol\":58:234  contract ExampleBoolean {\r... */\n      mstore(0x40, 0x80)\n      callvalue\n      dup1\n      iszero\n      tag_1\n      jumpi\n      0x00\n      dup1\n      revert\n    tag_1:\n      pop\n      jumpi(tag_2, lt(calldatasize, 0x04))\n      shr(0xe0, calldataload(0x00))\n      dup1\n      0x6deecdbe\n      eq\n      tag_3\n      jumpi\n      dup1\n      0xeb1b30d9\n      eq\n      tag_4\n      jumpi\n    tag_2:\n      0x00\n      dup1\n      revert\n        /* \"contracts/Study/ExampleBoolean.sol\":90:109  bool  public myBool */\n    tag_3:\n      tag_5\n      tag_6\n      jump\t// in\n    tag_5:\n      mload(0x40)\n      tag_7\n      swap2\n      swap1\n      tag_8\n      jump\t// in\n    tag_7:\n      mload(0x40)\n      dup1\n      swap2\n      sub\n      swap1\n      return\n        /* \"contracts/Study/ExampleBoolean.sol\":135:229  function setMyBool(bool  _myBool) public {//Nut gan gia tri\r... */\n    tag_4:\n      tag_9\n      0x04\n      dup1\n      calldatasize\n      sub\n      dup2\n      add\n      swap1\n      tag_10\n      swap2\n      swap1\n      tag_11\n      jump\t// in\n    tag_10:\n      tag_12\n      jump\t// in\n    tag_9:\n      stop\n        /* \"contracts/Study/ExampleBoolean.sol\":90:109  bool  public myBool */\n    tag_6:\n      0x00\n      dup1\n      sload\n      swap1\n      0x0100\n      exp\n      swap1\n      div\n      0xff\n      and\n      dup2\n      jump\t// out\n        /* \"contracts/Study/ExampleBoolean.sol\":135:229  function setMyBool(bool  _myBool) public {//Nut gan gia tri\r... */\n    tag_12:\n        /* \"contracts/Study/ExampleBoolean.sol\":214:221  _myBool */\n      dup1\n        /* \"contracts/Study/ExampleBoolean.sol\":205:211  myBool */\n      0x00\n      dup1\n        /* \"contracts/Study/ExampleBoolean.sol\":205:221  myBool = _myBool */\n      0x0100\n      exp\n      dup2\n      sload\n      dup2\n      0xff\n      mul\n      not\n      and\n      swap1\n      dup4\n      iszero\n      iszero\n      mul\n      or\n      swap1\n      sstore\n      pop\n        /* \"contracts/Study/ExampleBoolean.sol\":135:229  function setMyBool(bool  _myBool) public {//Nut gan gia tri\r... */\n      pop\n      jump\t// out\n        /* \"#utility.yul\":7:140   */\n    tag_15:\n        /* \"#utility.yul\":50:55   */\n      0x00\n        /* \"#utility.yul\":88:94   */\n      dup2\n        /* \"#utility.yul\":75:95   */\n      calldataload\n        /* \"#utility.yul\":66:95   */\n      swap1\n      pop\n        /* \"#utility.yul\":104:134   */\n      tag_17\n        /* \"#utility.yul\":128:133   */\n      dup2\n        /* \"#utility.yul\":104:134   */\n      tag_18\n      jump\t// in\n    tag_17:\n        /* \"#utility.yul\":56:140   */\n      swap3\n      swap2\n      pop\n      pop\n      jump\t// out\n        /* \"#utility.yul\":146:402   */\n    tag_11:\n        /* \"#utility.yul\":202:208   */\n      0x00\n        /* \"#utility.yul\":251:253   */\n      0x20\n        /* \"#utility.yul\":239:248   */\n      dup3\n        /* \"#utility.yul\":230:237   */\n      dup5\n        /* \"#utility.yul\":226:249   */\n      sub\n        /* \"#utility.yul\":222:254   */\n      slt\n        /* \"#utility.yul\":219:221   */\n      iszero\n      tag_20\n      jumpi\n        /* \"#utility.yul\":267:268   */\n      0x00\n        /* \"#utility.yul\":264:265   */\n      dup1\n        /* \"#utility.yul\":257:269   */\n      revert\n        /* \"#utility.yul\":219:221   */\n    tag_20:\n        /* \"#utility.yul\":310:311   */\n      0x00\n        /* \"#utility.yul\":335:385   */\n      tag_21\n        /* \"#utility.yul\":377:384   */\n      dup5\n        /* \"#utility.yul\":368:374   */\n      dup3\n        /* \"#utility.yul\":357:366   */\n      dup6\n        /* \"#utility.yul\":353:375   */\n      add\n        /* \"#utility.yul\":335:385   */\n      tag_15\n      jump\t// in\n    tag_21:\n        /* \"#utility.yul\":325:385   */\n      swap2\n      pop\n        /* \"#utility.yul\":281:395   */\n      pop\n        /* \"#utility.yul\":209:402   */\n      swap3\n      swap2\n      pop\n      pop\n      jump\t// out\n        /* \"#utility.yul\":408:517   */\n    tag_22:\n        /* \"#utility.yul\":489:510   */\n      tag_24\n        /* \"#utility.yul\":504:509   */\n      dup2\n        /* \"#utility.yul\":489:510   */\n      tag_25\n      jump\t// in\n    tag_24:\n        /* \"#utility.yul\":484:487   */\n      dup3\n        /* \"#utility.yul\":477:511   */\n      mstore\n        /* \"#utility.yul\":467:517   */\n      pop\n      pop\n      jump\t// out\n        /* \"#utility.yul\":523:733   */\n    tag_8:\n        /* \"#utility.yul\":610:614   */\n      0x00\n        /* \"#utility.yul\":648:650   */\n      0x20\n        /* \"#utility.yul\":637:646   */\n      dup3\n        /* \"#utility.yul\":633:651   */\n      add\n        /* \"#utility.yul\":625:651   */\n      swap1\n      pop\n        /* \"#utility.yul\":661:726   */\n      tag_27\n        /* \"#utility.yul\":723:724   */\n      0x00\n        /* \"#utility.yul\":712:721   */\n      dup4\n        /* \"#utility.yul\":708:725   */\n      add\n        /* \"#utility.yul\":699:705   */\n      dup5\n        /* \"#utility.yul\":661:726   */\n      tag_22\n      jump\t// in\n    tag_27:\n        /* \"#utility.yul\":615:733   */\n      swap3\n      swap2\n      pop\n      pop\n      jump\t// out\n        /* \"#utility.yul\":739:829   */\n    tag_25:\n        /* \"#utility.yul\":773:780   */\n      0x00\n        /* \"#utility.yul\":816:821   */\n      dup2\n        /* \"#utility.yul\":809:822   */\n      iszero\n        /* \"#utility.yul\":802:823   */\n      iszero\n        /* \"#utility.yul\":791:823   */\n      swap1\n      pop\n        /* \"#utility.yul\":781:829   */\n      swap2\n      swap1\n      pop\n      jump\t// out\n        /* \"#utility.yul\":835:951   */\n    tag_18:\n        /* \"#utility.yul\":905:926   */\n      tag_30\n        /* \"#utility.yul\":920:925   */\n      dup2\n        /* \"#utility.yul\":905:926   */\n      tag_25\n      jump\t// in\n    tag_30:\n        /* \"#utility.yul\":898:903   */\n      dup2\n        /* \"#utility.yul\":895:927   */\n      eq\n        /* \"#utility.yul\":885:887   */\n      tag_31\n      jumpi\n        /* \"#utility.yul\":941:942   */\n      0x00\n        /* \"#utility.yul\":938:939   */\n      dup1\n        /* \"#utility.yul\":931:943   */\n      revert\n        /* \"#utility.yul\":885:887   */\n    tag_31:\n        /* \"#utility.yul\":875:951   */\n      pop\n      jump\t// out\n\n    auxdata: 0xa2646970667358221220cdd7897a3a9bcfc0c0b7bb1e6aaad9d48f8ec7d5567f087680ed130f0917bb7d64736f6c63430008040033\n}\n",
				"bytecode": {
					"linkReferences": {},
					"object": "608060405234801561001057600080fd5b50610163806100206000396000f3fe608060405234801561001057600080fd5b50600436106100365760003560e01c80636deecdbe1461003b578063eb1b30d914610059575b600080fd5b610043610075565b60405161005091906100ef565b60405180910390f35b610073600480360381019061006e91906100b7565b610086565b005b60008054906101000a900460ff1681565b806000806101000a81548160ff02191690831515021790555050565b6000813590506100b181610116565b92915050565b6000602082840312156100c957600080fd5b60006100d7848285016100a2565b91505092915050565b6100e98161010a565b82525050565b600060208201905061010460008301846100e0565b92915050565b60008115159050919050565b61011f8161010a565b811461012a57600080fd5b5056fea2646970667358221220cdd7897a3a9bcfc0c0b7bb1e6aaad9d48f8ec7d5567f087680ed130f0917bb7d64736f6c63430008040033",
					"opcodes": "PUSH1 0x80 PUSH1 0x40 MSTORE CALLVALUE DUP1 ISZERO PUSH2 0x10 JUMPI PUSH1 0x0 DUP1 REVERT JUMPDEST POP PUSH2 0x163 DUP1 PUSH2 0x20 PUSH1 0x0 CODECOPY PUSH1 0x0 RETURN INVALID PUSH1 0x80 PUSH1 0x40 MSTORE CALLVALUE DUP1 ISZERO PUSH2 0x10 JUMPI PUSH1 0x0 DUP1 REVERT JUMPDEST POP PUSH1 0x4 CALLDATASIZE LT PUSH2 0x36 JUMPI PUSH1 0x0 CALLDATALOAD PUSH1 0xE0 SHR DUP1 PUSH4 0x6DEECDBE EQ PUSH2 0x3B JUMPI DUP1 PUSH4 0xEB1B30D9 EQ PUSH2 0x59 JUMPI JUMPDEST PUSH1 0x0 DUP1 REVERT JUMPDEST PUSH2 0x43 PUSH2 0x75 JUMP JUMPDEST PUSH1 0x40 MLOAD PUSH2 0x50 SWAP2 SWAP1 PUSH2 0xEF JUMP JUMPDEST PUSH1 0x40 MLOAD DUP1 SWAP2 SUB SWAP1 RETURN JUMPDEST PUSH2 0x73 PUSH1 0x4 DUP1 CALLDATASIZE SUB DUP2 ADD SWAP1 PUSH2 0x6E SWAP2 SWAP1 PUSH2 0xB7 JUMP JUMPDEST PUSH2 0x86 JUMP JUMPDEST STOP JUMPDEST PUSH1 0x0 DUP1 SLOAD SWAP1 PUSH2 0x100 EXP SWAP1 DIV PUSH1 0xFF AND DUP2 JUMP JUMPDEST DUP1 PUSH1 0x0 DUP1 PUSH2 0x100 EXP DUP2 SLOAD DUP2 PUSH1 0xFF MUL NOT AND SWAP1 DUP4 ISZERO ISZERO MUL OR SWAP1 SSTORE POP POP JUMP JUMPDEST PUSH1 0x0 DUP2 CALLDATALOAD SWAP1 POP PUSH2 0xB1 DUP2 PUSH2 0x116 JUMP JUMPDEST SWAP3 SWAP2 POP POP JUMP JUMPDEST PUSH1 0x0 PUSH1 0x20 DUP3 DUP5 SUB SLT ISZERO PUSH2 0xC9 JUMPI PUSH1 0x0 DUP1 REVERT JUMPDEST PUSH1 0x0 PUSH2 0xD7 DUP5 DUP3 DUP6 ADD PUSH2 0xA2 JUMP JUMPDEST SWAP2 POP POP SWAP3 SWAP2 POP POP JUMP JUMPDEST PUSH2 0xE9 DUP2 PUSH2 0x10A JUMP JUMPDEST DUP3 MSTORE POP POP JUMP JUMPDEST PUSH1 0x0 PUSH1 0x20 DUP3 ADD SWAP1 POP PUSH2 0x104 PUSH1 0x0 DUP4 ADD DUP5 PUSH2 0xE0 JUMP JUMPDEST SWAP3 SWAP2 POP POP JUMP JUMPDEST PUSH1 0x0 DUP2 ISZERO ISZERO SWAP1 POP SWAP2 SWAP1 POP JUMP JUMPDEST PUSH2 0x11F DUP2 PUSH2 0x10A JUMP JUMPDEST DUP2 EQ PUSH2 0x12A JUMPI PUSH1 0x0 DUP1 REVERT JUMPDEST POP JUMP INVALID LOG2 PUSH5 0x6970667358 0x22 SLT KECCAK256 0xCD 0xD7 DUP10 PUSH27 0x3A9BCFC0C0B7BB1E6AAAD9D48F8EC7D5567F087680ED130F0917BB PUSH30 0x64736F6C6343000804003300000000000000000000000000000000000000 "
				},
				"gasEstimates": {
					"creation": {
						"codeDepositCost": "71000",
						"executionCost": "123",
						"totalCost": "71123"
					},
					"external": {
						"myBool()": "1146",
						"setMyBool(bool)": "21279"
					}
				},
				"methodIdentifiers": {
					"myBool()": "6deecdbe",
					"setMyBool(bool)": "eb1b30d9"
				}
			},
			"storageLayout": {
				"storage": [
					{
						"astId": 3,
						"contract": "contracts/Study/ExampleBoolean.sol:ExampleBoolean",
						"label": "myBool",
						"offset": 0,
						"slot": "0",
						"type": "t_bool"
					}
				],
				"types": {
					"t_bool": {
						"encoding": "inplace",
						"label": "bool",
						"numberOfBytes": "1"
					}
				}
			},
			"userdoc": {
				"kind": "user",
				"methods": {},
				"version": 1
			}
		}
	}
}