{
	"data": {
		"bytecode": {
			"linkReferences": {},
			"object": "608060405234801561001057600080fd5b506104be806100206000396000f3fe6080604052600436106100435760003560e01c806306540f7e146100f2578063bd36ca5e1461011d578063e36a665514610148578063e492fd84146101735761009d565b3661009d57346000819055506040518060400160405280600781526020017f72656365697665000000000000000000000000000000000000000000000000008152506001908051906020019061009a929190610240565b50005b346000819055506040518060400160405280600881526020017f66616c6c6261636b000000000000000000000000000000000000000000000000815250600190805190602001906100ef929190610240565b50005b3480156100fe57600080fd5b5061010761019c565b604051610114919061038b565b60405180910390f35b34801561012957600080fd5b506101326101a2565b60405161013f9190610369565b60405180910390f35b34801561015457600080fd5b5061015d610230565b60405161016a919061038b565b60405180910390f35b34801561017f57600080fd5b5061019a600480360381019061019591906102f8565b610236565b005b60025481565b600180546101af906103ff565b80601f01602080910402602001604051908101604052809291908181526020018280546101db906103ff565b80156102285780601f106101fd57610100808354040283529160200191610228565b820191906000526020600020905b81548152906001019060200180831161020b57829003601f168201915b505050505081565b60005481565b8060028190555050565b82805461024c906103ff565b90600052602060002090601f01602090048101928261026e57600085556102b5565b82601f1061028757805160ff19168380011785556102b5565b828001600101855582156102b5579182015b828111156102b4578251825591602001919060010190610299565b5b5090506102c291906102c6565b5090565b5b808211156102df5760008160009055506001016102c7565b5090565b6000813590506102f281610471565b92915050565b60006020828403121561030a57600080fd5b6000610318848285016102e3565b91505092915050565b600061032c826103a6565b61033681856103b1565b93506103468185602086016103cc565b61034f81610460565b840191505092915050565b610363816103c2565b82525050565b600060208201905081810360008301526103838184610321565b905092915050565b60006020820190506103a0600083018461035a565b92915050565b600081519050919050565b600082825260208201905092915050565b6000819050919050565b60005b838110156103ea5780820151818401526020810190506103cf565b838111156103f9576000848401525b50505050565b6000600282049050600182168061041757607f821691505b6020821081141561042b5761042a610431565b5b50919050565b7f4e487b7100000000000000000000000000000000000000000000000000000000600052602260045260246000fd5b6000601f19601f8301169050919050565b61047a816103c2565b811461048557600080fd5b5056fea2646970667358221220fa52e6d2a1226c3708e2cbb8447744de42cf5a5041c31ff844b0aa18ea15134364736f6c63430008040033",
			"opcodes": "PUSH1 0x80 PUSH1 0x40 MSTORE CALLVALUE DUP1 ISZERO PUSH2 0x10 JUMPI PUSH1 0x0 DUP1 REVERT JUMPDEST POP PUSH2 0x4BE DUP1 PUSH2 0x20 PUSH1 0x0 CODECOPY PUSH1 0x0 RETURN INVALID PUSH1 0x80 PUSH1 0x40 MSTORE PUSH1 0x4 CALLDATASIZE LT PUSH2 0x43 JUMPI PUSH1 0x0 CALLDATALOAD PUSH1 0xE0 SHR DUP1 PUSH4 0x6540F7E EQ PUSH2 0xF2 JUMPI DUP1 PUSH4 0xBD36CA5E EQ PUSH2 0x11D JUMPI DUP1 PUSH4 0xE36A6655 EQ PUSH2 0x148 JUMPI DUP1 PUSH4 0xE492FD84 EQ PUSH2 0x173 JUMPI PUSH2 0x9D JUMP JUMPDEST CALLDATASIZE PUSH2 0x9D JUMPI CALLVALUE PUSH1 0x0 DUP2 SWAP1 SSTORE POP PUSH1 0x40 MLOAD DUP1 PUSH1 0x40 ADD PUSH1 0x40 MSTORE DUP1 PUSH1 0x7 DUP2 MSTORE PUSH1 0x20 ADD PUSH32 0x7265636569766500000000000000000000000000000000000000000000000000 DUP2 MSTORE POP PUSH1 0x1 SWAP1 DUP1 MLOAD SWAP1 PUSH1 0x20 ADD SWAP1 PUSH2 0x9A SWAP3 SWAP2 SWAP1 PUSH2 0x240 JUMP JUMPDEST POP STOP JUMPDEST CALLVALUE PUSH1 0x0 DUP2 SWAP1 SSTORE POP PUSH1 0x40 MLOAD DUP1 PUSH1 0x40 ADD PUSH1 0x40 MSTORE DUP1 PUSH1 0x8 DUP2 MSTORE PUSH1 0x20 ADD PUSH32 0x66616C6C6261636B000000000000000000000000000000000000000000000000 DUP2 MSTORE POP PUSH1 0x1 SWAP1 DUP1 MLOAD SWAP1 PUSH1 0x20 ADD SWAP1 PUSH2 0xEF SWAP3 SWAP2 SWAP1 PUSH2 0x240 JUMP JUMPDEST POP STOP JUMPDEST CALLVALUE DUP1 ISZERO PUSH2 0xFE JUMPI PUSH1 0x0 DUP1 REVERT JUMPDEST POP PUSH2 0x107 PUSH2 0x19C JUMP JUMPDEST PUSH1 0x40 MLOAD PUSH2 0x114 SWAP2 SWAP1 PUSH2 0x38B JUMP JUMPDEST PUSH1 0x40 MLOAD DUP1 SWAP2 SUB SWAP1 RETURN JUMPDEST CALLVALUE DUP1 ISZERO PUSH2 0x129 JUMPI PUSH1 0x0 DUP1 REVERT JUMPDEST POP PUSH2 0x132 PUSH2 0x1A2 JUMP JUMPDEST PUSH1 0x40 MLOAD PUSH2 0x13F SWAP2 SWAP1 PUSH2 0x369 JUMP JUMPDEST PUSH1 0x40 MLOAD DUP1 SWAP2 SUB SWAP1 RETURN JUMPDEST CALLVALUE DUP1 ISZERO PUSH2 0x154 JUMPI PUSH1 0x0 DUP1 REVERT JUMPDEST POP PUSH2 0x15D PUSH2 0x230 JUMP JUMPDEST PUSH1 0x40 MLOAD PUSH2 0x16A SWAP2 SWAP1 PUSH2 0x38B JUMP JUMPDEST PUSH1 0x40 MLOAD DUP1 SWAP2 SUB SWAP1 RETURN JUMPDEST CALLVALUE DUP1 ISZERO PUSH2 0x17F JUMPI PUSH1 0x0 DUP1 REVERT JUMPDEST POP PUSH2 0x19A PUSH1 0x4 DUP1 CALLDATASIZE SUB DUP2 ADD SWAP1 PUSH2 0x195 SWAP2 SWAP1 PUSH2 0x2F8 JUMP JUMPDEST PUSH2 0x236 JUMP JUMPDEST STOP JUMPDEST PUSH1 0x2 SLOAD DUP2 JUMP JUMPDEST PUSH1 0x1 DUP1 SLOAD PUSH2 0x1AF SWAP1 PUSH2 0x3FF JUMP JUMPDEST DUP1 PUSH1 0x1F ADD PUSH1 0x20 DUP1 SWAP2 DIV MUL PUSH1 0x20 ADD PUSH1 0x40 MLOAD SWAP1 DUP2 ADD PUSH1 0x40 MSTORE DUP1 SWAP3 SWAP2 SWAP1 DUP2 DUP2 MSTORE PUSH1 0x20 ADD DUP3 DUP1 SLOAD PUSH2 0x1DB SWAP1 PUSH2 0x3FF JUMP JUMPDEST DUP1 ISZERO PUSH2 0x228 JUMPI DUP1 PUSH1 0x1F LT PUSH2 0x1FD JUMPI PUSH2 0x100 DUP1 DUP4 SLOAD DIV MUL DUP4 MSTORE SWAP2 PUSH1 0x20 ADD SWAP2 PUSH2 0x228 JUMP JUMPDEST DUP3 ADD SWAP2 SWAP1 PUSH1 0x0 MSTORE PUSH1 0x20 PUSH1 0x0 KECCAK256 SWAP1 JUMPDEST DUP2 SLOAD DUP2 MSTORE SWAP1 PUSH1 0x1 ADD SWAP1 PUSH1 0x20 ADD DUP1 DUP4 GT PUSH2 0x20B JUMPI DUP3 SWAP1 SUB PUSH1 0x1F AND DUP3 ADD SWAP2 JUMPDEST POP POP POP POP POP DUP2 JUMP JUMPDEST PUSH1 0x0 SLOAD DUP2 JUMP JUMPDEST DUP1 PUSH1 0x2 DUP2 SWAP1 SSTORE POP POP JUMP JUMPDEST DUP3 DUP1 SLOAD PUSH2 0x24C SWAP1 PUSH2 0x3FF JUMP JUMPDEST SWAP1 PUSH1 0x0 MSTORE PUSH1 0x20 PUSH1 0x0 KECCAK256 SWAP1 PUSH1 0x1F ADD PUSH1 0x20 SWAP1 DIV DUP2 ADD SWAP3 DUP3 PUSH2 0x26E JUMPI PUSH1 0x0 DUP6 SSTORE PUSH2 0x2B5 JUMP JUMPDEST DUP3 PUSH1 0x1F LT PUSH2 0x287 JUMPI DUP1 MLOAD PUSH1 0xFF NOT AND DUP4 DUP1 ADD OR DUP6 SSTORE PUSH2 0x2B5 JUMP JUMPDEST DUP3 DUP1 ADD PUSH1 0x1 ADD DUP6 SSTORE DUP3 ISZERO PUSH2 0x2B5 JUMPI SWAP2 DUP3 ADD JUMPDEST DUP3 DUP2 GT ISZERO PUSH2 0x2B4 JUMPI DUP3 MLOAD DUP3 SSTORE SWAP2 PUSH1 0x20 ADD SWAP2 SWAP1 PUSH1 0x1 ADD SWAP1 PUSH2 0x299 JUMP JUMPDEST JUMPDEST POP SWAP1 POP PUSH2 0x2C2 SWAP2 SWAP1 PUSH2 0x2C6 JUMP JUMPDEST POP SWAP1 JUMP JUMPDEST JUMPDEST DUP1 DUP3 GT ISZERO PUSH2 0x2DF JUMPI PUSH1 0x0 DUP2 PUSH1 0x0 SWAP1 SSTORE POP PUSH1 0x1 ADD PUSH2 0x2C7 JUMP JUMPDEST POP SWAP1 JUMP JUMPDEST PUSH1 0x0 DUP2 CALLDATALOAD SWAP1 POP PUSH2 0x2F2 DUP2 PUSH2 0x471 JUMP JUMPDEST SWAP3 SWAP2 POP POP JUMP JUMPDEST PUSH1 0x0 PUSH1 0x20 DUP3 DUP5 SUB SLT ISZERO PUSH2 0x30A JUMPI PUSH1 0x0 DUP1 REVERT JUMPDEST PUSH1 0x0 PUSH2 0x318 DUP5 DUP3 DUP6 ADD PUSH2 0x2E3 JUMP JUMPDEST SWAP2 POP POP SWAP3 SWAP2 POP POP JUMP JUMPDEST PUSH1 0x0 PUSH2 0x32C DUP3 PUSH2 0x3A6 JUMP JUMPDEST PUSH2 0x336 DUP2 DUP6 PUSH2 0x3B1 JUMP JUMPDEST SWAP4 POP PUSH2 0x346 DUP2 DUP6 PUSH1 0x20 DUP7 ADD PUSH2 0x3CC JUMP JUMPDEST PUSH2 0x34F DUP2 PUSH2 0x460 JUMP JUMPDEST DUP5 ADD SWAP2 POP POP SWAP3 SWAP2 POP POP JUMP JUMPDEST PUSH2 0x363 DUP2 PUSH2 0x3C2 JUMP JUMPDEST DUP3 MSTORE POP POP JUMP JUMPDEST PUSH1 0x0 PUSH1 0x20 DUP3 ADD SWAP1 POP DUP2 DUP2 SUB PUSH1 0x0 DUP4 ADD MSTORE PUSH2 0x383 DUP2 DUP5 PUSH2 0x321 JUMP JUMPDEST SWAP1 POP SWAP3 SWAP2 POP POP JUMP JUMPDEST PUSH1 0x0 PUSH1 0x20 DUP3 ADD SWAP1 POP PUSH2 0x3A0 PUSH1 0x0 DUP4 ADD DUP5 PUSH2 0x35A JUMP JUMPDEST SWAP3 SWAP2 POP POP JUMP JUMPDEST PUSH1 0x0 DUP2 MLOAD SWAP1 POP SWAP2 SWAP1 POP JUMP JUMPDEST PUSH1 0x0 DUP3 DUP3 MSTORE PUSH1 0x20 DUP3 ADD SWAP1 POP SWAP3 SWAP2 POP POP JUMP JUMPDEST PUSH1 0x0 DUP2 SWAP1 POP SWAP2 SWAP1 POP JUMP JUMPDEST PUSH1 0x0 JUMPDEST DUP4 DUP2 LT ISZERO PUSH2 0x3EA JUMPI DUP1 DUP3 ADD MLOAD DUP2 DUP5 ADD MSTORE PUSH1 0x20 DUP2 ADD SWAP1 POP PUSH2 0x3CF JUMP JUMPDEST DUP4 DUP2 GT ISZERO PUSH2 0x3F9 JUMPI PUSH1 0x0 DUP5 DUP5 ADD MSTORE JUMPDEST POP POP POP POP JUMP JUMPDEST PUSH1 0x0 PUSH1 0x2 DUP3 DIV SWAP1 POP PUSH1 0x1 DUP3 AND DUP1 PUSH2 0x417 JUMPI PUSH1 0x7F DUP3 AND SWAP2 POP JUMPDEST PUSH1 0x20 DUP3 LT DUP2 EQ ISZERO PUSH2 0x42B JUMPI PUSH2 0x42A PUSH2 0x431 JUMP JUMPDEST JUMPDEST POP SWAP2 SWAP1 POP JUMP JUMPDEST PUSH32 0x4E487B7100000000000000000000000000000000000000000000000000000000 PUSH1 0x0 MSTORE PUSH1 0x22 PUSH1 0x4 MSTORE PUSH1 0x24 PUSH1 0x0 REVERT JUMPDEST PUSH1 0x0 PUSH1 0x1F NOT PUSH1 0x1F DUP4 ADD AND SWAP1 POP SWAP2 SWAP1 POP JUMP JUMPDEST PUSH2 0x47A DUP2 PUSH2 0x3C2 JUMP JUMPDEST DUP2 EQ PUSH2 0x485 JUMPI PUSH1 0x0 DUP1 REVERT JUMPDEST POP JUMP INVALID LOG2 PUSH5 0x6970667358 0x22 SLT KECCAK256 STATICCALL MSTORE 0xE6 0xD2 LOG1 0x22 PUSH13 0x3708E2CBB8447744DE42CF5A50 COINBASE 0xC3 0x1F 0xF8 DIFFICULTY 0xB0 0xAA XOR 0xEA ISZERO SGT NUMBER PUSH5 0x736F6C6343 STOP ADDMOD DIV STOP CALLER "
		},
		"gasEstimates": {
			"creation": {
				"codeDepositCost": "242800",
				"executionCost": "281",
				"totalCost": "243081"
			},
			"external": {
				"": "infinite",
				"lastFunctioncalled()": "infinite",
				"lastValueSent()": "1151",
				"myUint()": "1107",
				"setMyUint(uint256)": "20464"
			}
		},
		"methodIdentifiers": {
			"lastFunctioncalled()": "bd36ca5e",
			"lastValueSent()": "e36a6655",
			"myUint()": "06540f7e",
			"setMyUint(uint256)": "e492fd84"
		}
	},
	"abi": [
		{
			"stateMutability": "payable",
			"type": "fallback"
		},
		{
			"inputs": [],
			"name": "lastFunctioncalled",
			"outputs": [
				{
					"internalType": "string",
					"name": "",
					"type": "string"
				}
			],
			"stateMutability": "view",
			"type": "function"
		},
		{
			"inputs": [],
			"name": "lastValueSent",
			"outputs": [
				{
					"internalType": "uint256",
					"name": "",
					"type": "uint256"
				}
			],
			"stateMutability": "view",
			"type": "function"
		},
		{
			"inputs": [],
			"name": "myUint",
			"outputs": [
				{
					"internalType": "uint256",
					"name": "",
					"type": "uint256"
				}
			],
			"stateMutability": "view",
			"type": "function"
		},
		{
			"inputs": [
				{
					"internalType": "uint256",
					"name": "_myNewUint",
					"type": "uint256"
				}
			],
			"name": "setMyUint",
			"outputs": [],
			"stateMutability": "nonpayable",
			"type": "function"
		},
		{
			"stateMutability": "payable",
			"type": "receive"
		}
	]
}