{
	"contracts/Struct.sol": {
		"Game": {
			"abi": [
				{
					"inputs": [
						{
							"internalType": "string",
							"name": "FullName",
							"type": "string"
						},
						{
							"internalType": "uint256",
							"name": "age",
							"type": "uint256"
						},
						{
							"internalType": "string",
							"name": "sex",
							"type": "string"
						}
					],
					"name": "addPlayer",
					"outputs": [],
					"stateMutability": "nonpayable",
					"type": "function"
				},
				{
					"inputs": [
						{
							"internalType": "address",
							"name": "addressPlayer",
							"type": "address"
						}
					],
					"name": "changePlayerLevel",
					"outputs": [],
					"stateMutability": "nonpayable",
					"type": "function"
				},
				{
					"inputs": [],
					"name": "countPlayer",
					"outputs": [
						{
							"internalType": "uint256",
							"name": "",
							"type": "uint256"
						}
					],
					"stateMutability": "view",
					"type": "function"
				},
				{
					"inputs": [
						{
							"internalType": "address",
							"name": "addressPlayer",
							"type": "address"
						}
					],
					"name": "getPlayerLevel",
					"outputs": [
						{
							"internalType": "enum Game.Level",
							"name": "",
							"type": "uint8"
						}
					],
					"stateMutability": "nonpayable",
					"type": "function"
				},
				{
					"inputs": [
						{
							"internalType": "address",
							"name": "",
							"type": "address"
						}
					],
					"name": "players",
					"outputs": [
						{
							"internalType": "address",
							"name": "addressPlayer",
							"type": "address"
						},
						{
							"internalType": "string",
							"name": "FullName",
							"type": "string"
						},
						{
							"internalType": "enum Game.Level",
							"name": "myLevel",
							"type": "uint8"
						},
						{
							"internalType": "uint256",
							"name": "age",
							"type": "uint256"
						},
						{
							"internalType": "string",
							"name": "sex",
							"type": "string"
						},
						{
							"internalType": "uint256",
							"name": "createTime",
							"type": "uint256"
						}
					],
					"stateMutability": "view",
					"type": "function"
				}
			],
			"devdoc": {
				"kind": "dev",
				"methods": {},
				"version": 1
			},
			"evm": {
				"assembly": "    /* \"contracts/Struct.sol\":33:950  contract Game{... */\n  mstore(0x40, 0x80)\n    /* \"contracts/Struct.sol\":79:80  0 */\n  0x00\n    /* \"contracts/Struct.sol\":53:80  uint public countPlayer = 0 */\n  dup1\n  sstore\n    /* \"contracts/Struct.sol\":33:950  contract Game{... */\n  callvalue\n  dup1\n  iszero\n  tag_1\n  jumpi\n  0x00\n  dup1\n  revert\ntag_1:\n  pop\n  dataSize(sub_0)\n  dup1\n  dataOffset(sub_0)\n  0x00\n  codecopy\n  0x00\n  return\nstop\n\nsub_0: assembly {\n        /* \"contracts/Struct.sol\":33:950  contract Game{... */\n      mstore(0x40, 0x80)\n      callvalue\n      dup1\n      iszero\n      tag_1\n      jumpi\n      0x00\n      dup1\n      revert\n    tag_1:\n      pop\n      jumpi(tag_2, lt(calldatasize, 0x04))\n      shr(0xe0, calldataload(0x00))\n      dup1\n      0x34b735a1\n      eq\n      tag_3\n      jumpi\n      dup1\n      0x8ddf0f7d\n      eq\n      tag_4\n      jumpi\n      dup1\n      0xaaa006b2\n      eq\n      tag_5\n      jumpi\n      dup1\n      0xaab48c52\n      eq\n      tag_6\n      jumpi\n      dup1\n      0xe2eb41ff\n      eq\n      tag_7\n      jumpi\n    tag_2:\n      0x00\n      dup1\n      revert\n        /* \"contracts/Struct.sol\":579:707  function getPlayerLevel(address addressPlayer ) public  returns (Level) {... */\n    tag_3:\n      tag_8\n      0x04\n      dup1\n      calldatasize\n      sub\n      dup2\n      add\n      swap1\n      tag_9\n      swap2\n      swap1\n      tag_10\n      jump\t// in\n    tag_9:\n      tag_11\n      jump\t// in\n    tag_8:\n      mload(0x40)\n      tag_12\n      swap2\n      swap1\n      tag_13\n      jump\t// in\n    tag_12:\n      mload(0x40)\n      dup1\n      swap2\n      sub\n      swap1\n      return\n        /* \"contracts/Struct.sol\":713:947  function changePlayerLevel(address addressPlayer) public {... */\n    tag_4:\n      tag_14\n      0x04\n      dup1\n      calldatasize\n      sub\n      dup2\n      add\n      swap1\n      tag_15\n      swap2\n      swap1\n      tag_10\n      jump\t// in\n    tag_15:\n      tag_16\n      jump\t// in\n    tag_14:\n      stop\n        /* \"contracts/Struct.sol\":53:80  uint public countPlayer = 0 */\n    tag_5:\n      tag_17\n      tag_18\n      jump\t// in\n    tag_17:\n      mload(0x40)\n      tag_19\n      swap2\n      swap1\n      tag_20\n      jump\t// in\n    tag_19:\n      mload(0x40)\n      dup1\n      swap2\n      sub\n      swap1\n      return\n        /* \"contracts/Struct.sol\":354:573  function addPlayer(string memory FullName, uint age, string memory sex) public {... */\n    tag_6:\n      tag_21\n      0x04\n      dup1\n      calldatasize\n      sub\n      dup2\n      add\n      swap1\n      tag_22\n      swap2\n      swap1\n      tag_23\n      jump\t// in\n    tag_22:\n      tag_24\n      jump\t// in\n    tag_21:\n      stop\n        /* \"contracts/Struct.sol\":87:130  mapping (address => Player) public  players */\n    tag_7:\n      tag_25\n      0x04\n      dup1\n      calldatasize\n      sub\n      dup2\n      add\n      swap1\n      tag_26\n      swap2\n      swap1\n      tag_10\n      jump\t// in\n    tag_26:\n      tag_27\n      jump\t// in\n    tag_25:\n      mload(0x40)\n      tag_28\n      swap7\n      swap6\n      swap5\n      swap4\n      swap3\n      swap2\n      swap1\n      tag_29\n      jump\t// in\n    tag_28:\n      mload(0x40)\n      dup1\n      swap2\n      sub\n      swap1\n      return\n        /* \"contracts/Struct.sol\":579:707  function getPlayerLevel(address addressPlayer ) public  returns (Level) {... */\n    tag_11:\n        /* \"contracts/Struct.sol\":644:649  Level */\n      0x00\n        /* \"contracts/Struct.sol\":669:676  players */\n      0x01\n        /* \"contracts/Struct.sol\":669:691  players[addressPlayer] */\n      0x00\n        /* \"contracts/Struct.sol\":677:690  addressPlayer */\n      dup4\n        /* \"contracts/Struct.sol\":669:691  players[addressPlayer] */\n      0xffffffffffffffffffffffffffffffffffffffff\n      and\n      0xffffffffffffffffffffffffffffffffffffffff\n      and\n      dup2\n      mstore\n      0x20\n      add\n      swap1\n      dup2\n      mstore\n      0x20\n      add\n      0x00\n      keccak256\n        /* \"contracts/Struct.sol\":669:699  players[addressPlayer].myLevel */\n      0x02\n      add\n      0x00\n      swap1\n      sload\n      swap1\n      0x0100\n      exp\n      swap1\n      div\n      0xff\n      and\n        /* \"contracts/Struct.sol\":662:699  return players[addressPlayer].myLevel */\n      swap1\n      pop\n        /* \"contracts/Struct.sol\":579:707  function getPlayerLevel(address addressPlayer ) public  returns (Level) {... */\n      swap2\n      swap1\n      pop\n      jump\t// out\n        /* \"contracts/Struct.sol\":713:947  function changePlayerLevel(address addressPlayer) public {... */\n    tag_16:\n        /* \"contracts/Struct.sol\":781:802  Player storage player */\n      0x00\n        /* \"contracts/Struct.sol\":805:812  players */\n      0x01\n        /* \"contracts/Struct.sol\":805:827  players[addressPlayer] */\n      0x00\n        /* \"contracts/Struct.sol\":813:826  addressPlayer */\n      dup4\n        /* \"contracts/Struct.sol\":805:827  players[addressPlayer] */\n      0xffffffffffffffffffffffffffffffffffffffff\n      and\n      0xffffffffffffffffffffffffffffffffffffffff\n      and\n      dup2\n      mstore\n      0x20\n      add\n      swap1\n      dup2\n      mstore\n      0x20\n      add\n      0x00\n      keccak256\n        /* \"contracts/Struct.sol\":781:827  Player storage player = players[addressPlayer] */\n      swap1\n      pop\n        /* \"contracts/Struct.sol\":881:883  15 */\n      0x0f\n        /* \"contracts/Struct.sol\":861:867  player */\n      dup2\n        /* \"contracts/Struct.sol\":861:878  player.createTime */\n      0x05\n      add\n      sload\n        /* \"contracts/Struct.sol\":861:883  player.createTime + 15 */\n      tag_32\n      swap2\n      swap1\n      tag_33\n      jump\t// in\n    tag_32:\n        /* \"contracts/Struct.sol\":842:857  block.timestamp */\n      timestamp\n        /* \"contracts/Struct.sol\":842:883  block.timestamp >= player.createTime + 15 */\n      lt\n        /* \"contracts/Struct.sol\":838:940  if (block.timestamp >= player.createTime + 15) { ... */\n      tag_34\n      jumpi\n        /* \"contracts/Struct.sol\":918:928  Level.Init */\n      0x01\n        /* \"contracts/Struct.sol\":901:907  player */\n      dup2\n        /* \"contracts/Struct.sol\":901:915  player.myLevel */\n      0x02\n      add\n      0x00\n        /* \"contracts/Struct.sol\":901:928  player.myLevel = Level.Init */\n      0x0100\n      exp\n      dup2\n      sload\n      dup2\n      0xff\n      mul\n      not\n      and\n      swap1\n      dup4\n      0x02\n      dup2\n      gt\n      iszero\n      tag_35\n      jumpi\n      tag_36\n      tag_37\n      jump\t// in\n    tag_36:\n    tag_35:\n      mul\n      or\n      swap1\n      sstore\n      pop\n        /* \"contracts/Struct.sol\":838:940  if (block.timestamp >= player.createTime + 15) { ... */\n    tag_34:\n        /* \"contracts/Struct.sol\":770:947  {... */\n      pop\n        /* \"contracts/Struct.sol\":713:947  function changePlayerLevel(address addressPlayer) public {... */\n      pop\n      jump\t// out\n        /* \"contracts/Struct.sol\":53:80  uint public countPlayer = 0 */\n    tag_18:\n      sload(0x00)\n      dup2\n      jump\t// out\n        /* \"contracts/Struct.sol\":354:573  function addPlayer(string memory FullName, uint age, string memory sex) public {... */\n    tag_24:\n        /* \"contracts/Struct.sol\":467:537  Player(msg.sender, FullName, Level.Advance, age, sex, block.timestamp) */\n      mload(0x40)\n      dup1\n      0xc0\n      add\n      0x40\n      mstore\n      dup1\n        /* \"contracts/Struct.sol\":474:484  msg.sender */\n      caller\n        /* \"contracts/Struct.sol\":467:537  Player(msg.sender, FullName, Level.Advance, age, sex, block.timestamp) */\n      0xffffffffffffffffffffffffffffffffffffffff\n      and\n      dup2\n      mstore\n      0x20\n      add\n        /* \"contracts/Struct.sol\":486:494  FullName */\n      dup5\n        /* \"contracts/Struct.sol\":467:537  Player(msg.sender, FullName, Level.Advance, age, sex, block.timestamp) */\n      dup2\n      mstore\n      0x20\n      add\n        /* \"contracts/Struct.sol\":496:509  Level.Advance */\n      0x02\n        /* \"contracts/Struct.sol\":467:537  Player(msg.sender, FullName, Level.Advance, age, sex, block.timestamp) */\n      dup1\n      dup2\n      gt\n      iszero\n      tag_39\n      jumpi\n      tag_40\n      tag_37\n      jump\t// in\n    tag_40:\n    tag_39:\n      dup2\n      mstore\n      0x20\n      add\n        /* \"contracts/Struct.sol\":511:514  age */\n      dup4\n        /* \"contracts/Struct.sol\":467:537  Player(msg.sender, FullName, Level.Advance, age, sex, block.timestamp) */\n      dup2\n      mstore\n      0x20\n      add\n        /* \"contracts/Struct.sol\":516:519  sex */\n      dup3\n        /* \"contracts/Struct.sol\":467:537  Player(msg.sender, FullName, Level.Advance, age, sex, block.timestamp) */\n      dup2\n      mstore\n      0x20\n      add\n        /* \"contracts/Struct.sol\":521:536  block.timestamp */\n      timestamp\n        /* \"contracts/Struct.sol\":467:537  Player(msg.sender, FullName, Level.Advance, age, sex, block.timestamp) */\n      dup2\n      mstore\n      pop\n        /* \"contracts/Struct.sol\":444:451  players */\n      0x01\n        /* \"contracts/Struct.sol\":444:463  players[msg.sender] */\n      0x00\n        /* \"contracts/Struct.sol\":452:462  msg.sender */\n      caller\n        /* \"contracts/Struct.sol\":444:463  players[msg.sender] */\n      0xffffffffffffffffffffffffffffffffffffffff\n      and\n      0xffffffffffffffffffffffffffffffffffffffff\n      and\n      dup2\n      mstore\n      0x20\n      add\n      swap1\n      dup2\n      mstore\n      0x20\n      add\n      0x00\n      keccak256\n        /* \"contracts/Struct.sol\":444:538  players[msg.sender] = (Player(msg.sender, FullName, Level.Advance, age, sex, block.timestamp)) */\n      0x00\n      dup3\n      add\n      mload\n      dup2\n      0x00\n      add\n      exp(0x0100, 0x00)\n      dup2\n      sload\n      dup2\n      0xffffffffffffffffffffffffffffffffffffffff\n      mul\n      not\n      and\n      swap1\n      dup4\n      0xffffffffffffffffffffffffffffffffffffffff\n      and\n      mul\n      or\n      swap1\n      sstore\n      pop\n      0x20\n      dup3\n      add\n      mload\n      dup2\n      0x01\n      add\n      swap1\n      dup2\n      tag_41\n      swap2\n      swap1\n      tag_42\n      jump\t// in\n    tag_41:\n      pop\n      0x40\n      dup3\n      add\n      mload\n      dup2\n      0x02\n      add\n      exp(0x0100, 0x00)\n      dup2\n      sload\n      dup2\n      0xff\n      mul\n      not\n      and\n      swap1\n      dup4\n      0x02\n      dup2\n      gt\n      iszero\n      tag_43\n      jumpi\n      tag_44\n      tag_37\n      jump\t// in\n    tag_44:\n    tag_43:\n      mul\n      or\n      swap1\n      sstore\n      pop\n      0x60\n      dup3\n      add\n      mload\n      dup2\n      0x03\n      add\n      sstore\n      0x80\n      dup3\n      add\n      mload\n      dup2\n      0x04\n      add\n      swap1\n      dup2\n      tag_45\n      swap2\n      swap1\n      tag_42\n      jump\t// in\n    tag_45:\n      pop\n      0xa0\n      dup3\n      add\n      mload\n      dup2\n      0x05\n      add\n      sstore\n      swap1\n      pop\n      pop\n        /* \"contracts/Struct.sol\":564:565  1 */\n      0x01\n        /* \"contracts/Struct.sol\":549:560  countPlayer */\n      0x00\n      dup1\n        /* \"contracts/Struct.sol\":549:565  countPlayer += 1 */\n      dup3\n      dup3\n      sload\n      tag_46\n      swap2\n      swap1\n      tag_33\n      jump\t// in\n    tag_46:\n      swap3\n      pop\n      pop\n      dup2\n      swap1\n      sstore\n      pop\n        /* \"contracts/Struct.sol\":354:573  function addPlayer(string memory FullName, uint age, string memory sex) public {... */\n      pop\n      pop\n      pop\n      jump\t// out\n        /* \"contracts/Struct.sol\":87:130  mapping (address => Player) public  players */\n    tag_27:\n      mstore(0x20, 0x01)\n      dup1\n      0x00\n      mstore\n      keccak256(0x00, 0x40)\n      0x00\n      swap2\n      pop\n      swap1\n      pop\n      dup1\n      0x00\n      add\n      0x00\n      swap1\n      sload\n      swap1\n      0x0100\n      exp\n      swap1\n      div\n      0xffffffffffffffffffffffffffffffffffffffff\n      and\n      swap1\n      dup1\n      0x01\n      add\n      dup1\n      sload\n      tag_47\n      swap1\n      tag_48\n      jump\t// in\n    tag_47:\n      dup1\n      0x1f\n      add\n      0x20\n      dup1\n      swap2\n      div\n      mul\n      0x20\n      add\n      mload(0x40)\n      swap1\n      dup2\n      add\n      0x40\n      mstore\n      dup1\n      swap3\n      swap2\n      swap1\n      dup2\n      dup2\n      mstore\n      0x20\n      add\n      dup3\n      dup1\n      sload\n      tag_49\n      swap1\n      tag_48\n      jump\t// in\n    tag_49:\n      dup1\n      iszero\n      tag_50\n      jumpi\n      dup1\n      0x1f\n      lt\n      tag_51\n      jumpi\n      0x0100\n      dup1\n      dup4\n      sload\n      div\n      mul\n      dup4\n      mstore\n      swap2\n      0x20\n      add\n      swap2\n      jump(tag_50)\n    tag_51:\n      dup3\n      add\n      swap2\n      swap1\n      0x00\n      mstore\n      keccak256(0x00, 0x20)\n      swap1\n    tag_52:\n      dup2\n      sload\n      dup2\n      mstore\n      swap1\n      0x01\n      add\n      swap1\n      0x20\n      add\n      dup1\n      dup4\n      gt\n      tag_52\n      jumpi\n      dup3\n      swap1\n      sub\n      0x1f\n      and\n      dup3\n      add\n      swap2\n    tag_50:\n      pop\n      pop\n      pop\n      pop\n      pop\n      swap1\n      dup1\n      0x02\n      add\n      0x00\n      swap1\n      sload\n      swap1\n      0x0100\n      exp\n      swap1\n      div\n      0xff\n      and\n      swap1\n      dup1\n      0x03\n      add\n      sload\n      swap1\n      dup1\n      0x04\n      add\n      dup1\n      sload\n      tag_53\n      swap1\n      tag_48\n      jump\t// in\n    tag_53:\n      dup1\n      0x1f\n      add\n      0x20\n      dup1\n      swap2\n      div\n      mul\n      0x20\n      add\n      mload(0x40)\n      swap1\n      dup2\n      add\n      0x40\n      mstore\n      dup1\n      swap3\n      swap2\n      swap1\n      dup2\n      dup2\n      mstore\n      0x20\n      add\n      dup3\n      dup1\n      sload\n      tag_54\n      swap1\n      tag_48\n      jump\t// in\n    tag_54:\n      dup1\n      iszero\n      tag_55\n      jumpi\n      dup1\n      0x1f\n      lt\n      tag_56\n      jumpi\n      0x0100\n      dup1\n      dup4\n      sload\n      div\n      mul\n      dup4\n      mstore\n      swap2\n      0x20\n      add\n      swap2\n      jump(tag_55)\n    tag_56:\n      dup3\n      add\n      swap2\n      swap1\n      0x00\n      mstore\n      keccak256(0x00, 0x20)\n      swap1\n    tag_57:\n      dup2\n      sload\n      dup2\n      mstore\n      swap1\n      0x01\n      add\n      swap1\n      0x20\n      add\n      dup1\n      dup4\n      gt\n      tag_57\n      jumpi\n      dup3\n      swap1\n      sub\n      0x1f\n      and\n      dup3\n      add\n      swap2\n    tag_55:\n      pop\n      pop\n      pop\n      pop\n      pop\n      swap1\n      dup1\n      0x05\n      add\n      sload\n      swap1\n      pop\n      dup7\n      jump\t// out\n        /* \"#utility.yul\":7:82   */\n    tag_58:\n        /* \"#utility.yul\":40:46   */\n      0x00\n        /* \"#utility.yul\":73:75   */\n      0x40\n        /* \"#utility.yul\":67:76   */\n      mload\n        /* \"#utility.yul\":57:76   */\n      swap1\n      pop\n        /* \"#utility.yul\":7:82   */\n      swap1\n      jump\t// out\n        /* \"#utility.yul\":88:205   */\n    tag_59:\n        /* \"#utility.yul\":197:198   */\n      0x00\n        /* \"#utility.yul\":194:195   */\n      dup1\n        /* \"#utility.yul\":187:199   */\n      revert\n        /* \"#utility.yul\":211:328   */\n    tag_60:\n        /* \"#utility.yul\":320:321   */\n      0x00\n        /* \"#utility.yul\":317:318   */\n      dup1\n        /* \"#utility.yul\":310:322   */\n      revert\n        /* \"#utility.yul\":334:460   */\n    tag_61:\n        /* \"#utility.yul\":371:378   */\n      0x00\n        /* \"#utility.yul\":411:453   */\n      0xffffffffffffffffffffffffffffffffffffffff\n        /* \"#utility.yul\":404:409   */\n      dup3\n        /* \"#utility.yul\":400:454   */\n      and\n        /* \"#utility.yul\":389:454   */\n      swap1\n      pop\n        /* \"#utility.yul\":334:460   */\n      swap2\n      swap1\n      pop\n      jump\t// out\n        /* \"#utility.yul\":466:562   */\n    tag_62:\n        /* \"#utility.yul\":503:510   */\n      0x00\n        /* \"#utility.yul\":532:556   */\n      tag_111\n        /* \"#utility.yul\":550:555   */\n      dup3\n        /* \"#utility.yul\":532:556   */\n      tag_61\n      jump\t// in\n    tag_111:\n        /* \"#utility.yul\":521:556   */\n      swap1\n      pop\n        /* \"#utility.yul\":466:562   */\n      swap2\n      swap1\n      pop\n      jump\t// out\n        /* \"#utility.yul\":568:690   */\n    tag_63:\n        /* \"#utility.yul\":641:665   */\n      tag_113\n        /* \"#utility.yul\":659:664   */\n      dup2\n        /* \"#utility.yul\":641:665   */\n      tag_62\n      jump\t// in\n    tag_113:\n        /* \"#utility.yul\":634:639   */\n      dup2\n        /* \"#utility.yul\":631:666   */\n      eq\n        /* \"#utility.yul\":621:684   */\n      tag_114\n      jumpi\n        /* \"#utility.yul\":680:681   */\n      0x00\n        /* \"#utility.yul\":677:678   */\n      dup1\n        /* \"#utility.yul\":670:682   */\n      revert\n        /* \"#utility.yul\":621:684   */\n    tag_114:\n        /* \"#utility.yul\":568:690   */\n      pop\n      jump\t// out\n        /* \"#utility.yul\":696:835   */\n    tag_64:\n        /* \"#utility.yul\":742:747   */\n      0x00\n        /* \"#utility.yul\":780:786   */\n      dup2\n        /* \"#utility.yul\":767:787   */\n      calldataload\n        /* \"#utility.yul\":758:787   */\n      swap1\n      pop\n        /* \"#utility.yul\":796:829   */\n      tag_116\n        /* \"#utility.yul\":823:828   */\n      dup2\n        /* \"#utility.yul\":796:829   */\n      tag_63\n      jump\t// in\n    tag_116:\n        /* \"#utility.yul\":696:835   */\n      swap3\n      swap2\n      pop\n      pop\n      jump\t// out\n        /* \"#utility.yul\":841:1170   */\n    tag_10:\n        /* \"#utility.yul\":900:906   */\n      0x00\n        /* \"#utility.yul\":949:951   */\n      0x20\n        /* \"#utility.yul\":937:946   */\n      dup3\n        /* \"#utility.yul\":928:935   */\n      dup5\n        /* \"#utility.yul\":924:947   */\n      sub\n        /* \"#utility.yul\":920:952   */\n      slt\n        /* \"#utility.yul\":917:1036   */\n      iszero\n      tag_118\n      jumpi\n        /* \"#utility.yul\":955:1034   */\n      tag_119\n      tag_59\n      jump\t// in\n    tag_119:\n        /* \"#utility.yul\":917:1036   */\n    tag_118:\n        /* \"#utility.yul\":1075:1076   */\n      0x00\n        /* \"#utility.yul\":1100:1153   */\n      tag_120\n        /* \"#utility.yul\":1145:1152   */\n      dup5\n        /* \"#utility.yul\":1136:1142   */\n      dup3\n        /* \"#utility.yul\":1125:1134   */\n      dup6\n        /* \"#utility.yul\":1121:1143   */\n      add\n        /* \"#utility.yul\":1100:1153   */\n      tag_64\n      jump\t// in\n    tag_120:\n        /* \"#utility.yul\":1090:1153   */\n      swap2\n      pop\n        /* \"#utility.yul\":1046:1163   */\n      pop\n        /* \"#utility.yul\":841:1170   */\n      swap3\n      swap2\n      pop\n      pop\n      jump\t// out\n        /* \"#utility.yul\":1176:1356   */\n    tag_37:\n        /* \"#utility.yul\":1224:1301   */\n      0x4e487b7100000000000000000000000000000000000000000000000000000000\n        /* \"#utility.yul\":1221:1222   */\n      0x00\n        /* \"#utility.yul\":1214:1302   */\n      mstore\n        /* \"#utility.yul\":1321:1325   */\n      0x21\n        /* \"#utility.yul\":1318:1319   */\n      0x04\n        /* \"#utility.yul\":1311:1326   */\n      mstore\n        /* \"#utility.yul\":1345:1349   */\n      0x24\n        /* \"#utility.yul\":1342:1343   */\n      0x00\n        /* \"#utility.yul\":1335:1350   */\n      revert\n        /* \"#utility.yul\":1362:1475   */\n    tag_65:\n        /* \"#utility.yul\":1443:1444   */\n      0x03\n        /* \"#utility.yul\":1436:1441   */\n      dup2\n        /* \"#utility.yul\":1433:1445   */\n      lt\n        /* \"#utility.yul\":1423:1469   */\n      tag_123\n      jumpi\n        /* \"#utility.yul\":1449:1467   */\n      tag_124\n      tag_37\n      jump\t// in\n    tag_124:\n        /* \"#utility.yul\":1423:1469   */\n    tag_123:\n        /* \"#utility.yul\":1362:1475   */\n      pop\n      jump\t// out\n        /* \"#utility.yul\":1481:1608   */\n    tag_66:\n        /* \"#utility.yul\":1526:1533   */\n      0x00\n        /* \"#utility.yul\":1555:1560   */\n      dup2\n        /* \"#utility.yul\":1544:1560   */\n      swap1\n      pop\n        /* \"#utility.yul\":1561:1602   */\n      tag_126\n        /* \"#utility.yul\":1596:1601   */\n      dup3\n        /* \"#utility.yul\":1561:1602   */\n      tag_65\n      jump\t// in\n    tag_126:\n        /* \"#utility.yul\":1481:1608   */\n      swap2\n      swap1\n      pop\n      jump\t// out\n        /* \"#utility.yul\":1614:1741   */\n    tag_67:\n        /* \"#utility.yul\":1670:1679   */\n      0x00\n        /* \"#utility.yul\":1703:1735   */\n      tag_128\n        /* \"#utility.yul\":1729:1734   */\n      dup3\n        /* \"#utility.yul\":1703:1735   */\n      tag_66\n      jump\t// in\n    tag_128:\n        /* \"#utility.yul\":1690:1735   */\n      swap1\n      pop\n        /* \"#utility.yul\":1614:1741   */\n      swap2\n      swap1\n      pop\n      jump\t// out\n        /* \"#utility.yul\":1747:1890   */\n    tag_68:\n        /* \"#utility.yul\":1840:1883   */\n      tag_130\n        /* \"#utility.yul\":1877:1882   */\n      dup2\n        /* \"#utility.yul\":1840:1883   */\n      tag_67\n      jump\t// in\n    tag_130:\n        /* \"#utility.yul\":1835:1838   */\n      dup3\n        /* \"#utility.yul\":1828:1884   */\n      mstore\n        /* \"#utility.yul\":1747:1890   */\n      pop\n      pop\n      jump\t// out\n        /* \"#utility.yul\":1896:2130   */\n    tag_13:\n        /* \"#utility.yul\":1995:1999   */\n      0x00\n        /* \"#utility.yul\":2033:2035   */\n      0x20\n        /* \"#utility.yul\":2022:2031   */\n      dup3\n        /* \"#utility.yul\":2018:2036   */\n      add\n        /* \"#utility.yul\":2010:2036   */\n      swap1\n      pop\n        /* \"#utility.yul\":2046:2123   */\n      tag_132\n        /* \"#utility.yul\":2120:2121   */\n      0x00\n        /* \"#utility.yul\":2109:2118   */\n      dup4\n        /* \"#utility.yul\":2105:2122   */\n      add\n        /* \"#utility.yul\":2096:2102   */\n      dup5\n        /* \"#utility.yul\":2046:2123   */\n      tag_68\n      jump\t// in\n    tag_132:\n        /* \"#utility.yul\":1896:2130   */\n      swap3\n      swap2\n      pop\n      pop\n      jump\t// out\n        /* \"#utility.yul\":2136:2213   */\n    tag_69:\n        /* \"#utility.yul\":2173:2180   */\n      0x00\n        /* \"#utility.yul\":2202:2207   */\n      dup2\n        /* \"#utility.yul\":2191:2207   */\n      swap1\n      pop\n        /* \"#utility.yul\":2136:2213   */\n      swap2\n      swap1\n      pop\n      jump\t// out\n        /* \"#utility.yul\":2219:2337   */\n    tag_70:\n        /* \"#utility.yul\":2306:2330   */\n      tag_135\n        /* \"#utility.yul\":2324:2329   */\n      dup2\n        /* \"#utility.yul\":2306:2330   */\n      tag_69\n      jump\t// in\n    tag_135:\n        /* \"#utility.yul\":2301:2304   */\n      dup3\n        /* \"#utility.yul\":2294:2331   */\n      mstore\n        /* \"#utility.yul\":2219:2337   */\n      pop\n      pop\n      jump\t// out\n        /* \"#utility.yul\":2343:2565   */\n    tag_20:\n        /* \"#utility.yul\":2436:2440   */\n      0x00\n        /* \"#utility.yul\":2474:2476   */\n      0x20\n        /* \"#utility.yul\":2463:2472   */\n      dup3\n        /* \"#utility.yul\":2459:2477   */\n      add\n        /* \"#utility.yul\":2451:2477   */\n      swap1\n      pop\n        /* \"#utility.yul\":2487:2558   */\n      tag_137\n        /* \"#utility.yul\":2555:2556   */\n      0x00\n        /* \"#utility.yul\":2544:2553   */\n      dup4\n        /* \"#utility.yul\":2540:2557   */\n      add\n        /* \"#utility.yul\":2531:2537   */\n      dup5\n        /* \"#utility.yul\":2487:2558   */\n      tag_70\n      jump\t// in\n    tag_137:\n        /* \"#utility.yul\":2343:2565   */\n      swap3\n      swap2\n      pop\n      pop\n      jump\t// out\n        /* \"#utility.yul\":2571:2688   */\n    tag_71:\n        /* \"#utility.yul\":2680:2681   */\n      0x00\n        /* \"#utility.yul\":2677:2678   */\n      dup1\n        /* \"#utility.yul\":2670:2682   */\n      revert\n        /* \"#utility.yul\":2694:2811   */\n    tag_72:\n        /* \"#utility.yul\":2803:2804   */\n      0x00\n        /* \"#utility.yul\":2800:2801   */\n      dup1\n        /* \"#utility.yul\":2793:2805   */\n      revert\n        /* \"#utility.yul\":2817:2919   */\n    tag_73:\n        /* \"#utility.yul\":2858:2864   */\n      0x00\n        /* \"#utility.yul\":2909:2911   */\n      0x1f\n        /* \"#utility.yul\":2905:2912   */\n      not\n        /* \"#utility.yul\":2900:2902   */\n      0x1f\n        /* \"#utility.yul\":2893:2898   */\n      dup4\n        /* \"#utility.yul\":2889:2903   */\n      add\n        /* \"#utility.yul\":2885:2913   */\n      and\n        /* \"#utility.yul\":2875:2913   */\n      swap1\n      pop\n        /* \"#utility.yul\":2817:2919   */\n      swap2\n      swap1\n      pop\n      jump\t// out\n        /* \"#utility.yul\":2925:3105   */\n    tag_74:\n        /* \"#utility.yul\":2973:3050   */\n      0x4e487b7100000000000000000000000000000000000000000000000000000000\n        /* \"#utility.yul\":2970:2971   */\n      0x00\n        /* \"#utility.yul\":2963:3051   */\n      mstore\n        /* \"#utility.yul\":3070:3074   */\n      0x41\n        /* \"#utility.yul\":3067:3068   */\n      0x04\n        /* \"#utility.yul\":3060:3075   */\n      mstore\n        /* \"#utility.yul\":3094:3098   */\n      0x24\n        /* \"#utility.yul\":3091:3092   */\n      0x00\n        /* \"#utility.yul\":3084:3099   */\n      revert\n        /* \"#utility.yul\":3111:3392   */\n    tag_75:\n        /* \"#utility.yul\":3194:3221   */\n      tag_143\n        /* \"#utility.yul\":3216:3220   */\n      dup3\n        /* \"#utility.yul\":3194:3221   */\n      tag_73\n      jump\t// in\n    tag_143:\n        /* \"#utility.yul\":3186:3192   */\n      dup2\n        /* \"#utility.yul\":3182:3222   */\n      add\n        /* \"#utility.yul\":3324:3330   */\n      dup2\n        /* \"#utility.yul\":3312:3322   */\n      dup2\n        /* \"#utility.yul\":3309:3331   */\n      lt\n        /* \"#utility.yul\":3288:3306   */\n      0xffffffffffffffff\n        /* \"#utility.yul\":3276:3286   */\n      dup3\n        /* \"#utility.yul\":3273:3307   */\n      gt\n        /* \"#utility.yul\":3270:3332   */\n      or\n        /* \"#utility.yul\":3267:3355   */\n      iszero\n      tag_144\n      jumpi\n        /* \"#utility.yul\":3335:3353   */\n      tag_145\n      tag_74\n      jump\t// in\n    tag_145:\n        /* \"#utility.yul\":3267:3355   */\n    tag_144:\n        /* \"#utility.yul\":3375:3385   */\n      dup1\n        /* \"#utility.yul\":3371:3373   */\n      0x40\n        /* \"#utility.yul\":3364:3386   */\n      mstore\n        /* \"#utility.yul\":3154:3392   */\n      pop\n        /* \"#utility.yul\":3111:3392   */\n      pop\n      pop\n      jump\t// out\n        /* \"#utility.yul\":3398:3527   */\n    tag_76:\n        /* \"#utility.yul\":3432:3438   */\n      0x00\n        /* \"#utility.yul\":3459:3479   */\n      tag_147\n      tag_58\n      jump\t// in\n    tag_147:\n        /* \"#utility.yul\":3449:3479   */\n      swap1\n      pop\n        /* \"#utility.yul\":3488:3521   */\n      tag_148\n        /* \"#utility.yul\":3516:3520   */\n      dup3\n        /* \"#utility.yul\":3508:3514   */\n      dup3\n        /* \"#utility.yul\":3488:3521   */\n      tag_75\n      jump\t// in\n    tag_148:\n        /* \"#utility.yul\":3398:3527   */\n      swap2\n      swap1\n      pop\n      jump\t// out\n        /* \"#utility.yul\":3533:3841   */\n    tag_77:\n        /* \"#utility.yul\":3595:3599   */\n      0x00\n        /* \"#utility.yul\":3685:3703   */\n      0xffffffffffffffff\n        /* \"#utility.yul\":3677:3683   */\n      dup3\n        /* \"#utility.yul\":3674:3704   */\n      gt\n        /* \"#utility.yul\":3671:3727   */\n      iszero\n      tag_150\n      jumpi\n        /* \"#utility.yul\":3707:3725   */\n      tag_151\n      tag_74\n      jump\t// in\n    tag_151:\n        /* \"#utility.yul\":3671:3727   */\n    tag_150:\n        /* \"#utility.yul\":3745:3774   */\n      tag_152\n        /* \"#utility.yul\":3767:3773   */\n      dup3\n        /* \"#utility.yul\":3745:3774   */\n      tag_73\n      jump\t// in\n    tag_152:\n        /* \"#utility.yul\":3737:3774   */\n      swap1\n      pop\n        /* \"#utility.yul\":3829:3833   */\n      0x20\n        /* \"#utility.yul\":3823:3827   */\n      dup2\n        /* \"#utility.yul\":3819:3834   */\n      add\n        /* \"#utility.yul\":3811:3834   */\n      swap1\n      pop\n        /* \"#utility.yul\":3533:3841   */\n      swap2\n      swap1\n      pop\n      jump\t// out\n        /* \"#utility.yul\":3847:3995   */\n    tag_78:\n        /* \"#utility.yul\":3945:3951   */\n      dup3\n        /* \"#utility.yul\":3940:3943   */\n      dup2\n        /* \"#utility.yul\":3935:3938   */\n      dup4\n        /* \"#utility.yul\":3922:3952   */\n      calldatacopy\n        /* \"#utility.yul\":3986:3987   */\n      0x00\n        /* \"#utility.yul\":3977:3983   */\n      dup4\n        /* \"#utility.yul\":3972:3975   */\n      dup4\n        /* \"#utility.yul\":3968:3984   */\n      add\n        /* \"#utility.yul\":3961:3988   */\n      mstore\n        /* \"#utility.yul\":3847:3995   */\n      pop\n      pop\n      pop\n      jump\t// out\n        /* \"#utility.yul\":4001:4426   */\n    tag_79:\n        /* \"#utility.yul\":4079:4084   */\n      0x00\n        /* \"#utility.yul\":4104:4170   */\n      tag_155\n        /* \"#utility.yul\":4120:4169   */\n      tag_156\n        /* \"#utility.yul\":4162:4168   */\n      dup5\n        /* \"#utility.yul\":4120:4169   */\n      tag_77\n      jump\t// in\n    tag_156:\n        /* \"#utility.yul\":4104:4170   */\n      tag_76\n      jump\t// in\n    tag_155:\n        /* \"#utility.yul\":4095:4170   */\n      swap1\n      pop\n        /* \"#utility.yul\":4193:4199   */\n      dup3\n        /* \"#utility.yul\":4186:4191   */\n      dup2\n        /* \"#utility.yul\":4179:4200   */\n      mstore\n        /* \"#utility.yul\":4231:4235   */\n      0x20\n        /* \"#utility.yul\":4224:4229   */\n      dup2\n        /* \"#utility.yul\":4220:4236   */\n      add\n        /* \"#utility.yul\":4269:4272   */\n      dup5\n        /* \"#utility.yul\":4260:4266   */\n      dup5\n        /* \"#utility.yul\":4255:4258   */\n      dup5\n        /* \"#utility.yul\":4251:4267   */\n      add\n        /* \"#utility.yul\":4248:4273   */\n      gt\n        /* \"#utility.yul\":4245:4357   */\n      iszero\n      tag_157\n      jumpi\n        /* \"#utility.yul\":4276:4355   */\n      tag_158\n      tag_72\n      jump\t// in\n    tag_158:\n        /* \"#utility.yul\":4245:4357   */\n    tag_157:\n        /* \"#utility.yul\":4366:4420   */\n      tag_159\n        /* \"#utility.yul\":4413:4419   */\n      dup5\n        /* \"#utility.yul\":4408:4411   */\n      dup3\n        /* \"#utility.yul\":4403:4406   */\n      dup6\n        /* \"#utility.yul\":4366:4420   */\n      tag_78\n      jump\t// in\n    tag_159:\n        /* \"#utility.yul\":4085:4426   */\n      pop\n        /* \"#utility.yul\":4001:4426   */\n      swap4\n      swap3\n      pop\n      pop\n      pop\n      jump\t// out\n        /* \"#utility.yul\":4446:4786   */\n    tag_80:\n        /* \"#utility.yul\":4502:4507   */\n      0x00\n        /* \"#utility.yul\":4551:4554   */\n      dup3\n        /* \"#utility.yul\":4544:4548   */\n      0x1f\n        /* \"#utility.yul\":4536:4542   */\n      dup4\n        /* \"#utility.yul\":4532:4549   */\n      add\n        /* \"#utility.yul\":4528:4555   */\n      slt\n        /* \"#utility.yul\":4518:4640   */\n      tag_161\n      jumpi\n        /* \"#utility.yul\":4559:4638   */\n      tag_162\n      tag_71\n      jump\t// in\n    tag_162:\n        /* \"#utility.yul\":4518:4640   */\n    tag_161:\n        /* \"#utility.yul\":4676:4682   */\n      dup2\n        /* \"#utility.yul\":4663:4683   */\n      calldataload\n        /* \"#utility.yul\":4701:4780   */\n      tag_163\n        /* \"#utility.yul\":4776:4779   */\n      dup5\n        /* \"#utility.yul\":4768:4774   */\n      dup3\n        /* \"#utility.yul\":4761:4765   */\n      0x20\n        /* \"#utility.yul\":4753:4759   */\n      dup7\n        /* \"#utility.yul\":4749:4766   */\n      add\n        /* \"#utility.yul\":4701:4780   */\n      tag_79\n      jump\t// in\n    tag_163:\n        /* \"#utility.yul\":4692:4780   */\n      swap2\n      pop\n        /* \"#utility.yul\":4508:4786   */\n      pop\n        /* \"#utility.yul\":4446:4786   */\n      swap3\n      swap2\n      pop\n      pop\n      jump\t// out\n        /* \"#utility.yul\":4792:4914   */\n    tag_81:\n        /* \"#utility.yul\":4865:4889   */\n      tag_165\n        /* \"#utility.yul\":4883:4888   */\n      dup2\n        /* \"#utility.yul\":4865:4889   */\n      tag_69\n      jump\t// in\n    tag_165:\n        /* \"#utility.yul\":4858:4863   */\n      dup2\n        /* \"#utility.yul\":4855:4890   */\n      eq\n        /* \"#utility.yul\":4845:4908   */\n      tag_166\n      jumpi\n        /* \"#utility.yul\":4904:4905   */\n      0x00\n        /* \"#utility.yul\":4901:4902   */\n      dup1\n        /* \"#utility.yul\":4894:4906   */\n      revert\n        /* \"#utility.yul\":4845:4908   */\n    tag_166:\n        /* \"#utility.yul\":4792:4914   */\n      pop\n      jump\t// out\n        /* \"#utility.yul\":4920:5059   */\n    tag_82:\n        /* \"#utility.yul\":4966:4971   */\n      0x00\n        /* \"#utility.yul\":5004:5010   */\n      dup2\n        /* \"#utility.yul\":4991:5011   */\n      calldataload\n        /* \"#utility.yul\":4982:5011   */\n      swap1\n      pop\n        /* \"#utility.yul\":5020:5053   */\n      tag_168\n        /* \"#utility.yul\":5047:5052   */\n      dup2\n        /* \"#utility.yul\":5020:5053   */\n      tag_81\n      jump\t// in\n    tag_168:\n        /* \"#utility.yul\":4920:5059   */\n      swap3\n      swap2\n      pop\n      pop\n      jump\t// out\n        /* \"#utility.yul\":5065:6044   */\n    tag_23:\n        /* \"#utility.yul\":5162:5168   */\n      0x00\n        /* \"#utility.yul\":5170:5176   */\n      dup1\n        /* \"#utility.yul\":5178:5184   */\n      0x00\n        /* \"#utility.yul\":5227:5229   */\n      0x60\n        /* \"#utility.yul\":5215:5224   */\n      dup5\n        /* \"#utility.yul\":5206:5213   */\n      dup7\n        /* \"#utility.yul\":5202:5225   */\n      sub\n        /* \"#utility.yul\":5198:5230   */\n      slt\n        /* \"#utility.yul\":5195:5314   */\n      iszero\n      tag_170\n      jumpi\n        /* \"#utility.yul\":5233:5312   */\n      tag_171\n      tag_59\n      jump\t// in\n    tag_171:\n        /* \"#utility.yul\":5195:5314   */\n    tag_170:\n        /* \"#utility.yul\":5381:5382   */\n      0x00\n        /* \"#utility.yul\":5370:5379   */\n      dup5\n        /* \"#utility.yul\":5366:5383   */\n      add\n        /* \"#utility.yul\":5353:5384   */\n      calldataload\n        /* \"#utility.yul\":5411:5429   */\n      0xffffffffffffffff\n        /* \"#utility.yul\":5403:5409   */\n      dup2\n        /* \"#utility.yul\":5400:5430   */\n      gt\n        /* \"#utility.yul\":5397:5514   */\n      iszero\n      tag_172\n      jumpi\n        /* \"#utility.yul\":5433:5512   */\n      tag_173\n      tag_60\n      jump\t// in\n    tag_173:\n        /* \"#utility.yul\":5397:5514   */\n    tag_172:\n        /* \"#utility.yul\":5538:5601   */\n      tag_174\n        /* \"#utility.yul\":5593:5600   */\n      dup7\n        /* \"#utility.yul\":5584:5590   */\n      dup3\n        /* \"#utility.yul\":5573:5582   */\n      dup8\n        /* \"#utility.yul\":5569:5591   */\n      add\n        /* \"#utility.yul\":5538:5601   */\n      tag_80\n      jump\t// in\n    tag_174:\n        /* \"#utility.yul\":5528:5601   */\n      swap4\n      pop\n        /* \"#utility.yul\":5324:5611   */\n      pop\n        /* \"#utility.yul\":5650:5652   */\n      0x20\n        /* \"#utility.yul\":5676:5729   */\n      tag_175\n        /* \"#utility.yul\":5721:5728   */\n      dup7\n        /* \"#utility.yul\":5712:5718   */\n      dup3\n        /* \"#utility.yul\":5701:5710   */\n      dup8\n        /* \"#utility.yul\":5697:5719   */\n      add\n        /* \"#utility.yul\":5676:5729   */\n      tag_82\n      jump\t// in\n    tag_175:\n        /* \"#utility.yul\":5666:5729   */\n      swap3\n      pop\n        /* \"#utility.yul\":5621:5739   */\n      pop\n        /* \"#utility.yul\":5806:5808   */\n      0x40\n        /* \"#utility.yul\":5795:5804   */\n      dup5\n        /* \"#utility.yul\":5791:5809   */\n      add\n        /* \"#utility.yul\":5778:5810   */\n      calldataload\n        /* \"#utility.yul\":5837:5855   */\n      0xffffffffffffffff\n        /* \"#utility.yul\":5829:5835   */\n      dup2\n        /* \"#utility.yul\":5826:5856   */\n      gt\n        /* \"#utility.yul\":5823:5940   */\n      iszero\n      tag_176\n      jumpi\n        /* \"#utility.yul\":5859:5938   */\n      tag_177\n      tag_60\n      jump\t// in\n    tag_177:\n        /* \"#utility.yul\":5823:5940   */\n    tag_176:\n        /* \"#utility.yul\":5964:6027   */\n      tag_178\n        /* \"#utility.yul\":6019:6026   */\n      dup7\n        /* \"#utility.yul\":6010:6016   */\n      dup3\n        /* \"#utility.yul\":5999:6008   */\n      dup8\n        /* \"#utility.yul\":5995:6017   */\n      add\n        /* \"#utility.yul\":5964:6027   */\n      tag_80\n      jump\t// in\n    tag_178:\n        /* \"#utility.yul\":5954:6027   */\n      swap2\n      pop\n        /* \"#utility.yul\":5749:6037   */\n      pop\n        /* \"#utility.yul\":5065:6044   */\n      swap3\n      pop\n      swap3\n      pop\n      swap3\n      jump\t// out\n        /* \"#utility.yul\":6050:6168   */\n    tag_83:\n        /* \"#utility.yul\":6137:6161   */\n      tag_180\n        /* \"#utility.yul\":6155:6160   */\n      dup2\n        /* \"#utility.yul\":6137:6161   */\n      tag_62\n      jump\t// in\n    tag_180:\n        /* \"#utility.yul\":6132:6135   */\n      dup3\n        /* \"#utility.yul\":6125:6162   */\n      mstore\n        /* \"#utility.yul\":6050:6168   */\n      pop\n      pop\n      jump\t// out\n        /* \"#utility.yul\":6174:6273   */\n    tag_84:\n        /* \"#utility.yul\":6226:6232   */\n      0x00\n        /* \"#utility.yul\":6260:6265   */\n      dup2\n        /* \"#utility.yul\":6254:6266   */\n      mload\n        /* \"#utility.yul\":6244:6266   */\n      swap1\n      pop\n        /* \"#utility.yul\":6174:6273   */\n      swap2\n      swap1\n      pop\n      jump\t// out\n        /* \"#utility.yul\":6279:6448   */\n    tag_85:\n        /* \"#utility.yul\":6363:6374   */\n      0x00\n        /* \"#utility.yul\":6397:6403   */\n      dup3\n        /* \"#utility.yul\":6392:6395   */\n      dup3\n        /* \"#utility.yul\":6385:6404   */\n      mstore\n        /* \"#utility.yul\":6437:6441   */\n      0x20\n        /* \"#utility.yul\":6432:6435   */\n      dup3\n        /* \"#utility.yul\":6428:6442   */\n      add\n        /* \"#utility.yul\":6413:6442   */\n      swap1\n      pop\n        /* \"#utility.yul\":6279:6448   */\n      swap3\n      swap2\n      pop\n      pop\n      jump\t// out\n        /* \"#utility.yul\":6454:6593   */\n    tag_86:\n        /* \"#utility.yul\":6543:6549   */\n      dup3\n        /* \"#utility.yul\":6538:6541   */\n      dup2\n        /* \"#utility.yul\":6533:6536   */\n      dup4\n        /* \"#utility.yul\":6527:6550   */\n      mcopy\n        /* \"#utility.yul\":6584:6585   */\n      0x00\n        /* \"#utility.yul\":6575:6581   */\n      dup4\n        /* \"#utility.yul\":6570:6573   */\n      dup4\n        /* \"#utility.yul\":6566:6582   */\n      add\n        /* \"#utility.yul\":6559:6586   */\n      mstore\n        /* \"#utility.yul\":6454:6593   */\n      pop\n      pop\n      pop\n      jump\t// out\n        /* \"#utility.yul\":6599:6976   */\n    tag_87:\n        /* \"#utility.yul\":6687:6690   */\n      0x00\n        /* \"#utility.yul\":6715:6754   */\n      tag_185\n        /* \"#utility.yul\":6748:6753   */\n      dup3\n        /* \"#utility.yul\":6715:6754   */\n      tag_84\n      jump\t// in\n    tag_185:\n        /* \"#utility.yul\":6770:6841   */\n      tag_186\n        /* \"#utility.yul\":6834:6840   */\n      dup2\n        /* \"#utility.yul\":6829:6832   */\n      dup6\n        /* \"#utility.yul\":6770:6841   */\n      tag_85\n      jump\t// in\n    tag_186:\n        /* \"#utility.yul\":6763:6841   */\n      swap4\n      pop\n        /* \"#utility.yul\":6850:6915   */\n      tag_187\n        /* \"#utility.yul\":6908:6914   */\n      dup2\n        /* \"#utility.yul\":6903:6906   */\n      dup6\n        /* \"#utility.yul\":6896:6900   */\n      0x20\n        /* \"#utility.yul\":6889:6894   */\n      dup7\n        /* \"#utility.yul\":6885:6901   */\n      add\n        /* \"#utility.yul\":6850:6915   */\n      tag_86\n      jump\t// in\n    tag_187:\n        /* \"#utility.yul\":6940:6969   */\n      tag_188\n        /* \"#utility.yul\":6962:6968   */\n      dup2\n        /* \"#utility.yul\":6940:6969   */\n      tag_73\n      jump\t// in\n    tag_188:\n        /* \"#utility.yul\":6935:6938   */\n      dup5\n        /* \"#utility.yul\":6931:6970   */\n      add\n        /* \"#utility.yul\":6924:6970   */\n      swap2\n      pop\n        /* \"#utility.yul\":6691:6976   */\n      pop\n        /* \"#utility.yul\":6599:6976   */\n      swap3\n      swap2\n      pop\n      pop\n      jump\t// out\n        /* \"#utility.yul\":6982:7951   */\n    tag_29:\n        /* \"#utility.yul\":7261:7265   */\n      0x00\n        /* \"#utility.yul\":7299:7302   */\n      0xc0\n        /* \"#utility.yul\":7288:7297   */\n      dup3\n        /* \"#utility.yul\":7284:7303   */\n      add\n        /* \"#utility.yul\":7276:7303   */\n      swap1\n      pop\n        /* \"#utility.yul\":7313:7384   */\n      tag_190\n        /* \"#utility.yul\":7381:7382   */\n      0x00\n        /* \"#utility.yul\":7370:7379   */\n      dup4\n        /* \"#utility.yul\":7366:7383   */\n      add\n        /* \"#utility.yul\":7357:7363   */\n      dup10\n        /* \"#utility.yul\":7313:7384   */\n      tag_83\n      jump\t// in\n    tag_190:\n        /* \"#utility.yul\":7431:7440   */\n      dup2\n        /* \"#utility.yul\":7425:7429   */\n      dup2\n        /* \"#utility.yul\":7421:7441   */\n      sub\n        /* \"#utility.yul\":7416:7418   */\n      0x20\n        /* \"#utility.yul\":7405:7414   */\n      dup4\n        /* \"#utility.yul\":7401:7419   */\n      add\n        /* \"#utility.yul\":7394:7442   */\n      mstore\n        /* \"#utility.yul\":7459:7537   */\n      tag_191\n        /* \"#utility.yul\":7532:7536   */\n      dup2\n        /* \"#utility.yul\":7523:7529   */\n      dup9\n        /* \"#utility.yul\":7459:7537   */\n      tag_87\n      jump\t// in\n    tag_191:\n        /* \"#utility.yul\":7451:7537   */\n      swap1\n      pop\n        /* \"#utility.yul\":7547:7625   */\n      tag_192\n        /* \"#utility.yul\":7621:7623   */\n      0x40\n        /* \"#utility.yul\":7610:7619   */\n      dup4\n        /* \"#utility.yul\":7606:7624   */\n      add\n        /* \"#utility.yul\":7597:7603   */\n      dup8\n        /* \"#utility.yul\":7547:7625   */\n      tag_68\n      jump\t// in\n    tag_192:\n        /* \"#utility.yul\":7635:7707   */\n      tag_193\n        /* \"#utility.yul\":7703:7705   */\n      0x60\n        /* \"#utility.yul\":7692:7701   */\n      dup4\n        /* \"#utility.yul\":7688:7706   */\n      add\n        /* \"#utility.yul\":7679:7685   */\n      dup7\n        /* \"#utility.yul\":7635:7707   */\n      tag_70\n      jump\t// in\n    tag_193:\n        /* \"#utility.yul\":7755:7764   */\n      dup2\n        /* \"#utility.yul\":7749:7753   */\n      dup2\n        /* \"#utility.yul\":7745:7765   */\n      sub\n        /* \"#utility.yul\":7739:7742   */\n      0x80\n        /* \"#utility.yul\":7728:7737   */\n      dup4\n        /* \"#utility.yul\":7724:7743   */\n      add\n        /* \"#utility.yul\":7717:7766   */\n      mstore\n        /* \"#utility.yul\":7783:7861   */\n      tag_194\n        /* \"#utility.yul\":7856:7860   */\n      dup2\n        /* \"#utility.yul\":7847:7853   */\n      dup6\n        /* \"#utility.yul\":7783:7861   */\n      tag_87\n      jump\t// in\n    tag_194:\n        /* \"#utility.yul\":7775:7861   */\n      swap1\n      pop\n        /* \"#utility.yul\":7871:7944   */\n      tag_195\n        /* \"#utility.yul\":7939:7942   */\n      0xa0\n        /* \"#utility.yul\":7928:7937   */\n      dup4\n        /* \"#utility.yul\":7924:7943   */\n      add\n        /* \"#utility.yul\":7915:7921   */\n      dup5\n        /* \"#utility.yul\":7871:7944   */\n      tag_70\n      jump\t// in\n    tag_195:\n        /* \"#utility.yul\":6982:7951   */\n      swap8\n      swap7\n      pop\n      pop\n      pop\n      pop\n      pop\n      pop\n      pop\n      jump\t// out\n        /* \"#utility.yul\":7957:8137   */\n    tag_88:\n        /* \"#utility.yul\":8005:8082   */\n      0x4e487b7100000000000000000000000000000000000000000000000000000000\n        /* \"#utility.yul\":8002:8003   */\n      0x00\n        /* \"#utility.yul\":7995:8083   */\n      mstore\n        /* \"#utility.yul\":8102:8106   */\n      0x11\n        /* \"#utility.yul\":8099:8100   */\n      0x04\n        /* \"#utility.yul\":8092:8107   */\n      mstore\n        /* \"#utility.yul\":8126:8130   */\n      0x24\n        /* \"#utility.yul\":8123:8124   */\n      0x00\n        /* \"#utility.yul\":8116:8131   */\n      revert\n        /* \"#utility.yul\":8143:8334   */\n    tag_33:\n        /* \"#utility.yul\":8183:8186   */\n      0x00\n        /* \"#utility.yul\":8202:8222   */\n      tag_198\n        /* \"#utility.yul\":8220:8221   */\n      dup3\n        /* \"#utility.yul\":8202:8222   */\n      tag_69\n      jump\t// in\n    tag_198:\n        /* \"#utility.yul\":8197:8222   */\n      swap2\n      pop\n        /* \"#utility.yul\":8236:8256   */\n      tag_199\n        /* \"#utility.yul\":8254:8255   */\n      dup4\n        /* \"#utility.yul\":8236:8256   */\n      tag_69\n      jump\t// in\n    tag_199:\n        /* \"#utility.yul\":8231:8256   */\n      swap3\n      pop\n        /* \"#utility.yul\":8279:8280   */\n      dup3\n        /* \"#utility.yul\":8276:8277   */\n      dup3\n        /* \"#utility.yul\":8272:8281   */\n      add\n        /* \"#utility.yul\":8265:8281   */\n      swap1\n      pop\n        /* \"#utility.yul\":8300:8303   */\n      dup1\n        /* \"#utility.yul\":8297:8298   */\n      dup3\n        /* \"#utility.yul\":8294:8304   */\n      gt\n        /* \"#utility.yul\":8291:8327   */\n      iszero\n      tag_200\n      jumpi\n        /* \"#utility.yul\":8307:8325   */\n      tag_201\n      tag_88\n      jump\t// in\n    tag_201:\n        /* \"#utility.yul\":8291:8327   */\n    tag_200:\n        /* \"#utility.yul\":8143:8334   */\n      swap3\n      swap2\n      pop\n      pop\n      jump\t// out\n        /* \"#utility.yul\":8340:8520   */\n    tag_89:\n        /* \"#utility.yul\":8388:8465   */\n      0x4e487b7100000000000000000000000000000000000000000000000000000000\n        /* \"#utility.yul\":8385:8386   */\n      0x00\n        /* \"#utility.yul\":8378:8466   */\n      mstore\n        /* \"#utility.yul\":8485:8489   */\n      0x22\n        /* \"#utility.yul\":8482:8483   */\n      0x04\n        /* \"#utility.yul\":8475:8490   */\n      mstore\n        /* \"#utility.yul\":8509:8513   */\n      0x24\n        /* \"#utility.yul\":8506:8507   */\n      0x00\n        /* \"#utility.yul\":8499:8514   */\n      revert\n        /* \"#utility.yul\":8526:8846   */\n    tag_48:\n        /* \"#utility.yul\":8570:8576   */\n      0x00\n        /* \"#utility.yul\":8607:8608   */\n      0x02\n        /* \"#utility.yul\":8601:8605   */\n      dup3\n        /* \"#utility.yul\":8597:8609   */\n      div\n        /* \"#utility.yul\":8587:8609   */\n      swap1\n      pop\n        /* \"#utility.yul\":8654:8655   */\n      0x01\n        /* \"#utility.yul\":8648:8652   */\n      dup3\n        /* \"#utility.yul\":8644:8656   */\n      and\n        /* \"#utility.yul\":8675:8693   */\n      dup1\n        /* \"#utility.yul\":8665:8746   */\n      tag_204\n      jumpi\n        /* \"#utility.yul\":8731:8735   */\n      0x7f\n        /* \"#utility.yul\":8723:8729   */\n      dup3\n        /* \"#utility.yul\":8719:8736   */\n      and\n        /* \"#utility.yul\":8709:8736   */\n      swap2\n      pop\n        /* \"#utility.yul\":8665:8746   */\n    tag_204:\n        /* \"#utility.yul\":8793:8795   */\n      0x20\n        /* \"#utility.yul\":8785:8791   */\n      dup3\n        /* \"#utility.yul\":8782:8796   */\n      lt\n        /* \"#utility.yul\":8762:8780   */\n      dup2\n        /* \"#utility.yul\":8759:8797   */\n      sub\n        /* \"#utility.yul\":8756:8840   */\n      tag_205\n      jumpi\n        /* \"#utility.yul\":8812:8830   */\n      tag_206\n      tag_89\n      jump\t// in\n    tag_206:\n        /* \"#utility.yul\":8756:8840   */\n    tag_205:\n        /* \"#utility.yul\":8577:8846   */\n      pop\n        /* \"#utility.yul\":8526:8846   */\n      swap2\n      swap1\n      pop\n      jump\t// out\n        /* \"#utility.yul\":8852:8993   */\n    tag_90:\n        /* \"#utility.yul\":8901:8905   */\n      0x00\n        /* \"#utility.yul\":8924:8927   */\n      dup2\n        /* \"#utility.yul\":8916:8927   */\n      swap1\n      pop\n        /* \"#utility.yul\":8947:8950   */\n      dup2\n        /* \"#utility.yul\":8944:8945   */\n      0x00\n        /* \"#utility.yul\":8937:8951   */\n      mstore\n        /* \"#utility.yul\":8981:8985   */\n      0x20\n        /* \"#utility.yul\":8978:8979   */\n      0x00\n        /* \"#utility.yul\":8968:8986   */\n      keccak256\n        /* \"#utility.yul\":8960:8986   */\n      swap1\n      pop\n        /* \"#utility.yul\":8852:8993   */\n      swap2\n      swap1\n      pop\n      jump\t// out\n        /* \"#utility.yul\":8999:9092   */\n    tag_91:\n        /* \"#utility.yul\":9036:9042   */\n      0x00\n        /* \"#utility.yul\":9083:9085   */\n      0x20\n        /* \"#utility.yul\":9078:9080   */\n      0x1f\n        /* \"#utility.yul\":9071:9076   */\n      dup4\n        /* \"#utility.yul\":9067:9081   */\n      add\n        /* \"#utility.yul\":9063:9086   */\n      div\n        /* \"#utility.yul\":9053:9086   */\n      swap1\n      pop\n        /* \"#utility.yul\":8999:9092   */\n      swap2\n      swap1\n      pop\n      jump\t// out\n        /* \"#utility.yul\":9098:9205   */\n    tag_92:\n        /* \"#utility.yul\":9142:9150   */\n      0x00\n        /* \"#utility.yul\":9192:9197   */\n      dup3\n        /* \"#utility.yul\":9186:9190   */\n      dup3\n        /* \"#utility.yul\":9182:9198   */\n      shl\n        /* \"#utility.yul\":9161:9198   */\n      swap1\n      pop\n        /* \"#utility.yul\":9098:9205   */\n      swap3\n      swap2\n      pop\n      pop\n      jump\t// out\n        /* \"#utility.yul\":9211:9604   */\n    tag_93:\n        /* \"#utility.yul\":9280:9286   */\n      0x00\n        /* \"#utility.yul\":9330:9331   */\n      0x08\n        /* \"#utility.yul\":9318:9328   */\n      dup4\n        /* \"#utility.yul\":9314:9332   */\n      mul\n        /* \"#utility.yul\":9353:9450   */\n      tag_211\n        /* \"#utility.yul\":9383:9449   */\n      0xffffffffffffffffffffffffffffffffffffffffffffffffffffffffffffffff\n        /* \"#utility.yul\":9372:9381   */\n      dup3\n        /* \"#utility.yul\":9353:9450   */\n      tag_92\n      jump\t// in\n    tag_211:\n        /* \"#utility.yul\":9471:9510   */\n      tag_212\n        /* \"#utility.yul\":9501:9509   */\n      dup7\n        /* \"#utility.yul\":9490:9499   */\n      dup4\n        /* \"#utility.yul\":9471:9510   */\n      tag_92\n      jump\t// in\n    tag_212:\n        /* \"#utility.yul\":9459:9510   */\n      swap6\n      pop\n        /* \"#utility.yul\":9543:9547   */\n      dup1\n        /* \"#utility.yul\":9539:9548   */\n      not\n        /* \"#utility.yul\":9532:9537   */\n      dup5\n        /* \"#utility.yul\":9528:9549   */\n      and\n        /* \"#utility.yul\":9519:9549   */\n      swap4\n      pop\n        /* \"#utility.yul\":9592:9596   */\n      dup1\n        /* \"#utility.yul\":9582:9590   */\n      dup7\n        /* \"#utility.yul\":9578:9597   */\n      and\n        /* \"#utility.yul\":9571:9576   */\n      dup5\n        /* \"#utility.yul\":9568:9598   */\n      or\n        /* \"#utility.yul\":9558:9598   */\n      swap3\n      pop\n        /* \"#utility.yul\":9287:9604   */\n      pop\n      pop\n        /* \"#utility.yul\":9211:9604   */\n      swap4\n      swap3\n      pop\n      pop\n      pop\n      jump\t// out\n        /* \"#utility.yul\":9610:9670   */\n    tag_94:\n        /* \"#utility.yul\":9638:9641   */\n      0x00\n        /* \"#utility.yul\":9659:9664   */\n      dup2\n        /* \"#utility.yul\":9652:9664   */\n      swap1\n      pop\n        /* \"#utility.yul\":9610:9670   */\n      swap2\n      swap1\n      pop\n      jump\t// out\n        /* \"#utility.yul\":9676:9818   */\n    tag_95:\n        /* \"#utility.yul\":9726:9735   */\n      0x00\n        /* \"#utility.yul\":9759:9812   */\n      tag_215\n        /* \"#utility.yul\":9777:9811   */\n      tag_216\n        /* \"#utility.yul\":9786:9810   */\n      tag_217\n        /* \"#utility.yul\":9804:9809   */\n      dup5\n        /* \"#utility.yul\":9786:9810   */\n      tag_69\n      jump\t// in\n    tag_217:\n        /* \"#utility.yul\":9777:9811   */\n      tag_94\n      jump\t// in\n    tag_216:\n        /* \"#utility.yul\":9759:9812   */\n      tag_69\n      jump\t// in\n    tag_215:\n        /* \"#utility.yul\":9746:9812   */\n      swap1\n      pop\n        /* \"#utility.yul\":9676:9818   */\n      swap2\n      swap1\n      pop\n      jump\t// out\n        /* \"#utility.yul\":9824:9899   */\n    tag_96:\n        /* \"#utility.yul\":9867:9870   */\n      0x00\n        /* \"#utility.yul\":9888:9893   */\n      dup2\n        /* \"#utility.yul\":9881:9893   */\n      swap1\n      pop\n        /* \"#utility.yul\":9824:9899   */\n      swap2\n      swap1\n      pop\n      jump\t// out\n        /* \"#utility.yul\":9905:10174   */\n    tag_97:\n        /* \"#utility.yul\":10015:10054   */\n      tag_220\n        /* \"#utility.yul\":10046:10053   */\n      dup4\n        /* \"#utility.yul\":10015:10054   */\n      tag_95\n      jump\t// in\n    tag_220:\n        /* \"#utility.yul\":10076:10167   */\n      tag_221\n        /* \"#utility.yul\":10125:10166   */\n      tag_222\n        /* \"#utility.yul\":10149:10165   */\n      dup3\n        /* \"#utility.yul\":10125:10166   */\n      tag_96\n      jump\t// in\n    tag_222:\n        /* \"#utility.yul\":10117:10123   */\n      dup5\n        /* \"#utility.yul\":10110:10114   */\n      dup5\n        /* \"#utility.yul\":10104:10115   */\n      sload\n        /* \"#utility.yul\":10076:10167   */\n      tag_93\n      jump\t// in\n    tag_221:\n        /* \"#utility.yul\":10070:10074   */\n      dup3\n        /* \"#utility.yul\":10063:10168   */\n      sstore\n        /* \"#utility.yul\":9981:10174   */\n      pop\n        /* \"#utility.yul\":9905:10174   */\n      pop\n      pop\n      pop\n      jump\t// out\n        /* \"#utility.yul\":10180:10253   */\n    tag_98:\n        /* \"#utility.yul\":10225:10228   */\n      0x00\n        /* \"#utility.yul\":10180:10253   */\n      swap1\n      jump\t// out\n        /* \"#utility.yul\":10259:10448   */\n    tag_99:\n        /* \"#utility.yul\":10336:10368   */\n      tag_225\n      tag_98\n      jump\t// in\n    tag_225:\n        /* \"#utility.yul\":10377:10442   */\n      tag_226\n        /* \"#utility.yul\":10435:10441   */\n      dup2\n        /* \"#utility.yul\":10427:10433   */\n      dup5\n        /* \"#utility.yul\":10421:10425   */\n      dup5\n        /* \"#utility.yul\":10377:10442   */\n      tag_97\n      jump\t// in\n    tag_226:\n        /* \"#utility.yul\":10312:10448   */\n      pop\n        /* \"#utility.yul\":10259:10448   */\n      pop\n      pop\n      jump\t// out\n        /* \"#utility.yul\":10454:10640   */\n    tag_100:\n        /* \"#utility.yul\":10514:10634   */\n    tag_228:\n        /* \"#utility.yul\":10531:10534   */\n      dup2\n        /* \"#utility.yul\":10524:10529   */\n      dup2\n        /* \"#utility.yul\":10521:10535   */\n      lt\n        /* \"#utility.yul\":10514:10634   */\n      iszero\n      tag_230\n      jumpi\n        /* \"#utility.yul\":10585:10624   */\n      tag_231\n        /* \"#utility.yul\":10622:10623   */\n      0x00\n        /* \"#utility.yul\":10615:10620   */\n      dup3\n        /* \"#utility.yul\":10585:10624   */\n      tag_99\n      jump\t// in\n    tag_231:\n        /* \"#utility.yul\":10558:10559   */\n      0x01\n        /* \"#utility.yul\":10551:10556   */\n      dup2\n        /* \"#utility.yul\":10547:10560   */\n      add\n        /* \"#utility.yul\":10538:10560   */\n      swap1\n      pop\n        /* \"#utility.yul\":10514:10634   */\n      jump(tag_228)\n    tag_230:\n        /* \"#utility.yul\":10454:10640   */\n      pop\n      pop\n      jump\t// out\n        /* \"#utility.yul\":10646:11189   */\n    tag_101:\n        /* \"#utility.yul\":10747:10749   */\n      0x1f\n        /* \"#utility.yul\":10742:10745   */\n      dup3\n        /* \"#utility.yul\":10739:10750   */\n      gt\n        /* \"#utility.yul\":10736:11182   */\n      iszero\n      tag_233\n      jumpi\n        /* \"#utility.yul\":10781:10819   */\n      tag_234\n        /* \"#utility.yul\":10813:10818   */\n      dup2\n        /* \"#utility.yul\":10781:10819   */\n      tag_90\n      jump\t// in\n    tag_234:\n        /* \"#utility.yul\":10865:10894   */\n      tag_235\n        /* \"#utility.yul\":10883:10893   */\n      dup5\n        /* \"#utility.yul\":10865:10894   */\n      tag_91\n      jump\t// in\n    tag_235:\n        /* \"#utility.yul\":10855:10863   */\n      dup2\n        /* \"#utility.yul\":10851:10895   */\n      add\n        /* \"#utility.yul\":11048:11050   */\n      0x20\n        /* \"#utility.yul\":11036:11046   */\n      dup6\n        /* \"#utility.yul\":11033:11051   */\n      lt\n        /* \"#utility.yul\":11030:11079   */\n      iszero\n      tag_236\n      jumpi\n        /* \"#utility.yul\":11069:11077   */\n      dup2\n        /* \"#utility.yul\":11054:11077   */\n      swap1\n      pop\n        /* \"#utility.yul\":11030:11079   */\n    tag_236:\n        /* \"#utility.yul\":11092:11172   */\n      tag_237\n        /* \"#utility.yul\":11148:11170   */\n      tag_238\n        /* \"#utility.yul\":11166:11169   */\n      dup6\n        /* \"#utility.yul\":11148:11170   */\n      tag_91\n      jump\t// in\n    tag_238:\n        /* \"#utility.yul\":11138:11146   */\n      dup4\n        /* \"#utility.yul\":11134:11171   */\n      add\n        /* \"#utility.yul\":11121:11132   */\n      dup3\n        /* \"#utility.yul\":11092:11172   */\n      tag_100\n      jump\t// in\n    tag_237:\n        /* \"#utility.yul\":10751:11182   */\n      pop\n      pop\n        /* \"#utility.yul\":10736:11182   */\n    tag_233:\n        /* \"#utility.yul\":10646:11189   */\n      pop\n      pop\n      pop\n      jump\t// out\n        /* \"#utility.yul\":11195:11312   */\n    tag_102:\n        /* \"#utility.yul\":11249:11257   */\n      0x00\n        /* \"#utility.yul\":11299:11304   */\n      dup3\n        /* \"#utility.yul\":11293:11297   */\n      dup3\n        /* \"#utility.yul\":11289:11305   */\n      shr\n        /* \"#utility.yul\":11268:11305   */\n      swap1\n      pop\n        /* \"#utility.yul\":11195:11312   */\n      swap3\n      swap2\n      pop\n      pop\n      jump\t// out\n        /* \"#utility.yul\":11318:11487   */\n    tag_103:\n        /* \"#utility.yul\":11362:11368   */\n      0x00\n        /* \"#utility.yul\":11395:11446   */\n      tag_241\n        /* \"#utility.yul\":11443:11444   */\n      0x00\n        /* \"#utility.yul\":11439:11445   */\n      not\n        /* \"#utility.yul\":11431:11436   */\n      dup5\n        /* \"#utility.yul\":11428:11429   */\n      0x08\n        /* \"#utility.yul\":11424:11437   */\n      mul\n        /* \"#utility.yul\":11395:11446   */\n      tag_102\n      jump\t// in\n    tag_241:\n        /* \"#utility.yul\":11391:11447   */\n      not\n        /* \"#utility.yul\":11476:11480   */\n      dup1\n        /* \"#utility.yul\":11470:11474   */\n      dup4\n        /* \"#utility.yul\":11466:11481   */\n      and\n        /* \"#utility.yul\":11456:11481   */\n      swap2\n      pop\n        /* \"#utility.yul\":11369:11487   */\n      pop\n        /* \"#utility.yul\":11318:11487   */\n      swap3\n      swap2\n      pop\n      pop\n      jump\t// out\n        /* \"#utility.yul\":11492:11787   */\n    tag_104:\n        /* \"#utility.yul\":11568:11572   */\n      0x00\n        /* \"#utility.yul\":11714:11743   */\n      tag_243\n        /* \"#utility.yul\":11739:11742   */\n      dup4\n        /* \"#utility.yul\":11733:11737   */\n      dup4\n        /* \"#utility.yul\":11714:11743   */\n      tag_103\n      jump\t// in\n    tag_243:\n        /* \"#utility.yul\":11706:11743   */\n      swap2\n      pop\n        /* \"#utility.yul\":11776:11779   */\n      dup3\n        /* \"#utility.yul\":11773:11774   */\n      0x02\n        /* \"#utility.yul\":11769:11780   */\n      mul\n        /* \"#utility.yul\":11763:11767   */\n      dup3\n        /* \"#utility.yul\":11760:11781   */\n      or\n        /* \"#utility.yul\":11752:11781   */\n      swap1\n      pop\n        /* \"#utility.yul\":11492:11787   */\n      swap3\n      swap2\n      pop\n      pop\n      jump\t// out\n        /* \"#utility.yul\":11792:13187   */\n    tag_42:\n        /* \"#utility.yul\":11909:11946   */\n      tag_245\n        /* \"#utility.yul\":11942:11945   */\n      dup3\n        /* \"#utility.yul\":11909:11946   */\n      tag_84\n      jump\t// in\n    tag_245:\n        /* \"#utility.yul\":12011:12029   */\n      0xffffffffffffffff\n        /* \"#utility.yul\":12003:12009   */\n      dup2\n        /* \"#utility.yul\":12000:12030   */\n      gt\n        /* \"#utility.yul\":11997:12053   */\n      iszero\n      tag_246\n      jumpi\n        /* \"#utility.yul\":12033:12051   */\n      tag_247\n      tag_74\n      jump\t// in\n    tag_247:\n        /* \"#utility.yul\":11997:12053   */\n    tag_246:\n        /* \"#utility.yul\":12077:12115   */\n      tag_248\n        /* \"#utility.yul\":12109:12113   */\n      dup3\n        /* \"#utility.yul\":12103:12114   */\n      sload\n        /* \"#utility.yul\":12077:12115   */\n      tag_48\n      jump\t// in\n    tag_248:\n        /* \"#utility.yul\":12162:12229   */\n      tag_249\n        /* \"#utility.yul\":12222:12228   */\n      dup3\n        /* \"#utility.yul\":12214:12220   */\n      dup3\n        /* \"#utility.yul\":12208:12212   */\n      dup6\n        /* \"#utility.yul\":12162:12229   */\n      tag_101\n      jump\t// in\n    tag_249:\n        /* \"#utility.yul\":12256:12257   */\n      0x00\n        /* \"#utility.yul\":12280:12284   */\n      0x20\n        /* \"#utility.yul\":12267:12284   */\n      swap1\n      pop\n        /* \"#utility.yul\":12312:12314   */\n      0x1f\n        /* \"#utility.yul\":12304:12310   */\n      dup4\n        /* \"#utility.yul\":12301:12315   */\n      gt\n        /* \"#utility.yul\":12329:12330   */\n      0x01\n        /* \"#utility.yul\":12324:12942   */\n      dup2\n      eq\n      tag_251\n      jumpi\n        /* \"#utility.yul\":12986:12987   */\n      0x00\n        /* \"#utility.yul\":13003:13009   */\n      dup5\n        /* \"#utility.yul\":13000:13077   */\n      iszero\n      tag_252\n      jumpi\n        /* \"#utility.yul\":13052:13061   */\n      dup3\n        /* \"#utility.yul\":13047:13050   */\n      dup8\n        /* \"#utility.yul\":13043:13062   */\n      add\n        /* \"#utility.yul\":13037:13063   */\n      mload\n        /* \"#utility.yul\":13028:13063   */\n      swap1\n      pop\n        /* \"#utility.yul\":13000:13077   */\n    tag_252:\n        /* \"#utility.yul\":13103:13170   */\n      tag_253\n        /* \"#utility.yul\":13163:13169   */\n      dup6\n        /* \"#utility.yul\":13156:13161   */\n      dup3\n        /* \"#utility.yul\":13103:13170   */\n      tag_104\n      jump\t// in\n    tag_253:\n        /* \"#utility.yul\":13097:13101   */\n      dup7\n        /* \"#utility.yul\":13090:13171   */\n      sstore\n        /* \"#utility.yul\":12959:13181   */\n      pop\n        /* \"#utility.yul\":12294:13181   */\n      jump(tag_250)\n        /* \"#utility.yul\":12324:12942   */\n    tag_251:\n        /* \"#utility.yul\":12376:12380   */\n      0x1f\n        /* \"#utility.yul\":12372:12381   */\n      not\n        /* \"#utility.yul\":12364:12370   */\n      dup5\n        /* \"#utility.yul\":12360:12382   */\n      and\n        /* \"#utility.yul\":12410:12447   */\n      tag_254\n        /* \"#utility.yul\":12442:12446   */\n      dup7\n        /* \"#utility.yul\":12410:12447   */\n      tag_90\n      jump\t// in\n    tag_254:\n        /* \"#utility.yul\":12469:12470   */\n      0x00\n        /* \"#utility.yul\":12483:12691   */\n    tag_255:\n        /* \"#utility.yul\":12497:12504   */\n      dup3\n        /* \"#utility.yul\":12494:12495   */\n      dup2\n        /* \"#utility.yul\":12491:12505   */\n      lt\n        /* \"#utility.yul\":12483:12691   */\n      iszero\n      tag_257\n      jumpi\n        /* \"#utility.yul\":12576:12585   */\n      dup5\n        /* \"#utility.yul\":12571:12574   */\n      dup10\n        /* \"#utility.yul\":12567:12586   */\n      add\n        /* \"#utility.yul\":12561:12587   */\n      mload\n        /* \"#utility.yul\":12553:12559   */\n      dup3\n        /* \"#utility.yul\":12546:12588   */\n      sstore\n        /* \"#utility.yul\":12627:12628   */\n      0x01\n        /* \"#utility.yul\":12619:12625   */\n      dup3\n        /* \"#utility.yul\":12615:12629   */\n      add\n        /* \"#utility.yul\":12605:12629   */\n      swap2\n      pop\n        /* \"#utility.yul\":12674:12676   */\n      0x20\n        /* \"#utility.yul\":12663:12672   */\n      dup6\n        /* \"#utility.yul\":12659:12677   */\n      add\n        /* \"#utility.yul\":12646:12677   */\n      swap5\n      pop\n        /* \"#utility.yul\":12520:12524   */\n      0x20\n        /* \"#utility.yul\":12517:12518   */\n      dup2\n        /* \"#utility.yul\":12513:12525   */\n      add\n        /* \"#utility.yul\":12508:12525   */\n      swap1\n      pop\n        /* \"#utility.yul\":12483:12691   */\n      jump(tag_255)\n    tag_257:\n        /* \"#utility.yul\":12719:12725   */\n      dup7\n        /* \"#utility.yul\":12710:12717   */\n      dup4\n        /* \"#utility.yul\":12707:12726   */\n      lt\n        /* \"#utility.yul\":12704:12883   */\n      iszero\n      tag_258\n      jumpi\n        /* \"#utility.yul\":12777:12786   */\n      dup5\n        /* \"#utility.yul\":12772:12775   */\n      dup10\n        /* \"#utility.yul\":12768:12787   */\n      add\n        /* \"#utility.yul\":12762:12788   */\n      mload\n        /* \"#utility.yul\":12820:12868   */\n      tag_259\n        /* \"#utility.yul\":12862:12866   */\n      0x1f\n        /* \"#utility.yul\":12854:12860   */\n      dup10\n        /* \"#utility.yul\":12850:12867   */\n      and\n        /* \"#utility.yul\":12839:12848   */\n      dup3\n        /* \"#utility.yul\":12820:12868   */\n      tag_103\n      jump\t// in\n    tag_259:\n        /* \"#utility.yul\":12812:12818   */\n      dup4\n        /* \"#utility.yul\":12805:12869   */\n      sstore\n        /* \"#utility.yul\":12727:12883   */\n      pop\n        /* \"#utility.yul\":12704:12883   */\n    tag_258:\n        /* \"#utility.yul\":12929:12930   */\n      0x01\n        /* \"#utility.yul\":12925:12926   */\n      0x02\n        /* \"#utility.yul\":12917:12923   */\n      dup9\n        /* \"#utility.yul\":12913:12927   */\n      mul\n        /* \"#utility.yul\":12909:12931   */\n      add\n        /* \"#utility.yul\":12903:12907   */\n      dup9\n        /* \"#utility.yul\":12896:12932   */\n      sstore\n        /* \"#utility.yul\":12331:12942   */\n      pop\n      pop\n      pop\n        /* \"#utility.yul\":12294:13181   */\n    tag_250:\n      pop\n        /* \"#utility.yul\":11884:13187   */\n      pop\n      pop\n      pop\n        /* \"#utility.yul\":11792:13187   */\n      pop\n      pop\n      jump\t// out\n\n    auxdata: 0xa2646970667358221220646370a0be1591d599039bdc1acbe9dc7d3e28faba106be09b2619775734556764736f6c634300081a0033\n}\n",
				"bytecode": {
					"linkReferences": {},
					"object": "60806040525f80553480156011575f80fd5b50610c468061001f5f395ff3fe608060405234801561000f575f80fd5b5060043610610055575f3560e01c806334b735a1146100595780638ddf0f7d14610089578063aaa006b2146100a5578063aab48c52146100c3578063e2eb41ff146100df575b5f80fd5b610073600480360381019061006e9190610535565b610114565b60405161008091906105d3565b60405180910390f35b6100a3600480360381019061009e9190610535565b610169565b005b6100ad6101f1565b6040516100ba9190610604565b60405180910390f35b6100dd60048036038101906100d89190610783565b6101f6565b005b6100f960048036038101906100f49190610535565b61035b565b60405161010b9695949392919061087a565b60405180910390f35b5f60015f8373ffffffffffffffffffffffffffffffffffffffff1673ffffffffffffffffffffffffffffffffffffffff1681526020019081526020015f206002015f9054906101000a900460ff169050919050565b5f60015f8373ffffffffffffffffffffffffffffffffffffffff1673ffffffffffffffffffffffffffffffffffffffff1681526020019081526020015f209050600f81600501546101ba9190610914565b42106101ed576001816002015f6101000a81548160ff021916908360028111156101e7576101e6610560565b5b02179055505b5050565b5f5481565b6040518060c001604052803373ffffffffffffffffffffffffffffffffffffffff16815260200184815260200160028081111561023657610235610560565b5b81526020018381526020018281526020014281525060015f3373ffffffffffffffffffffffffffffffffffffffff1673ffffffffffffffffffffffffffffffffffffffff1681526020019081526020015f205f820151815f015f6101000a81548173ffffffffffffffffffffffffffffffffffffffff021916908373ffffffffffffffffffffffffffffffffffffffff16021790555060208201518160010190816102e19190610b41565b506040820151816002015f6101000a81548160ff0219169083600281111561030c5761030b610560565b5b02179055506060820151816003015560808201518160040190816103309190610b41565b5060a0820151816005015590505060015f8082825461034f9190610914565b92505081905550505050565b6001602052805f5260405f205f91509050805f015f9054906101000a900473ffffffffffffffffffffffffffffffffffffffff169080600101805461039f90610974565b80601f01602080910402602001604051908101604052809291908181526020018280546103cb90610974565b80156104165780601f106103ed57610100808354040283529160200191610416565b820191905f5260205f20905b8154815290600101906020018083116103f957829003601f168201915b505050505090806002015f9054906101000a900460ff169080600301549080600401805461044390610974565b80601f016020809104026020016040519081016040528092919081815260200182805461046f90610974565b80156104ba5780601f10610491576101008083540402835291602001916104ba565b820191905f5260205f20905b81548152906001019060200180831161049d57829003601f168201915b5050505050908060050154905086565b5f604051905090565b5f80fd5b5f80fd5b5f73ffffffffffffffffffffffffffffffffffffffff82169050919050565b5f610504826104db565b9050919050565b610514816104fa565b811461051e575f80fd5b50565b5f8135905061052f8161050b565b92915050565b5f6020828403121561054a576105496104d3565b5b5f61055784828501610521565b91505092915050565b7f4e487b71000000000000000000000000000000000000000000000000000000005f52602160045260245ffd5b6003811061059e5761059d610560565b5b50565b5f8190506105ae8261058d565b919050565b5f6105bd826105a1565b9050919050565b6105cd816105b3565b82525050565b5f6020820190506105e65f8301846105c4565b92915050565b5f819050919050565b6105fe816105ec565b82525050565b5f6020820190506106175f8301846105f5565b92915050565b5f80fd5b5f80fd5b5f601f19601f8301169050919050565b7f4e487b71000000000000000000000000000000000000000000000000000000005f52604160045260245ffd5b61066b82610625565b810181811067ffffffffffffffff8211171561068a57610689610635565b5b80604052505050565b5f61069c6104ca565b90506106a88282610662565b919050565b5f67ffffffffffffffff8211156106c7576106c6610635565b5b6106d082610625565b9050602081019050919050565b828183375f83830152505050565b5f6106fd6106f8846106ad565b610693565b90508281526020810184848401111561071957610718610621565b5b6107248482856106dd565b509392505050565b5f82601f8301126107405761073f61061d565b5b81356107508482602086016106eb565b91505092915050565b610762816105ec565b811461076c575f80fd5b50565b5f8135905061077d81610759565b92915050565b5f805f6060848603121561079a576107996104d3565b5b5f84013567ffffffffffffffff8111156107b7576107b66104d7565b5b6107c38682870161072c565b93505060206107d48682870161076f565b925050604084013567ffffffffffffffff8111156107f5576107f46104d7565b5b6108018682870161072c565b9150509250925092565b610814816104fa565b82525050565b5f81519050919050565b5f82825260208201905092915050565b8281835e5f83830152505050565b5f61084c8261081a565b6108568185610824565b9350610866818560208601610834565b61086f81610625565b840191505092915050565b5f60c08201905061088d5f83018961080b565b818103602083015261089f8188610842565b90506108ae60408301876105c4565b6108bb60608301866105f5565b81810360808301526108cd8185610842565b90506108dc60a08301846105f5565b979650505050505050565b7f4e487b71000000000000000000000000000000000000000000000000000000005f52601160045260245ffd5b5f61091e826105ec565b9150610929836105ec565b9250828201905080821115610941576109406108e7565b5b92915050565b7f4e487b71000000000000000000000000000000000000000000000000000000005f52602260045260245ffd5b5f600282049050600182168061098b57607f821691505b60208210810361099e5761099d610947565b5b50919050565b5f819050815f5260205f209050919050565b5f6020601f8301049050919050565b5f82821b905092915050565b5f60088302610a007fffffffffffffffffffffffffffffffffffffffffffffffffffffffffffffffff826109c5565b610a0a86836109c5565b95508019841693508086168417925050509392505050565b5f819050919050565b5f610a45610a40610a3b846105ec565b610a22565b6105ec565b9050919050565b5f819050919050565b610a5e83610a2b565b610a72610a6a82610a4c565b8484546109d1565b825550505050565b5f90565b610a86610a7a565b610a91818484610a55565b505050565b5b81811015610ab457610aa95f82610a7e565b600181019050610a97565b5050565b601f821115610af957610aca816109a4565b610ad3846109b6565b81016020851015610ae2578190505b610af6610aee856109b6565b830182610a96565b50505b505050565b5f82821c905092915050565b5f610b195f1984600802610afe565b1980831691505092915050565b5f610b318383610b0a565b9150826002028217905092915050565b610b4a8261081a565b67ffffffffffffffff811115610b6357610b62610635565b5b610b6d8254610974565b610b78828285610ab8565b5f60209050601f831160018114610ba9575f8415610b97578287015190505b610ba18582610b26565b865550610c08565b601f198416610bb7866109a4565b5f5b82811015610bde57848901518255600182019150602085019450602081019050610bb9565b86831015610bfb5784890151610bf7601f891682610b0a565b8355505b6001600288020188555050505b50505050505056fea2646970667358221220646370a0be1591d599039bdc1acbe9dc7d3e28faba106be09b2619775734556764736f6c634300081a0033",
					"opcodes": "PUSH1 0x80 PUSH1 0x40 MSTORE PUSH0 DUP1 SSTORE CALLVALUE DUP1 ISZERO PUSH1 0x11 JUMPI PUSH0 DUP1 REVERT JUMPDEST POP PUSH2 0xC46 DUP1 PUSH2 0x1F PUSH0 CODECOPY PUSH0 RETURN INVALID PUSH1 0x80 PUSH1 0x40 MSTORE CALLVALUE DUP1 ISZERO PUSH2 0xF JUMPI PUSH0 DUP1 REVERT JUMPDEST POP PUSH1 0x4 CALLDATASIZE LT PUSH2 0x55 JUMPI PUSH0 CALLDATALOAD PUSH1 0xE0 SHR DUP1 PUSH4 0x34B735A1 EQ PUSH2 0x59 JUMPI DUP1 PUSH4 0x8DDF0F7D EQ PUSH2 0x89 JUMPI DUP1 PUSH4 0xAAA006B2 EQ PUSH2 0xA5 JUMPI DUP1 PUSH4 0xAAB48C52 EQ PUSH2 0xC3 JUMPI DUP1 PUSH4 0xE2EB41FF EQ PUSH2 0xDF JUMPI JUMPDEST PUSH0 DUP1 REVERT JUMPDEST PUSH2 0x73 PUSH1 0x4 DUP1 CALLDATASIZE SUB DUP2 ADD SWAP1 PUSH2 0x6E SWAP2 SWAP1 PUSH2 0x535 JUMP JUMPDEST PUSH2 0x114 JUMP JUMPDEST PUSH1 0x40 MLOAD PUSH2 0x80 SWAP2 SWAP1 PUSH2 0x5D3 JUMP JUMPDEST PUSH1 0x40 MLOAD DUP1 SWAP2 SUB SWAP1 RETURN JUMPDEST PUSH2 0xA3 PUSH1 0x4 DUP1 CALLDATASIZE SUB DUP2 ADD SWAP1 PUSH2 0x9E SWAP2 SWAP1 PUSH2 0x535 JUMP JUMPDEST PUSH2 0x169 JUMP JUMPDEST STOP JUMPDEST PUSH2 0xAD PUSH2 0x1F1 JUMP JUMPDEST PUSH1 0x40 MLOAD PUSH2 0xBA SWAP2 SWAP1 PUSH2 0x604 JUMP JUMPDEST PUSH1 0x40 MLOAD DUP1 SWAP2 SUB SWAP1 RETURN JUMPDEST PUSH2 0xDD PUSH1 0x4 DUP1 CALLDATASIZE SUB DUP2 ADD SWAP1 PUSH2 0xD8 SWAP2 SWAP1 PUSH2 0x783 JUMP JUMPDEST PUSH2 0x1F6 JUMP JUMPDEST STOP JUMPDEST PUSH2 0xF9 PUSH1 0x4 DUP1 CALLDATASIZE SUB DUP2 ADD SWAP1 PUSH2 0xF4 SWAP2 SWAP1 PUSH2 0x535 JUMP JUMPDEST PUSH2 0x35B JUMP JUMPDEST PUSH1 0x40 MLOAD PUSH2 0x10B SWAP7 SWAP6 SWAP5 SWAP4 SWAP3 SWAP2 SWAP1 PUSH2 0x87A JUMP JUMPDEST PUSH1 0x40 MLOAD DUP1 SWAP2 SUB SWAP1 RETURN JUMPDEST PUSH0 PUSH1 0x1 PUSH0 DUP4 PUSH20 0xFFFFFFFFFFFFFFFFFFFFFFFFFFFFFFFFFFFFFFFF AND PUSH20 0xFFFFFFFFFFFFFFFFFFFFFFFFFFFFFFFFFFFFFFFF AND DUP2 MSTORE PUSH1 0x20 ADD SWAP1 DUP2 MSTORE PUSH1 0x20 ADD PUSH0 KECCAK256 PUSH1 0x2 ADD PUSH0 SWAP1 SLOAD SWAP1 PUSH2 0x100 EXP SWAP1 DIV PUSH1 0xFF AND SWAP1 POP SWAP2 SWAP1 POP JUMP JUMPDEST PUSH0 PUSH1 0x1 PUSH0 DUP4 PUSH20 0xFFFFFFFFFFFFFFFFFFFFFFFFFFFFFFFFFFFFFFFF AND PUSH20 0xFFFFFFFFFFFFFFFFFFFFFFFFFFFFFFFFFFFFFFFF AND DUP2 MSTORE PUSH1 0x20 ADD SWAP1 DUP2 MSTORE PUSH1 0x20 ADD PUSH0 KECCAK256 SWAP1 POP PUSH1 0xF DUP2 PUSH1 0x5 ADD SLOAD PUSH2 0x1BA SWAP2 SWAP1 PUSH2 0x914 JUMP JUMPDEST TIMESTAMP LT PUSH2 0x1ED JUMPI PUSH1 0x1 DUP2 PUSH1 0x2 ADD PUSH0 PUSH2 0x100 EXP DUP2 SLOAD DUP2 PUSH1 0xFF MUL NOT AND SWAP1 DUP4 PUSH1 0x2 DUP2 GT ISZERO PUSH2 0x1E7 JUMPI PUSH2 0x1E6 PUSH2 0x560 JUMP JUMPDEST JUMPDEST MUL OR SWAP1 SSTORE POP JUMPDEST POP POP JUMP JUMPDEST PUSH0 SLOAD DUP2 JUMP JUMPDEST PUSH1 0x40 MLOAD DUP1 PUSH1 0xC0 ADD PUSH1 0x40 MSTORE DUP1 CALLER PUSH20 0xFFFFFFFFFFFFFFFFFFFFFFFFFFFFFFFFFFFFFFFF AND DUP2 MSTORE PUSH1 0x20 ADD DUP5 DUP2 MSTORE PUSH1 0x20 ADD PUSH1 0x2 DUP1 DUP2 GT ISZERO PUSH2 0x236 JUMPI PUSH2 0x235 PUSH2 0x560 JUMP JUMPDEST JUMPDEST DUP2 MSTORE PUSH1 0x20 ADD DUP4 DUP2 MSTORE PUSH1 0x20 ADD DUP3 DUP2 MSTORE PUSH1 0x20 ADD TIMESTAMP DUP2 MSTORE POP PUSH1 0x1 PUSH0 CALLER PUSH20 0xFFFFFFFFFFFFFFFFFFFFFFFFFFFFFFFFFFFFFFFF AND PUSH20 0xFFFFFFFFFFFFFFFFFFFFFFFFFFFFFFFFFFFFFFFF AND DUP2 MSTORE PUSH1 0x20 ADD SWAP1 DUP2 MSTORE PUSH1 0x20 ADD PUSH0 KECCAK256 PUSH0 DUP3 ADD MLOAD DUP2 PUSH0 ADD PUSH0 PUSH2 0x100 EXP DUP2 SLOAD DUP2 PUSH20 0xFFFFFFFFFFFFFFFFFFFFFFFFFFFFFFFFFFFFFFFF MUL NOT AND SWAP1 DUP4 PUSH20 0xFFFFFFFFFFFFFFFFFFFFFFFFFFFFFFFFFFFFFFFF AND MUL OR SWAP1 SSTORE POP PUSH1 0x20 DUP3 ADD MLOAD DUP2 PUSH1 0x1 ADD SWAP1 DUP2 PUSH2 0x2E1 SWAP2 SWAP1 PUSH2 0xB41 JUMP JUMPDEST POP PUSH1 0x40 DUP3 ADD MLOAD DUP2 PUSH1 0x2 ADD PUSH0 PUSH2 0x100 EXP DUP2 SLOAD DUP2 PUSH1 0xFF MUL NOT AND SWAP1 DUP4 PUSH1 0x2 DUP2 GT ISZERO PUSH2 0x30C JUMPI PUSH2 0x30B PUSH2 0x560 JUMP JUMPDEST JUMPDEST MUL OR SWAP1 SSTORE POP PUSH1 0x60 DUP3 ADD MLOAD DUP2 PUSH1 0x3 ADD SSTORE PUSH1 0x80 DUP3 ADD MLOAD DUP2 PUSH1 0x4 ADD SWAP1 DUP2 PUSH2 0x330 SWAP2 SWAP1 PUSH2 0xB41 JUMP JUMPDEST POP PUSH1 0xA0 DUP3 ADD MLOAD DUP2 PUSH1 0x5 ADD SSTORE SWAP1 POP POP PUSH1 0x1 PUSH0 DUP1 DUP3 DUP3 SLOAD PUSH2 0x34F SWAP2 SWAP1 PUSH2 0x914 JUMP JUMPDEST SWAP3 POP POP DUP2 SWAP1 SSTORE POP POP POP POP JUMP JUMPDEST PUSH1 0x1 PUSH1 0x20 MSTORE DUP1 PUSH0 MSTORE PUSH1 0x40 PUSH0 KECCAK256 PUSH0 SWAP2 POP SWAP1 POP DUP1 PUSH0 ADD PUSH0 SWAP1 SLOAD SWAP1 PUSH2 0x100 EXP SWAP1 DIV PUSH20 0xFFFFFFFFFFFFFFFFFFFFFFFFFFFFFFFFFFFFFFFF AND SWAP1 DUP1 PUSH1 0x1 ADD DUP1 SLOAD PUSH2 0x39F SWAP1 PUSH2 0x974 JUMP JUMPDEST DUP1 PUSH1 0x1F ADD PUSH1 0x20 DUP1 SWAP2 DIV MUL PUSH1 0x20 ADD PUSH1 0x40 MLOAD SWAP1 DUP2 ADD PUSH1 0x40 MSTORE DUP1 SWAP3 SWAP2 SWAP1 DUP2 DUP2 MSTORE PUSH1 0x20 ADD DUP3 DUP1 SLOAD PUSH2 0x3CB SWAP1 PUSH2 0x974 JUMP JUMPDEST DUP1 ISZERO PUSH2 0x416 JUMPI DUP1 PUSH1 0x1F LT PUSH2 0x3ED JUMPI PUSH2 0x100 DUP1 DUP4 SLOAD DIV MUL DUP4 MSTORE SWAP2 PUSH1 0x20 ADD SWAP2 PUSH2 0x416 JUMP JUMPDEST DUP3 ADD SWAP2 SWAP1 PUSH0 MSTORE PUSH1 0x20 PUSH0 KECCAK256 SWAP1 JUMPDEST DUP2 SLOAD DUP2 MSTORE SWAP1 PUSH1 0x1 ADD SWAP1 PUSH1 0x20 ADD DUP1 DUP4 GT PUSH2 0x3F9 JUMPI DUP3 SWAP1 SUB PUSH1 0x1F AND DUP3 ADD SWAP2 JUMPDEST POP POP POP POP POP SWAP1 DUP1 PUSH1 0x2 ADD PUSH0 SWAP1 SLOAD SWAP1 PUSH2 0x100 EXP SWAP1 DIV PUSH1 0xFF AND SWAP1 DUP1 PUSH1 0x3 ADD SLOAD SWAP1 DUP1 PUSH1 0x4 ADD DUP1 SLOAD PUSH2 0x443 SWAP1 PUSH2 0x974 JUMP JUMPDEST DUP1 PUSH1 0x1F ADD PUSH1 0x20 DUP1 SWAP2 DIV MUL PUSH1 0x20 ADD PUSH1 0x40 MLOAD SWAP1 DUP2 ADD PUSH1 0x40 MSTORE DUP1 SWAP3 SWAP2 SWAP1 DUP2 DUP2 MSTORE PUSH1 0x20 ADD DUP3 DUP1 SLOAD PUSH2 0x46F SWAP1 PUSH2 0x974 JUMP JUMPDEST DUP1 ISZERO PUSH2 0x4BA JUMPI DUP1 PUSH1 0x1F LT PUSH2 0x491 JUMPI PUSH2 0x100 DUP1 DUP4 SLOAD DIV MUL DUP4 MSTORE SWAP2 PUSH1 0x20 ADD SWAP2 PUSH2 0x4BA JUMP JUMPDEST DUP3 ADD SWAP2 SWAP1 PUSH0 MSTORE PUSH1 0x20 PUSH0 KECCAK256 SWAP1 JUMPDEST DUP2 SLOAD DUP2 MSTORE SWAP1 PUSH1 0x1 ADD SWAP1 PUSH1 0x20 ADD DUP1 DUP4 GT PUSH2 0x49D JUMPI DUP3 SWAP1 SUB PUSH1 0x1F AND DUP3 ADD SWAP2 JUMPDEST POP POP POP POP POP SWAP1 DUP1 PUSH1 0x5 ADD SLOAD SWAP1 POP DUP7 JUMP JUMPDEST PUSH0 PUSH1 0x40 MLOAD SWAP1 POP SWAP1 JUMP JUMPDEST PUSH0 DUP1 REVERT JUMPDEST PUSH0 DUP1 REVERT JUMPDEST PUSH0 PUSH20 0xFFFFFFFFFFFFFFFFFFFFFFFFFFFFFFFFFFFFFFFF DUP3 AND SWAP1 POP SWAP2 SWAP1 POP JUMP JUMPDEST PUSH0 PUSH2 0x504 DUP3 PUSH2 0x4DB JUMP JUMPDEST SWAP1 POP SWAP2 SWAP1 POP JUMP JUMPDEST PUSH2 0x514 DUP2 PUSH2 0x4FA JUMP JUMPDEST DUP2 EQ PUSH2 0x51E JUMPI PUSH0 DUP1 REVERT JUMPDEST POP JUMP JUMPDEST PUSH0 DUP2 CALLDATALOAD SWAP1 POP PUSH2 0x52F DUP2 PUSH2 0x50B JUMP JUMPDEST SWAP3 SWAP2 POP POP JUMP JUMPDEST PUSH0 PUSH1 0x20 DUP3 DUP5 SUB SLT ISZERO PUSH2 0x54A JUMPI PUSH2 0x549 PUSH2 0x4D3 JUMP JUMPDEST JUMPDEST PUSH0 PUSH2 0x557 DUP5 DUP3 DUP6 ADD PUSH2 0x521 JUMP JUMPDEST SWAP2 POP POP SWAP3 SWAP2 POP POP JUMP JUMPDEST PUSH32 0x4E487B7100000000000000000000000000000000000000000000000000000000 PUSH0 MSTORE PUSH1 0x21 PUSH1 0x4 MSTORE PUSH1 0x24 PUSH0 REVERT JUMPDEST PUSH1 0x3 DUP2 LT PUSH2 0x59E JUMPI PUSH2 0x59D PUSH2 0x560 JUMP JUMPDEST JUMPDEST POP JUMP JUMPDEST PUSH0 DUP2 SWAP1 POP PUSH2 0x5AE DUP3 PUSH2 0x58D JUMP JUMPDEST SWAP2 SWAP1 POP JUMP JUMPDEST PUSH0 PUSH2 0x5BD DUP3 PUSH2 0x5A1 JUMP JUMPDEST SWAP1 POP SWAP2 SWAP1 POP JUMP JUMPDEST PUSH2 0x5CD DUP2 PUSH2 0x5B3 JUMP JUMPDEST DUP3 MSTORE POP POP JUMP JUMPDEST PUSH0 PUSH1 0x20 DUP3 ADD SWAP1 POP PUSH2 0x5E6 PUSH0 DUP4 ADD DUP5 PUSH2 0x5C4 JUMP JUMPDEST SWAP3 SWAP2 POP POP JUMP JUMPDEST PUSH0 DUP2 SWAP1 POP SWAP2 SWAP1 POP JUMP JUMPDEST PUSH2 0x5FE DUP2 PUSH2 0x5EC JUMP JUMPDEST DUP3 MSTORE POP POP JUMP JUMPDEST PUSH0 PUSH1 0x20 DUP3 ADD SWAP1 POP PUSH2 0x617 PUSH0 DUP4 ADD DUP5 PUSH2 0x5F5 JUMP JUMPDEST SWAP3 SWAP2 POP POP JUMP JUMPDEST PUSH0 DUP1 REVERT JUMPDEST PUSH0 DUP1 REVERT JUMPDEST PUSH0 PUSH1 0x1F NOT PUSH1 0x1F DUP4 ADD AND SWAP1 POP SWAP2 SWAP1 POP JUMP JUMPDEST PUSH32 0x4E487B7100000000000000000000000000000000000000000000000000000000 PUSH0 MSTORE PUSH1 0x41 PUSH1 0x4 MSTORE PUSH1 0x24 PUSH0 REVERT JUMPDEST PUSH2 0x66B DUP3 PUSH2 0x625 JUMP JUMPDEST DUP2 ADD DUP2 DUP2 LT PUSH8 0xFFFFFFFFFFFFFFFF DUP3 GT OR ISZERO PUSH2 0x68A JUMPI PUSH2 0x689 PUSH2 0x635 JUMP JUMPDEST JUMPDEST DUP1 PUSH1 0x40 MSTORE POP POP POP JUMP JUMPDEST PUSH0 PUSH2 0x69C PUSH2 0x4CA JUMP JUMPDEST SWAP1 POP PUSH2 0x6A8 DUP3 DUP3 PUSH2 0x662 JUMP JUMPDEST SWAP2 SWAP1 POP JUMP JUMPDEST PUSH0 PUSH8 0xFFFFFFFFFFFFFFFF DUP3 GT ISZERO PUSH2 0x6C7 JUMPI PUSH2 0x6C6 PUSH2 0x635 JUMP JUMPDEST JUMPDEST PUSH2 0x6D0 DUP3 PUSH2 0x625 JUMP JUMPDEST SWAP1 POP PUSH1 0x20 DUP2 ADD SWAP1 POP SWAP2 SWAP1 POP JUMP JUMPDEST DUP3 DUP2 DUP4 CALLDATACOPY PUSH0 DUP4 DUP4 ADD MSTORE POP POP POP JUMP JUMPDEST PUSH0 PUSH2 0x6FD PUSH2 0x6F8 DUP5 PUSH2 0x6AD JUMP JUMPDEST PUSH2 0x693 JUMP JUMPDEST SWAP1 POP DUP3 DUP2 MSTORE PUSH1 0x20 DUP2 ADD DUP5 DUP5 DUP5 ADD GT ISZERO PUSH2 0x719 JUMPI PUSH2 0x718 PUSH2 0x621 JUMP JUMPDEST JUMPDEST PUSH2 0x724 DUP5 DUP3 DUP6 PUSH2 0x6DD JUMP JUMPDEST POP SWAP4 SWAP3 POP POP POP JUMP JUMPDEST PUSH0 DUP3 PUSH1 0x1F DUP4 ADD SLT PUSH2 0x740 JUMPI PUSH2 0x73F PUSH2 0x61D JUMP JUMPDEST JUMPDEST DUP2 CALLDATALOAD PUSH2 0x750 DUP5 DUP3 PUSH1 0x20 DUP7 ADD PUSH2 0x6EB JUMP JUMPDEST SWAP2 POP POP SWAP3 SWAP2 POP POP JUMP JUMPDEST PUSH2 0x762 DUP2 PUSH2 0x5EC JUMP JUMPDEST DUP2 EQ PUSH2 0x76C JUMPI PUSH0 DUP1 REVERT JUMPDEST POP JUMP JUMPDEST PUSH0 DUP2 CALLDATALOAD SWAP1 POP PUSH2 0x77D DUP2 PUSH2 0x759 JUMP JUMPDEST SWAP3 SWAP2 POP POP JUMP JUMPDEST PUSH0 DUP1 PUSH0 PUSH1 0x60 DUP5 DUP7 SUB SLT ISZERO PUSH2 0x79A JUMPI PUSH2 0x799 PUSH2 0x4D3 JUMP JUMPDEST JUMPDEST PUSH0 DUP5 ADD CALLDATALOAD PUSH8 0xFFFFFFFFFFFFFFFF DUP2 GT ISZERO PUSH2 0x7B7 JUMPI PUSH2 0x7B6 PUSH2 0x4D7 JUMP JUMPDEST JUMPDEST PUSH2 0x7C3 DUP7 DUP3 DUP8 ADD PUSH2 0x72C JUMP JUMPDEST SWAP4 POP POP PUSH1 0x20 PUSH2 0x7D4 DUP7 DUP3 DUP8 ADD PUSH2 0x76F JUMP JUMPDEST SWAP3 POP POP PUSH1 0x40 DUP5 ADD CALLDATALOAD PUSH8 0xFFFFFFFFFFFFFFFF DUP2 GT ISZERO PUSH2 0x7F5 JUMPI PUSH2 0x7F4 PUSH2 0x4D7 JUMP JUMPDEST JUMPDEST PUSH2 0x801 DUP7 DUP3 DUP8 ADD PUSH2 0x72C JUMP JUMPDEST SWAP2 POP POP SWAP3 POP SWAP3 POP SWAP3 JUMP JUMPDEST PUSH2 0x814 DUP2 PUSH2 0x4FA JUMP JUMPDEST DUP3 MSTORE POP POP JUMP JUMPDEST PUSH0 DUP2 MLOAD SWAP1 POP SWAP2 SWAP1 POP JUMP JUMPDEST PUSH0 DUP3 DUP3 MSTORE PUSH1 0x20 DUP3 ADD SWAP1 POP SWAP3 SWAP2 POP POP JUMP JUMPDEST DUP3 DUP2 DUP4 MCOPY PUSH0 DUP4 DUP4 ADD MSTORE POP POP POP JUMP JUMPDEST PUSH0 PUSH2 0x84C DUP3 PUSH2 0x81A JUMP JUMPDEST PUSH2 0x856 DUP2 DUP6 PUSH2 0x824 JUMP JUMPDEST SWAP4 POP PUSH2 0x866 DUP2 DUP6 PUSH1 0x20 DUP7 ADD PUSH2 0x834 JUMP JUMPDEST PUSH2 0x86F DUP2 PUSH2 0x625 JUMP JUMPDEST DUP5 ADD SWAP2 POP POP SWAP3 SWAP2 POP POP JUMP JUMPDEST PUSH0 PUSH1 0xC0 DUP3 ADD SWAP1 POP PUSH2 0x88D PUSH0 DUP4 ADD DUP10 PUSH2 0x80B JUMP JUMPDEST DUP2 DUP2 SUB PUSH1 0x20 DUP4 ADD MSTORE PUSH2 0x89F DUP2 DUP9 PUSH2 0x842 JUMP JUMPDEST SWAP1 POP PUSH2 0x8AE PUSH1 0x40 DUP4 ADD DUP8 PUSH2 0x5C4 JUMP JUMPDEST PUSH2 0x8BB PUSH1 0x60 DUP4 ADD DUP7 PUSH2 0x5F5 JUMP JUMPDEST DUP2 DUP2 SUB PUSH1 0x80 DUP4 ADD MSTORE PUSH2 0x8CD DUP2 DUP6 PUSH2 0x842 JUMP JUMPDEST SWAP1 POP PUSH2 0x8DC PUSH1 0xA0 DUP4 ADD DUP5 PUSH2 0x5F5 JUMP JUMPDEST SWAP8 SWAP7 POP POP POP POP POP POP POP JUMP JUMPDEST PUSH32 0x4E487B7100000000000000000000000000000000000000000000000000000000 PUSH0 MSTORE PUSH1 0x11 PUSH1 0x4 MSTORE PUSH1 0x24 PUSH0 REVERT JUMPDEST PUSH0 PUSH2 0x91E DUP3 PUSH2 0x5EC JUMP JUMPDEST SWAP2 POP PUSH2 0x929 DUP4 PUSH2 0x5EC JUMP JUMPDEST SWAP3 POP DUP3 DUP3 ADD SWAP1 POP DUP1 DUP3 GT ISZERO PUSH2 0x941 JUMPI PUSH2 0x940 PUSH2 0x8E7 JUMP JUMPDEST JUMPDEST SWAP3 SWAP2 POP POP JUMP JUMPDEST PUSH32 0x4E487B7100000000000000000000000000000000000000000000000000000000 PUSH0 MSTORE PUSH1 0x22 PUSH1 0x4 MSTORE PUSH1 0x24 PUSH0 REVERT JUMPDEST PUSH0 PUSH1 0x2 DUP3 DIV SWAP1 POP PUSH1 0x1 DUP3 AND DUP1 PUSH2 0x98B JUMPI PUSH1 0x7F DUP3 AND SWAP2 POP JUMPDEST PUSH1 0x20 DUP3 LT DUP2 SUB PUSH2 0x99E JUMPI PUSH2 0x99D PUSH2 0x947 JUMP JUMPDEST JUMPDEST POP SWAP2 SWAP1 POP JUMP JUMPDEST PUSH0 DUP2 SWAP1 POP DUP2 PUSH0 MSTORE PUSH1 0x20 PUSH0 KECCAK256 SWAP1 POP SWAP2 SWAP1 POP JUMP JUMPDEST PUSH0 PUSH1 0x20 PUSH1 0x1F DUP4 ADD DIV SWAP1 POP SWAP2 SWAP1 POP JUMP JUMPDEST PUSH0 DUP3 DUP3 SHL SWAP1 POP SWAP3 SWAP2 POP POP JUMP JUMPDEST PUSH0 PUSH1 0x8 DUP4 MUL PUSH2 0xA00 PUSH32 0xFFFFFFFFFFFFFFFFFFFFFFFFFFFFFFFFFFFFFFFFFFFFFFFFFFFFFFFFFFFFFFFF DUP3 PUSH2 0x9C5 JUMP JUMPDEST PUSH2 0xA0A DUP7 DUP4 PUSH2 0x9C5 JUMP JUMPDEST SWAP6 POP DUP1 NOT DUP5 AND SWAP4 POP DUP1 DUP7 AND DUP5 OR SWAP3 POP POP POP SWAP4 SWAP3 POP POP POP JUMP JUMPDEST PUSH0 DUP2 SWAP1 POP SWAP2 SWAP1 POP JUMP JUMPDEST PUSH0 PUSH2 0xA45 PUSH2 0xA40 PUSH2 0xA3B DUP5 PUSH2 0x5EC JUMP JUMPDEST PUSH2 0xA22 JUMP JUMPDEST PUSH2 0x5EC JUMP JUMPDEST SWAP1 POP SWAP2 SWAP1 POP JUMP JUMPDEST PUSH0 DUP2 SWAP1 POP SWAP2 SWAP1 POP JUMP JUMPDEST PUSH2 0xA5E DUP4 PUSH2 0xA2B JUMP JUMPDEST PUSH2 0xA72 PUSH2 0xA6A DUP3 PUSH2 0xA4C JUMP JUMPDEST DUP5 DUP5 SLOAD PUSH2 0x9D1 JUMP JUMPDEST DUP3 SSTORE POP POP POP POP JUMP JUMPDEST PUSH0 SWAP1 JUMP JUMPDEST PUSH2 0xA86 PUSH2 0xA7A JUMP JUMPDEST PUSH2 0xA91 DUP2 DUP5 DUP5 PUSH2 0xA55 JUMP JUMPDEST POP POP POP JUMP JUMPDEST JUMPDEST DUP2 DUP2 LT ISZERO PUSH2 0xAB4 JUMPI PUSH2 0xAA9 PUSH0 DUP3 PUSH2 0xA7E JUMP JUMPDEST PUSH1 0x1 DUP2 ADD SWAP1 POP PUSH2 0xA97 JUMP JUMPDEST POP POP JUMP JUMPDEST PUSH1 0x1F DUP3 GT ISZERO PUSH2 0xAF9 JUMPI PUSH2 0xACA DUP2 PUSH2 0x9A4 JUMP JUMPDEST PUSH2 0xAD3 DUP5 PUSH2 0x9B6 JUMP JUMPDEST DUP2 ADD PUSH1 0x20 DUP6 LT ISZERO PUSH2 0xAE2 JUMPI DUP2 SWAP1 POP JUMPDEST PUSH2 0xAF6 PUSH2 0xAEE DUP6 PUSH2 0x9B6 JUMP JUMPDEST DUP4 ADD DUP3 PUSH2 0xA96 JUMP JUMPDEST POP POP JUMPDEST POP POP POP JUMP JUMPDEST PUSH0 DUP3 DUP3 SHR SWAP1 POP SWAP3 SWAP2 POP POP JUMP JUMPDEST PUSH0 PUSH2 0xB19 PUSH0 NOT DUP5 PUSH1 0x8 MUL PUSH2 0xAFE JUMP JUMPDEST NOT DUP1 DUP4 AND SWAP2 POP POP SWAP3 SWAP2 POP POP JUMP JUMPDEST PUSH0 PUSH2 0xB31 DUP4 DUP4 PUSH2 0xB0A JUMP JUMPDEST SWAP2 POP DUP3 PUSH1 0x2 MUL DUP3 OR SWAP1 POP SWAP3 SWAP2 POP POP JUMP JUMPDEST PUSH2 0xB4A DUP3 PUSH2 0x81A JUMP JUMPDEST PUSH8 0xFFFFFFFFFFFFFFFF DUP2 GT ISZERO PUSH2 0xB63 JUMPI PUSH2 0xB62 PUSH2 0x635 JUMP JUMPDEST JUMPDEST PUSH2 0xB6D DUP3 SLOAD PUSH2 0x974 JUMP JUMPDEST PUSH2 0xB78 DUP3 DUP3 DUP6 PUSH2 0xAB8 JUMP JUMPDEST PUSH0 PUSH1 0x20 SWAP1 POP PUSH1 0x1F DUP4 GT PUSH1 0x1 DUP2 EQ PUSH2 0xBA9 JUMPI PUSH0 DUP5 ISZERO PUSH2 0xB97 JUMPI DUP3 DUP8 ADD MLOAD SWAP1 POP JUMPDEST PUSH2 0xBA1 DUP6 DUP3 PUSH2 0xB26 JUMP JUMPDEST DUP7 SSTORE POP PUSH2 0xC08 JUMP JUMPDEST PUSH1 0x1F NOT DUP5 AND PUSH2 0xBB7 DUP7 PUSH2 0x9A4 JUMP JUMPDEST PUSH0 JUMPDEST DUP3 DUP2 LT ISZERO PUSH2 0xBDE JUMPI DUP5 DUP10 ADD MLOAD DUP3 SSTORE PUSH1 0x1 DUP3 ADD SWAP2 POP PUSH1 0x20 DUP6 ADD SWAP5 POP PUSH1 0x20 DUP2 ADD SWAP1 POP PUSH2 0xBB9 JUMP JUMPDEST DUP7 DUP4 LT ISZERO PUSH2 0xBFB JUMPI DUP5 DUP10 ADD MLOAD PUSH2 0xBF7 PUSH1 0x1F DUP10 AND DUP3 PUSH2 0xB0A JUMP JUMPDEST DUP4 SSTORE POP JUMPDEST PUSH1 0x1 PUSH1 0x2 DUP9 MUL ADD DUP9 SSTORE POP POP POP JUMPDEST POP POP POP POP POP POP JUMP INVALID LOG2 PUSH5 0x6970667358 0x22 SLT KECCAK256 PUSH5 0x6370A0BE15 SWAP2 0xD5 SWAP10 SUB SWAP12 0xDC BYTE 0xCB 0xE9 0xDC PUSH30 0x3E28FABA106BE09B2619775734556764736F6C634300081A003300000000 "
				},
				"gasEstimates": {
					"creation": {
						"codeDepositCost": "628400",
						"executionCost": "5667",
						"totalCost": "634067"
					},
					"external": {
						"addPlayer(string,uint256,string)": "infinite",
						"changePlayerLevel(address)": "infinite",
						"countPlayer()": "2446",
						"getPlayerLevel(address)": "2942",
						"players(address)": "infinite"
					}
				},
				"methodIdentifiers": {
					"addPlayer(string,uint256,string)": "aab48c52",
					"changePlayerLevel(address)": "8ddf0f7d",
					"countPlayer()": "aaa006b2",
					"getPlayerLevel(address)": "34b735a1",
					"players(address)": "e2eb41ff"
				}
			},
			"storageLayout": {
				"storage": [
					{
						"astId": 4,
						"contract": "contracts/Struct.sol:Game",
						"label": "countPlayer",
						"offset": 0,
						"slot": "0",
						"type": "t_uint256"
					},
					{
						"astId": 9,
						"contract": "contracts/Struct.sol:Game",
						"label": "players",
						"offset": 0,
						"slot": "1",
						"type": "t_mapping(t_address,t_struct(Player)27_storage)"
					}
				],
				"types": {
					"t_address": {
						"encoding": "inplace",
						"label": "address",
						"numberOfBytes": "20"
					},
					"t_enum(Level)13": {
						"encoding": "inplace",
						"label": "enum Game.Level",
						"numberOfBytes": "1"
					},
					"t_mapping(t_address,t_struct(Player)27_storage)": {
						"encoding": "mapping",
						"key": "t_address",
						"label": "mapping(address => struct Game.Player)",
						"numberOfBytes": "32",
						"value": "t_struct(Player)27_storage"
					},
					"t_string_storage": {
						"encoding": "bytes",
						"label": "string",
						"numberOfBytes": "32"
					},
					"t_struct(Player)27_storage": {
						"encoding": "inplace",
						"label": "struct Game.Player",
						"members": [
							{
								"astId": 15,
								"contract": "contracts/Struct.sol:Game",
								"label": "addressPlayer",
								"offset": 0,
								"slot": "0",
								"type": "t_address"
							},
							{
								"astId": 17,
								"contract": "contracts/Struct.sol:Game",
								"label": "FullName",
								"offset": 0,
								"slot": "1",
								"type": "t_string_storage"
							},
							{
								"astId": 20,
								"contract": "contracts/Struct.sol:Game",
								"label": "myLevel",
								"offset": 0,
								"slot": "2",
								"type": "t_enum(Level)13"
							},
							{
								"astId": 22,
								"contract": "contracts/Struct.sol:Game",
								"label": "age",
								"offset": 0,
								"slot": "3",
								"type": "t_uint256"
							},
							{
								"astId": 24,
								"contract": "contracts/Struct.sol:Game",
								"label": "sex",
								"offset": 0,
								"slot": "4",
								"type": "t_string_storage"
							},
							{
								"astId": 26,
								"contract": "contracts/Struct.sol:Game",
								"label": "createTime",
								"offset": 0,
								"slot": "5",
								"type": "t_uint256"
							}
						],
						"numberOfBytes": "192"
					},
					"t_uint256": {
						"encoding": "inplace",
						"label": "uint256",
						"numberOfBytes": "32"
					}
				}
			},
			"userdoc": {
				"kind": "user",
				"methods": {},
				"version": 1
			}
		}
	}
}