{
	"contracts/Solidity/testing.sol": {
		"NestedMappingExample": {
			"abi": [
				{
					"inputs": [
						{
							"internalType": "address",
							"name": "user",
							"type": "address"
						},
						{
							"internalType": "uint256",
							"name": "id",
							"type": "uint256"
						}
					],
					"name": "getMessage",
					"outputs": [
						{
							"internalType": "string",
							"name": "",
							"type": "string"
						}
					],
					"stateMutability": "view",
					"type": "function"
				},
				{
					"inputs": [
						{
							"internalType": "address",
							"name": "user",
							"type": "address"
						},
						{
							"internalType": "uint256",
							"name": "id",
							"type": "uint256"
						},
						{
							"internalType": "string",
							"name": "message",
							"type": "string"
						}
					],
					"name": "setMessage",
					"outputs": [],
					"stateMutability": "nonpayable",
					"type": "function"
				},
				{
					"inputs": [
						{
							"internalType": "address",
							"name": "",
							"type": "address"
						},
						{
							"internalType": "uint256",
							"name": "",
							"type": "uint256"
						}
					],
					"name": "userMessages",
					"outputs": [
						{
							"internalType": "string",
							"name": "",
							"type": "string"
						}
					],
					"stateMutability": "view",
					"type": "function"
				}
			],
			"devdoc": {
				"kind": "dev",
				"methods": {},
				"version": 1
			},
			"evm": {
				"assembly": "    /* \"contracts/Solidity/testing.sol\":60:589  contract NestedMappingExample {\r... */\n  mstore(0x40, 0x80)\n  callvalue\n  dup1\n  iszero\n  tag_1\n  jumpi\n  0x00\n  dup1\n  revert\ntag_1:\n  pop\n  dataSize(sub_0)\n  dup1\n  dataOffset(sub_0)\n  0x00\n  codecopy\n  0x00\n  return\nstop\n\nsub_0: assembly {\n        /* \"contracts/Solidity/testing.sol\":60:589  contract NestedMappingExample {\r... */\n      mstore(0x40, 0x80)\n      callvalue\n      dup1\n      iszero\n      tag_1\n      jumpi\n      0x00\n      dup1\n      revert\n    tag_1:\n      pop\n      jumpi(tag_2, lt(calldatasize, 0x04))\n      shr(0xe0, calldataload(0x00))\n      dup1\n      0x570c537e\n      eq\n      tag_3\n      jumpi\n      dup1\n      0x751501a7\n      eq\n      tag_4\n      jumpi\n      dup1\n      0x9428cda3\n      eq\n      tag_5\n      jumpi\n    tag_2:\n      0x00\n      dup1\n      revert\n        /* \"contracts/Solidity/testing.sol\":459:586  function getMessage(address user, uint id) public view returns (string memory) {\r... */\n    tag_3:\n      tag_6\n      0x04\n      dup1\n      calldatasize\n      sub\n      dup2\n      add\n      swap1\n      tag_7\n      swap2\n      swap1\n      tag_8\n      jump\t// in\n    tag_7:\n      tag_9\n      jump\t// in\n    tag_6:\n      mload(0x40)\n      tag_10\n      swap2\n      swap1\n      tag_11\n      jump\t// in\n    tag_10:\n      mload(0x40)\n      dup1\n      swap2\n      sub\n      swap1\n      return\n        /* \"contracts/Solidity/testing.sol\":266:390  function setMessage(address user, uint id, string memory message) public {\r... */\n    tag_4:\n      tag_12\n      0x04\n      dup1\n      calldatasize\n      sub\n      dup2\n      add\n      swap1\n      tag_13\n      swap2\n      swap1\n      tag_14\n      jump\t// in\n    tag_13:\n      tag_15\n      jump\t// in\n    tag_12:\n      stop\n        /* \"contracts/Solidity/testing.sol\":132:196  mapping(address => mapping(uint => string)) public  userMessages */\n    tag_5:\n      tag_16\n      0x04\n      dup1\n      calldatasize\n      sub\n      dup2\n      add\n      swap1\n      tag_17\n      swap2\n      swap1\n      tag_8\n      jump\t// in\n    tag_17:\n      tag_18\n      jump\t// in\n    tag_16:\n      mload(0x40)\n      tag_19\n      swap2\n      swap1\n      tag_11\n      jump\t// in\n    tag_19:\n      mload(0x40)\n      dup1\n      swap2\n      sub\n      swap1\n      return\n        /* \"contracts/Solidity/testing.sol\":459:586  function getMessage(address user, uint id) public view returns (string memory) {\r... */\n    tag_9:\n        /* \"contracts/Solidity/testing.sol\":523:536  string memory */\n      0x60\n        /* \"contracts/Solidity/testing.sol\":556:568  userMessages */\n      0x00\n        /* \"contracts/Solidity/testing.sol\":556:574  userMessages[user] */\n      dup1\n        /* \"contracts/Solidity/testing.sol\":569:573  user */\n      dup5\n        /* \"contracts/Solidity/testing.sol\":556:574  userMessages[user] */\n      0xffffffffffffffffffffffffffffffffffffffff\n      and\n      0xffffffffffffffffffffffffffffffffffffffff\n      and\n      dup2\n      mstore\n      0x20\n      add\n      swap1\n      dup2\n      mstore\n      0x20\n      add\n      0x00\n      keccak256\n        /* \"contracts/Solidity/testing.sol\":556:578  userMessages[user][id] */\n      0x00\n        /* \"contracts/Solidity/testing.sol\":575:577  id */\n      dup4\n        /* \"contracts/Solidity/testing.sol\":556:578  userMessages[user][id] */\n      dup2\n      mstore\n      0x20\n      add\n      swap1\n      dup2\n      mstore\n      0x20\n      add\n      0x00\n      keccak256\n        /* \"contracts/Solidity/testing.sol\":549:578  return userMessages[user][id] */\n      dup1\n      sload\n      tag_21\n      swap1\n      tag_22\n      jump\t// in\n    tag_21:\n      dup1\n      0x1f\n      add\n      0x20\n      dup1\n      swap2\n      div\n      mul\n      0x20\n      add\n      mload(0x40)\n      swap1\n      dup2\n      add\n      0x40\n      mstore\n      dup1\n      swap3\n      swap2\n      swap1\n      dup2\n      dup2\n      mstore\n      0x20\n      add\n      dup3\n      dup1\n      sload\n      tag_23\n      swap1\n      tag_22\n      jump\t// in\n    tag_23:\n      dup1\n      iszero\n      tag_24\n      jumpi\n      dup1\n      0x1f\n      lt\n      tag_25\n      jumpi\n      0x0100\n      dup1\n      dup4\n      sload\n      div\n      mul\n      dup4\n      mstore\n      swap2\n      0x20\n      add\n      swap2\n      jump(tag_24)\n    tag_25:\n      dup3\n      add\n      swap2\n      swap1\n      0x00\n      mstore\n      keccak256(0x00, 0x20)\n      swap1\n    tag_26:\n      dup2\n      sload\n      dup2\n      mstore\n      swap1\n      0x01\n      add\n      swap1\n      0x20\n      add\n      dup1\n      dup4\n      gt\n      tag_26\n      jumpi\n      dup3\n      swap1\n      sub\n      0x1f\n      and\n      dup3\n      add\n      swap2\n    tag_24:\n      pop\n      pop\n      pop\n      pop\n      pop\n      swap1\n      pop\n        /* \"contracts/Solidity/testing.sol\":459:586  function getMessage(address user, uint id) public view returns (string memory) {\r... */\n      swap3\n      swap2\n      pop\n      pop\n      jump\t// out\n        /* \"contracts/Solidity/testing.sol\":266:390  function setMessage(address user, uint id, string memory message) public {\r... */\n    tag_15:\n        /* \"contracts/Solidity/testing.sol\":375:382  message */\n      dup1\n        /* \"contracts/Solidity/testing.sol\":350:362  userMessages */\n      0x00\n        /* \"contracts/Solidity/testing.sol\":350:368  userMessages[user] */\n      dup1\n        /* \"contracts/Solidity/testing.sol\":363:367  user */\n      dup6\n        /* \"contracts/Solidity/testing.sol\":350:368  userMessages[user] */\n      0xffffffffffffffffffffffffffffffffffffffff\n      and\n      0xffffffffffffffffffffffffffffffffffffffff\n      and\n      dup2\n      mstore\n      0x20\n      add\n      swap1\n      dup2\n      mstore\n      0x20\n      add\n      0x00\n      keccak256\n        /* \"contracts/Solidity/testing.sol\":350:372  userMessages[user][id] */\n      0x00\n        /* \"contracts/Solidity/testing.sol\":369:371  id */\n      dup5\n        /* \"contracts/Solidity/testing.sol\":350:372  userMessages[user][id] */\n      dup2\n      mstore\n      0x20\n      add\n      swap1\n      dup2\n      mstore\n      0x20\n      add\n      0x00\n      keccak256\n        /* \"contracts/Solidity/testing.sol\":350:382  userMessages[user][id] = message */\n      swap1\n      dup1\n      mload\n      swap1\n      0x20\n      add\n      swap1\n      tag_28\n      swap3\n      swap2\n      swap1\n      tag_29\n      jump\t// in\n    tag_28:\n      pop\n        /* \"contracts/Solidity/testing.sol\":266:390  function setMessage(address user, uint id, string memory message) public {\r... */\n      pop\n      pop\n      pop\n      jump\t// out\n        /* \"contracts/Solidity/testing.sol\":132:196  mapping(address => mapping(uint => string)) public  userMessages */\n    tag_18:\n      mstore(0x20, 0x00)\n      dup2\n      0x00\n      mstore\n      mstore(0x20, keccak256(0x00, 0x40))\n      dup1\n      0x00\n      mstore\n      keccak256(0x00, 0x40)\n      0x00\n      swap2\n      pop\n      swap2\n      pop\n      pop\n      dup1\n      sload\n      tag_30\n      swap1\n      tag_22\n      jump\t// in\n    tag_30:\n      dup1\n      0x1f\n      add\n      0x20\n      dup1\n      swap2\n      div\n      mul\n      0x20\n      add\n      mload(0x40)\n      swap1\n      dup2\n      add\n      0x40\n      mstore\n      dup1\n      swap3\n      swap2\n      swap1\n      dup2\n      dup2\n      mstore\n      0x20\n      add\n      dup3\n      dup1\n      sload\n      tag_31\n      swap1\n      tag_22\n      jump\t// in\n    tag_31:\n      dup1\n      iszero\n      tag_32\n      jumpi\n      dup1\n      0x1f\n      lt\n      tag_33\n      jumpi\n      0x0100\n      dup1\n      dup4\n      sload\n      div\n      mul\n      dup4\n      mstore\n      swap2\n      0x20\n      add\n      swap2\n      jump(tag_32)\n    tag_33:\n      dup3\n      add\n      swap2\n      swap1\n      0x00\n      mstore\n      keccak256(0x00, 0x20)\n      swap1\n    tag_34:\n      dup2\n      sload\n      dup2\n      mstore\n      swap1\n      0x01\n      add\n      swap1\n      0x20\n      add\n      dup1\n      dup4\n      gt\n      tag_34\n      jumpi\n      dup3\n      swap1\n      sub\n      0x1f\n      and\n      dup3\n      add\n      swap2\n    tag_32:\n      pop\n      pop\n      pop\n      pop\n      pop\n      dup2\n      jump\t// out\n    tag_29:\n      dup3\n      dup1\n      sload\n      tag_35\n      swap1\n      tag_22\n      jump\t// in\n    tag_35:\n      swap1\n      0x00\n      mstore\n      keccak256(0x00, 0x20)\n      swap1\n      0x1f\n      add\n      0x20\n      swap1\n      div\n      dup2\n      add\n      swap3\n      dup3\n      tag_37\n      jumpi\n      0x00\n      dup6\n      sstore\n      jump(tag_36)\n    tag_37:\n      dup3\n      0x1f\n      lt\n      tag_38\n      jumpi\n      dup1\n      mload\n      not(0xff)\n      and\n      dup4\n      dup1\n      add\n      or\n      dup6\n      sstore\n      jump(tag_36)\n    tag_38:\n      dup3\n      dup1\n      add\n      0x01\n      add\n      dup6\n      sstore\n      dup3\n      iszero\n      tag_36\n      jumpi\n      swap2\n      dup3\n      add\n    tag_39:\n      dup3\n      dup2\n      gt\n      iszero\n      tag_40\n      jumpi\n      dup3\n      mload\n      dup3\n      sstore\n      swap2\n      0x20\n      add\n      swap2\n      swap1\n      0x01\n      add\n      swap1\n      jump(tag_39)\n    tag_40:\n    tag_36:\n      pop\n      swap1\n      pop\n      tag_41\n      swap2\n      swap1\n      tag_42\n      jump\t// in\n    tag_41:\n      pop\n      swap1\n      jump\t// out\n    tag_42:\n    tag_43:\n      dup1\n      dup3\n      gt\n      iszero\n      tag_44\n      jumpi\n      0x00\n      dup2\n      0x00\n      swap1\n      sstore\n      pop\n      0x01\n      add\n      jump(tag_43)\n    tag_44:\n      pop\n      swap1\n      jump\t// out\n        /* \"#utility.yul\":7:352   */\n    tag_46:\n        /* \"#utility.yul\":85:90   */\n      0x00\n        /* \"#utility.yul\":110:176   */\n      tag_48\n        /* \"#utility.yul\":126:175   */\n      tag_49\n        /* \"#utility.yul\":168:174   */\n      dup5\n        /* \"#utility.yul\":126:175   */\n      tag_50\n      jump\t// in\n    tag_49:\n        /* \"#utility.yul\":110:176   */\n      tag_51\n      jump\t// in\n    tag_48:\n        /* \"#utility.yul\":101:176   */\n      swap1\n      pop\n        /* \"#utility.yul\":199:205   */\n      dup3\n        /* \"#utility.yul\":192:197   */\n      dup2\n        /* \"#utility.yul\":185:206   */\n      mstore\n        /* \"#utility.yul\":237:241   */\n      0x20\n        /* \"#utility.yul\":230:235   */\n      dup2\n        /* \"#utility.yul\":226:242   */\n      add\n        /* \"#utility.yul\":275:278   */\n      dup5\n        /* \"#utility.yul\":266:272   */\n      dup5\n        /* \"#utility.yul\":261:264   */\n      dup5\n        /* \"#utility.yul\":257:273   */\n      add\n        /* \"#utility.yul\":254:279   */\n      gt\n        /* \"#utility.yul\":251:253   */\n      iszero\n      tag_52\n      jumpi\n        /* \"#utility.yul\":292:293   */\n      0x00\n        /* \"#utility.yul\":289:290   */\n      dup1\n        /* \"#utility.yul\":282:294   */\n      revert\n        /* \"#utility.yul\":251:253   */\n    tag_52:\n        /* \"#utility.yul\":305:346   */\n      tag_53\n        /* \"#utility.yul\":339:345   */\n      dup5\n        /* \"#utility.yul\":334:337   */\n      dup3\n        /* \"#utility.yul\":329:332   */\n      dup6\n        /* \"#utility.yul\":305:346   */\n      tag_54\n      jump\t// in\n    tag_53:\n        /* \"#utility.yul\":91:352   */\n      pop\n      swap4\n      swap3\n      pop\n      pop\n      pop\n      jump\t// out\n        /* \"#utility.yul\":358:497   */\n    tag_55:\n        /* \"#utility.yul\":404:409   */\n      0x00\n        /* \"#utility.yul\":442:448   */\n      dup2\n        /* \"#utility.yul\":429:449   */\n      calldataload\n        /* \"#utility.yul\":420:449   */\n      swap1\n      pop\n        /* \"#utility.yul\":458:491   */\n      tag_57\n        /* \"#utility.yul\":485:490   */\n      dup2\n        /* \"#utility.yul\":458:491   */\n      tag_58\n      jump\t// in\n    tag_57:\n        /* \"#utility.yul\":410:497   */\n      swap3\n      swap2\n      pop\n      pop\n      jump\t// out\n        /* \"#utility.yul\":517:790   */\n    tag_59:\n        /* \"#utility.yul\":573:578   */\n      0x00\n        /* \"#utility.yul\":622:625   */\n      dup3\n        /* \"#utility.yul\":615:619   */\n      0x1f\n        /* \"#utility.yul\":607:613   */\n      dup4\n        /* \"#utility.yul\":603:620   */\n      add\n        /* \"#utility.yul\":599:626   */\n      slt\n        /* \"#utility.yul\":589:591   */\n      tag_61\n      jumpi\n        /* \"#utility.yul\":640:641   */\n      0x00\n        /* \"#utility.yul\":637:638   */\n      dup1\n        /* \"#utility.yul\":630:642   */\n      revert\n        /* \"#utility.yul\":589:591   */\n    tag_61:\n        /* \"#utility.yul\":680:686   */\n      dup2\n        /* \"#utility.yul\":667:687   */\n      calldataload\n        /* \"#utility.yul\":705:784   */\n      tag_62\n        /* \"#utility.yul\":780:783   */\n      dup5\n        /* \"#utility.yul\":772:778   */\n      dup3\n        /* \"#utility.yul\":765:769   */\n      0x20\n        /* \"#utility.yul\":757:763   */\n      dup7\n        /* \"#utility.yul\":753:770   */\n      add\n        /* \"#utility.yul\":705:784   */\n      tag_46\n      jump\t// in\n    tag_62:\n        /* \"#utility.yul\":696:784   */\n      swap2\n      pop\n        /* \"#utility.yul\":579:790   */\n      pop\n      swap3\n      swap2\n      pop\n      pop\n      jump\t// out\n        /* \"#utility.yul\":796:935   */\n    tag_63:\n        /* \"#utility.yul\":842:847   */\n      0x00\n        /* \"#utility.yul\":880:886   */\n      dup2\n        /* \"#utility.yul\":867:887   */\n      calldataload\n        /* \"#utility.yul\":858:887   */\n      swap1\n      pop\n        /* \"#utility.yul\":896:929   */\n      tag_65\n        /* \"#utility.yul\":923:928   */\n      dup2\n        /* \"#utility.yul\":896:929   */\n      tag_66\n      jump\t// in\n    tag_65:\n        /* \"#utility.yul\":848:935   */\n      swap3\n      swap2\n      pop\n      pop\n      jump\t// out\n        /* \"#utility.yul\":941:1348   */\n    tag_8:\n        /* \"#utility.yul\":1009:1015   */\n      0x00\n        /* \"#utility.yul\":1017:1023   */\n      dup1\n        /* \"#utility.yul\":1066:1068   */\n      0x40\n        /* \"#utility.yul\":1054:1063   */\n      dup4\n        /* \"#utility.yul\":1045:1052   */\n      dup6\n        /* \"#utility.yul\":1041:1064   */\n      sub\n        /* \"#utility.yul\":1037:1069   */\n      slt\n        /* \"#utility.yul\":1034:1036   */\n      iszero\n      tag_68\n      jumpi\n        /* \"#utility.yul\":1082:1083   */\n      0x00\n        /* \"#utility.yul\":1079:1080   */\n      dup1\n        /* \"#utility.yul\":1072:1084   */\n      revert\n        /* \"#utility.yul\":1034:1036   */\n    tag_68:\n        /* \"#utility.yul\":1125:1126   */\n      0x00\n        /* \"#utility.yul\":1150:1203   */\n      tag_69\n        /* \"#utility.yul\":1195:1202   */\n      dup6\n        /* \"#utility.yul\":1186:1192   */\n      dup3\n        /* \"#utility.yul\":1175:1184   */\n      dup7\n        /* \"#utility.yul\":1171:1193   */\n      add\n        /* \"#utility.yul\":1150:1203   */\n      tag_55\n      jump\t// in\n    tag_69:\n        /* \"#utility.yul\":1140:1203   */\n      swap3\n      pop\n        /* \"#utility.yul\":1096:1213   */\n      pop\n        /* \"#utility.yul\":1252:1254   */\n      0x20\n        /* \"#utility.yul\":1278:1331   */\n      tag_70\n        /* \"#utility.yul\":1323:1330   */\n      dup6\n        /* \"#utility.yul\":1314:1320   */\n      dup3\n        /* \"#utility.yul\":1303:1312   */\n      dup7\n        /* \"#utility.yul\":1299:1321   */\n      add\n        /* \"#utility.yul\":1278:1331   */\n      tag_63\n      jump\t// in\n    tag_70:\n        /* \"#utility.yul\":1268:1331   */\n      swap2\n      pop\n        /* \"#utility.yul\":1223:1341   */\n      pop\n        /* \"#utility.yul\":1024:1348   */\n      swap3\n      pop\n      swap3\n      swap1\n      pop\n      jump\t// out\n        /* \"#utility.yul\":1354:2019   */\n    tag_14:\n        /* \"#utility.yul\":1441:1447   */\n      0x00\n        /* \"#utility.yul\":1449:1455   */\n      dup1\n        /* \"#utility.yul\":1457:1463   */\n      0x00\n        /* \"#utility.yul\":1506:1508   */\n      0x60\n        /* \"#utility.yul\":1494:1503   */\n      dup5\n        /* \"#utility.yul\":1485:1492   */\n      dup7\n        /* \"#utility.yul\":1481:1504   */\n      sub\n        /* \"#utility.yul\":1477:1509   */\n      slt\n        /* \"#utility.yul\":1474:1476   */\n      iszero\n      tag_72\n      jumpi\n        /* \"#utility.yul\":1522:1523   */\n      0x00\n        /* \"#utility.yul\":1519:1520   */\n      dup1\n        /* \"#utility.yul\":1512:1524   */\n      revert\n        /* \"#utility.yul\":1474:1476   */\n    tag_72:\n        /* \"#utility.yul\":1565:1566   */\n      0x00\n        /* \"#utility.yul\":1590:1643   */\n      tag_73\n        /* \"#utility.yul\":1635:1642   */\n      dup7\n        /* \"#utility.yul\":1626:1632   */\n      dup3\n        /* \"#utility.yul\":1615:1624   */\n      dup8\n        /* \"#utility.yul\":1611:1633   */\n      add\n        /* \"#utility.yul\":1590:1643   */\n      tag_55\n      jump\t// in\n    tag_73:\n        /* \"#utility.yul\":1580:1643   */\n      swap4\n      pop\n        /* \"#utility.yul\":1536:1653   */\n      pop\n        /* \"#utility.yul\":1692:1694   */\n      0x20\n        /* \"#utility.yul\":1718:1771   */\n      tag_74\n        /* \"#utility.yul\":1763:1770   */\n      dup7\n        /* \"#utility.yul\":1754:1760   */\n      dup3\n        /* \"#utility.yul\":1743:1752   */\n      dup8\n        /* \"#utility.yul\":1739:1761   */\n      add\n        /* \"#utility.yul\":1718:1771   */\n      tag_63\n      jump\t// in\n    tag_74:\n        /* \"#utility.yul\":1708:1771   */\n      swap3\n      pop\n        /* \"#utility.yul\":1663:1781   */\n      pop\n        /* \"#utility.yul\":1848:1850   */\n      0x40\n        /* \"#utility.yul\":1837:1846   */\n      dup5\n        /* \"#utility.yul\":1833:1851   */\n      add\n        /* \"#utility.yul\":1820:1852   */\n      calldataload\n        /* \"#utility.yul\":1879:1897   */\n      0xffffffffffffffff\n        /* \"#utility.yul\":1871:1877   */\n      dup2\n        /* \"#utility.yul\":1868:1898   */\n      gt\n        /* \"#utility.yul\":1865:1867   */\n      iszero\n      tag_75\n      jumpi\n        /* \"#utility.yul\":1911:1912   */\n      0x00\n        /* \"#utility.yul\":1908:1909   */\n      dup1\n        /* \"#utility.yul\":1901:1913   */\n      revert\n        /* \"#utility.yul\":1865:1867   */\n    tag_75:\n        /* \"#utility.yul\":1939:2002   */\n      tag_76\n        /* \"#utility.yul\":1994:2001   */\n      dup7\n        /* \"#utility.yul\":1985:1991   */\n      dup3\n        /* \"#utility.yul\":1974:1983   */\n      dup8\n        /* \"#utility.yul\":1970:1992   */\n      add\n        /* \"#utility.yul\":1939:2002   */\n      tag_59\n      jump\t// in\n    tag_76:\n        /* \"#utility.yul\":1929:2002   */\n      swap2\n      pop\n        /* \"#utility.yul\":1791:2012   */\n      pop\n        /* \"#utility.yul\":1464:2019   */\n      swap3\n      pop\n      swap3\n      pop\n      swap3\n      jump\t// out\n        /* \"#utility.yul\":2025:2389   */\n    tag_77:\n        /* \"#utility.yul\":2113:2116   */\n      0x00\n        /* \"#utility.yul\":2141:2180   */\n      tag_79\n        /* \"#utility.yul\":2174:2179   */\n      dup3\n        /* \"#utility.yul\":2141:2180   */\n      tag_80\n      jump\t// in\n    tag_79:\n        /* \"#utility.yul\":2196:2267   */\n      tag_81\n        /* \"#utility.yul\":2260:2266   */\n      dup2\n        /* \"#utility.yul\":2255:2258   */\n      dup6\n        /* \"#utility.yul\":2196:2267   */\n      tag_82\n      jump\t// in\n    tag_81:\n        /* \"#utility.yul\":2189:2267   */\n      swap4\n      pop\n        /* \"#utility.yul\":2276:2328   */\n      tag_83\n        /* \"#utility.yul\":2321:2327   */\n      dup2\n        /* \"#utility.yul\":2316:2319   */\n      dup6\n        /* \"#utility.yul\":2309:2313   */\n      0x20\n        /* \"#utility.yul\":2302:2307   */\n      dup7\n        /* \"#utility.yul\":2298:2314   */\n      add\n        /* \"#utility.yul\":2276:2328   */\n      tag_84\n      jump\t// in\n    tag_83:\n        /* \"#utility.yul\":2353:2382   */\n      tag_85\n        /* \"#utility.yul\":2375:2381   */\n      dup2\n        /* \"#utility.yul\":2353:2382   */\n      tag_86\n      jump\t// in\n    tag_85:\n        /* \"#utility.yul\":2348:2351   */\n      dup5\n        /* \"#utility.yul\":2344:2383   */\n      add\n        /* \"#utility.yul\":2337:2383   */\n      swap2\n      pop\n        /* \"#utility.yul\":2117:2389   */\n      pop\n      swap3\n      swap2\n      pop\n      pop\n      jump\t// out\n        /* \"#utility.yul\":2395:2708   */\n    tag_11:\n        /* \"#utility.yul\":2508:2512   */\n      0x00\n        /* \"#utility.yul\":2546:2548   */\n      0x20\n        /* \"#utility.yul\":2535:2544   */\n      dup3\n        /* \"#utility.yul\":2531:2549   */\n      add\n        /* \"#utility.yul\":2523:2549   */\n      swap1\n      pop\n        /* \"#utility.yul\":2595:2604   */\n      dup2\n        /* \"#utility.yul\":2589:2593   */\n      dup2\n        /* \"#utility.yul\":2585:2605   */\n      sub\n        /* \"#utility.yul\":2581:2582   */\n      0x00\n        /* \"#utility.yul\":2570:2579   */\n      dup4\n        /* \"#utility.yul\":2566:2583   */\n      add\n        /* \"#utility.yul\":2559:2606   */\n      mstore\n        /* \"#utility.yul\":2623:2701   */\n      tag_88\n        /* \"#utility.yul\":2696:2700   */\n      dup2\n        /* \"#utility.yul\":2687:2693   */\n      dup5\n        /* \"#utility.yul\":2623:2701   */\n      tag_77\n      jump\t// in\n    tag_88:\n        /* \"#utility.yul\":2615:2701   */\n      swap1\n      pop\n        /* \"#utility.yul\":2513:2708   */\n      swap3\n      swap2\n      pop\n      pop\n      jump\t// out\n        /* \"#utility.yul\":2714:2843   */\n    tag_51:\n        /* \"#utility.yul\":2748:2754   */\n      0x00\n        /* \"#utility.yul\":2775:2795   */\n      tag_90\n      tag_91\n      jump\t// in\n    tag_90:\n        /* \"#utility.yul\":2765:2795   */\n      swap1\n      pop\n        /* \"#utility.yul\":2804:2837   */\n      tag_92\n        /* \"#utility.yul\":2832:2836   */\n      dup3\n        /* \"#utility.yul\":2824:2830   */\n      dup3\n        /* \"#utility.yul\":2804:2837   */\n      tag_93\n      jump\t// in\n    tag_92:\n        /* \"#utility.yul\":2755:2843   */\n      swap2\n      swap1\n      pop\n      jump\t// out\n        /* \"#utility.yul\":2849:2924   */\n    tag_91:\n        /* \"#utility.yul\":2882:2888   */\n      0x00\n        /* \"#utility.yul\":2915:2917   */\n      0x40\n        /* \"#utility.yul\":2909:2918   */\n      mload\n        /* \"#utility.yul\":2899:2918   */\n      swap1\n      pop\n        /* \"#utility.yul\":2889:2924   */\n      swap1\n      jump\t// out\n        /* \"#utility.yul\":2930:3238   */\n    tag_50:\n        /* \"#utility.yul\":2992:2996   */\n      0x00\n        /* \"#utility.yul\":3082:3100   */\n      0xffffffffffffffff\n        /* \"#utility.yul\":3074:3080   */\n      dup3\n        /* \"#utility.yul\":3071:3101   */\n      gt\n        /* \"#utility.yul\":3068:3070   */\n      iszero\n      tag_96\n      jumpi\n        /* \"#utility.yul\":3104:3122   */\n      tag_97\n      tag_98\n      jump\t// in\n    tag_97:\n        /* \"#utility.yul\":3068:3070   */\n    tag_96:\n        /* \"#utility.yul\":3142:3171   */\n      tag_99\n        /* \"#utility.yul\":3164:3170   */\n      dup3\n        /* \"#utility.yul\":3142:3171   */\n      tag_86\n      jump\t// in\n    tag_99:\n        /* \"#utility.yul\":3134:3171   */\n      swap1\n      pop\n        /* \"#utility.yul\":3226:3230   */\n      0x20\n        /* \"#utility.yul\":3220:3224   */\n      dup2\n        /* \"#utility.yul\":3216:3231   */\n      add\n        /* \"#utility.yul\":3208:3231   */\n      swap1\n      pop\n        /* \"#utility.yul\":2997:3238   */\n      swap2\n      swap1\n      pop\n      jump\t// out\n        /* \"#utility.yul\":3244:3343   */\n    tag_80:\n        /* \"#utility.yul\":3296:3302   */\n      0x00\n        /* \"#utility.yul\":3330:3335   */\n      dup2\n        /* \"#utility.yul\":3324:3336   */\n      mload\n        /* \"#utility.yul\":3314:3336   */\n      swap1\n      pop\n        /* \"#utility.yul\":3303:3343   */\n      swap2\n      swap1\n      pop\n      jump\t// out\n        /* \"#utility.yul\":3349:3518   */\n    tag_82:\n        /* \"#utility.yul\":3433:3444   */\n      0x00\n        /* \"#utility.yul\":3467:3473   */\n      dup3\n        /* \"#utility.yul\":3462:3465   */\n      dup3\n        /* \"#utility.yul\":3455:3474   */\n      mstore\n        /* \"#utility.yul\":3507:3511   */\n      0x20\n        /* \"#utility.yul\":3502:3505   */\n      dup3\n        /* \"#utility.yul\":3498:3512   */\n      add\n        /* \"#utility.yul\":3483:3512   */\n      swap1\n      pop\n        /* \"#utility.yul\":3445:3518   */\n      swap3\n      swap2\n      pop\n      pop\n      jump\t// out\n        /* \"#utility.yul\":3524:3620   */\n    tag_102:\n        /* \"#utility.yul\":3561:3568   */\n      0x00\n        /* \"#utility.yul\":3590:3614   */\n      tag_104\n        /* \"#utility.yul\":3608:3613   */\n      dup3\n        /* \"#utility.yul\":3590:3614   */\n      tag_105\n      jump\t// in\n    tag_104:\n        /* \"#utility.yul\":3579:3614   */\n      swap1\n      pop\n        /* \"#utility.yul\":3569:3620   */\n      swap2\n      swap1\n      pop\n      jump\t// out\n        /* \"#utility.yul\":3626:3752   */\n    tag_105:\n        /* \"#utility.yul\":3663:3670   */\n      0x00\n        /* \"#utility.yul\":3703:3745   */\n      0xffffffffffffffffffffffffffffffffffffffff\n        /* \"#utility.yul\":3696:3701   */\n      dup3\n        /* \"#utility.yul\":3692:3746   */\n      and\n        /* \"#utility.yul\":3681:3746   */\n      swap1\n      pop\n        /* \"#utility.yul\":3671:3752   */\n      swap2\n      swap1\n      pop\n      jump\t// out\n        /* \"#utility.yul\":3758:3835   */\n    tag_107:\n        /* \"#utility.yul\":3795:3802   */\n      0x00\n        /* \"#utility.yul\":3824:3829   */\n      dup2\n        /* \"#utility.yul\":3813:3829   */\n      swap1\n      pop\n        /* \"#utility.yul\":3803:3835   */\n      swap2\n      swap1\n      pop\n      jump\t// out\n        /* \"#utility.yul\":3841:3995   */\n    tag_54:\n        /* \"#utility.yul\":3925:3931   */\n      dup3\n        /* \"#utility.yul\":3920:3923   */\n      dup2\n        /* \"#utility.yul\":3915:3918   */\n      dup4\n        /* \"#utility.yul\":3902:3932   */\n      calldatacopy\n        /* \"#utility.yul\":3987:3988   */\n      0x00\n        /* \"#utility.yul\":3978:3984   */\n      dup4\n        /* \"#utility.yul\":3973:3976   */\n      dup4\n        /* \"#utility.yul\":3969:3985   */\n      add\n        /* \"#utility.yul\":3962:3989   */\n      mstore\n        /* \"#utility.yul\":3892:3995   */\n      pop\n      pop\n      pop\n      jump\t// out\n        /* \"#utility.yul\":4001:4308   */\n    tag_84:\n        /* \"#utility.yul\":4069:4070   */\n      0x00\n        /* \"#utility.yul\":4079:4192   */\n    tag_111:\n        /* \"#utility.yul\":4093:4099   */\n      dup4\n        /* \"#utility.yul\":4090:4091   */\n      dup2\n        /* \"#utility.yul\":4087:4100   */\n      lt\n        /* \"#utility.yul\":4079:4192   */\n      iszero\n      tag_113\n      jumpi\n        /* \"#utility.yul\":4178:4179   */\n      dup1\n        /* \"#utility.yul\":4173:4176   */\n      dup3\n        /* \"#utility.yul\":4169:4180   */\n      add\n        /* \"#utility.yul\":4163:4181   */\n      mload\n        /* \"#utility.yul\":4159:4160   */\n      dup2\n        /* \"#utility.yul\":4154:4157   */\n      dup5\n        /* \"#utility.yul\":4150:4161   */\n      add\n        /* \"#utility.yul\":4143:4182   */\n      mstore\n        /* \"#utility.yul\":4115:4117   */\n      0x20\n        /* \"#utility.yul\":4112:4113   */\n      dup2\n        /* \"#utility.yul\":4108:4118   */\n      add\n        /* \"#utility.yul\":4103:4118   */\n      swap1\n      pop\n        /* \"#utility.yul\":4079:4192   */\n      jump(tag_111)\n    tag_113:\n        /* \"#utility.yul\":4210:4216   */\n      dup4\n        /* \"#utility.yul\":4207:4208   */\n      dup2\n        /* \"#utility.yul\":4204:4217   */\n      gt\n        /* \"#utility.yul\":4201:4203   */\n      iszero\n      tag_114\n      jumpi\n        /* \"#utility.yul\":4290:4291   */\n      0x00\n        /* \"#utility.yul\":4281:4287   */\n      dup5\n        /* \"#utility.yul\":4276:4279   */\n      dup5\n        /* \"#utility.yul\":4272:4288   */\n      add\n        /* \"#utility.yul\":4265:4292   */\n      mstore\n        /* \"#utility.yul\":4201:4203   */\n    tag_114:\n        /* \"#utility.yul\":4050:4308   */\n      pop\n      pop\n      pop\n      pop\n      jump\t// out\n        /* \"#utility.yul\":4314:4634   */\n    tag_22:\n        /* \"#utility.yul\":4358:4364   */\n      0x00\n        /* \"#utility.yul\":4395:4396   */\n      0x02\n        /* \"#utility.yul\":4389:4393   */\n      dup3\n        /* \"#utility.yul\":4385:4397   */\n      div\n        /* \"#utility.yul\":4375:4397   */\n      swap1\n      pop\n        /* \"#utility.yul\":4442:4443   */\n      0x01\n        /* \"#utility.yul\":4436:4440   */\n      dup3\n        /* \"#utility.yul\":4432:4444   */\n      and\n        /* \"#utility.yul\":4463:4481   */\n      dup1\n        /* \"#utility.yul\":4453:4455   */\n      tag_116\n      jumpi\n        /* \"#utility.yul\":4519:4523   */\n      0x7f\n        /* \"#utility.yul\":4511:4517   */\n      dup3\n        /* \"#utility.yul\":4507:4524   */\n      and\n        /* \"#utility.yul\":4497:4524   */\n      swap2\n      pop\n        /* \"#utility.yul\":4453:4455   */\n    tag_116:\n        /* \"#utility.yul\":4581:4583   */\n      0x20\n        /* \"#utility.yul\":4573:4579   */\n      dup3\n        /* \"#utility.yul\":4570:4584   */\n      lt\n        /* \"#utility.yul\":4550:4568   */\n      dup2\n        /* \"#utility.yul\":4547:4585   */\n      eq\n        /* \"#utility.yul\":4544:4546   */\n      iszero\n      tag_117\n      jumpi\n        /* \"#utility.yul\":4600:4618   */\n      tag_118\n      tag_119\n      jump\t// in\n    tag_118:\n        /* \"#utility.yul\":4544:4546   */\n    tag_117:\n        /* \"#utility.yul\":4365:4634   */\n      pop\n      swap2\n      swap1\n      pop\n      jump\t// out\n        /* \"#utility.yul\":4640:4921   */\n    tag_93:\n        /* \"#utility.yul\":4723:4750   */\n      tag_121\n        /* \"#utility.yul\":4745:4749   */\n      dup3\n        /* \"#utility.yul\":4723:4750   */\n      tag_86\n      jump\t// in\n    tag_121:\n        /* \"#utility.yul\":4715:4721   */\n      dup2\n        /* \"#utility.yul\":4711:4751   */\n      add\n        /* \"#utility.yul\":4853:4859   */\n      dup2\n        /* \"#utility.yul\":4841:4851   */\n      dup2\n        /* \"#utility.yul\":4838:4860   */\n      lt\n        /* \"#utility.yul\":4817:4835   */\n      0xffffffffffffffff\n        /* \"#utility.yul\":4805:4815   */\n      dup3\n        /* \"#utility.yul\":4802:4836   */\n      gt\n        /* \"#utility.yul\":4799:4861   */\n      or\n        /* \"#utility.yul\":4796:4798   */\n      iszero\n      tag_122\n      jumpi\n        /* \"#utility.yul\":4864:4882   */\n      tag_123\n      tag_98\n      jump\t// in\n    tag_123:\n        /* \"#utility.yul\":4796:4798   */\n    tag_122:\n        /* \"#utility.yul\":4904:4914   */\n      dup1\n        /* \"#utility.yul\":4900:4902   */\n      0x40\n        /* \"#utility.yul\":4893:4915   */\n      mstore\n        /* \"#utility.yul\":4683:4921   */\n      pop\n      pop\n      pop\n      jump\t// out\n        /* \"#utility.yul\":4927:5107   */\n    tag_119:\n        /* \"#utility.yul\":4975:5052   */\n      0x4e487b7100000000000000000000000000000000000000000000000000000000\n        /* \"#utility.yul\":4972:4973   */\n      0x00\n        /* \"#utility.yul\":4965:5053   */\n      mstore\n        /* \"#utility.yul\":5072:5076   */\n      0x22\n        /* \"#utility.yul\":5069:5070   */\n      0x04\n        /* \"#utility.yul\":5062:5077   */\n      mstore\n        /* \"#utility.yul\":5096:5100   */\n      0x24\n        /* \"#utility.yul\":5093:5094   */\n      0x00\n        /* \"#utility.yul\":5086:5101   */\n      revert\n        /* \"#utility.yul\":5113:5293   */\n    tag_98:\n        /* \"#utility.yul\":5161:5238   */\n      0x4e487b7100000000000000000000000000000000000000000000000000000000\n        /* \"#utility.yul\":5158:5159   */\n      0x00\n        /* \"#utility.yul\":5151:5239   */\n      mstore\n        /* \"#utility.yul\":5258:5262   */\n      0x41\n        /* \"#utility.yul\":5255:5256   */\n      0x04\n        /* \"#utility.yul\":5248:5263   */\n      mstore\n        /* \"#utility.yul\":5282:5286   */\n      0x24\n        /* \"#utility.yul\":5279:5280   */\n      0x00\n        /* \"#utility.yul\":5272:5287   */\n      revert\n        /* \"#utility.yul\":5299:5401   */\n    tag_86:\n        /* \"#utility.yul\":5340:5346   */\n      0x00\n        /* \"#utility.yul\":5391:5393   */\n      0x1f\n        /* \"#utility.yul\":5387:5394   */\n      not\n        /* \"#utility.yul\":5382:5384   */\n      0x1f\n        /* \"#utility.yul\":5375:5380   */\n      dup4\n        /* \"#utility.yul\":5371:5385   */\n      add\n        /* \"#utility.yul\":5367:5395   */\n      and\n        /* \"#utility.yul\":5357:5395   */\n      swap1\n      pop\n        /* \"#utility.yul\":5347:5401   */\n      swap2\n      swap1\n      pop\n      jump\t// out\n        /* \"#utility.yul\":5407:5529   */\n    tag_58:\n        /* \"#utility.yul\":5480:5504   */\n      tag_128\n        /* \"#utility.yul\":5498:5503   */\n      dup2\n        /* \"#utility.yul\":5480:5504   */\n      tag_102\n      jump\t// in\n    tag_128:\n        /* \"#utility.yul\":5473:5478   */\n      dup2\n        /* \"#utility.yul\":5470:5505   */\n      eq\n        /* \"#utility.yul\":5460:5462   */\n      tag_129\n      jumpi\n        /* \"#utility.yul\":5519:5520   */\n      0x00\n        /* \"#utility.yul\":5516:5517   */\n      dup1\n        /* \"#utility.yul\":5509:5521   */\n      revert\n        /* \"#utility.yul\":5460:5462   */\n    tag_129:\n        /* \"#utility.yul\":5450:5529   */\n      pop\n      jump\t// out\n        /* \"#utility.yul\":5535:5657   */\n    tag_66:\n        /* \"#utility.yul\":5608:5632   */\n      tag_131\n        /* \"#utility.yul\":5626:5631   */\n      dup2\n        /* \"#utility.yul\":5608:5632   */\n      tag_107\n      jump\t// in\n    tag_131:\n        /* \"#utility.yul\":5601:5606   */\n      dup2\n        /* \"#utility.yul\":5598:5633   */\n      eq\n        /* \"#utility.yul\":5588:5590   */\n      tag_132\n      jumpi\n        /* \"#utility.yul\":5647:5648   */\n      0x00\n        /* \"#utility.yul\":5644:5645   */\n      dup1\n        /* \"#utility.yul\":5637:5649   */\n      revert\n        /* \"#utility.yul\":5588:5590   */\n    tag_132:\n        /* \"#utility.yul\":5578:5657   */\n      pop\n      jump\t// out\n\n    auxdata: 0xa2646970667358221220d02a9a3bd017e3308d7fe66ef441ff3bd09d952933f83f58ccd7815aa1ee4f7a64736f6c63430008040033\n}\n",
				"bytecode": {
					"linkReferences": {},
					"object": "608060405234801561001057600080fd5b50610713806100206000396000f3fe608060405234801561001057600080fd5b50600436106100415760003560e01c8063570c537e14610046578063751501a7146100765780639428cda314610092575b600080fd5b610060600480360381019061005b91906103ef565b6100c2565b60405161006d91906104cb565b60405180910390f35b610090600480360381019061008b919061042b565b6101a4565b005b6100ac60048036038101906100a791906103ef565b61020d565b6040516100b991906104cb565b60405180910390f35b60606000808473ffffffffffffffffffffffffffffffffffffffff1673ffffffffffffffffffffffffffffffffffffffff1681526020019081526020016000206000838152602001908152602001600020805461011e906105dd565b80601f016020809104026020016040519081016040528092919081815260200182805461014a906105dd565b80156101975780601f1061016c57610100808354040283529160200191610197565b820191906000526020600020905b81548152906001019060200180831161017a57829003601f168201915b5050505050905092915050565b806000808573ffffffffffffffffffffffffffffffffffffffff1673ffffffffffffffffffffffffffffffffffffffff168152602001908152602001600020600084815260200190815260200160002090805190602001906102079291906102ba565b50505050565b6000602052816000526040600020602052806000526040600020600091509150508054610239906105dd565b80601f0160208091040260200160405190810160405280929190818152602001828054610265906105dd565b80156102b25780601f10610287576101008083540402835291602001916102b2565b820191906000526020600020905b81548152906001019060200180831161029557829003601f168201915b505050505081565b8280546102c6906105dd565b90600052602060002090601f0160209004810192826102e8576000855561032f565b82601f1061030157805160ff191683800117855561032f565b8280016001018555821561032f579182015b8281111561032e578251825591602001919060010190610313565b5b50905061033c9190610340565b5090565b5b80821115610359576000816000905550600101610341565b5090565b600061037061036b84610512565b6104ed565b90508281526020810184848401111561038857600080fd5b61039384828561059b565b509392505050565b6000813590506103aa816106af565b92915050565b600082601f8301126103c157600080fd5b81356103d184826020860161035d565b91505092915050565b6000813590506103e9816106c6565b92915050565b6000806040838503121561040257600080fd5b60006104108582860161039b565b9250506020610421858286016103da565b9150509250929050565b60008060006060848603121561044057600080fd5b600061044e8682870161039b565b935050602061045f868287016103da565b925050604084013567ffffffffffffffff81111561047c57600080fd5b610488868287016103b0565b9150509250925092565b600061049d82610543565b6104a7818561054e565b93506104b78185602086016105aa565b6104c08161069e565b840191505092915050565b600060208201905081810360008301526104e58184610492565b905092915050565b60006104f7610508565b9050610503828261060f565b919050565b6000604051905090565b600067ffffffffffffffff82111561052d5761052c61066f565b5b6105368261069e565b9050602081019050919050565b600081519050919050565b600082825260208201905092915050565b600061056a82610571565b9050919050565b600073ffffffffffffffffffffffffffffffffffffffff82169050919050565b6000819050919050565b82818337600083830152505050565b60005b838110156105c85780820151818401526020810190506105ad565b838111156105d7576000848401525b50505050565b600060028204905060018216806105f557607f821691505b6020821081141561060957610608610640565b5b50919050565b6106188261069e565b810181811067ffffffffffffffff821117156106375761063661066f565b5b80604052505050565b7f4e487b7100000000000000000000000000000000000000000000000000000000600052602260045260246000fd5b7f4e487b7100000000000000000000000000000000000000000000000000000000600052604160045260246000fd5b6000601f19601f8301169050919050565b6106b88161055f565b81146106c357600080fd5b50565b6106cf81610591565b81146106da57600080fd5b5056fea2646970667358221220d02a9a3bd017e3308d7fe66ef441ff3bd09d952933f83f58ccd7815aa1ee4f7a64736f6c63430008040033",
					"opcodes": "PUSH1 0x80 PUSH1 0x40 MSTORE CALLVALUE DUP1 ISZERO PUSH2 0x10 JUMPI PUSH1 0x0 DUP1 REVERT JUMPDEST POP PUSH2 0x713 DUP1 PUSH2 0x20 PUSH1 0x0 CODECOPY PUSH1 0x0 RETURN INVALID PUSH1 0x80 PUSH1 0x40 MSTORE CALLVALUE DUP1 ISZERO PUSH2 0x10 JUMPI PUSH1 0x0 DUP1 REVERT JUMPDEST POP PUSH1 0x4 CALLDATASIZE LT PUSH2 0x41 JUMPI PUSH1 0x0 CALLDATALOAD PUSH1 0xE0 SHR DUP1 PUSH4 0x570C537E EQ PUSH2 0x46 JUMPI DUP1 PUSH4 0x751501A7 EQ PUSH2 0x76 JUMPI DUP1 PUSH4 0x9428CDA3 EQ PUSH2 0x92 JUMPI JUMPDEST PUSH1 0x0 DUP1 REVERT JUMPDEST PUSH2 0x60 PUSH1 0x4 DUP1 CALLDATASIZE SUB DUP2 ADD SWAP1 PUSH2 0x5B SWAP2 SWAP1 PUSH2 0x3EF JUMP JUMPDEST PUSH2 0xC2 JUMP JUMPDEST PUSH1 0x40 MLOAD PUSH2 0x6D SWAP2 SWAP1 PUSH2 0x4CB JUMP JUMPDEST PUSH1 0x40 MLOAD DUP1 SWAP2 SUB SWAP1 RETURN JUMPDEST PUSH2 0x90 PUSH1 0x4 DUP1 CALLDATASIZE SUB DUP2 ADD SWAP1 PUSH2 0x8B SWAP2 SWAP1 PUSH2 0x42B JUMP JUMPDEST PUSH2 0x1A4 JUMP JUMPDEST STOP JUMPDEST PUSH2 0xAC PUSH1 0x4 DUP1 CALLDATASIZE SUB DUP2 ADD SWAP1 PUSH2 0xA7 SWAP2 SWAP1 PUSH2 0x3EF JUMP JUMPDEST PUSH2 0x20D JUMP JUMPDEST PUSH1 0x40 MLOAD PUSH2 0xB9 SWAP2 SWAP1 PUSH2 0x4CB JUMP JUMPDEST PUSH1 0x40 MLOAD DUP1 SWAP2 SUB SWAP1 RETURN JUMPDEST PUSH1 0x60 PUSH1 0x0 DUP1 DUP5 PUSH20 0xFFFFFFFFFFFFFFFFFFFFFFFFFFFFFFFFFFFFFFFF AND PUSH20 0xFFFFFFFFFFFFFFFFFFFFFFFFFFFFFFFFFFFFFFFF AND DUP2 MSTORE PUSH1 0x20 ADD SWAP1 DUP2 MSTORE PUSH1 0x20 ADD PUSH1 0x0 KECCAK256 PUSH1 0x0 DUP4 DUP2 MSTORE PUSH1 0x20 ADD SWAP1 DUP2 MSTORE PUSH1 0x20 ADD PUSH1 0x0 KECCAK256 DUP1 SLOAD PUSH2 0x11E SWAP1 PUSH2 0x5DD JUMP JUMPDEST DUP1 PUSH1 0x1F ADD PUSH1 0x20 DUP1 SWAP2 DIV MUL PUSH1 0x20 ADD PUSH1 0x40 MLOAD SWAP1 DUP2 ADD PUSH1 0x40 MSTORE DUP1 SWAP3 SWAP2 SWAP1 DUP2 DUP2 MSTORE PUSH1 0x20 ADD DUP3 DUP1 SLOAD PUSH2 0x14A SWAP1 PUSH2 0x5DD JUMP JUMPDEST DUP1 ISZERO PUSH2 0x197 JUMPI DUP1 PUSH1 0x1F LT PUSH2 0x16C JUMPI PUSH2 0x100 DUP1 DUP4 SLOAD DIV MUL DUP4 MSTORE SWAP2 PUSH1 0x20 ADD SWAP2 PUSH2 0x197 JUMP JUMPDEST DUP3 ADD SWAP2 SWAP1 PUSH1 0x0 MSTORE PUSH1 0x20 PUSH1 0x0 KECCAK256 SWAP1 JUMPDEST DUP2 SLOAD DUP2 MSTORE SWAP1 PUSH1 0x1 ADD SWAP1 PUSH1 0x20 ADD DUP1 DUP4 GT PUSH2 0x17A JUMPI DUP3 SWAP1 SUB PUSH1 0x1F AND DUP3 ADD SWAP2 JUMPDEST POP POP POP POP POP SWAP1 POP SWAP3 SWAP2 POP POP JUMP JUMPDEST DUP1 PUSH1 0x0 DUP1 DUP6 PUSH20 0xFFFFFFFFFFFFFFFFFFFFFFFFFFFFFFFFFFFFFFFF AND PUSH20 0xFFFFFFFFFFFFFFFFFFFFFFFFFFFFFFFFFFFFFFFF AND DUP2 MSTORE PUSH1 0x20 ADD SWAP1 DUP2 MSTORE PUSH1 0x20 ADD PUSH1 0x0 KECCAK256 PUSH1 0x0 DUP5 DUP2 MSTORE PUSH1 0x20 ADD SWAP1 DUP2 MSTORE PUSH1 0x20 ADD PUSH1 0x0 KECCAK256 SWAP1 DUP1 MLOAD SWAP1 PUSH1 0x20 ADD SWAP1 PUSH2 0x207 SWAP3 SWAP2 SWAP1 PUSH2 0x2BA JUMP JUMPDEST POP POP POP POP JUMP JUMPDEST PUSH1 0x0 PUSH1 0x20 MSTORE DUP2 PUSH1 0x0 MSTORE PUSH1 0x40 PUSH1 0x0 KECCAK256 PUSH1 0x20 MSTORE DUP1 PUSH1 0x0 MSTORE PUSH1 0x40 PUSH1 0x0 KECCAK256 PUSH1 0x0 SWAP2 POP SWAP2 POP POP DUP1 SLOAD PUSH2 0x239 SWAP1 PUSH2 0x5DD JUMP JUMPDEST DUP1 PUSH1 0x1F ADD PUSH1 0x20 DUP1 SWAP2 DIV MUL PUSH1 0x20 ADD PUSH1 0x40 MLOAD SWAP1 DUP2 ADD PUSH1 0x40 MSTORE DUP1 SWAP3 SWAP2 SWAP1 DUP2 DUP2 MSTORE PUSH1 0x20 ADD DUP3 DUP1 SLOAD PUSH2 0x265 SWAP1 PUSH2 0x5DD JUMP JUMPDEST DUP1 ISZERO PUSH2 0x2B2 JUMPI DUP1 PUSH1 0x1F LT PUSH2 0x287 JUMPI PUSH2 0x100 DUP1 DUP4 SLOAD DIV MUL DUP4 MSTORE SWAP2 PUSH1 0x20 ADD SWAP2 PUSH2 0x2B2 JUMP JUMPDEST DUP3 ADD SWAP2 SWAP1 PUSH1 0x0 MSTORE PUSH1 0x20 PUSH1 0x0 KECCAK256 SWAP1 JUMPDEST DUP2 SLOAD DUP2 MSTORE SWAP1 PUSH1 0x1 ADD SWAP1 PUSH1 0x20 ADD DUP1 DUP4 GT PUSH2 0x295 JUMPI DUP3 SWAP1 SUB PUSH1 0x1F AND DUP3 ADD SWAP2 JUMPDEST POP POP POP POP POP DUP2 JUMP JUMPDEST DUP3 DUP1 SLOAD PUSH2 0x2C6 SWAP1 PUSH2 0x5DD JUMP JUMPDEST SWAP1 PUSH1 0x0 MSTORE PUSH1 0x20 PUSH1 0x0 KECCAK256 SWAP1 PUSH1 0x1F ADD PUSH1 0x20 SWAP1 DIV DUP2 ADD SWAP3 DUP3 PUSH2 0x2E8 JUMPI PUSH1 0x0 DUP6 SSTORE PUSH2 0x32F JUMP JUMPDEST DUP3 PUSH1 0x1F LT PUSH2 0x301 JUMPI DUP1 MLOAD PUSH1 0xFF NOT AND DUP4 DUP1 ADD OR DUP6 SSTORE PUSH2 0x32F JUMP JUMPDEST DUP3 DUP1 ADD PUSH1 0x1 ADD DUP6 SSTORE DUP3 ISZERO PUSH2 0x32F JUMPI SWAP2 DUP3 ADD JUMPDEST DUP3 DUP2 GT ISZERO PUSH2 0x32E JUMPI DUP3 MLOAD DUP3 SSTORE SWAP2 PUSH1 0x20 ADD SWAP2 SWAP1 PUSH1 0x1 ADD SWAP1 PUSH2 0x313 JUMP JUMPDEST JUMPDEST POP SWAP1 POP PUSH2 0x33C SWAP2 SWAP1 PUSH2 0x340 JUMP JUMPDEST POP SWAP1 JUMP JUMPDEST JUMPDEST DUP1 DUP3 GT ISZERO PUSH2 0x359 JUMPI PUSH1 0x0 DUP2 PUSH1 0x0 SWAP1 SSTORE POP PUSH1 0x1 ADD PUSH2 0x341 JUMP JUMPDEST POP SWAP1 JUMP JUMPDEST PUSH1 0x0 PUSH2 0x370 PUSH2 0x36B DUP5 PUSH2 0x512 JUMP JUMPDEST PUSH2 0x4ED JUMP JUMPDEST SWAP1 POP DUP3 DUP2 MSTORE PUSH1 0x20 DUP2 ADD DUP5 DUP5 DUP5 ADD GT ISZERO PUSH2 0x388 JUMPI PUSH1 0x0 DUP1 REVERT JUMPDEST PUSH2 0x393 DUP5 DUP3 DUP6 PUSH2 0x59B JUMP JUMPDEST POP SWAP4 SWAP3 POP POP POP JUMP JUMPDEST PUSH1 0x0 DUP2 CALLDATALOAD SWAP1 POP PUSH2 0x3AA DUP2 PUSH2 0x6AF JUMP JUMPDEST SWAP3 SWAP2 POP POP JUMP JUMPDEST PUSH1 0x0 DUP3 PUSH1 0x1F DUP4 ADD SLT PUSH2 0x3C1 JUMPI PUSH1 0x0 DUP1 REVERT JUMPDEST DUP2 CALLDATALOAD PUSH2 0x3D1 DUP5 DUP3 PUSH1 0x20 DUP7 ADD PUSH2 0x35D JUMP JUMPDEST SWAP2 POP POP SWAP3 SWAP2 POP POP JUMP JUMPDEST PUSH1 0x0 DUP2 CALLDATALOAD SWAP1 POP PUSH2 0x3E9 DUP2 PUSH2 0x6C6 JUMP JUMPDEST SWAP3 SWAP2 POP POP JUMP JUMPDEST PUSH1 0x0 DUP1 PUSH1 0x40 DUP4 DUP6 SUB SLT ISZERO PUSH2 0x402 JUMPI PUSH1 0x0 DUP1 REVERT JUMPDEST PUSH1 0x0 PUSH2 0x410 DUP6 DUP3 DUP7 ADD PUSH2 0x39B JUMP JUMPDEST SWAP3 POP POP PUSH1 0x20 PUSH2 0x421 DUP6 DUP3 DUP7 ADD PUSH2 0x3DA JUMP JUMPDEST SWAP2 POP POP SWAP3 POP SWAP3 SWAP1 POP JUMP JUMPDEST PUSH1 0x0 DUP1 PUSH1 0x0 PUSH1 0x60 DUP5 DUP7 SUB SLT ISZERO PUSH2 0x440 JUMPI PUSH1 0x0 DUP1 REVERT JUMPDEST PUSH1 0x0 PUSH2 0x44E DUP7 DUP3 DUP8 ADD PUSH2 0x39B JUMP JUMPDEST SWAP4 POP POP PUSH1 0x20 PUSH2 0x45F DUP7 DUP3 DUP8 ADD PUSH2 0x3DA JUMP JUMPDEST SWAP3 POP POP PUSH1 0x40 DUP5 ADD CALLDATALOAD PUSH8 0xFFFFFFFFFFFFFFFF DUP2 GT ISZERO PUSH2 0x47C JUMPI PUSH1 0x0 DUP1 REVERT JUMPDEST PUSH2 0x488 DUP7 DUP3 DUP8 ADD PUSH2 0x3B0 JUMP JUMPDEST SWAP2 POP POP SWAP3 POP SWAP3 POP SWAP3 JUMP JUMPDEST PUSH1 0x0 PUSH2 0x49D DUP3 PUSH2 0x543 JUMP JUMPDEST PUSH2 0x4A7 DUP2 DUP6 PUSH2 0x54E JUMP JUMPDEST SWAP4 POP PUSH2 0x4B7 DUP2 DUP6 PUSH1 0x20 DUP7 ADD PUSH2 0x5AA JUMP JUMPDEST PUSH2 0x4C0 DUP2 PUSH2 0x69E JUMP JUMPDEST DUP5 ADD SWAP2 POP POP SWAP3 SWAP2 POP POP JUMP JUMPDEST PUSH1 0x0 PUSH1 0x20 DUP3 ADD SWAP1 POP DUP2 DUP2 SUB PUSH1 0x0 DUP4 ADD MSTORE PUSH2 0x4E5 DUP2 DUP5 PUSH2 0x492 JUMP JUMPDEST SWAP1 POP SWAP3 SWAP2 POP POP JUMP JUMPDEST PUSH1 0x0 PUSH2 0x4F7 PUSH2 0x508 JUMP JUMPDEST SWAP1 POP PUSH2 0x503 DUP3 DUP3 PUSH2 0x60F JUMP JUMPDEST SWAP2 SWAP1 POP JUMP JUMPDEST PUSH1 0x0 PUSH1 0x40 MLOAD SWAP1 POP SWAP1 JUMP JUMPDEST PUSH1 0x0 PUSH8 0xFFFFFFFFFFFFFFFF DUP3 GT ISZERO PUSH2 0x52D JUMPI PUSH2 0x52C PUSH2 0x66F JUMP JUMPDEST JUMPDEST PUSH2 0x536 DUP3 PUSH2 0x69E JUMP JUMPDEST SWAP1 POP PUSH1 0x20 DUP2 ADD SWAP1 POP SWAP2 SWAP1 POP JUMP JUMPDEST PUSH1 0x0 DUP2 MLOAD SWAP1 POP SWAP2 SWAP1 POP JUMP JUMPDEST PUSH1 0x0 DUP3 DUP3 MSTORE PUSH1 0x20 DUP3 ADD SWAP1 POP SWAP3 SWAP2 POP POP JUMP JUMPDEST PUSH1 0x0 PUSH2 0x56A DUP3 PUSH2 0x571 JUMP JUMPDEST SWAP1 POP SWAP2 SWAP1 POP JUMP JUMPDEST PUSH1 0x0 PUSH20 0xFFFFFFFFFFFFFFFFFFFFFFFFFFFFFFFFFFFFFFFF DUP3 AND SWAP1 POP SWAP2 SWAP1 POP JUMP JUMPDEST PUSH1 0x0 DUP2 SWAP1 POP SWAP2 SWAP1 POP JUMP JUMPDEST DUP3 DUP2 DUP4 CALLDATACOPY PUSH1 0x0 DUP4 DUP4 ADD MSTORE POP POP POP JUMP JUMPDEST PUSH1 0x0 JUMPDEST DUP4 DUP2 LT ISZERO PUSH2 0x5C8 JUMPI DUP1 DUP3 ADD MLOAD DUP2 DUP5 ADD MSTORE PUSH1 0x20 DUP2 ADD SWAP1 POP PUSH2 0x5AD JUMP JUMPDEST DUP4 DUP2 GT ISZERO PUSH2 0x5D7 JUMPI PUSH1 0x0 DUP5 DUP5 ADD MSTORE JUMPDEST POP POP POP POP JUMP JUMPDEST PUSH1 0x0 PUSH1 0x2 DUP3 DIV SWAP1 POP PUSH1 0x1 DUP3 AND DUP1 PUSH2 0x5F5 JUMPI PUSH1 0x7F DUP3 AND SWAP2 POP JUMPDEST PUSH1 0x20 DUP3 LT DUP2 EQ ISZERO PUSH2 0x609 JUMPI PUSH2 0x608 PUSH2 0x640 JUMP JUMPDEST JUMPDEST POP SWAP2 SWAP1 POP JUMP JUMPDEST PUSH2 0x618 DUP3 PUSH2 0x69E JUMP JUMPDEST DUP2 ADD DUP2 DUP2 LT PUSH8 0xFFFFFFFFFFFFFFFF DUP3 GT OR ISZERO PUSH2 0x637 JUMPI PUSH2 0x636 PUSH2 0x66F JUMP JUMPDEST JUMPDEST DUP1 PUSH1 0x40 MSTORE POP POP POP JUMP JUMPDEST PUSH32 0x4E487B7100000000000000000000000000000000000000000000000000000000 PUSH1 0x0 MSTORE PUSH1 0x22 PUSH1 0x4 MSTORE PUSH1 0x24 PUSH1 0x0 REVERT JUMPDEST PUSH32 0x4E487B7100000000000000000000000000000000000000000000000000000000 PUSH1 0x0 MSTORE PUSH1 0x41 PUSH1 0x4 MSTORE PUSH1 0x24 PUSH1 0x0 REVERT JUMPDEST PUSH1 0x0 PUSH1 0x1F NOT PUSH1 0x1F DUP4 ADD AND SWAP1 POP SWAP2 SWAP1 POP JUMP JUMPDEST PUSH2 0x6B8 DUP2 PUSH2 0x55F JUMP JUMPDEST DUP2 EQ PUSH2 0x6C3 JUMPI PUSH1 0x0 DUP1 REVERT JUMPDEST POP JUMP JUMPDEST PUSH2 0x6CF DUP2 PUSH2 0x591 JUMP JUMPDEST DUP2 EQ PUSH2 0x6DA JUMPI PUSH1 0x0 DUP1 REVERT JUMPDEST POP JUMP INVALID LOG2 PUSH5 0x6970667358 0x22 SLT KECCAK256 0xD0 0x2A SWAP11 EXTCODESIZE 0xD0 OR 0xE3 ADDRESS DUP14 PUSH32 0xE66EF441FF3BD09D952933F83F58CCD7815AA1EE4F7A64736F6C634300080400 CALLER "
				},
				"gasEstimates": {
					"creation": {
						"codeDepositCost": "362200",
						"executionCost": "399",
						"totalCost": "362599"
					},
					"external": {
						"getMessage(address,uint256)": "infinite",
						"setMessage(address,uint256,string)": "infinite",
						"userMessages(address,uint256)": "infinite"
					}
				},
				"methodIdentifiers": {
					"getMessage(address,uint256)": "570c537e",
					"setMessage(address,uint256,string)": "751501a7",
					"userMessages(address,uint256)": "9428cda3"
				}
			},
			"storageLayout": {
				"storage": [
					{
						"astId": 7,
						"contract": "contracts/Solidity/testing.sol:NestedMappingExample",
						"label": "userMessages",
						"offset": 0,
						"slot": "0",
						"type": "t_mapping(t_address,t_mapping(t_uint256,t_string_storage))"
					}
				],
				"types": {
					"t_address": {
						"encoding": "inplace",
						"label": "address",
						"numberOfBytes": "20"
					},
					"t_mapping(t_address,t_mapping(t_uint256,t_string_storage))": {
						"encoding": "mapping",
						"key": "t_address",
						"label": "mapping(address => mapping(uint256 => string))",
						"numberOfBytes": "32",
						"value": "t_mapping(t_uint256,t_string_storage)"
					},
					"t_mapping(t_uint256,t_string_storage)": {
						"encoding": "mapping",
						"key": "t_uint256",
						"label": "mapping(uint256 => string)",
						"numberOfBytes": "32",
						"value": "t_string_storage"
					},
					"t_string_storage": {
						"encoding": "bytes",
						"label": "string",
						"numberOfBytes": "32"
					},
					"t_uint256": {
						"encoding": "inplace",
						"label": "uint256",
						"numberOfBytes": "32"
					}
				}
			},
			"userdoc": {
				"kind": "user",
				"methods": {},
				"version": 1
			}
		}
	}
}