{
	"contracts/Solidity/Datatype.sol": {
		"DataType": {
			"abi": [
				{
					"inputs": [
						{
							"internalType": "string",
							"name": "_FullName",
							"type": "string"
						},
						{
							"internalType": "uint256",
							"name": "_age",
							"type": "uint256"
						},
						{
							"internalType": "string",
							"name": "_sex",
							"type": "string"
						}
					],
					"name": "addPlayer",
					"outputs": [],
					"stateMutability": "nonpayable",
					"type": "function"
				},
				{
					"inputs": [],
					"name": "countPlayer",
					"outputs": [
						{
							"internalType": "uint256",
							"name": "",
							"type": "uint256"
						}
					],
					"stateMutability": "view",
					"type": "function"
				},
				{
					"inputs": [
						{
							"internalType": "address",
							"name": "addressPlayer",
							"type": "address"
						}
					],
					"name": "getLevel",
					"outputs": [
						{
							"internalType": "enum DataType.Level",
							"name": "",
							"type": "uint8"
						}
					],
					"stateMutability": "nonpayable",
					"type": "function"
				},
				{
					"inputs": [
						{
							"internalType": "address",
							"name": "",
							"type": "address"
						}
					],
					"name": "players",
					"outputs": [
						{
							"internalType": "address",
							"name": "addressPlayer",
							"type": "address"
						},
						{
							"internalType": "string",
							"name": "FullName",
							"type": "string"
						},
						{
							"internalType": "enum DataType.Level",
							"name": "myLevel",
							"type": "uint8"
						},
						{
							"internalType": "uint256",
							"name": "age",
							"type": "uint256"
						},
						{
							"internalType": "string",
							"name": "sex",
							"type": "string"
						}
					],
					"stateMutability": "view",
					"type": "function"
				}
			],
			"devdoc": {
				"kind": "dev",
				"methods": {},
				"version": 1
			},
			"evm": {
				"assembly": "    /* \"contracts/Solidity/Datatype.sol\":57:978  contract DataType{\r... */\n  mstore(0x40, 0x80)\n    /* \"contracts/Solidity/Datatype.sol\":266:267  0 */\n  0x00\n    /* \"contracts/Solidity/Datatype.sol\":240:267  uint public countPlayer = 0 */\n  dup1\n  sstore\n    /* \"contracts/Solidity/Datatype.sol\":57:978  contract DataType{\r... */\n  callvalue\n  dup1\n  iszero\n  tag_1\n  jumpi\n  0x00\n  dup1\n  revert\ntag_1:\n  pop\n  dataSize(sub_0)\n  dup1\n  dataOffset(sub_0)\n  0x00\n  codecopy\n  0x00\n  return\nstop\n\nsub_0: assembly {\n        /* \"contracts/Solidity/Datatype.sol\":57:978  contract DataType{\r... */\n      mstore(0x40, 0x80)\n      callvalue\n      dup1\n      iszero\n      tag_1\n      jumpi\n      0x00\n      dup1\n      revert\n    tag_1:\n      pop\n      jumpi(tag_2, lt(calldatasize, 0x04))\n      shr(0xe0, calldataload(0x00))\n      dup1\n      0x817c8966\n      eq\n      tag_3\n      jumpi\n      dup1\n      0xaaa006b2\n      eq\n      tag_4\n      jumpi\n      dup1\n      0xaab48c52\n      eq\n      tag_5\n      jumpi\n      dup1\n      0xe2eb41ff\n      eq\n      tag_6\n      jumpi\n    tag_2:\n      0x00\n      dup1\n      revert\n        /* \"contracts/Solidity/Datatype.sol\":848:967  function getLevel(address addressPlayer) public returns(Level) {\r... */\n    tag_3:\n      tag_7\n      0x04\n      dup1\n      calldatasize\n      sub\n      dup2\n      add\n      swap1\n      tag_8\n      swap2\n      swap1\n      tag_9\n      jump\t// in\n    tag_8:\n      tag_10\n      jump\t// in\n    tag_7:\n      mload(0x40)\n      tag_11\n      swap2\n      swap1\n      tag_12\n      jump\t// in\n    tag_11:\n      mload(0x40)\n      dup1\n      swap2\n      sub\n      swap1\n      return\n        /* \"contracts/Solidity/Datatype.sol\":240:267  uint public countPlayer = 0 */\n    tag_4:\n      tag_13\n      tag_14\n      jump\t// in\n    tag_13:\n      mload(0x40)\n      tag_15\n      swap2\n      swap1\n      tag_16\n      jump\t// in\n    tag_15:\n      mload(0x40)\n      dup1\n      swap2\n      sub\n      swap1\n      return\n        /* \"contracts/Solidity/Datatype.sol\":582:842  function addPlayer(string memory _FullName, uint _age, string memory _sex) public {\r... */\n    tag_5:\n      tag_17\n      0x04\n      dup1\n      calldatasize\n      sub\n      dup2\n      add\n      swap1\n      tag_18\n      swap2\n      swap1\n      tag_19\n      jump\t// in\n    tag_18:\n      tag_20\n      jump\t// in\n    tag_17:\n      stop\n        /* \"contracts/Solidity/Datatype.sol\":483:525  mapping (address => Player) public players */\n    tag_6:\n      tag_21\n      0x04\n      dup1\n      calldatasize\n      sub\n      dup2\n      add\n      swap1\n      tag_22\n      swap2\n      swap1\n      tag_9\n      jump\t// in\n    tag_22:\n      tag_23\n      jump\t// in\n    tag_21:\n      mload(0x40)\n      tag_24\n      swap6\n      swap5\n      swap4\n      swap3\n      swap2\n      swap1\n      tag_25\n      jump\t// in\n    tag_24:\n      mload(0x40)\n      dup1\n      swap2\n      sub\n      swap1\n      return\n        /* \"contracts/Solidity/Datatype.sol\":848:967  function getLevel(address addressPlayer) public returns(Level) {\r... */\n    tag_10:\n        /* \"contracts/Solidity/Datatype.sol\":904:909  Level */\n      0x00\n        /* \"contracts/Solidity/Datatype.sol\":929:936  players */\n      0x01\n        /* \"contracts/Solidity/Datatype.sol\":929:951  players[addressPlayer] */\n      0x00\n        /* \"contracts/Solidity/Datatype.sol\":937:950  addressPlayer */\n      dup4\n        /* \"contracts/Solidity/Datatype.sol\":929:951  players[addressPlayer] */\n      0xffffffffffffffffffffffffffffffffffffffff\n      and\n      0xffffffffffffffffffffffffffffffffffffffff\n      and\n      dup2\n      mstore\n      0x20\n      add\n      swap1\n      dup2\n      mstore\n      0x20\n      add\n      0x00\n      keccak256\n        /* \"contracts/Solidity/Datatype.sol\":929:959  players[addressPlayer].myLevel */\n      0x02\n      add\n      0x00\n      swap1\n      sload\n      swap1\n      0x0100\n      exp\n      swap1\n      div\n      0xff\n      and\n        /* \"contracts/Solidity/Datatype.sol\":922:959  return players[addressPlayer].myLevel */\n      swap1\n      pop\n        /* \"contracts/Solidity/Datatype.sol\":848:967  function getLevel(address addressPlayer) public returns(Level) {\r... */\n      swap2\n      swap1\n      pop\n      jump\t// out\n        /* \"contracts/Solidity/Datatype.sol\":240:267  uint public countPlayer = 0 */\n    tag_14:\n      sload(0x00)\n      dup2\n      jump\t// out\n        /* \"contracts/Solidity/Datatype.sol\":582:842  function addPlayer(string memory _FullName, uint _age, string memory _sex) public {\r... */\n    tag_20:\n        /* \"contracts/Solidity/Datatype.sol\":754:810  Player(msg.sender, _FullName, Level.Beginner, _age,_sex) */\n      mload(0x40)\n      dup1\n      0xa0\n      add\n      0x40\n      mstore\n      dup1\n        /* \"contracts/Solidity/Datatype.sol\":761:771  msg.sender */\n      caller\n        /* \"contracts/Solidity/Datatype.sol\":754:810  Player(msg.sender, _FullName, Level.Beginner, _age,_sex) */\n      0xffffffffffffffffffffffffffffffffffffffff\n      and\n      dup2\n      mstore\n      0x20\n      add\n        /* \"contracts/Solidity/Datatype.sol\":773:782  _FullName */\n      dup5\n        /* \"contracts/Solidity/Datatype.sol\":754:810  Player(msg.sender, _FullName, Level.Beginner, _age,_sex) */\n      dup2\n      mstore\n      0x20\n      add\n        /* \"contracts/Solidity/Datatype.sol\":784:798  Level.Beginner */\n      0x00\n        /* \"contracts/Solidity/Datatype.sol\":754:810  Player(msg.sender, _FullName, Level.Beginner, _age,_sex) */\n      0x02\n      dup2\n      gt\n      iszero\n      tag_28\n      jumpi\n      mstore(0x00, 0x4e487b7100000000000000000000000000000000000000000000000000000000)\n      mstore(0x04, 0x21)\n      revert(0x00, 0x24)\n    tag_28:\n      dup2\n      mstore\n      0x20\n      add\n        /* \"contracts/Solidity/Datatype.sol\":800:804  _age */\n      dup4\n        /* \"contracts/Solidity/Datatype.sol\":754:810  Player(msg.sender, _FullName, Level.Beginner, _age,_sex) */\n      dup2\n      mstore\n      0x20\n      add\n        /* \"contracts/Solidity/Datatype.sol\":805:809  _sex */\n      dup3\n        /* \"contracts/Solidity/Datatype.sol\":754:810  Player(msg.sender, _FullName, Level.Beginner, _age,_sex) */\n      dup2\n      mstore\n      pop\n        /* \"contracts/Solidity/Datatype.sol\":732:739  players */\n      0x01\n        /* \"contracts/Solidity/Datatype.sol\":732:751  players[msg.sender] */\n      0x00\n        /* \"contracts/Solidity/Datatype.sol\":740:750  msg.sender */\n      caller\n        /* \"contracts/Solidity/Datatype.sol\":732:751  players[msg.sender] */\n      0xffffffffffffffffffffffffffffffffffffffff\n      and\n      0xffffffffffffffffffffffffffffffffffffffff\n      and\n      dup2\n      mstore\n      0x20\n      add\n      swap1\n      dup2\n      mstore\n      0x20\n      add\n      0x00\n      keccak256\n        /* \"contracts/Solidity/Datatype.sol\":732:810  players[msg.sender] = Player(msg.sender, _FullName, Level.Beginner, _age,_sex) */\n      0x00\n      dup3\n      add\n      mload\n      dup2\n      0x00\n      add\n      exp(0x0100, 0x00)\n      dup2\n      sload\n      dup2\n      0xffffffffffffffffffffffffffffffffffffffff\n      mul\n      not\n      and\n      swap1\n      dup4\n      0xffffffffffffffffffffffffffffffffffffffff\n      and\n      mul\n      or\n      swap1\n      sstore\n      pop\n      0x20\n      dup3\n      add\n      mload\n      dup2\n      0x01\n      add\n      swap1\n      dup1\n      mload\n      swap1\n      0x20\n      add\n      swap1\n      tag_29\n      swap3\n      swap2\n      swap1\n      tag_30\n      jump\t// in\n    tag_29:\n      pop\n      0x40\n      dup3\n      add\n      mload\n      dup2\n      0x02\n      add\n      exp(0x0100, 0x00)\n      dup2\n      sload\n      dup2\n      0xff\n      mul\n      not\n      and\n      swap1\n      dup4\n      0x02\n      dup2\n      gt\n      iszero\n      tag_31\n      jumpi\n      mstore(0x00, 0x4e487b7100000000000000000000000000000000000000000000000000000000)\n      mstore(0x04, 0x21)\n      revert(0x00, 0x24)\n    tag_31:\n      mul\n      or\n      swap1\n      sstore\n      pop\n      0x60\n      dup3\n      add\n      mload\n      dup2\n      0x03\n      add\n      sstore\n      0x80\n      dup3\n      add\n      mload\n      dup2\n      0x04\n      add\n      swap1\n      dup1\n      mload\n      swap1\n      0x20\n      add\n      swap1\n      tag_32\n      swap3\n      swap2\n      swap1\n      tag_30\n      jump\t// in\n    tag_32:\n      pop\n      swap1\n      pop\n      pop\n        /* \"contracts/Solidity/Datatype.sol\":821:832  countPlayer */\n      0x00\n      dup1\n        /* \"contracts/Solidity/Datatype.sol\":821:834  countPlayer++ */\n      dup2\n      sload\n      dup1\n      swap3\n      swap2\n      swap1\n      tag_33\n      swap1\n      tag_34\n      jump\t// in\n    tag_33:\n      swap2\n      swap1\n      pop\n      sstore\n      pop\n        /* \"contracts/Solidity/Datatype.sol\":582:842  function addPlayer(string memory _FullName, uint _age, string memory _sex) public {\r... */\n      pop\n      pop\n      pop\n      jump\t// out\n        /* \"contracts/Solidity/Datatype.sol\":483:525  mapping (address => Player) public players */\n    tag_23:\n      mstore(0x20, 0x01)\n      dup1\n      0x00\n      mstore\n      keccak256(0x00, 0x40)\n      0x00\n      swap2\n      pop\n      swap1\n      pop\n      dup1\n      0x00\n      add\n      0x00\n      swap1\n      sload\n      swap1\n      0x0100\n      exp\n      swap1\n      div\n      0xffffffffffffffffffffffffffffffffffffffff\n      and\n      swap1\n      dup1\n      0x01\n      add\n      dup1\n      sload\n      tag_35\n      swap1\n      tag_36\n      jump\t// in\n    tag_35:\n      dup1\n      0x1f\n      add\n      0x20\n      dup1\n      swap2\n      div\n      mul\n      0x20\n      add\n      mload(0x40)\n      swap1\n      dup2\n      add\n      0x40\n      mstore\n      dup1\n      swap3\n      swap2\n      swap1\n      dup2\n      dup2\n      mstore\n      0x20\n      add\n      dup3\n      dup1\n      sload\n      tag_37\n      swap1\n      tag_36\n      jump\t// in\n    tag_37:\n      dup1\n      iszero\n      tag_38\n      jumpi\n      dup1\n      0x1f\n      lt\n      tag_39\n      jumpi\n      0x0100\n      dup1\n      dup4\n      sload\n      div\n      mul\n      dup4\n      mstore\n      swap2\n      0x20\n      add\n      swap2\n      jump(tag_38)\n    tag_39:\n      dup3\n      add\n      swap2\n      swap1\n      0x00\n      mstore\n      keccak256(0x00, 0x20)\n      swap1\n    tag_40:\n      dup2\n      sload\n      dup2\n      mstore\n      swap1\n      0x01\n      add\n      swap1\n      0x20\n      add\n      dup1\n      dup4\n      gt\n      tag_40\n      jumpi\n      dup3\n      swap1\n      sub\n      0x1f\n      and\n      dup3\n      add\n      swap2\n    tag_38:\n      pop\n      pop\n      pop\n      pop\n      pop\n      swap1\n      dup1\n      0x02\n      add\n      0x00\n      swap1\n      sload\n      swap1\n      0x0100\n      exp\n      swap1\n      div\n      0xff\n      and\n      swap1\n      dup1\n      0x03\n      add\n      sload\n      swap1\n      dup1\n      0x04\n      add\n      dup1\n      sload\n      tag_41\n      swap1\n      tag_36\n      jump\t// in\n    tag_41:\n      dup1\n      0x1f\n      add\n      0x20\n      dup1\n      swap2\n      div\n      mul\n      0x20\n      add\n      mload(0x40)\n      swap1\n      dup2\n      add\n      0x40\n      mstore\n      dup1\n      swap3\n      swap2\n      swap1\n      dup2\n      dup2\n      mstore\n      0x20\n      add\n      dup3\n      dup1\n      sload\n      tag_42\n      swap1\n      tag_36\n      jump\t// in\n    tag_42:\n      dup1\n      iszero\n      tag_43\n      jumpi\n      dup1\n      0x1f\n      lt\n      tag_44\n      jumpi\n      0x0100\n      dup1\n      dup4\n      sload\n      div\n      mul\n      dup4\n      mstore\n      swap2\n      0x20\n      add\n      swap2\n      jump(tag_43)\n    tag_44:\n      dup3\n      add\n      swap2\n      swap1\n      0x00\n      mstore\n      keccak256(0x00, 0x20)\n      swap1\n    tag_45:\n      dup2\n      sload\n      dup2\n      mstore\n      swap1\n      0x01\n      add\n      swap1\n      0x20\n      add\n      dup1\n      dup4\n      gt\n      tag_45\n      jumpi\n      dup3\n      swap1\n      sub\n      0x1f\n      and\n      dup3\n      add\n      swap2\n    tag_43:\n      pop\n      pop\n      pop\n      pop\n      pop\n      swap1\n      pop\n      dup6\n      jump\t// out\n    tag_30:\n      dup3\n      dup1\n      sload\n      tag_46\n      swap1\n      tag_36\n      jump\t// in\n    tag_46:\n      swap1\n      0x00\n      mstore\n      keccak256(0x00, 0x20)\n      swap1\n      0x1f\n      add\n      0x20\n      swap1\n      div\n      dup2\n      add\n      swap3\n      dup3\n      tag_48\n      jumpi\n      0x00\n      dup6\n      sstore\n      jump(tag_47)\n    tag_48:\n      dup3\n      0x1f\n      lt\n      tag_49\n      jumpi\n      dup1\n      mload\n      not(0xff)\n      and\n      dup4\n      dup1\n      add\n      or\n      dup6\n      sstore\n      jump(tag_47)\n    tag_49:\n      dup3\n      dup1\n      add\n      0x01\n      add\n      dup6\n      sstore\n      dup3\n      iszero\n      tag_47\n      jumpi\n      swap2\n      dup3\n      add\n    tag_50:\n      dup3\n      dup2\n      gt\n      iszero\n      tag_51\n      jumpi\n      dup3\n      mload\n      dup3\n      sstore\n      swap2\n      0x20\n      add\n      swap2\n      swap1\n      0x01\n      add\n      swap1\n      jump(tag_50)\n    tag_51:\n    tag_47:\n      pop\n      swap1\n      pop\n      tag_52\n      swap2\n      swap1\n      tag_53\n      jump\t// in\n    tag_52:\n      pop\n      swap1\n      jump\t// out\n    tag_53:\n    tag_54:\n      dup1\n      dup3\n      gt\n      iszero\n      tag_55\n      jumpi\n      0x00\n      dup2\n      0x00\n      swap1\n      sstore\n      pop\n      0x01\n      add\n      jump(tag_54)\n    tag_55:\n      pop\n      swap1\n      jump\t// out\n        /* \"#utility.yul\":7:352   */\n    tag_57:\n        /* \"#utility.yul\":85:90   */\n      0x00\n        /* \"#utility.yul\":110:176   */\n      tag_59\n        /* \"#utility.yul\":126:175   */\n      tag_60\n        /* \"#utility.yul\":168:174   */\n      dup5\n        /* \"#utility.yul\":126:175   */\n      tag_61\n      jump\t// in\n    tag_60:\n        /* \"#utility.yul\":110:176   */\n      tag_62\n      jump\t// in\n    tag_59:\n        /* \"#utility.yul\":101:176   */\n      swap1\n      pop\n        /* \"#utility.yul\":199:205   */\n      dup3\n        /* \"#utility.yul\":192:197   */\n      dup2\n        /* \"#utility.yul\":185:206   */\n      mstore\n        /* \"#utility.yul\":237:241   */\n      0x20\n        /* \"#utility.yul\":230:235   */\n      dup2\n        /* \"#utility.yul\":226:242   */\n      add\n        /* \"#utility.yul\":275:278   */\n      dup5\n        /* \"#utility.yul\":266:272   */\n      dup5\n        /* \"#utility.yul\":261:264   */\n      dup5\n        /* \"#utility.yul\":257:273   */\n      add\n        /* \"#utility.yul\":254:279   */\n      gt\n        /* \"#utility.yul\":251:253   */\n      iszero\n      tag_63\n      jumpi\n        /* \"#utility.yul\":292:293   */\n      0x00\n        /* \"#utility.yul\":289:290   */\n      dup1\n        /* \"#utility.yul\":282:294   */\n      revert\n        /* \"#utility.yul\":251:253   */\n    tag_63:\n        /* \"#utility.yul\":305:346   */\n      tag_64\n        /* \"#utility.yul\":339:345   */\n      dup5\n        /* \"#utility.yul\":334:337   */\n      dup3\n        /* \"#utility.yul\":329:332   */\n      dup6\n        /* \"#utility.yul\":305:346   */\n      tag_65\n      jump\t// in\n    tag_64:\n        /* \"#utility.yul\":91:352   */\n      pop\n      swap4\n      swap3\n      pop\n      pop\n      pop\n      jump\t// out\n        /* \"#utility.yul\":358:497   */\n    tag_66:\n        /* \"#utility.yul\":404:409   */\n      0x00\n        /* \"#utility.yul\":442:448   */\n      dup2\n        /* \"#utility.yul\":429:449   */\n      calldataload\n        /* \"#utility.yul\":420:449   */\n      swap1\n      pop\n        /* \"#utility.yul\":458:491   */\n      tag_68\n        /* \"#utility.yul\":485:490   */\n      dup2\n        /* \"#utility.yul\":458:491   */\n      tag_69\n      jump\t// in\n    tag_68:\n        /* \"#utility.yul\":410:497   */\n      swap3\n      swap2\n      pop\n      pop\n      jump\t// out\n        /* \"#utility.yul\":517:790   */\n    tag_70:\n        /* \"#utility.yul\":573:578   */\n      0x00\n        /* \"#utility.yul\":622:625   */\n      dup3\n        /* \"#utility.yul\":615:619   */\n      0x1f\n        /* \"#utility.yul\":607:613   */\n      dup4\n        /* \"#utility.yul\":603:620   */\n      add\n        /* \"#utility.yul\":599:626   */\n      slt\n        /* \"#utility.yul\":589:591   */\n      tag_72\n      jumpi\n        /* \"#utility.yul\":640:641   */\n      0x00\n        /* \"#utility.yul\":637:638   */\n      dup1\n        /* \"#utility.yul\":630:642   */\n      revert\n        /* \"#utility.yul\":589:591   */\n    tag_72:\n        /* \"#utility.yul\":680:686   */\n      dup2\n        /* \"#utility.yul\":667:687   */\n      calldataload\n        /* \"#utility.yul\":705:784   */\n      tag_73\n        /* \"#utility.yul\":780:783   */\n      dup5\n        /* \"#utility.yul\":772:778   */\n      dup3\n        /* \"#utility.yul\":765:769   */\n      0x20\n        /* \"#utility.yul\":757:763   */\n      dup7\n        /* \"#utility.yul\":753:770   */\n      add\n        /* \"#utility.yul\":705:784   */\n      tag_57\n      jump\t// in\n    tag_73:\n        /* \"#utility.yul\":696:784   */\n      swap2\n      pop\n        /* \"#utility.yul\":579:790   */\n      pop\n      swap3\n      swap2\n      pop\n      pop\n      jump\t// out\n        /* \"#utility.yul\":796:935   */\n    tag_74:\n        /* \"#utility.yul\":842:847   */\n      0x00\n        /* \"#utility.yul\":880:886   */\n      dup2\n        /* \"#utility.yul\":867:887   */\n      calldataload\n        /* \"#utility.yul\":858:887   */\n      swap1\n      pop\n        /* \"#utility.yul\":896:929   */\n      tag_76\n        /* \"#utility.yul\":923:928   */\n      dup2\n        /* \"#utility.yul\":896:929   */\n      tag_77\n      jump\t// in\n    tag_76:\n        /* \"#utility.yul\":848:935   */\n      swap3\n      swap2\n      pop\n      pop\n      jump\t// out\n        /* \"#utility.yul\":941:1203   */\n    tag_9:\n        /* \"#utility.yul\":1000:1006   */\n      0x00\n        /* \"#utility.yul\":1049:1051   */\n      0x20\n        /* \"#utility.yul\":1037:1046   */\n      dup3\n        /* \"#utility.yul\":1028:1035   */\n      dup5\n        /* \"#utility.yul\":1024:1047   */\n      sub\n        /* \"#utility.yul\":1020:1052   */\n      slt\n        /* \"#utility.yul\":1017:1019   */\n      iszero\n      tag_79\n      jumpi\n        /* \"#utility.yul\":1065:1066   */\n      0x00\n        /* \"#utility.yul\":1062:1063   */\n      dup1\n        /* \"#utility.yul\":1055:1067   */\n      revert\n        /* \"#utility.yul\":1017:1019   */\n    tag_79:\n        /* \"#utility.yul\":1108:1109   */\n      0x00\n        /* \"#utility.yul\":1133:1186   */\n      tag_80\n        /* \"#utility.yul\":1178:1185   */\n      dup5\n        /* \"#utility.yul\":1169:1175   */\n      dup3\n        /* \"#utility.yul\":1158:1167   */\n      dup6\n        /* \"#utility.yul\":1154:1176   */\n      add\n        /* \"#utility.yul\":1133:1186   */\n      tag_66\n      jump\t// in\n    tag_80:\n        /* \"#utility.yul\":1123:1186   */\n      swap2\n      pop\n        /* \"#utility.yul\":1079:1196   */\n      pop\n        /* \"#utility.yul\":1007:1203   */\n      swap3\n      swap2\n      pop\n      pop\n      jump\t// out\n        /* \"#utility.yul\":1209:1987   */\n    tag_19:\n        /* \"#utility.yul\":1306:1312   */\n      0x00\n        /* \"#utility.yul\":1314:1320   */\n      dup1\n        /* \"#utility.yul\":1322:1328   */\n      0x00\n        /* \"#utility.yul\":1371:1373   */\n      0x60\n        /* \"#utility.yul\":1359:1368   */\n      dup5\n        /* \"#utility.yul\":1350:1357   */\n      dup7\n        /* \"#utility.yul\":1346:1369   */\n      sub\n        /* \"#utility.yul\":1342:1374   */\n      slt\n        /* \"#utility.yul\":1339:1341   */\n      iszero\n      tag_82\n      jumpi\n        /* \"#utility.yul\":1387:1388   */\n      0x00\n        /* \"#utility.yul\":1384:1385   */\n      dup1\n        /* \"#utility.yul\":1377:1389   */\n      revert\n        /* \"#utility.yul\":1339:1341   */\n    tag_82:\n        /* \"#utility.yul\":1458:1459   */\n      0x00\n        /* \"#utility.yul\":1447:1456   */\n      dup5\n        /* \"#utility.yul\":1443:1460   */\n      add\n        /* \"#utility.yul\":1430:1461   */\n      calldataload\n        /* \"#utility.yul\":1488:1506   */\n      0xffffffffffffffff\n        /* \"#utility.yul\":1480:1486   */\n      dup2\n        /* \"#utility.yul\":1477:1507   */\n      gt\n        /* \"#utility.yul\":1474:1476   */\n      iszero\n      tag_83\n      jumpi\n        /* \"#utility.yul\":1520:1521   */\n      0x00\n        /* \"#utility.yul\":1517:1518   */\n      dup1\n        /* \"#utility.yul\":1510:1522   */\n      revert\n        /* \"#utility.yul\":1474:1476   */\n    tag_83:\n        /* \"#utility.yul\":1548:1611   */\n      tag_84\n        /* \"#utility.yul\":1603:1610   */\n      dup7\n        /* \"#utility.yul\":1594:1600   */\n      dup3\n        /* \"#utility.yul\":1583:1592   */\n      dup8\n        /* \"#utility.yul\":1579:1601   */\n      add\n        /* \"#utility.yul\":1548:1611   */\n      tag_70\n      jump\t// in\n    tag_84:\n        /* \"#utility.yul\":1538:1611   */\n      swap4\n      pop\n        /* \"#utility.yul\":1401:1621   */\n      pop\n        /* \"#utility.yul\":1660:1662   */\n      0x20\n        /* \"#utility.yul\":1686:1739   */\n      tag_85\n        /* \"#utility.yul\":1731:1738   */\n      dup7\n        /* \"#utility.yul\":1722:1728   */\n      dup3\n        /* \"#utility.yul\":1711:1720   */\n      dup8\n        /* \"#utility.yul\":1707:1729   */\n      add\n        /* \"#utility.yul\":1686:1739   */\n      tag_74\n      jump\t// in\n    tag_85:\n        /* \"#utility.yul\":1676:1739   */\n      swap3\n      pop\n        /* \"#utility.yul\":1631:1749   */\n      pop\n        /* \"#utility.yul\":1816:1818   */\n      0x40\n        /* \"#utility.yul\":1805:1814   */\n      dup5\n        /* \"#utility.yul\":1801:1819   */\n      add\n        /* \"#utility.yul\":1788:1820   */\n      calldataload\n        /* \"#utility.yul\":1847:1865   */\n      0xffffffffffffffff\n        /* \"#utility.yul\":1839:1845   */\n      dup2\n        /* \"#utility.yul\":1836:1866   */\n      gt\n        /* \"#utility.yul\":1833:1835   */\n      iszero\n      tag_86\n      jumpi\n        /* \"#utility.yul\":1879:1880   */\n      0x00\n        /* \"#utility.yul\":1876:1877   */\n      dup1\n        /* \"#utility.yul\":1869:1881   */\n      revert\n        /* \"#utility.yul\":1833:1835   */\n    tag_86:\n        /* \"#utility.yul\":1907:1970   */\n      tag_87\n        /* \"#utility.yul\":1962:1969   */\n      dup7\n        /* \"#utility.yul\":1953:1959   */\n      dup3\n        /* \"#utility.yul\":1942:1951   */\n      dup8\n        /* \"#utility.yul\":1938:1960   */\n      add\n        /* \"#utility.yul\":1907:1970   */\n      tag_70\n      jump\t// in\n    tag_87:\n        /* \"#utility.yul\":1897:1970   */\n      swap2\n      pop\n        /* \"#utility.yul\":1759:1980   */\n      pop\n        /* \"#utility.yul\":1329:1987   */\n      swap3\n      pop\n      swap3\n      pop\n      swap3\n      jump\t// out\n        /* \"#utility.yul\":1993:2111   */\n    tag_88:\n        /* \"#utility.yul\":2080:2104   */\n      tag_90\n        /* \"#utility.yul\":2098:2103   */\n      dup2\n        /* \"#utility.yul\":2080:2104   */\n      tag_91\n      jump\t// in\n    tag_90:\n        /* \"#utility.yul\":2075:2078   */\n      dup3\n        /* \"#utility.yul\":2068:2105   */\n      mstore\n        /* \"#utility.yul\":2058:2111   */\n      pop\n      pop\n      jump\t// out\n        /* \"#utility.yul\":2117:2260   */\n    tag_92:\n        /* \"#utility.yul\":2210:2253   */\n      tag_94\n        /* \"#utility.yul\":2247:2252   */\n      dup2\n        /* \"#utility.yul\":2210:2253   */\n      tag_95\n      jump\t// in\n    tag_94:\n        /* \"#utility.yul\":2205:2208   */\n      dup3\n        /* \"#utility.yul\":2198:2254   */\n      mstore\n        /* \"#utility.yul\":2188:2260   */\n      pop\n      pop\n      jump\t// out\n        /* \"#utility.yul\":2266:2630   */\n    tag_96:\n        /* \"#utility.yul\":2354:2357   */\n      0x00\n        /* \"#utility.yul\":2382:2421   */\n      tag_98\n        /* \"#utility.yul\":2415:2420   */\n      dup3\n        /* \"#utility.yul\":2382:2421   */\n      tag_99\n      jump\t// in\n    tag_98:\n        /* \"#utility.yul\":2437:2508   */\n      tag_100\n        /* \"#utility.yul\":2501:2507   */\n      dup2\n        /* \"#utility.yul\":2496:2499   */\n      dup6\n        /* \"#utility.yul\":2437:2508   */\n      tag_101\n      jump\t// in\n    tag_100:\n        /* \"#utility.yul\":2430:2508   */\n      swap4\n      pop\n        /* \"#utility.yul\":2517:2569   */\n      tag_102\n        /* \"#utility.yul\":2562:2568   */\n      dup2\n        /* \"#utility.yul\":2557:2560   */\n      dup6\n        /* \"#utility.yul\":2550:2554   */\n      0x20\n        /* \"#utility.yul\":2543:2548   */\n      dup7\n        /* \"#utility.yul\":2539:2555   */\n      add\n        /* \"#utility.yul\":2517:2569   */\n      tag_103\n      jump\t// in\n    tag_102:\n        /* \"#utility.yul\":2594:2623   */\n      tag_104\n        /* \"#utility.yul\":2616:2622   */\n      dup2\n        /* \"#utility.yul\":2594:2623   */\n      tag_105\n      jump\t// in\n    tag_104:\n        /* \"#utility.yul\":2589:2592   */\n      dup5\n        /* \"#utility.yul\":2585:2624   */\n      add\n        /* \"#utility.yul\":2578:2624   */\n      swap2\n      pop\n        /* \"#utility.yul\":2358:2630   */\n      pop\n      swap3\n      swap2\n      pop\n      pop\n      jump\t// out\n        /* \"#utility.yul\":2636:2754   */\n    tag_106:\n        /* \"#utility.yul\":2723:2747   */\n      tag_108\n        /* \"#utility.yul\":2741:2746   */\n      dup2\n        /* \"#utility.yul\":2723:2747   */\n      tag_109\n      jump\t// in\n    tag_108:\n        /* \"#utility.yul\":2718:2721   */\n      dup3\n        /* \"#utility.yul\":2711:2748   */\n      mstore\n        /* \"#utility.yul\":2701:2754   */\n      pop\n      pop\n      jump\t// out\n        /* \"#utility.yul\":2760:3618   */\n    tag_25:\n        /* \"#utility.yul\":3011:3015   */\n      0x00\n        /* \"#utility.yul\":3049:3052   */\n      0xa0\n        /* \"#utility.yul\":3038:3047   */\n      dup3\n        /* \"#utility.yul\":3034:3053   */\n      add\n        /* \"#utility.yul\":3026:3053   */\n      swap1\n      pop\n        /* \"#utility.yul\":3063:3134   */\n      tag_111\n        /* \"#utility.yul\":3131:3132   */\n      0x00\n        /* \"#utility.yul\":3120:3129   */\n      dup4\n        /* \"#utility.yul\":3116:3133   */\n      add\n        /* \"#utility.yul\":3107:3113   */\n      dup9\n        /* \"#utility.yul\":3063:3134   */\n      tag_88\n      jump\t// in\n    tag_111:\n        /* \"#utility.yul\":3181:3190   */\n      dup2\n        /* \"#utility.yul\":3175:3179   */\n      dup2\n        /* \"#utility.yul\":3171:3191   */\n      sub\n        /* \"#utility.yul\":3166:3168   */\n      0x20\n        /* \"#utility.yul\":3155:3164   */\n      dup4\n        /* \"#utility.yul\":3151:3169   */\n      add\n        /* \"#utility.yul\":3144:3192   */\n      mstore\n        /* \"#utility.yul\":3209:3287   */\n      tag_112\n        /* \"#utility.yul\":3282:3286   */\n      dup2\n        /* \"#utility.yul\":3273:3279   */\n      dup8\n        /* \"#utility.yul\":3209:3287   */\n      tag_96\n      jump\t// in\n    tag_112:\n        /* \"#utility.yul\":3201:3287   */\n      swap1\n      pop\n        /* \"#utility.yul\":3297:3375   */\n      tag_113\n        /* \"#utility.yul\":3371:3373   */\n      0x40\n        /* \"#utility.yul\":3360:3369   */\n      dup4\n        /* \"#utility.yul\":3356:3374   */\n      add\n        /* \"#utility.yul\":3347:3353   */\n      dup7\n        /* \"#utility.yul\":3297:3375   */\n      tag_92\n      jump\t// in\n    tag_113:\n        /* \"#utility.yul\":3385:3457   */\n      tag_114\n        /* \"#utility.yul\":3453:3455   */\n      0x60\n        /* \"#utility.yul\":3442:3451   */\n      dup4\n        /* \"#utility.yul\":3438:3456   */\n      add\n        /* \"#utility.yul\":3429:3435   */\n      dup6\n        /* \"#utility.yul\":3385:3457   */\n      tag_106\n      jump\t// in\n    tag_114:\n        /* \"#utility.yul\":3505:3514   */\n      dup2\n        /* \"#utility.yul\":3499:3503   */\n      dup2\n        /* \"#utility.yul\":3495:3515   */\n      sub\n        /* \"#utility.yul\":3489:3492   */\n      0x80\n        /* \"#utility.yul\":3478:3487   */\n      dup4\n        /* \"#utility.yul\":3474:3493   */\n      add\n        /* \"#utility.yul\":3467:3516   */\n      mstore\n        /* \"#utility.yul\":3533:3611   */\n      tag_115\n        /* \"#utility.yul\":3606:3610   */\n      dup2\n        /* \"#utility.yul\":3597:3603   */\n      dup5\n        /* \"#utility.yul\":3533:3611   */\n      tag_96\n      jump\t// in\n    tag_115:\n        /* \"#utility.yul\":3525:3611   */\n      swap1\n      pop\n        /* \"#utility.yul\":3016:3618   */\n      swap7\n      swap6\n      pop\n      pop\n      pop\n      pop\n      pop\n      pop\n      jump\t// out\n        /* \"#utility.yul\":3624:3858   */\n    tag_12:\n        /* \"#utility.yul\":3723:3727   */\n      0x00\n        /* \"#utility.yul\":3761:3763   */\n      0x20\n        /* \"#utility.yul\":3750:3759   */\n      dup3\n        /* \"#utility.yul\":3746:3764   */\n      add\n        /* \"#utility.yul\":3738:3764   */\n      swap1\n      pop\n        /* \"#utility.yul\":3774:3851   */\n      tag_117\n        /* \"#utility.yul\":3848:3849   */\n      0x00\n        /* \"#utility.yul\":3837:3846   */\n      dup4\n        /* \"#utility.yul\":3833:3850   */\n      add\n        /* \"#utility.yul\":3824:3830   */\n      dup5\n        /* \"#utility.yul\":3774:3851   */\n      tag_92\n      jump\t// in\n    tag_117:\n        /* \"#utility.yul\":3728:3858   */\n      swap3\n      swap2\n      pop\n      pop\n      jump\t// out\n        /* \"#utility.yul\":3864:4086   */\n    tag_16:\n        /* \"#utility.yul\":3957:3961   */\n      0x00\n        /* \"#utility.yul\":3995:3997   */\n      0x20\n        /* \"#utility.yul\":3984:3993   */\n      dup3\n        /* \"#utility.yul\":3980:3998   */\n      add\n        /* \"#utility.yul\":3972:3998   */\n      swap1\n      pop\n        /* \"#utility.yul\":4008:4079   */\n      tag_119\n        /* \"#utility.yul\":4076:4077   */\n      0x00\n        /* \"#utility.yul\":4065:4074   */\n      dup4\n        /* \"#utility.yul\":4061:4078   */\n      add\n        /* \"#utility.yul\":4052:4058   */\n      dup5\n        /* \"#utility.yul\":4008:4079   */\n      tag_106\n      jump\t// in\n    tag_119:\n        /* \"#utility.yul\":3962:4086   */\n      swap3\n      swap2\n      pop\n      pop\n      jump\t// out\n        /* \"#utility.yul\":4092:4221   */\n    tag_62:\n        /* \"#utility.yul\":4126:4132   */\n      0x00\n        /* \"#utility.yul\":4153:4173   */\n      tag_121\n      tag_122\n      jump\t// in\n    tag_121:\n        /* \"#utility.yul\":4143:4173   */\n      swap1\n      pop\n        /* \"#utility.yul\":4182:4215   */\n      tag_123\n        /* \"#utility.yul\":4210:4214   */\n      dup3\n        /* \"#utility.yul\":4202:4208   */\n      dup3\n        /* \"#utility.yul\":4182:4215   */\n      tag_124\n      jump\t// in\n    tag_123:\n        /* \"#utility.yul\":4133:4221   */\n      swap2\n      swap1\n      pop\n      jump\t// out\n        /* \"#utility.yul\":4227:4302   */\n    tag_122:\n        /* \"#utility.yul\":4260:4266   */\n      0x00\n        /* \"#utility.yul\":4293:4295   */\n      0x40\n        /* \"#utility.yul\":4287:4296   */\n      mload\n        /* \"#utility.yul\":4277:4296   */\n      swap1\n      pop\n        /* \"#utility.yul\":4267:4302   */\n      swap1\n      jump\t// out\n        /* \"#utility.yul\":4308:4616   */\n    tag_61:\n        /* \"#utility.yul\":4370:4374   */\n      0x00\n        /* \"#utility.yul\":4460:4478   */\n      0xffffffffffffffff\n        /* \"#utility.yul\":4452:4458   */\n      dup3\n        /* \"#utility.yul\":4449:4479   */\n      gt\n        /* \"#utility.yul\":4446:4448   */\n      iszero\n      tag_127\n      jumpi\n        /* \"#utility.yul\":4482:4500   */\n      tag_128\n      tag_129\n      jump\t// in\n    tag_128:\n        /* \"#utility.yul\":4446:4448   */\n    tag_127:\n        /* \"#utility.yul\":4520:4549   */\n      tag_130\n        /* \"#utility.yul\":4542:4548   */\n      dup3\n        /* \"#utility.yul\":4520:4549   */\n      tag_105\n      jump\t// in\n    tag_130:\n        /* \"#utility.yul\":4512:4549   */\n      swap1\n      pop\n        /* \"#utility.yul\":4604:4608   */\n      0x20\n        /* \"#utility.yul\":4598:4602   */\n      dup2\n        /* \"#utility.yul\":4594:4609   */\n      add\n        /* \"#utility.yul\":4586:4609   */\n      swap1\n      pop\n        /* \"#utility.yul\":4375:4616   */\n      swap2\n      swap1\n      pop\n      jump\t// out\n        /* \"#utility.yul\":4622:4721   */\n    tag_99:\n        /* \"#utility.yul\":4674:4680   */\n      0x00\n        /* \"#utility.yul\":4708:4713   */\n      dup2\n        /* \"#utility.yul\":4702:4714   */\n      mload\n        /* \"#utility.yul\":4692:4714   */\n      swap1\n      pop\n        /* \"#utility.yul\":4681:4721   */\n      swap2\n      swap1\n      pop\n      jump\t// out\n        /* \"#utility.yul\":4727:4896   */\n    tag_101:\n        /* \"#utility.yul\":4811:4822   */\n      0x00\n        /* \"#utility.yul\":4845:4851   */\n      dup3\n        /* \"#utility.yul\":4840:4843   */\n      dup3\n        /* \"#utility.yul\":4833:4852   */\n      mstore\n        /* \"#utility.yul\":4885:4889   */\n      0x20\n        /* \"#utility.yul\":4880:4883   */\n      dup3\n        /* \"#utility.yul\":4876:4890   */\n      add\n        /* \"#utility.yul\":4861:4890   */\n      swap1\n      pop\n        /* \"#utility.yul\":4823:4896   */\n      swap3\n      swap2\n      pop\n      pop\n      jump\t// out\n        /* \"#utility.yul\":4902:4998   */\n    tag_91:\n        /* \"#utility.yul\":4939:4946   */\n      0x00\n        /* \"#utility.yul\":4968:4992   */\n      tag_134\n        /* \"#utility.yul\":4986:4991   */\n      dup3\n        /* \"#utility.yul\":4968:4992   */\n      tag_135\n      jump\t// in\n    tag_134:\n        /* \"#utility.yul\":4957:4992   */\n      swap1\n      pop\n        /* \"#utility.yul\":4947:4998   */\n      swap2\n      swap1\n      pop\n      jump\t// out\n        /* \"#utility.yul\":5004:5131   */\n    tag_136:\n        /* \"#utility.yul\":5049:5056   */\n      0x00\n        /* \"#utility.yul\":5078:5083   */\n      dup2\n        /* \"#utility.yul\":5067:5083   */\n      swap1\n      pop\n        /* \"#utility.yul\":5084:5125   */\n      tag_138\n        /* \"#utility.yul\":5119:5124   */\n      dup3\n        /* \"#utility.yul\":5084:5125   */\n      tag_139\n      jump\t// in\n    tag_138:\n        /* \"#utility.yul\":5057:5131   */\n      swap2\n      swap1\n      pop\n      jump\t// out\n        /* \"#utility.yul\":5137:5263   */\n    tag_135:\n        /* \"#utility.yul\":5174:5181   */\n      0x00\n        /* \"#utility.yul\":5214:5256   */\n      0xffffffffffffffffffffffffffffffffffffffff\n        /* \"#utility.yul\":5207:5212   */\n      dup3\n        /* \"#utility.yul\":5203:5257   */\n      and\n        /* \"#utility.yul\":5192:5257   */\n      swap1\n      pop\n        /* \"#utility.yul\":5182:5263   */\n      swap2\n      swap1\n      pop\n      jump\t// out\n        /* \"#utility.yul\":5269:5346   */\n    tag_109:\n        /* \"#utility.yul\":5306:5313   */\n      0x00\n        /* \"#utility.yul\":5335:5340   */\n      dup2\n        /* \"#utility.yul\":5324:5340   */\n      swap1\n      pop\n        /* \"#utility.yul\":5314:5346   */\n      swap2\n      swap1\n      pop\n      jump\t// out\n        /* \"#utility.yul\":5352:5479   */\n    tag_95:\n        /* \"#utility.yul\":5408:5417   */\n      0x00\n        /* \"#utility.yul\":5441:5473   */\n      tag_143\n        /* \"#utility.yul\":5467:5472   */\n      dup3\n        /* \"#utility.yul\":5441:5473   */\n      tag_136\n      jump\t// in\n    tag_143:\n        /* \"#utility.yul\":5428:5473   */\n      swap1\n      pop\n        /* \"#utility.yul\":5418:5479   */\n      swap2\n      swap1\n      pop\n      jump\t// out\n        /* \"#utility.yul\":5485:5639   */\n    tag_65:\n        /* \"#utility.yul\":5569:5575   */\n      dup3\n        /* \"#utility.yul\":5564:5567   */\n      dup2\n        /* \"#utility.yul\":5559:5562   */\n      dup4\n        /* \"#utility.yul\":5546:5576   */\n      calldatacopy\n        /* \"#utility.yul\":5631:5632   */\n      0x00\n        /* \"#utility.yul\":5622:5628   */\n      dup4\n        /* \"#utility.yul\":5617:5620   */\n      dup4\n        /* \"#utility.yul\":5613:5629   */\n      add\n        /* \"#utility.yul\":5606:5633   */\n      mstore\n        /* \"#utility.yul\":5536:5639   */\n      pop\n      pop\n      pop\n      jump\t// out\n        /* \"#utility.yul\":5645:5952   */\n    tag_103:\n        /* \"#utility.yul\":5713:5714   */\n      0x00\n        /* \"#utility.yul\":5723:5836   */\n    tag_146:\n        /* \"#utility.yul\":5737:5743   */\n      dup4\n        /* \"#utility.yul\":5734:5735   */\n      dup2\n        /* \"#utility.yul\":5731:5744   */\n      lt\n        /* \"#utility.yul\":5723:5836   */\n      iszero\n      tag_148\n      jumpi\n        /* \"#utility.yul\":5822:5823   */\n      dup1\n        /* \"#utility.yul\":5817:5820   */\n      dup3\n        /* \"#utility.yul\":5813:5824   */\n      add\n        /* \"#utility.yul\":5807:5825   */\n      mload\n        /* \"#utility.yul\":5803:5804   */\n      dup2\n        /* \"#utility.yul\":5798:5801   */\n      dup5\n        /* \"#utility.yul\":5794:5805   */\n      add\n        /* \"#utility.yul\":5787:5826   */\n      mstore\n        /* \"#utility.yul\":5759:5761   */\n      0x20\n        /* \"#utility.yul\":5756:5757   */\n      dup2\n        /* \"#utility.yul\":5752:5762   */\n      add\n        /* \"#utility.yul\":5747:5762   */\n      swap1\n      pop\n        /* \"#utility.yul\":5723:5836   */\n      jump(tag_146)\n    tag_148:\n        /* \"#utility.yul\":5854:5860   */\n      dup4\n        /* \"#utility.yul\":5851:5852   */\n      dup2\n        /* \"#utility.yul\":5848:5861   */\n      gt\n        /* \"#utility.yul\":5845:5847   */\n      iszero\n      tag_149\n      jumpi\n        /* \"#utility.yul\":5934:5935   */\n      0x00\n        /* \"#utility.yul\":5925:5931   */\n      dup5\n        /* \"#utility.yul\":5920:5923   */\n      dup5\n        /* \"#utility.yul\":5916:5932   */\n      add\n        /* \"#utility.yul\":5909:5936   */\n      mstore\n        /* \"#utility.yul\":5845:5847   */\n    tag_149:\n        /* \"#utility.yul\":5694:5952   */\n      pop\n      pop\n      pop\n      pop\n      jump\t// out\n        /* \"#utility.yul\":5958:6278   */\n    tag_36:\n        /* \"#utility.yul\":6002:6008   */\n      0x00\n        /* \"#utility.yul\":6039:6040   */\n      0x02\n        /* \"#utility.yul\":6033:6037   */\n      dup3\n        /* \"#utility.yul\":6029:6041   */\n      div\n        /* \"#utility.yul\":6019:6041   */\n      swap1\n      pop\n        /* \"#utility.yul\":6086:6087   */\n      0x01\n        /* \"#utility.yul\":6080:6084   */\n      dup3\n        /* \"#utility.yul\":6076:6088   */\n      and\n        /* \"#utility.yul\":6107:6125   */\n      dup1\n        /* \"#utility.yul\":6097:6099   */\n      tag_151\n      jumpi\n        /* \"#utility.yul\":6163:6167   */\n      0x7f\n        /* \"#utility.yul\":6155:6161   */\n      dup3\n        /* \"#utility.yul\":6151:6168   */\n      and\n        /* \"#utility.yul\":6141:6168   */\n      swap2\n      pop\n        /* \"#utility.yul\":6097:6099   */\n    tag_151:\n        /* \"#utility.yul\":6225:6227   */\n      0x20\n        /* \"#utility.yul\":6217:6223   */\n      dup3\n        /* \"#utility.yul\":6214:6228   */\n      lt\n        /* \"#utility.yul\":6194:6212   */\n      dup2\n        /* \"#utility.yul\":6191:6229   */\n      eq\n        /* \"#utility.yul\":6188:6190   */\n      iszero\n      tag_152\n      jumpi\n        /* \"#utility.yul\":6244:6262   */\n      tag_153\n      tag_154\n      jump\t// in\n    tag_153:\n        /* \"#utility.yul\":6188:6190   */\n    tag_152:\n        /* \"#utility.yul\":6009:6278   */\n      pop\n      swap2\n      swap1\n      pop\n      jump\t// out\n        /* \"#utility.yul\":6284:6565   */\n    tag_124:\n        /* \"#utility.yul\":6367:6394   */\n      tag_156\n        /* \"#utility.yul\":6389:6393   */\n      dup3\n        /* \"#utility.yul\":6367:6394   */\n      tag_105\n      jump\t// in\n    tag_156:\n        /* \"#utility.yul\":6359:6365   */\n      dup2\n        /* \"#utility.yul\":6355:6395   */\n      add\n        /* \"#utility.yul\":6497:6503   */\n      dup2\n        /* \"#utility.yul\":6485:6495   */\n      dup2\n        /* \"#utility.yul\":6482:6504   */\n      lt\n        /* \"#utility.yul\":6461:6479   */\n      0xffffffffffffffff\n        /* \"#utility.yul\":6449:6459   */\n      dup3\n        /* \"#utility.yul\":6446:6480   */\n      gt\n        /* \"#utility.yul\":6443:6505   */\n      or\n        /* \"#utility.yul\":6440:6442   */\n      iszero\n      tag_157\n      jumpi\n        /* \"#utility.yul\":6508:6526   */\n      tag_158\n      tag_129\n      jump\t// in\n    tag_158:\n        /* \"#utility.yul\":6440:6442   */\n    tag_157:\n        /* \"#utility.yul\":6548:6558   */\n      dup1\n        /* \"#utility.yul\":6544:6546   */\n      0x40\n        /* \"#utility.yul\":6537:6559   */\n      mstore\n        /* \"#utility.yul\":6327:6565   */\n      pop\n      pop\n      pop\n      jump\t// out\n        /* \"#utility.yul\":6571:6804   */\n    tag_34:\n        /* \"#utility.yul\":6610:6613   */\n      0x00\n        /* \"#utility.yul\":6633:6657   */\n      tag_160\n        /* \"#utility.yul\":6651:6656   */\n      dup3\n        /* \"#utility.yul\":6633:6657   */\n      tag_109\n      jump\t// in\n    tag_160:\n        /* \"#utility.yul\":6624:6657   */\n      swap2\n      pop\n        /* \"#utility.yul\":6679:6745   */\n      0xffffffffffffffffffffffffffffffffffffffffffffffffffffffffffffffff\n        /* \"#utility.yul\":6672:6677   */\n      dup3\n        /* \"#utility.yul\":6669:6746   */\n      eq\n        /* \"#utility.yul\":6666:6668   */\n      iszero\n      tag_161\n      jumpi\n        /* \"#utility.yul\":6749:6767   */\n      tag_162\n      tag_163\n      jump\t// in\n    tag_162:\n        /* \"#utility.yul\":6666:6668   */\n    tag_161:\n        /* \"#utility.yul\":6796:6797   */\n      0x01\n        /* \"#utility.yul\":6789:6794   */\n      dup3\n        /* \"#utility.yul\":6785:6798   */\n      add\n        /* \"#utility.yul\":6778:6798   */\n      swap1\n      pop\n        /* \"#utility.yul\":6614:6804   */\n      swap2\n      swap1\n      pop\n      jump\t// out\n        /* \"#utility.yul\":6810:6990   */\n    tag_163:\n        /* \"#utility.yul\":6858:6935   */\n      0x4e487b7100000000000000000000000000000000000000000000000000000000\n        /* \"#utility.yul\":6855:6856   */\n      0x00\n        /* \"#utility.yul\":6848:6936   */\n      mstore\n        /* \"#utility.yul\":6955:6959   */\n      0x11\n        /* \"#utility.yul\":6952:6953   */\n      0x04\n        /* \"#utility.yul\":6945:6960   */\n      mstore\n        /* \"#utility.yul\":6979:6983   */\n      0x24\n        /* \"#utility.yul\":6976:6977   */\n      0x00\n        /* \"#utility.yul\":6969:6984   */\n      revert\n        /* \"#utility.yul\":6996:7176   */\n    tag_165:\n        /* \"#utility.yul\":7044:7121   */\n      0x4e487b7100000000000000000000000000000000000000000000000000000000\n        /* \"#utility.yul\":7041:7042   */\n      0x00\n        /* \"#utility.yul\":7034:7122   */\n      mstore\n        /* \"#utility.yul\":7141:7145   */\n      0x21\n        /* \"#utility.yul\":7138:7139   */\n      0x04\n        /* \"#utility.yul\":7131:7146   */\n      mstore\n        /* \"#utility.yul\":7165:7169   */\n      0x24\n        /* \"#utility.yul\":7162:7163   */\n      0x00\n        /* \"#utility.yul\":7155:7170   */\n      revert\n        /* \"#utility.yul\":7182:7362   */\n    tag_154:\n        /* \"#utility.yul\":7230:7307   */\n      0x4e487b7100000000000000000000000000000000000000000000000000000000\n        /* \"#utility.yul\":7227:7228   */\n      0x00\n        /* \"#utility.yul\":7220:7308   */\n      mstore\n        /* \"#utility.yul\":7327:7331   */\n      0x22\n        /* \"#utility.yul\":7324:7325   */\n      0x04\n        /* \"#utility.yul\":7317:7332   */\n      mstore\n        /* \"#utility.yul\":7351:7355   */\n      0x24\n        /* \"#utility.yul\":7348:7349   */\n      0x00\n        /* \"#utility.yul\":7341:7356   */\n      revert\n        /* \"#utility.yul\":7368:7548   */\n    tag_129:\n        /* \"#utility.yul\":7416:7493   */\n      0x4e487b7100000000000000000000000000000000000000000000000000000000\n        /* \"#utility.yul\":7413:7414   */\n      0x00\n        /* \"#utility.yul\":7406:7494   */\n      mstore\n        /* \"#utility.yul\":7513:7517   */\n      0x41\n        /* \"#utility.yul\":7510:7511   */\n      0x04\n        /* \"#utility.yul\":7503:7518   */\n      mstore\n        /* \"#utility.yul\":7537:7541   */\n      0x24\n        /* \"#utility.yul\":7534:7535   */\n      0x00\n        /* \"#utility.yul\":7527:7542   */\n      revert\n        /* \"#utility.yul\":7554:7656   */\n    tag_105:\n        /* \"#utility.yul\":7595:7601   */\n      0x00\n        /* \"#utility.yul\":7646:7648   */\n      0x1f\n        /* \"#utility.yul\":7642:7649   */\n      not\n        /* \"#utility.yul\":7637:7639   */\n      0x1f\n        /* \"#utility.yul\":7630:7635   */\n      dup4\n        /* \"#utility.yul\":7626:7640   */\n      add\n        /* \"#utility.yul\":7622:7650   */\n      and\n        /* \"#utility.yul\":7612:7650   */\n      swap1\n      pop\n        /* \"#utility.yul\":7602:7656   */\n      swap2\n      swap1\n      pop\n      jump\t// out\n        /* \"#utility.yul\":7662:7775   */\n    tag_139:\n        /* \"#utility.yul\":7743:7744   */\n      0x03\n        /* \"#utility.yul\":7736:7741   */\n      dup2\n        /* \"#utility.yul\":7733:7745   */\n      lt\n        /* \"#utility.yul\":7723:7725   */\n      tag_171\n      jumpi\n        /* \"#utility.yul\":7749:7767   */\n      tag_172\n      tag_165\n      jump\t// in\n    tag_172:\n        /* \"#utility.yul\":7723:7725   */\n    tag_171:\n        /* \"#utility.yul\":7713:7775   */\n      pop\n      jump\t// out\n        /* \"#utility.yul\":7781:7903   */\n    tag_69:\n        /* \"#utility.yul\":7854:7878   */\n      tag_174\n        /* \"#utility.yul\":7872:7877   */\n      dup2\n        /* \"#utility.yul\":7854:7878   */\n      tag_91\n      jump\t// in\n    tag_174:\n        /* \"#utility.yul\":7847:7852   */\n      dup2\n        /* \"#utility.yul\":7844:7879   */\n      eq\n        /* \"#utility.yul\":7834:7836   */\n      tag_175\n      jumpi\n        /* \"#utility.yul\":7893:7894   */\n      0x00\n        /* \"#utility.yul\":7890:7891   */\n      dup1\n        /* \"#utility.yul\":7883:7895   */\n      revert\n        /* \"#utility.yul\":7834:7836   */\n    tag_175:\n        /* \"#utility.yul\":7824:7903   */\n      pop\n      jump\t// out\n        /* \"#utility.yul\":7909:8031   */\n    tag_77:\n        /* \"#utility.yul\":7982:8006   */\n      tag_177\n        /* \"#utility.yul\":8000:8005   */\n      dup2\n        /* \"#utility.yul\":7982:8006   */\n      tag_109\n      jump\t// in\n    tag_177:\n        /* \"#utility.yul\":7975:7980   */\n      dup2\n        /* \"#utility.yul\":7972:8007   */\n      eq\n        /* \"#utility.yul\":7962:7964   */\n      tag_178\n      jumpi\n        /* \"#utility.yul\":8021:8022   */\n      0x00\n        /* \"#utility.yul\":8018:8019   */\n      dup1\n        /* \"#utility.yul\":8011:8023   */\n      revert\n        /* \"#utility.yul\":7962:7964   */\n    tag_178:\n        /* \"#utility.yul\":7952:8031   */\n      pop\n      jump\t// out\n\n    auxdata: 0xa264697066735822122058fa445050ae5f8ad440971c1a5144d9a5631fdf6f037da145ff223d7bb140bd64736f6c63430008040033\n}\n",
				"bytecode": {
					"linkReferences": {},
					"object": "60806040526000805534801561001457600080fd5b50610a56806100246000396000f3fe608060405234801561001057600080fd5b506004361061004c5760003560e01c8063817c896614610051578063aaa006b214610081578063aab48c521461009f578063e2eb41ff146100bb575b600080fd5b61006b600480360381019061006691906105ab565b6100ef565b604051610078919061071a565b60405180910390f35b610089610148565b6040516100969190610735565b60405180910390f35b6100b960048036038101906100b491906105d4565b61014e565b005b6100d560048036038101906100d091906105ab565b610303565b6040516100e69594939291906106b9565b60405180910390f35b6000600160008373ffffffffffffffffffffffffffffffffffffffff1673ffffffffffffffffffffffffffffffffffffffff16815260200190815260200160002060020160009054906101000a900460ff169050919050565b60005481565b6040518060a001604052803373ffffffffffffffffffffffffffffffffffffffff168152602001848152602001600060028111156101b5577f4e487b7100000000000000000000000000000000000000000000000000000000600052602160045260246000fd5b815260200183815260200182815250600160003373ffffffffffffffffffffffffffffffffffffffff1673ffffffffffffffffffffffffffffffffffffffff16815260200190815260200160002060008201518160000160006101000a81548173ffffffffffffffffffffffffffffffffffffffff021916908373ffffffffffffffffffffffffffffffffffffffff1602179055506020820151816001019080519060200190610266929190610476565b5060408201518160020160006101000a81548160ff021916908360028111156102b8577f4e487b7100000000000000000000000000000000000000000000000000000000600052602160045260246000fd5b02179055506060820151816003015560808201518160040190805190602001906102e3929190610476565b509050506000808154809291906102f9906108c8565b9190505550505050565b60016020528060005260406000206000915090508060000160009054906101000a900473ffffffffffffffffffffffffffffffffffffffff169080600101805461034c90610865565b80601f016020809104026020016040519081016040528092919081815260200182805461037890610865565b80156103c55780601f1061039a576101008083540402835291602001916103c5565b820191906000526020600020905b8154815290600101906020018083116103a857829003601f168201915b5050505050908060020160009054906101000a900460ff16908060030154908060040180546103f390610865565b80601f016020809104026020016040519081016040528092919081815260200182805461041f90610865565b801561046c5780601f106104415761010080835404028352916020019161046c565b820191906000526020600020905b81548152906001019060200180831161044f57829003601f168201915b5050505050905085565b82805461048290610865565b90600052602060002090601f0160209004810192826104a457600085556104eb565b82601f106104bd57805160ff19168380011785556104eb565b828001600101855582156104eb579182015b828111156104ea5782518255916020019190600101906104cf565b5b5090506104f891906104fc565b5090565b5b808211156105155760008160009055506001016104fd565b5090565b600061052c61052784610775565b610750565b90508281526020810184848401111561054457600080fd5b61054f848285610823565b509392505050565b600081359050610566816109f2565b92915050565b600082601f83011261057d57600080fd5b813561058d848260208601610519565b91505092915050565b6000813590506105a581610a09565b92915050565b6000602082840312156105bd57600080fd5b60006105cb84828501610557565b91505092915050565b6000806000606084860312156105e957600080fd5b600084013567ffffffffffffffff81111561060357600080fd5b61060f8682870161056c565b935050602061062086828701610596565b925050604084013567ffffffffffffffff81111561063d57600080fd5b6106498682870161056c565b9150509250925092565b61065c816107c2565b82525050565b61066b81610811565b82525050565b600061067c826107a6565b61068681856107b1565b9350610696818560208601610832565b61069f816109cd565b840191505092915050565b6106b381610807565b82525050565b600060a0820190506106ce6000830188610653565b81810360208301526106e08187610671565b90506106ef6040830186610662565b6106fc60608301856106aa565b818103608083015261070e8184610671565b90509695505050505050565b600060208201905061072f6000830184610662565b92915050565b600060208201905061074a60008301846106aa565b92915050565b600061075a61076b565b90506107668282610897565b919050565b6000604051905090565b600067ffffffffffffffff8211156107905761078f61099e565b5b610799826109cd565b9050602081019050919050565b600081519050919050565b600082825260208201905092915050565b60006107cd826107e7565b9050919050565b60008190506107e2826109de565b919050565b600073ffffffffffffffffffffffffffffffffffffffff82169050919050565b6000819050919050565b600061081c826107d4565b9050919050565b82818337600083830152505050565b60005b83811015610850578082015181840152602081019050610835565b8381111561085f576000848401525b50505050565b6000600282049050600182168061087d57607f821691505b602082108114156108915761089061096f565b5b50919050565b6108a0826109cd565b810181811067ffffffffffffffff821117156108bf576108be61099e565b5b80604052505050565b60006108d382610807565b91507fffffffffffffffffffffffffffffffffffffffffffffffffffffffffffffffff82141561090657610905610911565b5b600182019050919050565b7f4e487b7100000000000000000000000000000000000000000000000000000000600052601160045260246000fd5b7f4e487b7100000000000000000000000000000000000000000000000000000000600052602160045260246000fd5b7f4e487b7100000000000000000000000000000000000000000000000000000000600052602260045260246000fd5b7f4e487b7100000000000000000000000000000000000000000000000000000000600052604160045260246000fd5b6000601f19601f8301169050919050565b600381106109ef576109ee610940565b5b50565b6109fb816107c2565b8114610a0657600080fd5b50565b610a1281610807565b8114610a1d57600080fd5b5056fea264697066735822122058fa445050ae5f8ad440971c1a5144d9a5631fdf6f037da145ff223d7bb140bd64736f6c63430008040033",
					"opcodes": "PUSH1 0x80 PUSH1 0x40 MSTORE PUSH1 0x0 DUP1 SSTORE CALLVALUE DUP1 ISZERO PUSH2 0x14 JUMPI PUSH1 0x0 DUP1 REVERT JUMPDEST POP PUSH2 0xA56 DUP1 PUSH2 0x24 PUSH1 0x0 CODECOPY PUSH1 0x0 RETURN INVALID PUSH1 0x80 PUSH1 0x40 MSTORE CALLVALUE DUP1 ISZERO PUSH2 0x10 JUMPI PUSH1 0x0 DUP1 REVERT JUMPDEST POP PUSH1 0x4 CALLDATASIZE LT PUSH2 0x4C JUMPI PUSH1 0x0 CALLDATALOAD PUSH1 0xE0 SHR DUP1 PUSH4 0x817C8966 EQ PUSH2 0x51 JUMPI DUP1 PUSH4 0xAAA006B2 EQ PUSH2 0x81 JUMPI DUP1 PUSH4 0xAAB48C52 EQ PUSH2 0x9F JUMPI DUP1 PUSH4 0xE2EB41FF EQ PUSH2 0xBB JUMPI JUMPDEST PUSH1 0x0 DUP1 REVERT JUMPDEST PUSH2 0x6B PUSH1 0x4 DUP1 CALLDATASIZE SUB DUP2 ADD SWAP1 PUSH2 0x66 SWAP2 SWAP1 PUSH2 0x5AB JUMP JUMPDEST PUSH2 0xEF JUMP JUMPDEST PUSH1 0x40 MLOAD PUSH2 0x78 SWAP2 SWAP1 PUSH2 0x71A JUMP JUMPDEST PUSH1 0x40 MLOAD DUP1 SWAP2 SUB SWAP1 RETURN JUMPDEST PUSH2 0x89 PUSH2 0x148 JUMP JUMPDEST PUSH1 0x40 MLOAD PUSH2 0x96 SWAP2 SWAP1 PUSH2 0x735 JUMP JUMPDEST PUSH1 0x40 MLOAD DUP1 SWAP2 SUB SWAP1 RETURN JUMPDEST PUSH2 0xB9 PUSH1 0x4 DUP1 CALLDATASIZE SUB DUP2 ADD SWAP1 PUSH2 0xB4 SWAP2 SWAP1 PUSH2 0x5D4 JUMP JUMPDEST PUSH2 0x14E JUMP JUMPDEST STOP JUMPDEST PUSH2 0xD5 PUSH1 0x4 DUP1 CALLDATASIZE SUB DUP2 ADD SWAP1 PUSH2 0xD0 SWAP2 SWAP1 PUSH2 0x5AB JUMP JUMPDEST PUSH2 0x303 JUMP JUMPDEST PUSH1 0x40 MLOAD PUSH2 0xE6 SWAP6 SWAP5 SWAP4 SWAP3 SWAP2 SWAP1 PUSH2 0x6B9 JUMP JUMPDEST PUSH1 0x40 MLOAD DUP1 SWAP2 SUB SWAP1 RETURN JUMPDEST PUSH1 0x0 PUSH1 0x1 PUSH1 0x0 DUP4 PUSH20 0xFFFFFFFFFFFFFFFFFFFFFFFFFFFFFFFFFFFFFFFF AND PUSH20 0xFFFFFFFFFFFFFFFFFFFFFFFFFFFFFFFFFFFFFFFF AND DUP2 MSTORE PUSH1 0x20 ADD SWAP1 DUP2 MSTORE PUSH1 0x20 ADD PUSH1 0x0 KECCAK256 PUSH1 0x2 ADD PUSH1 0x0 SWAP1 SLOAD SWAP1 PUSH2 0x100 EXP SWAP1 DIV PUSH1 0xFF AND SWAP1 POP SWAP2 SWAP1 POP JUMP JUMPDEST PUSH1 0x0 SLOAD DUP2 JUMP JUMPDEST PUSH1 0x40 MLOAD DUP1 PUSH1 0xA0 ADD PUSH1 0x40 MSTORE DUP1 CALLER PUSH20 0xFFFFFFFFFFFFFFFFFFFFFFFFFFFFFFFFFFFFFFFF AND DUP2 MSTORE PUSH1 0x20 ADD DUP5 DUP2 MSTORE PUSH1 0x20 ADD PUSH1 0x0 PUSH1 0x2 DUP2 GT ISZERO PUSH2 0x1B5 JUMPI PUSH32 0x4E487B7100000000000000000000000000000000000000000000000000000000 PUSH1 0x0 MSTORE PUSH1 0x21 PUSH1 0x4 MSTORE PUSH1 0x24 PUSH1 0x0 REVERT JUMPDEST DUP2 MSTORE PUSH1 0x20 ADD DUP4 DUP2 MSTORE PUSH1 0x20 ADD DUP3 DUP2 MSTORE POP PUSH1 0x1 PUSH1 0x0 CALLER PUSH20 0xFFFFFFFFFFFFFFFFFFFFFFFFFFFFFFFFFFFFFFFF AND PUSH20 0xFFFFFFFFFFFFFFFFFFFFFFFFFFFFFFFFFFFFFFFF AND DUP2 MSTORE PUSH1 0x20 ADD SWAP1 DUP2 MSTORE PUSH1 0x20 ADD PUSH1 0x0 KECCAK256 PUSH1 0x0 DUP3 ADD MLOAD DUP2 PUSH1 0x0 ADD PUSH1 0x0 PUSH2 0x100 EXP DUP2 SLOAD DUP2 PUSH20 0xFFFFFFFFFFFFFFFFFFFFFFFFFFFFFFFFFFFFFFFF MUL NOT AND SWAP1 DUP4 PUSH20 0xFFFFFFFFFFFFFFFFFFFFFFFFFFFFFFFFFFFFFFFF AND MUL OR SWAP1 SSTORE POP PUSH1 0x20 DUP3 ADD MLOAD DUP2 PUSH1 0x1 ADD SWAP1 DUP1 MLOAD SWAP1 PUSH1 0x20 ADD SWAP1 PUSH2 0x266 SWAP3 SWAP2 SWAP1 PUSH2 0x476 JUMP JUMPDEST POP PUSH1 0x40 DUP3 ADD MLOAD DUP2 PUSH1 0x2 ADD PUSH1 0x0 PUSH2 0x100 EXP DUP2 SLOAD DUP2 PUSH1 0xFF MUL NOT AND SWAP1 DUP4 PUSH1 0x2 DUP2 GT ISZERO PUSH2 0x2B8 JUMPI PUSH32 0x4E487B7100000000000000000000000000000000000000000000000000000000 PUSH1 0x0 MSTORE PUSH1 0x21 PUSH1 0x4 MSTORE PUSH1 0x24 PUSH1 0x0 REVERT JUMPDEST MUL OR SWAP1 SSTORE POP PUSH1 0x60 DUP3 ADD MLOAD DUP2 PUSH1 0x3 ADD SSTORE PUSH1 0x80 DUP3 ADD MLOAD DUP2 PUSH1 0x4 ADD SWAP1 DUP1 MLOAD SWAP1 PUSH1 0x20 ADD SWAP1 PUSH2 0x2E3 SWAP3 SWAP2 SWAP1 PUSH2 0x476 JUMP JUMPDEST POP SWAP1 POP POP PUSH1 0x0 DUP1 DUP2 SLOAD DUP1 SWAP3 SWAP2 SWAP1 PUSH2 0x2F9 SWAP1 PUSH2 0x8C8 JUMP JUMPDEST SWAP2 SWAP1 POP SSTORE POP POP POP POP JUMP JUMPDEST PUSH1 0x1 PUSH1 0x20 MSTORE DUP1 PUSH1 0x0 MSTORE PUSH1 0x40 PUSH1 0x0 KECCAK256 PUSH1 0x0 SWAP2 POP SWAP1 POP DUP1 PUSH1 0x0 ADD PUSH1 0x0 SWAP1 SLOAD SWAP1 PUSH2 0x100 EXP SWAP1 DIV PUSH20 0xFFFFFFFFFFFFFFFFFFFFFFFFFFFFFFFFFFFFFFFF AND SWAP1 DUP1 PUSH1 0x1 ADD DUP1 SLOAD PUSH2 0x34C SWAP1 PUSH2 0x865 JUMP JUMPDEST DUP1 PUSH1 0x1F ADD PUSH1 0x20 DUP1 SWAP2 DIV MUL PUSH1 0x20 ADD PUSH1 0x40 MLOAD SWAP1 DUP2 ADD PUSH1 0x40 MSTORE DUP1 SWAP3 SWAP2 SWAP1 DUP2 DUP2 MSTORE PUSH1 0x20 ADD DUP3 DUP1 SLOAD PUSH2 0x378 SWAP1 PUSH2 0x865 JUMP JUMPDEST DUP1 ISZERO PUSH2 0x3C5 JUMPI DUP1 PUSH1 0x1F LT PUSH2 0x39A JUMPI PUSH2 0x100 DUP1 DUP4 SLOAD DIV MUL DUP4 MSTORE SWAP2 PUSH1 0x20 ADD SWAP2 PUSH2 0x3C5 JUMP JUMPDEST DUP3 ADD SWAP2 SWAP1 PUSH1 0x0 MSTORE PUSH1 0x20 PUSH1 0x0 KECCAK256 SWAP1 JUMPDEST DUP2 SLOAD DUP2 MSTORE SWAP1 PUSH1 0x1 ADD SWAP1 PUSH1 0x20 ADD DUP1 DUP4 GT PUSH2 0x3A8 JUMPI DUP3 SWAP1 SUB PUSH1 0x1F AND DUP3 ADD SWAP2 JUMPDEST POP POP POP POP POP SWAP1 DUP1 PUSH1 0x2 ADD PUSH1 0x0 SWAP1 SLOAD SWAP1 PUSH2 0x100 EXP SWAP1 DIV PUSH1 0xFF AND SWAP1 DUP1 PUSH1 0x3 ADD SLOAD SWAP1 DUP1 PUSH1 0x4 ADD DUP1 SLOAD PUSH2 0x3F3 SWAP1 PUSH2 0x865 JUMP JUMPDEST DUP1 PUSH1 0x1F ADD PUSH1 0x20 DUP1 SWAP2 DIV MUL PUSH1 0x20 ADD PUSH1 0x40 MLOAD SWAP1 DUP2 ADD PUSH1 0x40 MSTORE DUP1 SWAP3 SWAP2 SWAP1 DUP2 DUP2 MSTORE PUSH1 0x20 ADD DUP3 DUP1 SLOAD PUSH2 0x41F SWAP1 PUSH2 0x865 JUMP JUMPDEST DUP1 ISZERO PUSH2 0x46C JUMPI DUP1 PUSH1 0x1F LT PUSH2 0x441 JUMPI PUSH2 0x100 DUP1 DUP4 SLOAD DIV MUL DUP4 MSTORE SWAP2 PUSH1 0x20 ADD SWAP2 PUSH2 0x46C JUMP JUMPDEST DUP3 ADD SWAP2 SWAP1 PUSH1 0x0 MSTORE PUSH1 0x20 PUSH1 0x0 KECCAK256 SWAP1 JUMPDEST DUP2 SLOAD DUP2 MSTORE SWAP1 PUSH1 0x1 ADD SWAP1 PUSH1 0x20 ADD DUP1 DUP4 GT PUSH2 0x44F JUMPI DUP3 SWAP1 SUB PUSH1 0x1F AND DUP3 ADD SWAP2 JUMPDEST POP POP POP POP POP SWAP1 POP DUP6 JUMP JUMPDEST DUP3 DUP1 SLOAD PUSH2 0x482 SWAP1 PUSH2 0x865 JUMP JUMPDEST SWAP1 PUSH1 0x0 MSTORE PUSH1 0x20 PUSH1 0x0 KECCAK256 SWAP1 PUSH1 0x1F ADD PUSH1 0x20 SWAP1 DIV DUP2 ADD SWAP3 DUP3 PUSH2 0x4A4 JUMPI PUSH1 0x0 DUP6 SSTORE PUSH2 0x4EB JUMP JUMPDEST DUP3 PUSH1 0x1F LT PUSH2 0x4BD JUMPI DUP1 MLOAD PUSH1 0xFF NOT AND DUP4 DUP1 ADD OR DUP6 SSTORE PUSH2 0x4EB JUMP JUMPDEST DUP3 DUP1 ADD PUSH1 0x1 ADD DUP6 SSTORE DUP3 ISZERO PUSH2 0x4EB JUMPI SWAP2 DUP3 ADD JUMPDEST DUP3 DUP2 GT ISZERO PUSH2 0x4EA JUMPI DUP3 MLOAD DUP3 SSTORE SWAP2 PUSH1 0x20 ADD SWAP2 SWAP1 PUSH1 0x1 ADD SWAP1 PUSH2 0x4CF JUMP JUMPDEST JUMPDEST POP SWAP1 POP PUSH2 0x4F8 SWAP2 SWAP1 PUSH2 0x4FC JUMP JUMPDEST POP SWAP1 JUMP JUMPDEST JUMPDEST DUP1 DUP3 GT ISZERO PUSH2 0x515 JUMPI PUSH1 0x0 DUP2 PUSH1 0x0 SWAP1 SSTORE POP PUSH1 0x1 ADD PUSH2 0x4FD JUMP JUMPDEST POP SWAP1 JUMP JUMPDEST PUSH1 0x0 PUSH2 0x52C PUSH2 0x527 DUP5 PUSH2 0x775 JUMP JUMPDEST PUSH2 0x750 JUMP JUMPDEST SWAP1 POP DUP3 DUP2 MSTORE PUSH1 0x20 DUP2 ADD DUP5 DUP5 DUP5 ADD GT ISZERO PUSH2 0x544 JUMPI PUSH1 0x0 DUP1 REVERT JUMPDEST PUSH2 0x54F DUP5 DUP3 DUP6 PUSH2 0x823 JUMP JUMPDEST POP SWAP4 SWAP3 POP POP POP JUMP JUMPDEST PUSH1 0x0 DUP2 CALLDATALOAD SWAP1 POP PUSH2 0x566 DUP2 PUSH2 0x9F2 JUMP JUMPDEST SWAP3 SWAP2 POP POP JUMP JUMPDEST PUSH1 0x0 DUP3 PUSH1 0x1F DUP4 ADD SLT PUSH2 0x57D JUMPI PUSH1 0x0 DUP1 REVERT JUMPDEST DUP2 CALLDATALOAD PUSH2 0x58D DUP5 DUP3 PUSH1 0x20 DUP7 ADD PUSH2 0x519 JUMP JUMPDEST SWAP2 POP POP SWAP3 SWAP2 POP POP JUMP JUMPDEST PUSH1 0x0 DUP2 CALLDATALOAD SWAP1 POP PUSH2 0x5A5 DUP2 PUSH2 0xA09 JUMP JUMPDEST SWAP3 SWAP2 POP POP JUMP JUMPDEST PUSH1 0x0 PUSH1 0x20 DUP3 DUP5 SUB SLT ISZERO PUSH2 0x5BD JUMPI PUSH1 0x0 DUP1 REVERT JUMPDEST PUSH1 0x0 PUSH2 0x5CB DUP5 DUP3 DUP6 ADD PUSH2 0x557 JUMP JUMPDEST SWAP2 POP POP SWAP3 SWAP2 POP POP JUMP JUMPDEST PUSH1 0x0 DUP1 PUSH1 0x0 PUSH1 0x60 DUP5 DUP7 SUB SLT ISZERO PUSH2 0x5E9 JUMPI PUSH1 0x0 DUP1 REVERT JUMPDEST PUSH1 0x0 DUP5 ADD CALLDATALOAD PUSH8 0xFFFFFFFFFFFFFFFF DUP2 GT ISZERO PUSH2 0x603 JUMPI PUSH1 0x0 DUP1 REVERT JUMPDEST PUSH2 0x60F DUP7 DUP3 DUP8 ADD PUSH2 0x56C JUMP JUMPDEST SWAP4 POP POP PUSH1 0x20 PUSH2 0x620 DUP7 DUP3 DUP8 ADD PUSH2 0x596 JUMP JUMPDEST SWAP3 POP POP PUSH1 0x40 DUP5 ADD CALLDATALOAD PUSH8 0xFFFFFFFFFFFFFFFF DUP2 GT ISZERO PUSH2 0x63D JUMPI PUSH1 0x0 DUP1 REVERT JUMPDEST PUSH2 0x649 DUP7 DUP3 DUP8 ADD PUSH2 0x56C JUMP JUMPDEST SWAP2 POP POP SWAP3 POP SWAP3 POP SWAP3 JUMP JUMPDEST PUSH2 0x65C DUP2 PUSH2 0x7C2 JUMP JUMPDEST DUP3 MSTORE POP POP JUMP JUMPDEST PUSH2 0x66B DUP2 PUSH2 0x811 JUMP JUMPDEST DUP3 MSTORE POP POP JUMP JUMPDEST PUSH1 0x0 PUSH2 0x67C DUP3 PUSH2 0x7A6 JUMP JUMPDEST PUSH2 0x686 DUP2 DUP6 PUSH2 0x7B1 JUMP JUMPDEST SWAP4 POP PUSH2 0x696 DUP2 DUP6 PUSH1 0x20 DUP7 ADD PUSH2 0x832 JUMP JUMPDEST PUSH2 0x69F DUP2 PUSH2 0x9CD JUMP JUMPDEST DUP5 ADD SWAP2 POP POP SWAP3 SWAP2 POP POP JUMP JUMPDEST PUSH2 0x6B3 DUP2 PUSH2 0x807 JUMP JUMPDEST DUP3 MSTORE POP POP JUMP JUMPDEST PUSH1 0x0 PUSH1 0xA0 DUP3 ADD SWAP1 POP PUSH2 0x6CE PUSH1 0x0 DUP4 ADD DUP9 PUSH2 0x653 JUMP JUMPDEST DUP2 DUP2 SUB PUSH1 0x20 DUP4 ADD MSTORE PUSH2 0x6E0 DUP2 DUP8 PUSH2 0x671 JUMP JUMPDEST SWAP1 POP PUSH2 0x6EF PUSH1 0x40 DUP4 ADD DUP7 PUSH2 0x662 JUMP JUMPDEST PUSH2 0x6FC PUSH1 0x60 DUP4 ADD DUP6 PUSH2 0x6AA JUMP JUMPDEST DUP2 DUP2 SUB PUSH1 0x80 DUP4 ADD MSTORE PUSH2 0x70E DUP2 DUP5 PUSH2 0x671 JUMP JUMPDEST SWAP1 POP SWAP7 SWAP6 POP POP POP POP POP POP JUMP JUMPDEST PUSH1 0x0 PUSH1 0x20 DUP3 ADD SWAP1 POP PUSH2 0x72F PUSH1 0x0 DUP4 ADD DUP5 PUSH2 0x662 JUMP JUMPDEST SWAP3 SWAP2 POP POP JUMP JUMPDEST PUSH1 0x0 PUSH1 0x20 DUP3 ADD SWAP1 POP PUSH2 0x74A PUSH1 0x0 DUP4 ADD DUP5 PUSH2 0x6AA JUMP JUMPDEST SWAP3 SWAP2 POP POP JUMP JUMPDEST PUSH1 0x0 PUSH2 0x75A PUSH2 0x76B JUMP JUMPDEST SWAP1 POP PUSH2 0x766 DUP3 DUP3 PUSH2 0x897 JUMP JUMPDEST SWAP2 SWAP1 POP JUMP JUMPDEST PUSH1 0x0 PUSH1 0x40 MLOAD SWAP1 POP SWAP1 JUMP JUMPDEST PUSH1 0x0 PUSH8 0xFFFFFFFFFFFFFFFF DUP3 GT ISZERO PUSH2 0x790 JUMPI PUSH2 0x78F PUSH2 0x99E JUMP JUMPDEST JUMPDEST PUSH2 0x799 DUP3 PUSH2 0x9CD JUMP JUMPDEST SWAP1 POP PUSH1 0x20 DUP2 ADD SWAP1 POP SWAP2 SWAP1 POP JUMP JUMPDEST PUSH1 0x0 DUP2 MLOAD SWAP1 POP SWAP2 SWAP1 POP JUMP JUMPDEST PUSH1 0x0 DUP3 DUP3 MSTORE PUSH1 0x20 DUP3 ADD SWAP1 POP SWAP3 SWAP2 POP POP JUMP JUMPDEST PUSH1 0x0 PUSH2 0x7CD DUP3 PUSH2 0x7E7 JUMP JUMPDEST SWAP1 POP SWAP2 SWAP1 POP JUMP JUMPDEST PUSH1 0x0 DUP2 SWAP1 POP PUSH2 0x7E2 DUP3 PUSH2 0x9DE JUMP JUMPDEST SWAP2 SWAP1 POP JUMP JUMPDEST PUSH1 0x0 PUSH20 0xFFFFFFFFFFFFFFFFFFFFFFFFFFFFFFFFFFFFFFFF DUP3 AND SWAP1 POP SWAP2 SWAP1 POP JUMP JUMPDEST PUSH1 0x0 DUP2 SWAP1 POP SWAP2 SWAP1 POP JUMP JUMPDEST PUSH1 0x0 PUSH2 0x81C DUP3 PUSH2 0x7D4 JUMP JUMPDEST SWAP1 POP SWAP2 SWAP1 POP JUMP JUMPDEST DUP3 DUP2 DUP4 CALLDATACOPY PUSH1 0x0 DUP4 DUP4 ADD MSTORE POP POP POP JUMP JUMPDEST PUSH1 0x0 JUMPDEST DUP4 DUP2 LT ISZERO PUSH2 0x850 JUMPI DUP1 DUP3 ADD MLOAD DUP2 DUP5 ADD MSTORE PUSH1 0x20 DUP2 ADD SWAP1 POP PUSH2 0x835 JUMP JUMPDEST DUP4 DUP2 GT ISZERO PUSH2 0x85F JUMPI PUSH1 0x0 DUP5 DUP5 ADD MSTORE JUMPDEST POP POP POP POP JUMP JUMPDEST PUSH1 0x0 PUSH1 0x2 DUP3 DIV SWAP1 POP PUSH1 0x1 DUP3 AND DUP1 PUSH2 0x87D JUMPI PUSH1 0x7F DUP3 AND SWAP2 POP JUMPDEST PUSH1 0x20 DUP3 LT DUP2 EQ ISZERO PUSH2 0x891 JUMPI PUSH2 0x890 PUSH2 0x96F JUMP JUMPDEST JUMPDEST POP SWAP2 SWAP1 POP JUMP JUMPDEST PUSH2 0x8A0 DUP3 PUSH2 0x9CD JUMP JUMPDEST DUP2 ADD DUP2 DUP2 LT PUSH8 0xFFFFFFFFFFFFFFFF DUP3 GT OR ISZERO PUSH2 0x8BF JUMPI PUSH2 0x8BE PUSH2 0x99E JUMP JUMPDEST JUMPDEST DUP1 PUSH1 0x40 MSTORE POP POP POP JUMP JUMPDEST PUSH1 0x0 PUSH2 0x8D3 DUP3 PUSH2 0x807 JUMP JUMPDEST SWAP2 POP PUSH32 0xFFFFFFFFFFFFFFFFFFFFFFFFFFFFFFFFFFFFFFFFFFFFFFFFFFFFFFFFFFFFFFFF DUP3 EQ ISZERO PUSH2 0x906 JUMPI PUSH2 0x905 PUSH2 0x911 JUMP JUMPDEST JUMPDEST PUSH1 0x1 DUP3 ADD SWAP1 POP SWAP2 SWAP1 POP JUMP JUMPDEST PUSH32 0x4E487B7100000000000000000000000000000000000000000000000000000000 PUSH1 0x0 MSTORE PUSH1 0x11 PUSH1 0x4 MSTORE PUSH1 0x24 PUSH1 0x0 REVERT JUMPDEST PUSH32 0x4E487B7100000000000000000000000000000000000000000000000000000000 PUSH1 0x0 MSTORE PUSH1 0x21 PUSH1 0x4 MSTORE PUSH1 0x24 PUSH1 0x0 REVERT JUMPDEST PUSH32 0x4E487B7100000000000000000000000000000000000000000000000000000000 PUSH1 0x0 MSTORE PUSH1 0x22 PUSH1 0x4 MSTORE PUSH1 0x24 PUSH1 0x0 REVERT JUMPDEST PUSH32 0x4E487B7100000000000000000000000000000000000000000000000000000000 PUSH1 0x0 MSTORE PUSH1 0x41 PUSH1 0x4 MSTORE PUSH1 0x24 PUSH1 0x0 REVERT JUMPDEST PUSH1 0x0 PUSH1 0x1F NOT PUSH1 0x1F DUP4 ADD AND SWAP1 POP SWAP2 SWAP1 POP JUMP JUMPDEST PUSH1 0x3 DUP2 LT PUSH2 0x9EF JUMPI PUSH2 0x9EE PUSH2 0x940 JUMP JUMPDEST JUMPDEST POP JUMP JUMPDEST PUSH2 0x9FB DUP2 PUSH2 0x7C2 JUMP JUMPDEST DUP2 EQ PUSH2 0xA06 JUMPI PUSH1 0x0 DUP1 REVERT JUMPDEST POP JUMP JUMPDEST PUSH2 0xA12 DUP2 PUSH2 0x807 JUMP JUMPDEST DUP2 EQ PUSH2 0xA1D JUMPI PUSH1 0x0 DUP1 REVERT JUMPDEST POP JUMP INVALID LOG2 PUSH5 0x6970667358 0x22 SLT KECCAK256 PC STATICCALL DIFFICULTY POP POP 0xAE 0x5F DUP11 0xD4 BLOCKHASH SWAP8 SHR BYTE MLOAD DIFFICULTY 0xD9 0xA5 PUSH4 0x1FDF6F03 PUSH30 0xA145FF223D7BB140BD64736F6C6343000804003300000000000000000000 "
				},
				"gasEstimates": {
					"creation": {
						"codeDepositCost": "529200",
						"executionCost": "5568",
						"totalCost": "534768"
					},
					"external": {
						"addPlayer(string,uint256,string)": "infinite",
						"countPlayer()": "1129",
						"getLevel(address)": "1656",
						"players(address)": "infinite"
					}
				},
				"methodIdentifiers": {
					"addPlayer(string,uint256,string)": "aab48c52",
					"countPlayer()": "aaa006b2",
					"getLevel(address)": "817c8966",
					"players(address)": "e2eb41ff"
				}
			},
			"storageLayout": {
				"storage": [
					{
						"astId": 4,
						"contract": "contracts/Solidity/Datatype.sol:DataType",
						"label": "countPlayer",
						"offset": 0,
						"slot": "0",
						"type": "t_uint256"
					},
					{
						"astId": 21,
						"contract": "contracts/Solidity/Datatype.sol:DataType",
						"label": "players",
						"offset": 0,
						"slot": "1",
						"type": "t_mapping(t_address,t_struct(Player)16_storage)"
					}
				],
				"types": {
					"t_address": {
						"encoding": "inplace",
						"label": "address",
						"numberOfBytes": "20"
					},
					"t_enum(Level)25": {
						"encoding": "inplace",
						"label": "enum DataType.Level",
						"numberOfBytes": "1"
					},
					"t_mapping(t_address,t_struct(Player)16_storage)": {
						"encoding": "mapping",
						"key": "t_address",
						"label": "mapping(address => struct DataType.Player)",
						"numberOfBytes": "32",
						"value": "t_struct(Player)16_storage"
					},
					"t_string_storage": {
						"encoding": "bytes",
						"label": "string",
						"numberOfBytes": "32"
					},
					"t_struct(Player)16_storage": {
						"encoding": "inplace",
						"label": "struct DataType.Player",
						"members": [
							{
								"astId": 6,
								"contract": "contracts/Solidity/Datatype.sol:DataType",
								"label": "addressPlayer",
								"offset": 0,
								"slot": "0",
								"type": "t_address"
							},
							{
								"astId": 8,
								"contract": "contracts/Solidity/Datatype.sol:DataType",
								"label": "FullName",
								"offset": 0,
								"slot": "1",
								"type": "t_string_storage"
							},
							{
								"astId": 11,
								"contract": "contracts/Solidity/Datatype.sol:DataType",
								"label": "myLevel",
								"offset": 0,
								"slot": "2",
								"type": "t_enum(Level)25"
							},
							{
								"astId": 13,
								"contract": "contracts/Solidity/Datatype.sol:DataType",
								"label": "age",
								"offset": 0,
								"slot": "3",
								"type": "t_uint256"
							},
							{
								"astId": 15,
								"contract": "contracts/Solidity/Datatype.sol:DataType",
								"label": "sex",
								"offset": 0,
								"slot": "4",
								"type": "t_string_storage"
							}
						],
						"numberOfBytes": "160"
					},
					"t_uint256": {
						"encoding": "inplace",
						"label": "uint256",
						"numberOfBytes": "32"
					}
				}
			},
			"userdoc": {
				"kind": "user",
				"methods": {},
				"version": 1
			}
		}
	}
}